:100000000C948A000C94B2000C94B2000C94B200D0
:100010000C94B2000C94B2000C94B2000C94B20098
:100020000C94C30E0C94880E0C94570E0C947D0EF9
:100030000C94B2000C94B2000C9463110C94B200B6
:100040000C9415110C94B2000C940A1A0C94B20082
:100050000C943E1A0C9441120C94B2000C94B20011
:100060000C94B2000C94B200D907F607FA07010805
:1000700018084F0948084F0923084F0930084F094D
:10008000530860088B089D084F0931094F093F0943
:100090004F094F096C0813084F0909080E084F094A
:1000A0004F094F0973087C08B408BB08E107C8086A
:1000B000D108FD084F094F094A09010049033600DC
:1000C000FF006B00D100A000B800D500A6000A0117
:1000D00099003F018E0074018400A9017C00DE01BB
:1000E000740013026C00480265007D025D00B202DC
:1000F0005600E7024E001C03460051033D008603F4
:100100003200BB032200F0030300EA09FA0EE011FB
:100110009412741A11241FBECFEFD4E0DEBFCDBFFE
:1001200012E0A0E0B1E0E8EAF6E302C005900D922B
:10013000AC32B107D9F713E0ACE2B2E001C01D92D6
:10014000AB39B107E1F711E0C4E1D1E004C0229777
:10015000FE010E941D1BCA30D107C9F70E94000A88
:100160000C94521B0C940000A0E0B0E0EAEBF0E02D
:100170000C94E81AFC01EA018081823008F438C14D
:10018000DB019C91923008F430C1843059F49430F2
:1001900009F02EC1918111968C911197981709F051
:1001A00021C126C1943009F420C19230B1F48230CB
:1001B00009F01EC1CA01AF0128E0DA010D90AD01BE
:1001C000DC010D92CD012150C1F7DB0111968C911C
:1001D00011979181892389830AC1823009F405C16D
:1001E000C280D380DB0112966D907C90139724819E
:1001F0003581468157811496ED90FD900D911C91AB
:100200001797C601861997095C0197FF04C0AA24B5
:10021000BB24A81AB90AB0E2AB16B1040CF061C055
:10022000181619066CF5370148010A2C04C096947B
:100230008794779467940A94D2F781E090E0A0E0E5
:10024000B0E00A2C04C0880F991FAA1FBB1F0A9494
:10025000D2F70197A109B1098E219F21A023B123D3
:10026000EE24FF248701E3940097A105B10519F45A
:10027000EE24FF248701E628F728082919293CC025
:100280000097D1F1CA0CDB1C39014A010A2C04C0C9
:1002900096948794779467940A94D2F781E090E0DB
:1002A000A0E0B0E00A2C04C0880F991FAA1FBB1F52
:1002B0000A94D2F70197A109B10982239323A423B9
:1002C000B52321E030E040E050E00097A105B10502
:1002D00019F420E030E0A9012629372948295929B5
:1002E0000BC06C147D0424F4EE24FF24870104C0A9
:1002F000630120E030E0A9018181FB019181891730
:1003000009F445C0882349F0D801C701821B930B2B
:10031000A40BB50B9C01AD0104C02E193F09400B85
:10032000510B57FD04C01982DB82CA820BC081E0E9
:100330008983DB82CA8250954095309521953F4F45
:100340004F4F5F4F2C833D834E835F830DC0880FDB
:10035000991FAA1FBB1F8C839D83AE83BF838A8195
:100360009B8101979B838A838C819D81AE81BF8114
:100370009C01AD0121503040404050402F3FEFEFF5
:100380003E07EFEF4E07EFE35E0708F30BC08983EC
:10039000DB82CA822E0D3F1D401F511F2C833D83DF
:1003A0004E835F8383E088832C813D814E815F8112
:1003B00057FF1DC0DA01C90181709070A070B07044
:1003C0005695479537952795822B932BA42BB52BC4
:1003D0008C839D83AE83BF838A819B8101969B839F
:1003E0008A8305C0E9E0F1E003C0FB0101C0FE0122
:1003F000CF01CDB7DEB7EEE00C94041BA0E2B0E075
:10040000E4E0F2E00C94F01A69837A838B839C8396
:100410002D833E834F83588789E0E82EF12CEC0E24
:10042000FD1ECE010196B7010E94D8058E010F5E18
:100430001F4FCE010596B8010E94D805C701B8012B
:10044000AE01475E5F4F0E94B4000E940A05A0966D
:10045000E6E00C940C1BA0E2B0E0E1E3F2E00C94C7
:10046000F01A69837A838B839C832D833E834F8329
:1004700058878E01075F1F4FCE010196B8010E9479
:10048000D80591E1E92EF12CEC0EFD1ECE0105966A
:10049000B7010E94D8058A8991E089278A8BC80113
:1004A000B701AE01475E5F4F0E94B4000E940A058B
:1004B000A096E6E00C940C1BA0E2B0E0E2E6F2E0CD
:1004C0000C94E41A69837A838B839C832D833E8307
:1004D0004F835887CE010196BE01675F7F4F0E9410
:1004E000D805CE010596BE016F5E7F4F0E94D805EC
:1004F0009985923078F089898230C0F0943019F46F
:10050000823041F4CBC0843019F4923079F4C6C003
:10051000923051F481E02A859A89291709F480E004
:100520008A87CE010996BCC0823051F481E02A85C9
:100530009A89291709F480E08A8BCE014196B0C0D0
:100540006D847E848F849888ED88FE880F89188D4D
:10055000E0E2F0E080E090E0DC01AA24BB24650149
:1005600020E030E0A901B301617070706115710580
:10057000D1F02E0D3F1D401F511F15012601280EE1
:10058000391E4A1E5B1E81E090E0A0E0B0E02E150F
:100590003F054007510718F080E090E0DC01820D34
:1005A000931DA41DB51DAA0CBB1CCC1CDD1C17FF84
:1005B00009C061E0262E312C412C512CA228B328F1
:1005C000C428D528319749F0EE0CFF1C001F111FDD
:1005D0009694879477946794C6CF6B897C89EB85D2
:1005E000FC856E0F7F1F6E5F7F4F7C8F6B8F61E08E
:1005F000EA857A89E71709F460E06A8F6B8D7C8D54
:1006000010C0FC01E170F070309729F056954795C5
:10061000379527955068B695A795979587956F5FFD
:100620007F4FB7FDEECF0CC0880F991FAA1FBB1FCD
:1006300057FD8160220F331F441F551F61507040CA
:100640008030E0E09E07E0E0AE07E0E4BE0760F344
:100650006B8F7C8F6FE7E62EF12C012D112DE82298
:10066000F9220A231B2360E4E616F10401051105B3
:1006700061F487FD0AC0211531054105510529F0B6
:10068000805C9F4FAF4FBF4F80788D8F9E8FAF8F15
:10069000B8A383E0898FCE01499602C089E091E03A
:1006A0000E940A05A096E2E10C94001BA8E1B0E0CC
:1006B000ECE5F3E00C94F01A69837A838B839C83D6
:1006C0002D833E834F8358878E01075F1F4FCE01D6
:1006D0000196B8010E94D80581E1E82EF12CEC0EBC
:1006E000FD1ECE010596B7010E94D805898582308E
:1006F00040F08989823028F0C801B7010E94410684
:1007000001C081E06896E6E00C940C1BA8E0B0E024
:10071000ECE8F3E00C94F01A7B018C0183E0898310
:10072000D801C7018827B7FD83959927AA27BB273A
:10073000282F8A83E114F1040105110519F482E0E0
:10074000898337C08EE190E09C838B83222389F0DC
:1007500080E0E81680E0F80680E0080780E81807E7
:1007600069F110950095F094E094E11CF11C011DD5
:10077000111DED82FE820F831887C801B7010E9408
:10078000B0049C01215030401216130694F4022E3E
:1007900004C0EE0CFF1C001F111F0A94D2F7ED825B
:1007A000FE820F8318878EE190E0821B930B9C835F
:1007B0008B83CE0101960E940A0504C060E070E0C0
:1007C00080E09FEC2896E6E00C940C1BACE0B0E0D7
:1007D000ECEEF3E00C94F41A69837A838B839C83A8
:1007E000CE010196BE016B5F7F4F0E94D8058D81BF
:1007F000823081F1823070F1843021F48E8188233F
:1008000069F10AC02F81388537FD24C06E812F31F0
:1008100031053CF0662311F120E030E040E050E883
:1008200021C08EE190E0821B930B29853A854B8590
:100830005C8504C056954795379527958A95D2F7DC
:10084000662381F050954095309521953F4F4F4F4D
:100850005F4F08C020E030E0A90104C02FEF3FEF58
:100860004FEF5FE7B901CA012C96E2E00C94101B30
:10087000A8E0B0E0EEE3F4E00C94EE1A7B018C010A
:100880001A82611571058105910519F482E0898349
:100890005FC083E089838EE1C82ED12CDC82CB82BD
:1008A000ED82FE820F831887C801B7010E94B00451
:1008B000FC013197F7FF3AC0AA27BB27AE1BBF0B3D
:1008C00021E030E040E050E00A2E04C0220F331F48
:1008D000441F551F0A94D2F72150304040405040E9
:1008E0002E213F214023512361E070E080E090E021
:1008F000211531054105510519F460E070E0CB0187
:1009000004C016950795F794E794AA95D2F7E62ABE
:10091000F72A082B192BED82FE820F8318878EE1B0
:1009200090E08E1B9F0B9C838B8312C0309781F0CD
:100930000E2E04C0EE0CFF1C001F111F0A94D2F7EC
:10094000ED82FE820F831887CE1ADF0ADC82CB820B
:10095000CE0101960E940A052896E8E00C940A1B35
:10096000AF92BF92CF92DF92EF92FF920F931F93BD
:100970007B018C0180E0E81680E0F80681E0080742
:1009800080E0180758F4EFEFEE16F10401051105A9
:1009900009F090F480E090E0DC0117C0F0E0EF1681
:1009A000F0E0FF06F0E00F07F1E01F0750F480E1F0
:1009B00090E0A0E0B0E009C088E090E0A0E0B0E006
:1009C00004C088E190E0A0E0B0E020E230E040E048
:1009D00050E0281B390B4A0B5B0B5701680104C020
:1009E000D694C794B794A7948A95D2F7D601C50137
:1009F0008F5E9E4FFC018081281B310941095109FE
:100A0000C9011F910F91FF90EF90DF90CF90BF90A1
:100A1000AF900895EF92FF920F931F93CF93DF93C0
:100A2000FC0124813581468157816181808182303A
:100A300020F44061EFEFF0E0A3C0843009F49BC0E4
:100A4000823009F492C0211531054105510509F4A0
:100A50008FC00280F381E02D8FEFE238F8070CF0B1
:100A60005AC0C2E8DFEFCE1BDF0BCA31D1056CF5EF
:100A700079018A010C2E04C016950795F794E79426
:100A80000A94D2F781E090E0A0E0B0E00C2E04C020
:100A9000880F991FAA1FBB1F0A94D2F70197A109BB
:100AA000B10982239323A423B52321E030E040E061
:100AB00050E00097A105B10519F420E030E0A9014C
:100AC0002E293F29402B512B03C020E030E0A90103
:100AD000DA01C9018F779070A070B07080349105F1
:100AE000A105B10539F427FF09C0205C3F4F4F4FE6
:100AF0005F4F04C0215C3F4F4F4F5F4FE1E0F0E09C
:100B0000203080E0380780E0480780E4580728F567
:100B1000E0E0F0E022C0E038F1056CF5E158FF4F6D
:100B2000DA01C9018F779070A070B07080349105A0
:100B3000A105B10539F427FF09C0205C3F4F4F4F95
:100B40005F4F04C0215C3F4F4F4F5F4F57FF05C0C1
:100B50005695479537952795319687E05695479551
:100B6000379527958A95D1F70BC0E0E0F0E005C0F6
:100B7000E0E0F0E005C0EFEFF0E020E030E0A901B8
:100B80008E2F879588278795942F9F77679566275F
:100B90006795E695E22EA92FA82BFE2FF62B622F44
:100BA000732F8A2F9F2FCDB7DEB7E6E00C940C1B76
:100BB000DC01FB012C9111963C91119712968C91BE
:100BC0001297482F4F7750E0982F991F9927991F18
:100BD00013966C911397862F880F892B90E0661FD0
:100BE0006627661F6183009739F521153105410598
:100BF000510511F482E029C082E89FEF938382833C
:100C000067E0220F331F441F551F6A95D1F783E019
:100C1000808309C0220F331F441F551F8281938197
:100C2000019793838283203080E0380780E0480773
:100C300080E4580778F320C08F3F910579F421159F
:100C400031054105510519F484E08083089544FF7E
:100C500003C081E0808310C010820EC08F57904087
:100C60009383828383E0808387E0220F331F441FB6
:100C7000551F8A95D1F75064248335834683578363
:100C80000895FC01DB019081923008F449C08C91F9
:100C9000823008F445C0943051F461818430B1F55C
:100CA00011962C91119730E0261B310941C08430F8
:100CB00021F0923041F48230B1F111968C9111976C
:100CC0008823A1F12DC06181823001F111968C91B0
:100CD00011976817D9F42281338112968D919C91D6
:100CE00013978217930794F028173907BCF02481D3
:100CF00035814681578114968D919D910D90BC91BF
:100D0000A02D82179307A407B50718F4662341F0B6
:100D10000DC0281739074A075B0728F4662331F00E
:100D200021E030E005C020E030E002C02FEF3FEFCF
:100D3000C9010895AF92BF92CF92DF92EF92FF92D6
:100D40000F931F93CF93DF93EC017B01888188235E
:100D500061F15E01DC2ECB2CCE0160E00E94021717
:100D6000982F8077803709F59037C1F4C7010E942A
:100D70003A1701E010E00BC08D2D9C2D602F0E94D2
:100D80000217682FC7010E947A170F5F1F4F288133
:100D900030E00217130784F381E008C0913729F08F
:100DA000923719F081E0933709F080E0DF91CF911D
:100DB0001F910F91FF90EF90DF90CF90BF90AF9079
:100DC000089582E090E06BE10E94441B0895FC01CD
:100DD00083A194A1009741F023A134A181E02430A4
:100DE000310519F480E0089580E00895AF92BF9234
:100DF000CF92DF92EF92FF920F931F93DF93CF93E7
:100E0000CDB7DEB760970FB6F894DEBF0FBECDBF8B
:100E1000B82E092F6B0162E00E9407177C018B2D11
:100E2000902F64E00E940217B82E813128F0C6018D
:100E300062E80E947A171EC08E010F5F1F4FC80123
:100E4000B7014B2D50E00E942A1BC60161E80E94A9
:100E50007A17780100E010E0AB2CBB2408C0F70142
:100E600061917F01C6010E947A170F5F1F4F0A151B
:100E70001B05ACF360960FB6F894DEBF0FBECDBF76
:100E8000CF91DF911F910F91FF90EF90DF90CF9066
:100E9000BF90AF9008954F925F927F928F929F92F2
:100EA000AF92BF92CF92DF92EF92FF920F931F9378
:100EB000DF93CF93CDB7DEB760970FB6F894DEBF60
:100EC0000FBECDBF982EC92E5B0162E00E940717AE
:100ED000882E792E892D9C2D64E00E940217D82E31
:100EE000813118F0C50162E82CC08E010F5F1F4FE1
:100EF000C801682D772D4D2D50E00E942A1B7801E6
:100F000000E010E04D2C55240BC0602F6B5F892D45
:100F10009C2D0E940217F70181937F010F5F1F4FE5
:100F20000415150594F3CE010196682D772D4D2DEE
:100F300050E00E943A1BC50161E80E947A17C50182
:100F40006D2D0E947A1760960FB6F894DEBF0FBE23
:100F5000CDBFCF91DF911F910F91FF90EF90DF9068
:100F6000CF90BF90AF909F908F907F905F904F9069
:100F70000895EF92FF920F931F93CF93DF938C010D
:100F8000EB01FC018081882309F489C17801C80143
:100F900061E00E940217E82FF0E0E932F10508F065
:100FA0007EC1EC5CFF4FEE0FFF1F0590F491E02D2A
:100FB0000994CE0161E80E947A17CE016CE271E0DB
:100FC000E4C0CE0161E80E947A1700E011E0F80168
:100FD000F1908F01CE016F2D0E947A17FF2009F446
:100FE00060C1F1E00F311F0791F75BC181E0809391
:100FF000360250C1CE0161E80E947A1780E992E082
:1010000078C0C80162E00E940717BC0180E992E045
:101010007FC0C801BE010E94F60643C1C801BE01DF
:101020000E944B073EC187E392E00E94270B32C12A
:10103000C80162E00E940217682F87E392E070E027
:101040000E94100B27C1C80162E00E94021761E0F4
:10105000813009F060E087E392E00E942D0B1AC115
:10106000C80162E00E94021761E081FF60E087E34F
:1010700092E00E942D0BC70162E00E940217682FC8
:1010800070E06170707087E392E00E94300B02C1E3
:10109000C80162E00E941A17AB01BC0187E392E02D
:1010A0000E94150BF7C0C80162E00E940217682F6A
:1010B00070E06170707087E392E00E94DB0DEAC01F
:1010C000C80162E00E940217682F70E061707070C2
:1010D00087E392E00E94E80DCE0161E80E947A1752
:1010E00080E992E05BC0CE0161E80E947A1784ED4E
:1010F00092E00E94471447C087E392E061E00E94BB
:10110000520EC80162E00E940717BC0184ED92E014
:101110000E942914BFC0C80162E00E9402178F3FDD
:1011200021F487E392E060E011C0482F853B08F08E
:1011300044EB87E392E060E013C0C80162E00E94E4
:1011400002178F3F31F487E392E061E04FEF5FEFEA
:1011500008C0482F853B08F044EB87E392E061E04C
:1011600050E00E94250C96C0CE0161E80E947A17DB
:1011700080E992E006C0CE0161E80E947A1784ED12
:1011800092E00E944314BC01CE010E947D1789C0E9
:10119000CE0161E80E947A1784ED92E00E942D143E
:1011A00076C0CE0161E80E947A1780E992E00E9441
:1011B0001615882311F000E801C000E084ED92E0EC
:1011C0000E941615882311F010E401C010E087E397
:1011D00092E00E940F0CF82E80E992E00E942D14FC
:1011E000612F602B682B2F2D30E02F703070220F75
:1011F000331F220F331F622B4BC0CE0161E80E94C8
:101200007A1780E992E00E944F14BC01CE010E943F
:101210007D1780E992E00E945314BC01CE010E9428
:101220007D1780E992E00E945714BC01CE010E9414
:101230007D1784ED92E00E944F14BC01CE010E9404
:101240007D1784ED92E00E945314BC01CE010E94F0
:101250007D1784ED92E00E945714BC01CE010E94DC
:101260007D17CE0161E80E947A1787E392E00E9421
:101270001D0BAB01BC01CE010E94931712C0CE0121
:1012800061E80E947A1787E392E00E94230B682F9F
:10129000CE0102C0CE0161E80E947A1702C080E050
:1012A00001C081E0DF91CF911F910F91FF90EF90EE
:1012B00008951F9384E793E00E94E706882309F0CE
:1012C00087C080913602882321F0109236020E9456
:1012D000EF098091710390917203009729F1809139
:1012E00071039091720384309105F1F080912C028A
:1012F000882349F48CE292E040E25EE460E070E032
:101300000E94FC1811C08CE292E00E9419198823F7
:1013100059F08EE493E00E949F1684E0809370035E
:101320008AE493E00E94FF1980917003882361F0A2
:101330008CE292E00E943C198EE493E00E94AD168C
:101340008AE493E00E94FF198091710390917203E7
:1013500084309105E9F584E793E00E943A178EE422
:1013600093E060E00E940217182F8CE292E00E9446
:101370003C198EE493E064E773E00E949A068823A8
:1013800099F480911E03181711F01F37E9F48EE4C9
:1013900093E064E773E00E94B907882329F484E7A7
:1013A00093E065E80E947A178EE493E00E94AD1600
:1013B0001F3729F08AE493E00E94921909C084E75C
:1013C00093E00E943A1704C08EE493E00E94AD16A9
:1013D0001F9108958CE292E00E94F81808951F93DF
:1013E000F89414B714BE0E94E6180E949E12612F52
:1013F0006F7087E392E00E942E0C78941F910895FD
:101400000E94EF090E94590987E392E00E940C0DA7
:10141000F9CFCF93DF93EC011A8684E090E065E08A
:1014200070E00E94E512A0E0B0E089A39AA3ABA30C
:10143000BCA386E090E064EF71E00E94E512A0E0BA
:10144000B0E08DA39EA3AFA3B8A788E090E06CE2C4
:1014500071E00E94E512A0E0B0E089A79AA7ABA7CF
:10146000BCA78AE090E06CE271E00E94E512A0E087
:10147000B0E08DA79EA7AFA7B8ABDF91CF9108953D
:10148000FC0181E081831186128214821382108212
:1014900014861386CF010E94090A0895CF93DF9323
:1014A000EC010D960E94F818CE0147960E94F8189C
:1014B00081E0898319861A821C821B8218821C860D
:1014C0001B86CE010E94090ADF91CF9108950F93E8
:1014D0001F93CF93DF93EC018A85882309F472C0B0
:1014E0008B859C85009709F46DC08E01035F1F4FAB
:1014F000C8010E941919882309F48DC08B859C8529
:101500008230910531F1833091052CF481309105C1
:1015100009F081C008C083309105A9F1843091059C
:1015200009F079C046C082E090E09C878B876DA16E
:101530007EA18FA198A528EE33E040E050E00E9404
:101540007C1AAB01BC01C8010E94FC186B817C8134
:1015500047C083E090E09C878B8769A17AA18BA12B
:101560009CA128EE33E040E050E00E947C1AAB01E1
:10157000BC01C8010E94FC1887E392E060E070E0C3
:101580000E94240D48C084E090E09C878B8769A569
:101590007AA58BA59CA528EE33E040E050E00E94A0
:1015A0007C1AAB01BC01C8010E94FC186B817C81D4
:1015B0001DC087E392E060E070E00E94240D1C866D
:1015C0001B8629C098818985992399F4882361F421
:1015D0008A81882349F089816B817C81882331F459
:1015E000709561957F4F02C060E070E087E392E004
:1015F000C7CF882341F48A81882329F04D815E81F9
:101600006F81788503C040E050E0BA0187E392E043
:1016100029810E94280DDF91CF911F910F9108958C
:10162000FC017483638310820895FC014583568313
:101630006783708781E080830895FC0165817681EE
:10164000878190850895FC01838194810895FC0130
:10165000818591E0892781870895FC016183089540
:101660001F93CF93DF93EC01162F8A81662319F520
:101670008823C1F189818823A9F18A85882391F182
:10168000CE0147960E941919882361F181E090E00C
:101690009C878B8769A17AA18BA19CA128EE33E05E
:1016A00040E050E00E947C1AAB01BC01CE010D96D7
:1016B0000E94FC1817C0882399F48981882381F03F
:1016C0006DA57EA58FA598A928EE33E040E050E0F7
:1016D0000E947C1AAB01BC01CE0147960E94FC1807
:1016E0001C861B861A83DF91CF911F910895462F88
:1016F000FC0161816F700E946C120895462FFC01FD
:1017000061816F700E9480120895AF92BF92CF9254
:10171000DF92EF92FF920F931F93CF93DF93EC0131
:101720000E944E0A8E010F5C1F4FC80163E040E02B
:101730000E940E18B3E4CB2ED12CCC0EDD1EC601B8
:1017400066E041E00E940E18AE014B5A5F4F81E205
:1017500092E0FA0191838083A7E5AA2EB12CAC0E0A
:10176000BD1E8BE192E0F50191838083CE01875A03
:101770009F4FB80100E513EC20E030E0FCE0EF2ED5
:10178000F12C0E94F913CE0183569F4FB601A5019B
:1017900000E513EC20E030E0E2E1EE2EF12C0E94B7
:1017A000F913FE01EF51FF4F81E08083CE51DF4FEF
:1017B000188219821A821B8288E190E064E870E442
:1017C0000E94E5129C013695279536952795237042
:1017D000307030931202209311029C0144E0369540
:1017E00027954A95E1F723703070309320032093BA
:1017F0001F0326E0969587952A95E1F783709070F0
:101800009093140280931302DF91CF911F910F9157
:10181000FF90EF90DF90CF90BF90AF900895FC01C4
:10182000EA51FF4F80810895882321F085E080935D
:1018300070000895109270000895882311F083E8D5
:1018400001C083E08093B0000895E62FF0E0EE0F32
:10185000FF1FEE5DFC4F518340830895EF92FF928E
:101860000F931F93DF93CF93CDB7DEB72E970FB6AD
:10187000F894DEBF0FBECDBF7C01FC01EA51FF4FE3
:1018800060838FEF9FEF90932303809322030E9446
:10189000060F82E08093800089E18093810010929E
:1018A000820080E49CE9909387008093860082E226
:1018B00080936F0000E710E0F801108280914403EC
:1018C00089838A81807F85608A83CE01019661E069
:1018D0000E94770B809145038B838C81807F816090
:1018E0008C83CE01039660E00E947E0B80914503BD
:1018F0008D838E81807F81608E83CE01059661E02D
:101900000E94770B809144038F838885807F83605A
:101910008887CE01079660E00E947E0B8091440389
:1019200089878A85807F83608A87CE01099661E0F6
:101930000E94770B809144038B878C85807F846025
:101940008C87CE010B9660E00E947E0B8091440351
:101950008D878E85807F84608E87CE010D9661E0B5
:101960000E94770B83E88093B00086E08093B100FB
:101970001092B3001092B40085E0F8018083C70193
:10198000C1960E940918C7018D5B9F4F0E940918DC
:10199000C701875A9F4F0E944B13C70183569F4F21
:1019A0000E944B130AE413E0C80161E00E94B219DF
:1019B000C80104960E94AD1681E060E00E94F90F14
:1019C00085B1897F85B984B1866084B981E08093CF
:1019D000210380E090E00E94880F60E070E0CB017E
:1019E00041E00E9441108AE190E060E00E94CC1248
:1019F000F701E951FF4F8083C7010E94400A2E96EC
:101A00000FB6F894DEBF0FBECDBFCF91DF911F910F
:101A10000F91FF90EF900895CF93DF93EC010E9418
:101A2000670ACE01875A9F4F0E947114FE01EF5141
:101A3000FF4F8081882329F0CE0183569F4F0E945B
:101A40007114DF91CF910895CB010E94880F089502
:101A5000CB01BA01422F0E94411008956FB7F8944C
:101A60008E519F4FFC0120813181428153816FBF94
:101A7000B901CA0108950F931F93DF93CF93CDB798
:101A8000DEB72A970FB6F894DEBF0FBECDBF062F84
:101A9000009781F51FB7F894442389F080E00E94F5
:101AA000140C8091450389838A81807F81608A83B9
:101AB00061E0002309F460E0CE01019647C0862F63
:101AC00081508E3F88F080E00E94140C8091450385
:101AD0008B838C81807F81608C8361E00F3F09F074
:101AE00060E0CE01039632C06093B40081E00E94B2
:101AF000140C34C08130910599F51FB7F894442334
:101B000089F080E00E941D0C809144038D838E81BA
:101B1000807F83608E8361E0002309F460E0CE0162
:101B2000059614C0862F81508E3F98F080E00E9469
:101B30001D0C809144038F838885807F8360888714
:101B400061E00F3F09F060E0CE0107960E947E0B36
:101B500005C06093B30081E00E941D0C1FBF0FC041
:101B60008091440389878A85807F84608A8761E0C9
:101B7000002309F460E0CE0109960E947E0B2A96AC
:101B80000FB6F894DEBF0FBECDBFCF91DF911F918E
:101B90000F91089580911F039091200341E00E94CE
:101BA0003B0D089540912103809111029091120202
:101BB0000E943B0D089580911302909114026623B8
:101BC00011F06FEF01C060E041E00E943B0D08950D
:101BD000FC01EF51FF4F1082662311F06FEF01C03F
:101BE00060E080E090E041E00E943B0D0895DF93CB
:101BF000CF9300D0CDB7DEB7CB012091440329832A
:101C00002A81207F25602A8361E0009709F460E043
:101C1000CE0101960E947E0B0F900F90CF91DF9125
:101C20000895FC01EE51FF4F80819181A281B38123
:101C30008C53964FAF4FBF4F80839183A283B38362
:101C400087E392E060E070E00E94F70D809124034A
:101C50008823E1F480912203909123032FEF8F3F9B
:101C60009207A1F0299A409122035091230320EA80
:101C700030E0429FC001439F900D529F900D112470
:101C800080589A4D90938900809388008091240316
:101C90008F5F8093240380912403893010F0109289
:101CA00024030895FC01EF51FF4F608308951F92B4
:101CB0000F920FB60F9211242F933F934F935F9380
:101CC0006F937F938F939F93AF93BF93EF93FF9304
:101CD00087E392E00E94110EFF91EF91BF91AF91C7
:101CE0009F918F917F916F915F914F913F912F9134
:101CF0000F900FBE0F901F9018951F920F920FB666
:101D00000F92112429980F900FBE0F901F901895D5
:101D10001F920F920FB60F9211242F933F934F9360
:101D20005F936F937F938F939F93AF93BF93EF9343
:101D3000FF93DF93CF9300D0CDB7DEB78091B4008F
:101D4000882361F08091450389838A81807F816047
:101D50008A83CE01019661E00E947E0B0F900F9066
:101D6000CF91DF91FF91EF91BF91AF919F918F91B3
:101D70007F916F915F914F913F912F910F900FBE87
:101D80000F901F9018951F920F920FB60F9211246B
:101D90002F933F934F935F936F937F938F939F9373
:101DA000AF93BF93EF93FF93DF93CF9300D0CDB763
:101DB000DEB78091450389838A81807F81608A8331
:101DC000CE01019660E00E947E0B0F900F90CF91A4
:101DD000DF91FF91EF91BF91AF919F918F917F9193
:101DE0006F915F914F913F912F910F900FBE0F9088
:101DF0001F90189587E392E00E94850B0895FC01DF
:101E000061816F7041E00E946C1208951F93DF930F
:101E1000CF93CDB7DEB72C970FB6F894DEBF0FBEC9
:101E2000CDBF10922603109225038091460389832B
:101E30008A81807F85608A83CE0101960E94FF0E91
:101E4000809146038B838C81807F85608C83CE015B
:101E5000039660E00E947E0B809146038D838E8105
:101E6000807F87608E83CE0105960E94FF0E809151
:101E700046038F838885807F86608887CE0107969A
:101E80000E94FF0E8091460389878A85807F866045
:101E90008A87CE01099660E00E947E0B8091440300
:101EA0008B878C85807F8C87CE010B960E94FF0EDE
:101EB0001092270310922A031092290311E0109325
:101EC0002B0388E190E064E870E40E94E51280FF53
:101ED00015C010932C038091460380932D038091AD
:101EE0002E03807F866080932E038091440380932D
:101EF0002F0380913003807F809330032C960FB6A0
:101F0000F894DEBF0FBECDBFCF91DF911F91089532
:101F1000CF92DF92EF92FF920F931F93CF93DF93B5
:101F2000EC018091250390912603C817D90709F485
:101F300057C0D0932603C09325030FB7F89481E0D0
:101F400023E2E22E93E8F92E13E042C0222309F0A7
:101F500046C0992309F043C010926E00209729F4DF
:101F600014BD8DE293E060E007C0CF3FD10539F4A6
:101F700014BD8DE293E061E00E947E0B0CC08DE207
:101F800093E061E00E947E0B80912C03882311F086
:101F9000F4BC01C0E4BC6E018D2D881F8827881F0A
:101FA00019F0D095C195DF4FCF3FD10519F014F04E
:101FB000CFEFD0E061E068278FE293E00E947E0BD4
:101FC00080912C03882311F0C7BD01C0C8BD80E0FB
:101FD0002091270390912803882309F0B7CF0FBFE2
:101FE000DF91CF911F910F91FF90EF90DF90CF90F5
:101FF0000895882319F091E0962701C090E090930E
:102000002703882309F460E060932803992339F0BB
:1020100014BC83E085BD81E080936E000895662343
:1020200019F181E393E00E94FF0E81E393E061E008
:102030000E947E0B83E393E00E94FF0E83E393E014
:1020400061E00E947E0B85E393E00E94FF0E85E332
:1020500093E060E00E947E0B82E084BD80936E007E
:1020600097EC97BD85BD089583E084BD85BD18BC00
:1020700010926E0080912503909126030E94880F94
:102080000895CF92DF92EF92FF920F931F93D42E79
:1020900020912803222309F441C0CFB6F89461159A
:1020A00071058105910551F128EC30E040E050E0E8
:1020B0000E94C21A79018A012091150230911602FC
:1020C00040E050E0C801B7010E94C21A20933703D4
:1020D000309338034093390350933A0383E393E0FA
:1020E0006D2D0E947E0B81E393E060E00E947E0BE9
:1020F00085E393E060E00E947E0B0FC010926E00BB
:1021000081E393E061E00E947E0B1092370310920E
:1021100038031092390310923A03CFBE1F910F91EA
:10212000FF90EF90DF90CF900895FF920F931F9351
:10213000DF93CF93CDB7DEB728970FB6F894DEBF05
:102140000FBECDBF8091250390912603009741F0EB
:1021500080913F03982F9F5F90933F0380FF02C0C1
:10216000FF2402C0FF24F39401E010E000902B0351
:1021700002C0000F111F0A94E2F780914603898381
:102180008A81807F87608A8310E0C801837C907099
:1021900061E0009709F460E0CE0101960E947E0B99
:1021A000809146038B838C81807F85608C83FF20A8
:1021B00031F0C8018D7D907061E0009709F460E016
:1021C000CE0103960E947E0B809144038D838E8105
:1021D000807F8E83C801807F907061E0009709F452
:1021E00060E0CE0105960E947E0B809146038F83AE
:1021F0008885807F86608887FF2031F007771070A0
:1022000061E00115110509F460E0CE0107960E9416
:102210007E0B28960FB6F894DEBF0FBECDBFCF91D0
:10222000DF911F910F91FF9008951F920F920FB6AB
:102230000F9211242F933F934F935F936F937F934C
:102240008F939F93AF93BF93EF93FF938091250359
:10225000909126032091290330912A03820F931F26
:1022600090932A03809329032CE08337920754F03C
:1022700083579C4090932A038093290380912B03DA
:102280008E5F0BC097FF0CC08D58934F90932A031D
:102290008093290380912B038250877080932B03B6
:1022A0000E949510FF91EF91BF91AF919F918F91F7
:1022B0007F916F915F914F913F912F910F900FBE42
:1022C0000F901F9018951F920F920FB60F92112426
:1022D0002F933F934F935F936F937F938F939F932E
:1022E000AF93BF93EF93FF9380913703909138039F
:1022F000A0913903B0913A030097A105B10509F403
:102300004EC080913B0390913C03A0913D03B0915E
:102310003E030196A11DB11D80933B0390933C03A6
:10232000A0933D03B0933E0320913B0330913C03C7
:1023300040913D0350913E038091370390913803C3
:10234000A0913903B0913A03281739074A075B0770
:1023500030F185E393E061E00E947E0B80913B03C6
:1023600090913C03A0913D03B0913E03209137032F
:10237000309138034091390350913A03821B930BFB
:10238000A40BB50B80933B0390933C03A0933D03B8
:10239000B0933E0385E393E060E00E947E0BFF91E3
:1023A000EF91BF91AF919F918F917F916F915F91CD
:1023B0004F913F912F910F900FBE0F901F90189546
:1023C0009091460390932D0380912E03807F85602A
:1023D00080932E0390932F0380913003807F87603A
:1023E00080933003809144038093310380913203C2
:1023F000807F826080933203909333038091340313
:10240000807F8260809334039093350380913603FC
:10241000807F8360809336030895863070F497B18F
:1024200021E030E002C0220F331F8A95E2F72095A9
:10243000922397B988B1822388B980917A008F68F6
:1024400080937A00089590917A0096FD18C09FB706
:10245000F894709341036093400350934303409377
:102460004203FA0110828F70806480937C00809117
:102470007A00806480937A009FBF81E0089580E0B5
:1024800008951F920F920FB60F9211242F933F932E
:102490008F939F93EF93FF938091780090917900B1
:1024A000E0914003F0914103392F20E090E0822B2E
:1024B000932B91838083E0914203F091430381E069
:1024C0008083FF91EF919F918F913F912F910F907A
:1024D0000FBE0F901F901895DC01EC91F0E0318158
:1024E00081E090E002C0880F991F6A95E2F7282FDB
:1024F00020952323442309F480E0822B81830895CF
:10250000DC01EC91F0E0328181E090E002C0880FC4
:10251000991F6A95E2F7282F20952323442309F475
:1025200080E0822B8283089583E28093440386E2D5
:102530008093450389E2809346030895DF93CF9308
:1025400000D0CDB7DEB7CE01019660E070E042E08A
:1025500050E00E942A1B2A8184E6289FC001112492
:102560003981830F911D31E08C32930781F0225025
:102570002D3F10F00E94E106198283E08A83CE018C
:10258000019660E070E042E050E00E943A1B0F903C
:102590000F90CF91DF9108951F93DF93CF930F9208
:1025A000CDB7DEB79C01162FCE010196B90141E0EF
:1025B00050E00E942A1B89818F3F09F41983898189
:1025C0000F90CF91DF911F9108950F931F93DF9389
:1025D000CF9300D0CDB7DEB79C018B01CE01019621
:1025E000B90142E050E00E942A1B89819A812FEFB5
:1025F0008F3F920711F41A83098389819A810F9082
:102600000F90CF91DF911F910F910895EF92FF925C
:102610000F931F93DF93CF9300D0CDB7DEB79C010C
:10262000F42E052F162FE72ECE010196B90142E0B8
:1026300050E00E942A1B69816F3F19F48A818F3F05
:10264000E9F070E080E090E00E9438047B018C01AA
:102650006A8170E080E090E00E94380420E030E081
:1026600040E85BE30E945C029B01AC01C801B7013A
:102670000E94FE01F62E072F182FE92E6F2D702FC6
:10268000812F9E2D0F900F90CF91DF911F910F9171
:10269000FF90EF9008954F925F926F927F928F928A
:1026A0009F92AF92BF92CF92DF92EF92FF920F93E1
:1026B0001F93CF93DF93EC011D8E1C8EFC01EE5B0C
:1026C000FF4F1082FC01ED5BFF4F10828E8D9F8DBE
:1026D00040E050E060EE70E40E9406137B018C0144
:1026E0008E8D9F8D029646E656E666EA7EE30E9450
:1026F00006135B016C018E8D9F8D049640E050E0C7
:1027000060E172E40E9406133B014C0180E2482E16
:10271000512C4C0E5D1EC2010E943C15C801B70130
:1027200020E030E0A9010E945603882381F5C6010C
:10273000B50120E030E0A9010E945603882339F555
:10274000C401B30120E030E0A9010E9456038823B0
:10275000F1F40F2EF0E06F2EF0E07F2EF0E18F2EDF
:10276000F2E49F2EF02D0F2EF6E6AF2EF6E6BF2EEA
:10277000F6EACF2EFEE3DF2EF02D0F2EF0E0EF2E47
:10278000F0E0FF2EF0EE0F2FF0E41F2FF02DE8A267
:10279000F9A20AA31BA3ACA2BDA2CEA2DFA268A687
:1027A00079A68AA69BA6C20160E070E00E9460162E
:1027B000CE01049640E251EA67E070E00E94FC1806
:1027C000488D598D6A8D7B8DCE010E960E94FC1826
:1027D000DF91CF911F910F91FF90EF90DF90CF90FD
:1027E000BF90AF909F908F907F906F905F904F9031
:1027F0000895AF92BF92CF92DF92EF92FF920F9324
:102800001F93CF93DF93EC015801690179836883AB
:102810005B834A8304960E94F818CE010E960E94AC
:10282000F818A88EB98ECA8EDB8EFF8EEE8ECE0182
:1028300080960E945115CE010E944B13DF91CF91DB
:102840001F910F91FF90EF90DF90CF90BF90AF90CE
:10285000089580960E9460160895FC01248D358DA0
:1028600085AD96ADAC0142505040241735074CF071
:10287000AC014E5F5F4F81E0421753071CF480E0CC
:10288000089580E00895FC0185AD96AD0895DC01C2
:10289000ED91FC91119722813381C90108958096B1
:1028A0000E947516089580960E9479160895809664
:1028B0000E9482160895DC0112968D919C911397C7
:1028C000DC01ED91FC910190F081E02D09950895D6
:1028D000FC01EE5BFF4F21E0208360E00E945B146F
:1028E00008950F931F93CF93DF93EC01FC01EE5BF0
:1028F000FF4F8081882309F094C08E01025F1F4F33
:10290000C8010E9419198823E9F1488D598D6A8DF3
:102910007B8DC8010E94FC1888819981DC01ED91B2
:10292000FC910280F381E02D0995009741F097FD1D
:1029300015C08330910594F482E090E01CC0FE0144
:10294000ED5BFF4F1082E881F981828193819D8F39
:102950008C8FB1E089319B07ACF010C0FE01ED5BBC
:10296000FF4F80818F5F8083863018F0CE010E94F8
:10297000681483E090E09D8F8C8F53C0CE010E943D
:1029800068144FC08E010C5F1F4FC8010E941919B7
:10299000882309F446C0C80140E251EA67E070E0CC
:1029A0000E94FC188DAD9EAD2C8D3D8D821B930B2E
:1029B000FE01EF5BFF4F2081222349F08F3091050C
:1029C0005CF41082CE0180960E941B1505C08A31EE
:1029D000910514F081E08083FE01EF5BFF4F808161
:1029E000882319F0CE016FEF1AC06C8D7D8DCE015A
:1029F00080960E946615BC0197FD05C08F3F91052A
:102A000009F024F405C060E070E002C06FEF70E0F0
:102A10008DAD9EAD009711F460E070E0CE010E9494
:102A20005B14DF91CF911F910F910895FC01EE5B34
:102A3000FF4F80810895FC01148E138E128E118E2B
:102A4000108E0CC0A82FB0E01696AA0FBB1FAE0FB9
:102A5000BF1F11961C921E928F5F808F808D8430D5
:102A600088F3108E20E030E0A901248B358B468B53
:102A7000578B10A2178E0895FC01168E158E20E03C
:102A800030E0A9012087318742875387248335832B
:102A90004683578320833183428353830E941B15CF
:102AA0000895FC01168E158E20E030E0A9012087E4
:102AB0003187428753872483358346835783208316
:102AC0003183428353830E941B1508952F923F92B6
:102AD0004F925F926F927F928F929F92AF92BF922E
:102AE000CF92DF92EF92FF920F931F93DF93CF93DA
:102AF00000D000D000D0CDB7DEB79E838D83FC011F
:102B0000E58CF68CE61AF70A838D948D8E0D9F1D49
:102B1000948F838FF1E081309F0734F080E091E063
:102B2000ED81FE81948F838FED81FE81838D948D65
:102B3000FFEF80309F0734F480E09FEFED81FE814E
:102B4000948F838FB701882777FD8095982F0E94F7
:102B50008603ED81FE8120813181428153810E9473
:102B60005C02562E472E382E292EED81FE81638D74
:102B7000748D882777FD8095982F0E948603ED81BC
:102B8000FE8124813581468157810E945C026983E0
:102B90007A838B839C83ED81FE81818D928D670189
:102BA000C81AD90A608C772483010A5F1F4F000F6F
:102BB000111F0E0F1F1FF80160817181882777FD9B
:102BC0008095982F0E9486039B01AC01ED81FE81C8
:102BD00064897589868997890E942B02B62EA72E53
:102BE000982E892EF801D182C082B601882777FD00
:102BF0008095982F0E9486039B01AC01D501F401BA
:102C00006B2F7A2F8F2F9E2F0E94FE01262F372F9A
:102C1000482F592FED81FE81248B358B468B578BA6
:102C20000894611C711CF3E06F227724ED81FE8112
:102C3000608E20853185428553850E945C02062F77
:102C4000C72EB82EA92EED81FE81F28EE18EA20153
:102C50009101652F742F832F922FB981AA81EB8068
:102C60009C802B2F3A2F4E2D592D0E94FE01F501ED
:102C7000202F3C2D4F2F5E2F0E94FE010E94E60365
:102C8000660F771FED81FE8170A3678FCB012696BB
:102C90000FB6F894DEBF0FBECDBFCF91DF911F916D
:102CA0000F91FF90EF90DF90CF90BF90AF909F90EB
:102CB0008F907F906F905F904F903F902F900895EE
:102CC0000F931F93CF93DF93EC018B018D8D9E8D1E
:102CD0008617970729F0CE010E941B151E8F0D8FB6
:102CE000DF91CF911F910F910895FC01838D948DF9
:102CF0000895FC0164897589868997890E94E60395
:102D0000CB010895FC01878D90A10895FC0180817D
:102D10008032A0F48181862798E02CE8869508F41B
:102D200082279A95D9F781838081DF01A80FB11D91
:102D300012966C93129780818F5F80830895FC01B7
:102D40001182108212A214A213A20895FC01118212
:102D5000108212A214A213A20895FC011182108203
:102D600012A214A213A20895CF93DF93EC018BA1BA
:102D70009CA1009761F4653D19F481E090E035C0B5
:102D8000198218821AA21CA21BA281E037C08BA153
:102D90009CA18130910581F4603238F46DA38DA13E
:102DA0008823B1F082E090E020C0198218821AA234
:102DB0001CA21BA282E022C08BA19CA182309105A3
:102DC00051F4CE010E94861698818DA19817B8F013
:102DD00083E090E00AC08BA19CA18330910579F437
:102DE0008981861729F484E090E09CA38BA307C017
:102DF000198218821AA21CA21BA283E08AA3DF9167
:102E0000CF910895FC01E60FF11D82810895E62F10
:102E1000F0E0DC01AE0FBF1F12962C911297319695
:102E2000E80FF91F3281932F80E030E0282B392BF7
:102E3000C90108959C01462F50E0FC01E40FF51FE5
:102E40006281FA013196E80FF91F7281FA01329618
:102E5000E80FF91F82814D5F5F4F420F531FFA0148
:102E600092810895FC011182108212A214A213A271
:102E700015A20895FC011182108212A214A213A2BD
:102E800015A20895FC0183A194A1009731F481E07B
:102E900090E094A383A385ED089583A194A181304C
:102EA000910539F4808190819923A1F022E030E0EE
:102EB0001CC083A194A18230910579F495A1DF0112
:102EC000A90FB11D12968C9112979F5F95A3208137
:102ED000921778F023E030E008C083A194A18330FA
:102EE000910531F4818124E030E034A323A30895D7
:102EF00080E008950E94861608950F931F93DF9334
:102F0000CF930F92CDB7DEB78C0179830E948616DE
:102F1000C8017981672F0E9486160F90CF91DF91AB
:102F20001F910F910895CF92DF92EF92FF920F932E
:102F30001F936C017A018B01642F0E94861655271E
:102F4000412F302F2F2DC601622F0E948616980127
:102F500044275527C601622F0E948616E12EFF24C2
:102F600000271127C6016E2D0E9486161F910F9112
:102F7000FF90EF90DF90CF900895FF920F931F93F3
:102F8000CF93DF93EC018FB7F894FF800D811E8102
:102F90009F8191111F828FBFBE016B5F7F4FAE017A
:102FA000495F5F4F8C810E942312882331F1FF20FB
:102FB00039F1888990E0FC013496EE0FFF1FEC0F89
:102FC000FD1F11830083019683709070888BC80168
:102FD000029723E08D3F920738F080E094E09B83D6
:102FE0008A8323E030E00EC0C80169890E9462181C
:102FF0009B838A8320E030E005C021E030E002C0FE
:1030000022E030E0C901DF91CF911F910F91FF9035
:103010000895FC0184810E940D120895FC0187E24D
:1030200092E09183808364831782108A418B11869A
:1030300010861386128615861486178616860895BE
:10304000DF93CF9300D000D0CDB7DEB7E62FFF27B8
:10305000E7FDF095E95BFC4F90819923C1F0662371
:1030600019F420E031E002C020E831E0682F772732
:1030700067FD7095660F771F660F771F620F731FCE
:10308000CE01019644E050E00E942A1B10C0682F38
:10309000772767FD7095660F771F660F771F665459
:1030A0007F4FCE01019644E050E00E94211B6981D0
:1030B0007A818B819C810F900F900F900F90CF9110
:1030C000DF910895AF92BF92DF92EF92FF920F933C
:1030D0001F93CF93DF93EC01D62E39E0A32E23E18B
:1030E000E22EFF2402E010E08A2D6D2D0E942018B0
:1030F0002A2D332727FD3095C617D7075CF48F2D6F
:10310000992787FD9095820F931FB8010E94AF1AEF
:10311000EA2C0AC08E2D992787FD9095820F931F68
:10312000B8010E94AF1AFA2CA62EF616ECF28F2DDB
:103130006D2D0E9420188B015C018E2D6D2D0E943B
:1031400020189B01AC01FF2019F4C017D107E4F04F
:103150008E2D833119F42C173D07B4F0C01BD10B11
:103160004A195B09C49FC001C59F900DD49F900D63
:103170001124B901601B710B0E94AF1A6A0D7B1DEF
:103180006F3F710519F014F06FEF70E0CB01DF9124
:10319000CF911F910F91FF90EF90DF90BF90AF9074
:1031A0000895DF93CF930F92CDB7DEB7BC01CE0168
:1031B000019641E050E00E942A1B81E099819F3FE7
:1031C00009F480E00F90CF91DF91089580E091E0C5
:1031D0000E94D1188093470380E891E00E94D118A3
:1031E00080934803089587E392E00E942E0D08958E
:1031F000FC01108211820895EF92FF920F931F93AA
:10320000CF93DF93EC017A018B0181E088831982EF
:103210000E94F3186A837B838C839D83EE82FF82F6
:1032200008871987DF91CF911F910F91FF90EF9041
:103230000895CF93DF93EC0188818823C9F08981B9
:103240008823B1F40E94F3182A813B814C815D816F
:10325000621B730B840B950B2E813F81488559852A
:10326000621773078407950718F0188281E0898335
:103270008981DF91CF910895FC0110820895FC01AE
:103280008281882371F41092C50089E18093C40083
:1032900080E48093C00088E18093C10086E0809341
:1032A000C2000895DF93CF9300D0CDB7DEB78091F1
:1032B000450389838A81807F82608A83CE0101965B
:1032C00060E00E947E0B0F900F90CF91DF910895E8
:1032D000DF93CF9300D0CDB7DEB7809145038983CC
:1032E0008A81807F82608A83CE01019661E00E949C
:1032F0007E0B0F900F90CF91DF910895CF93DF93C6
:10330000EC01598348836A831B8204960E94A616A7
:10331000CE018A960E943217CE010E943F19DF919A
:10332000CF910895CF93DF93EC018B818823B9F07F
:10333000888199818130910549F40E94681985E35B
:103340008A95F1F7000081E080934903CE018A96C7
:103350000E9442179A81992311F48093C600DF914D
:10336000CF910895DF93CF9300D000D000D0CDB798
:10337000DEB7FC0163838281882359F4662321F040
:103380008091C100806C03C08091C1008F738093D5
:10339000C100808191818130910541F58091450383
:1033A00089838A81807F82608A83CE01019661E071
:1033B0000E94770B809146038B838C81807F846091
:1033C0008C83CE01039661E00E94770B80914603C7
:1033D0008D838E81807F84608E83CE01059660E030
:1033E0000E947E0B0E9452191092490326960FB636
:1033F000F894DEBF0FBECDBFCF91DF910895FC01E1
:10340000808191818130910521F4109249030E94BD
:10341000521908951F920F920FB60F9211242F93F5
:103420003F934F935F936F937F938F939F93AF934C
:10343000BF93EF93FF936091C60060939A038091CE
:103440004903882331F080914903815080934903D7
:1034500004C08EE493E00E94B416FF91EF91BF91F7
:10346000AF919F918F917F916F915F914F913F911C
:103470002F910F900FBE0F901F9018951F920F92D3
:103480000FB60F9211242F933F934F935F936F9337
:103490007F938F939F93AF93BF93EF93FF9384E7B3
:1034A00093E00E94E706882361F0809149038F5FD3
:1034B0008093490384E793E00E9442178093C600FB
:1034C00002C00E945219FF91EF91BF91AF919F915D
:1034D0008F917F916F915F914F913F912F910F90BD
:1034E0000FBE0F901F9018958AE493E060E041E0D2
:1034F00050E00E947E190895629FD001739FF001F1
:10350000829FE00DF11D649FE00DF11D929FF00D73
:10351000839FF00D749FF00D659FF00D9927729FAA
:10352000B00DE11DF91F639FB00DE11DF91FBD0135
:10353000CF0111240895AA1BBB1B51E107C0AA1F8C
:10354000BB1FA617B70710F0A61BB70B881F991F44
:103550005A95A9F780959095BC01CD01089597FBE8
:10356000092E07260AD077FD04D0E5DF06D000201B
:103570001AF4709561957F4F0895F6F790958195AF
:103580009F4F0895A1E21A2EAA1BBB1BFD010DC07F
:10359000AA1FBB1FEE1FFF1FA217B307E407F50703
:1035A00020F0A21BB30BE40BF50B661F771F881FDF
:1035B000991F1A9469F760957095809590959B0175
:1035C000AC01BD01CF0108952F923F924F925F92BF
:1035D0006F927F928F929F92AF92BF92CF92DF9223
:1035E000EF92FF920F931F93CF93DF93CDB7DEB788
:1035F000CA1BDB0B0FB6F894DEBF0FBECDBF09941C
:103600002A88398848885F846E847D848C849B8472
:10361000AA84B984C884DF80EE80FD800C811B8180
:10362000AA81B981CE0FD11D0FB6F894DEBF0FBEAF
:10363000CDBFED010895EE0FFF1F0590F491E02D31
:103640000994FB01DC0102C005900D9241505040ED
:10365000D8F70895DC01CB01FC01F999FECF06C033
:10366000F2BDE1BDF89A319600B40D924150504040
:10367000B8F70895DC01CB0103C02D910E94451BD2
:1036800041505040D0F70895262FF999FECF1FBA28
:1036900092BD81BD20BD0FB6F894FA9AF99A0FBE7B
:0836A00001960895F894FFCF94
:1036A80045787472756465720000000000000000BF
:1036B80000000102020303030304040404040404D5
:1036C80004050505050505050505050505050505A3
:1036D8000506060606060606060606060606060683
:1036E8000606060606060606060606060606060672
:1036F8000607070707070707070707070707070753
:103708000707070707070707070707070707070741
:103718000707070707070707070707070707070731
:103728000707070707070707070707070707070721
:103738000708080808080808080808080808080802
:1037480008080808080808080808080808080808F1
:1037580008080808080808080808080808080808E1
:1037680008080808080808080808080808080808D1
:1037780008080808080808080808080808080808C1
:1037880008080808080808080808080808080808B1
:1037980008080808080808080808080808080808A1
:1037A8000808080808080808080808080808080891
:1037B8000801000200C80000000000CA0D00000057
:0C37C80000D20D000000000918BD170021
:00000001FF
