:100000000C9485000C94AD000C94AD000C94AD00E4
:100010000C94AD000C94AD000C94AD000C94AD00AC
:100020000C94D30F0C94B90F0C94770F0C949D0F74
:100030000C94AD000C94AD000C9460130C94AD00C6
:100040000C94BD120C94AD000C943A150C94AD00B8
:100050000C94DD140C947B0E0C94AD000C94AD004C
:100060000C94AD000C94AD00B00ACF0AD30ADA0AA2
:10007000510BF60B830BF60B5C0BF60B690BF60BB7
:100080008E0B9B0BCA0BF60BF60BF60BF60BF60B57
:10009000F60BF60BA70B4A0BF60BE20A0A0BF60B54
:1000A000F60BF60BB20BBB0BE10BE80BB80A010029
:1000B00049033600FF006B00D100A000B800D50056
:1000C000A6000A0199003F018E0074018400A90175
:1000D0007C00DE01740013026C00480265007D02A2
:1000E0005D00B2025600E7024E001C0346005103B9
:1000F0003D0086033200BB032200F0030300630AC5
:100100007D0AF410F71399159E1511241FBECFEF29
:10011000D4E0DEBFCDBF12E0A0E0B1E0E2ECF1E35D
:1001200002C005900D92AA32B107D9F713E0AAE2F6
:10013000B2E001C01D92A438B107E1F710E0CAE0B7
:10014000D1E004C02297FE010E94DB18CE3FD10708
:10015000C9F70E94F70C0C94DF180C940000A0E083
:10016000B0E0E5EBF0E00C94A218DC012B01FA0101
:100170009C91923008F439C1EB018881823008F4F7
:1001800033C1943069F4843009F02FC111969C91E9
:1001900011978981981709F428C1A9E0B1E025C118
:1001A000843009F421C18230A9F4923009F01DC1D4
:1001B0009A01AD0188E0EA010990AE01E9010992D6
:1001C0009E018150C1F7E201898111969C9189239A
:1001D000818308C1923009F407C112962D903C909A
:1001E0001397EB018A819B811496AD90BD90CD90C1
:1001F000DC901797EC80FD800E811F819101281BF8
:10020000390BB90137FF04C066277727621B730BD0
:10021000603271050CF061C0121613066CF53701DF
:100220004801062E04C096948794779467940A94A4
:10023000D2F721E030E040E050E004C0220F331F4D
:10024000441F551F6A95D2F721503040404050401E
:100250002E213F2140235123211531054105510510
:1002600021F021E030E040E050E079018A01E62809
:10027000F728082919293CC0232BD1F1260E371E57
:1002800035014601062E04C09694879477946794AE
:100290000A94D2F721E030E040E050E004C0220FA1
:1002A000331F441F551F6A95D2F7215030404040FC
:1002B00050402A213B214C215D212115310541056A
:1002C000510521F021E030E040E050E059016A01A1
:1002D000A628B728C828D9280BC0821593052CF06A
:1002E0001C01AA24BB24650103C0EE24FF2487015E
:1002F00011969C91D20111968C91981709F445C0E2
:10030000992339F0A80197012A193B094C095D0985
:1003100006C0A60195012E193F09400B510B57FD50
:1003200008C0118233822282248335834683578317
:100330001DC081E081833382228288279927DC01D6
:10034000821B930BA40BB50B84839583A683B78381
:100350000DC0220F331F441F551F2483358346834E
:10036000578382819381019793838283248135818E
:1003700046815781DA01C9010197A109B1098F5F4F
:100380009F4FAF4FBF4328F30BC09183338222822C
:10039000EA0CFB1C0C1D1D1DE482F58206831783ED
:1003A00083E08083248135814681578157FF1AC0BD
:1003B000C901AA2797FDA095BA2F81709070A070EF
:1003C000B0705695479537952795822B932BA42B84
:1003D000B52B84839583A683B7838281938101960D
:1003E00093838283DF0101C0D201CD01CDB7DEB797
:1003F000E2E10C94BE18A0E2B0E0E1E0F2E00C947F
:10040000AE1869837A838B839C832D833E834F83CD
:100410005887E9E0EE2EF12CEC0EFD1ECE01019680
:10042000B7010E94D2058E010F5E1F4FCE010596C7
:10043000B8010E94D2058A8991E089278A8BC70179
:10044000B801AE01475E5F4F0E94AF000E94FD04FD
:10045000A096E6E00C94CA18A0E2B0E0E2E3F2E075
:100460000C94AE1869837A838B839C832D833E839F
:100470004F835887F9E0EF2EF12CEC0EFD1ECE01D4
:100480000196B7010E94D2058E010F5E1F4FCE016B
:100490000596B8010E94D205C701B801AE01475EBA
:1004A0005F4F0E94AF000E94FD04A096E6E00C940E
:1004B000CA18A0E2B0E0EFE5F2E00C94A21869835C
:1004C0007A838B839C832D833E834F835887CE0111
:1004D0000196BE01675F7F4F0E94D205CE0105964F
:1004E000BE016F5E7F4F0E94D2059985923088F0E1
:1004F00089898230C8F0943019F4823051F404C0F4
:10050000843029F4923081F489E091E0C6C09230C1
:1005100049F420E09A858A89981321E02A87CE0140
:100520000996BBC0823049F420E09A858A899813E5
:1005300021E02A8BCE014196B0C02D843E844F84A9
:1005400058886D887E888F88988CEE24FF248701D8
:10055000AA24BB24650140E050E060E070E0E0E0E8
:10056000F0E0C10181709070892BE9F0E60CF71C76
:10057000081D191D9A01AB012A0D3B1D4C1D5D1D67
:1005800080E090E0A0E0B0E0E614F704080519056B
:1005900020F481E090E0A0E0B0E0BA01A901480FAA
:1005A000591F6A1F7B1FAA0CBB1CCC1CDD1C97FEAD
:1005B00008C081E090E0A0E0B0E0A82AB92ACA2AE9
:1005C000DB2A3196E032F10549F0660C771C881C75
:1005D000991C5694479437942794C3CFFA85EA8997
:1005E0002B893C898B859C85280F391F2E5F3F4FB7
:1005F00017C0CA0181709070892B61F0169507951C
:10060000F794E79480E090E0A0E0B0E8E82AF92AC7
:100610000A2B1B2B76956795579547952F5F3F4F74
:1006200077FDE7CF0CC0440F551F661F771F17FDDE
:100630004160EE0CFF1C001F111F21503040403064
:1006400090E0590790E0690790E4790760F32B8FF9
:100650003C8FDB01CA018F779070A070B07080343E
:100660009105A105B10561F447FD0AC0E114F1044B
:100670000105110529F0405C5F4F6F4F7F4F4078B7
:100680001A8EFE1711F081E08A8F4D8F5E8F6F8F6B
:1006900078A383E0898FCE0149960E94FD04A0963D
:1006A000E2E10C94BE18A8E1B0E0E9E5F3E00C94B7
:1006B000AE1869837A838B839C832D833E834F831B
:1006C000588789E0E82EF12CEC0EFD1ECE01019634
:1006D000B7010E94D2058E010F5E1F4FCE01059615
:1006E000B8010E94D2058985823040F08989823024
:1006F00028F0C701B8010E944A0601C081E068964F
:10070000E6E00C94CA18A8E0B0E0E9E8F3E00C9445
:10071000AB189B01AC0183E08983DA01C90188270A
:10072000B7FD83959927AA27BB27B82E2115310538
:100730004105510519F482E089833AC08823A9F064
:10074000203080E0380780E0480780E8580729F427
:1007500060E070E080E09FEC30C0EE24FF24870171
:10076000E21AF30A040B150B02C079018A018EE12B
:10077000C82ED12CDC82CB82ED82FE820F831887BB
:10078000C801B7010E94AE0401971816190684F437
:10079000082E04C0EE0CFF1C001F111F0A94D2F794
:1007A000ED82FE820F831887C81AD90ADC82CB82B9
:1007B000BA82CE0101960E94FD042896E9E00C94CD
:1007C000C718ACE0B0E0E7EEF3E00C94B218698330
:1007D0007A838B839C83CE010196BE016B5F7F4F32
:1007E0000E94D2058D81823061F1823050F18430D7
:1007F00021F48E81882351F12EC02F81388537FD59
:1008000020C06E812F3131051CF06623F9F023C022
:100810008EE190E0821B930B29853A854B855C85A0
:1008200004C056954795379527958A95D2F7662344
:10083000B1F050954095309521953F4F4F4F5F4F08
:100840000EC020E030E040E050E009C02FEF3FEF65
:100850004FEF5FE704C020E030E040E050E8B9012E
:10086000CA012C96E2E00C94CE18A8E0B0E0EBE3CD
:10087000F4E00C94AA187B018C01611571058105C7
:10088000910519F482E0898360C083E089838EE159
:10089000C82ED12CDC82CB82ED82FE820F8318879A
:1008A000C801B7010E94AE04FC013197F7FF3BC0BD
:1008B000222733272E1B3F0B57016801022E04C04D
:1008C000D694C794B794A7940A94D2F740E050E026
:1008D00060E070E081E090E0A0E0B0E004C0880F4C
:1008E000991FAA1FBB1F2A95D2F70197A109B10929
:1008F0008E219F21A023B1230097A105B10521F0EE
:1009000041E050E060E070E04A295B296C297D29D4
:100910004D835E836F8378878EE190E08E1B9F0B03
:100920009C838B8312C0309781F00E2E04C0EE0C96
:10093000FF1C001F111F0A94D2F7ED82FE820F8365
:100940001887CE1ADF0ADC82CB821A82CE0101968A
:100950000E94FD042896EAE00C94C618EF92FF92DC
:100960000F931F937B018C0180E0E81680E0F8066E
:1009700081E0080780E0180788F48FEFE816F1049B
:100980000105110531F028F088E090E0A0E0B0E02A
:1009900017C080E090E0A0E0B0E012C080E0E81670
:1009A00080E0F80680E0080781E0180728F088E179
:1009B00090E0A0E0B0E004C080E190E0A0E0B0E012
:1009C00020E230E040E050E0281B390B4A0B5B0B83
:1009D00004C016950795F794E7948A95D2F7F70126
:1009E000EF5EFE4F8081281B310941095109C90181
:1009F0001F910F91FF90EF900895DF92EF92FF9279
:100A00000F931F93FC01E480F58006811781D1804C
:100A10008081823048F480E090E0A0E1B0E0E82AF4
:100A2000F92A0A2B1B2BA5C0843009F49FC0823001
:100A300021F4EE24FF24870105C0E114F10401052F
:100A4000110519F4E0E0F0E096C0628173819FEF38
:100A5000623879070CF05BC022E83FEF261B370BAA
:100A60002A3131052CF020E030E040E050E02AC08F
:100A7000B801A701022E04C0769567955795479552
:100A80000A94D2F781E090E0A0E0B0E004C0880FC3
:100A9000991FAA1FBB1F2A95D2F70197A109B10977
:100AA0008E219F21A023B1230097A105B10521F03C
:100AB00081E090E0A0E0B0E09A01AB01282B392B57
:100AC0004A2B5B2BDA01C9018F779070A070B07050
:100AD00080349105A105B10539F427FF09C0205CD8
:100AE0003F4F4F4F5F4F04C0215C3F4F4F4F5F4F11
:100AF000E0E0F0E02030A0E03A07A0E04A07A0E400
:100B00005A0710F0E1E0F0E079018A0127C060386F
:100B1000710564F5FB01E158FF4FD801C7018F77DC
:100B20009070A070B07080349105A105B10539F4C2
:100B3000E7FE0DC080E490E0A0E0B0E004C08FE3E9
:100B400090E0A0E0B0E0E80EF91E0A1F1B1F17FF9F
:100B500005C016950795F794E794319687E01695AA
:100B60000795F794E7948A95D1F705C0EE24FF2402
:100B70008701EFEFF0E06E2F679566276795902F5E
:100B80009F77D794DD24D7948E2F8695492F462BB7
:100B9000582F5D29B701CA011F910F91FF90EF9067
:100BA000DF900895FC01DB01408151812281622F99
:100BB0006F7770E0221F2227221F9381892F880FD1
:100BC000822B282F30E0991F9927991F11969C930B
:100BD000119721153105A9F54115510561057105DB
:100BE00011F482E037C082E89FEF13969C938E93B6
:100BF00012979A01AB0167E0220F331F441F551F64
:100C00006A95D1F783E08C930DC0220F331F441FE8
:100C1000551F12968D919C911397019713969C9353
:100C20008E931297203080E0380780E0480780E4F8
:100C3000580758F314962D933D934D935C93179753
:100C400008952F3F310579F441155105610571056E
:100C500019F484E08C93089564FF03C081E08C93C1
:100C600012C01C9210C02F57304013963C932E9305
:100C7000129783E08C9387E0440F551F661F771F00
:100C80008A95D1F7706414964D935D936D937C9320
:100C9000179708951F93DC01FB019C91923008F493
:100CA00047C08081823008F443C0943051F41196DB
:100CB0001C91843099F58181682F70E0611B710966
:100CC0003FC0843021F0923031F48230B9F181811B
:100CD000882389F12DC011961C9111978230F1F073
:100CE00081811817D9F412962D913C911397828126
:100CF00093818217930794F028173907BCF0149654
:100D00008D919D910D90BC91A02D248135814681BE
:100D10005781281739074A075B0718F4112341F058
:100D20000AC082179307A407B50740F4112319F0EE
:100D300061E070E005C06FEF7FEF02C060E070E03F
:100D4000CB011F910895FB01DC0102C005900D92BB
:100D500041505040D8F70895A0E0B0E0E2EBF6E053
:100D60000C94AC187C01EB018A01690109C0CE0129
:100D70002196F6010995F70181937F0101501040FA
:100D800001151105A1F7CDB7DEB7E8E00C94C8183E
:100D9000A0E0B0E0EEECF6E00C94AC18EC017B01C6
:100DA0008A01690109C0CE012196F70161917F0195
:100DB000F60109950150104001151105A1F7CDB7B5
:100DC000DEB7E8E00C94C8189C01F999FECF32BD5B
:100DD00021BDF89A80B508959C01F999FECF1FBAFC
:100DE00032BD21BD60BD0FB6F894FA9AF99A0FBED4
:100DF0000895EF92FF920F931F93DF93CF9300D04C
:100E0000CDB7DEB79C01F42E052F162FE72ECE01AD
:100E10000196B90142E050E024EE36E00E94AC06B3
:100E200069816F3F19F48A818F3FE9F070E080E0BB
:100E300090E00E9435047B018C016A8170E080E0C3
:100E400090E00E94350420E030E040E85BE30E943F
:100E500059029B01AC01C801B7010E942C02F62E79
:100E6000072F182FE92E2F2D302F412F5E2DB9017E
:100E7000CA010F900F90CF91DF911F910F91FF90BA
:100E8000EF9008950F931F93DF93CF9300D0CDB7CA
:100E9000DEB79C018B01CE010196B90142E050E022
:100EA00024EE36E00E94AC0689819A818F5F9F4FC5
:100EB00011F41A83098389819A810F900F90CF9141
:100EC000DF911F910F9108951F93DF93CF930F929E
:100ED000CDB7DEB79C01162FCE010196B90141E0D6
:100EE00050E024EE36E00E94AC0689818F3F09F481
:100EF000198389810F90CF91DF911F910895DF931E
:100F0000CF9300D0CDB7DEB7CE01019660E070E0A0
:100F100042E050E024EE36E00E94AC063A8184E6DE
:100F2000389FC00111242981820F911D8E3C9105AB
:100F300001F132503D3F70F0F999FECF1FBA82E0C7
:100F400090E092BD81BD8BE180BD0FB6F894FA9A16
:100F5000F99A0FBE86E0898382E08A8380E090E080
:100F6000BE016F5F7F4F42E050E02CEE36E00E9402
:100F7000C8060F900F90CF91DF9108959C01F999C9
:100F8000FECF32BD21BDF89A80B50895DF93CF938F
:100F90000F92CDB7DEB7BC01CE01019641E050E023
:100FA0002EEB37E00E94AC0690E089818F3F09F07C
:100FB00091E0892F0F90CF91DF91089580E091E02B
:100FC0000E94C60780932A0280E891E00E94C6072B
:100FD00080932B020895DF93CF9300D000D0CDB73C
:100FE000DEB7982FE62FFF27E7FDF095E65DFD4F72
:100FF00080818823D1F0662319F060E871E002C097
:1010000060E071E0892F992787FD9095880F991FDF
:10101000880F991F680F791FCE01019644E050E0B8
:101020002EEB37E00E94AC0610C0692F772767FDD2
:101030007095660F771F660F771F62557F4FCE0141
:10104000019644E050E00E94A30669817A818B8179
:101050009C810F900F900F900F90CF91DF9108958A
:10106000AF92BF92CF92DF92EF92FF920F931F93B6
:10107000CF93DF937C01A62E00E033E1B32E19E07D
:10108000812F6A2D0E94EB07412F552747FD509570
:10109000E616F70664F4802F992787FD9095840F54
:1010A000951F62E070E00E945918B12E0BC08B2D85
:1010B000992787FD9095840F951F62E070E00E944C
:1010C0005918012F162F0617DCF2802F6A2D0E9467
:1010D000EB076C01EB018B2D6A2D0E94EB079C0145
:1010E000002319F4EC16FD06DCF083E1B81619F4C0
:1010F0006E157F05ACF0EC1AFD0A2C193D096C1B2E
:101100007D0BE29EC001E39E900DF29E900D112496
:101110000E9459186C0D7D1D6F3F710519F014F078
:101120006FEF70E0CB01DF91CF911F910F91FF9096
:10113000EF90DF90CF90BF90AF900895FC011082A8
:1011400011820895FC0110820895CF93DF93EC0182
:1011500088818823D9F089818823C1F48AE692E0C6
:101160000E94AB0E2A813B814C815D81621B730B17
:10117000840B950B2E813F81488559856217730733
:101180008407950718F0188281E089838981DF91AF
:10119000CF910895CF92DF92EF92FF920F931F931A
:1011A0008C016A017B0181E0F801808311828AE66B
:1011B00092E00E94AB0EF80162837383848395836F
:1011C000C682D782E086F1861F910F91FF90EF9043
:1011D000DF90CF90089580E992E00E94260D8091E3
:1011E0000E03882321F08FEC92E00E94260D0895D3
:1011F000FC017483638310820895FC014583568348
:101200006783708781E080830895FC01818591E088
:10121000892781870895FC01618308951F93CF93E7
:10122000DF93EC01162F8A81662349F58823F1F1BB
:1012300089818823D9F18A858823C1F1CE01479617
:101240000E94A508882391F181E090E09C878B871C
:101250008AE692E060E070E00E94EF0F69A17AA157
:101260008BA19CA128EE33E040E050E00E943A18A8
:10127000AB01BC01CE010D960E94CA0817C088239D
:1012800099F48981882381F06DA57EA58FA598A901
:1012900028EE33E040E050E00E943A18AB01BC0178
:1012A000CE0147960E94CA081C861B861A83DF91CE
:1012B000CF911F9108950F931F93CF93DF93EC016C
:1012C0008A85882309F473C08B859C85892B09F452
:1012D0006EC08E01035F1F4FC8010E94A5088823BE
:1012E00009F492C08B859C858230910539F1833059
:1012F000910524F4019709F087C007C08330910558
:10130000B9F1049709F080C049C082E090E09C8761
:101310008B876DA17EA18FA198A528EE33E040E0D8
:1013200050E00E943A18AB01BC01C8010E94CA08F3
:101330006B817C81709561957F4F50C083E090E018
:101340009C878B8769A17AA18BA19CA128EE33E0B1
:1013500040E050E00E943A18AB01BC01C8010E9475
:10136000CA088AE692E060E070E00E94EF0F4CC08D
:1013700084E090E09C878B8769A57AA58BA59CA5C6
:1013800028EE33E040E050E00E943A18AB01BC0187
:10139000C8010E94CA086B817C8120C08AE692E065
:1013A00060E070E00E94EF0F1C861B862DC08881D4
:1013B00099858823B1F4992379F48A81882361F08F
:1013C00089812B813C81882311F0B90107C06627F0
:1013D0007727621B730B02C060E070E08AE692E040
:1013E000C4CF992341F48A81882329F04D815E81FD
:1013F0006F81788504C040E050E060E070E08AE6EC
:1014000092E029810E94E90FDF91CF911F910F9106
:1014100008950F931F938C01FC01128684E090E0E5
:1014200065E070E00E944207A0E0B0E0F80181A30F
:1014300092A3A3A3B4A386E090E064EF71E00E94BE
:101440004207A0E0B0E0F80185A396A3A7A3B0A748
:1014500088E090E06CE271E00E944207A0E0B0E01A
:10146000F80181A792A7A3A7B4A78AE090E06CE255
:1014700071E00E944207A0E0B0E0F80185A796A7BE
:10148000A7A7B0AB1F910F910895FC0181E0818364
:101490001186128214821382108214861386CF0161
:1014A0000E94090A08950F931F938C010D960E94C4
:1014B0009E08C80147960E949E08C8010E94450ADE
:1014C0001F910F9108958CE292E00E94530A0895B3
:1014D0009C01F999FECF32BD21BDF89A80B50895DF
:1014E0009C01F999FECF1FBA32BD21BD60BD0FB678
:1014F000F894FA9AF99A0FBE08958DE592E00E9449
:101500009E0808957F928F929F92AF92BF92CF9242
:10151000DF92EF92FF920F931F93DF93CF93CDB79C
:10152000DEB760970FB6F894DEBF0FBECDBFFC01EB
:101530006B018081882309F459C17F01CF0161E0EB
:101540000E946417E82FF0E0E332F10508F04EC185
:10155000EC5CFF4FEE0FFF1F0590F491E02D099416
:10156000C60161E00E94E817C6016EEC70E03AC166
:10157000C60161E00E94E81700E011E0C601F80131
:1015800060810E94E817F8018081882309F42CC14A
:101590000F5F1F4FF1E00F311F0781F725C181E079
:1015A000809367027BC0C60161E00E94E81780E972
:1015B00092E0DEC0C70162E00E946917BC0180E9C9
:1015C00092E0E5C0C70162E00E9469175C01C701B3
:1015D00064E00E946417813158F5E82EFF248E01E3
:1015E0000F5F1F4FC801B501A70128E63AE00E942E
:1015F000AC06C60161E00E94E817E00EF11E06C0CD
:10160000C601F80161918F010E94E8170E151F05B0
:10161000B9F7EAC0C70162E00E946917882E792EE7
:10162000C70164E00E946417982EF0E1F81728F4CF
:10163000C60162E00E94E817D7C08E010F5F1F4FFE
:10164000C801682D772D492D50E028E63AE00E9428
:10165000AC06580115E0092D0B5F08C0C701612FCA
:101660000E946417F50181935F011F5F1017B1F7A6
:10167000882D972DBE016F5F7F4F492D50E020E7E9
:101680003AE00E94C806C60161E00E94E817C60160
:10169000692DD0CF8CE292E00E940509C60161E07D
:1016A000C9CFC70162E00E946417682F8CE292E004
:1016B00070E00E94F808F2CFC70162E00E94641750
:1016C00060E0813009F461E08CE292E00E940B0955
:1016D000E5CFC70162E00E946417682F70E076953D
:1016E000679561708CE292E00E940B09C70162E08D
:1016F0000E946417682F70E0617070708CE292E055
:101700000E940E09CBCFC70162E00E947B17AB019C
:10171000BC018CE292E00E94FD08C0CFC70162E0EC
:101720000E946417682F70E0617070708AE692E022
:101730000E945C0FB3CFC70162E00E946417682F5C
:1017400070E0617070708AE692E00E94660FC601D8
:1017500061E00E94E81780E992E00E94060D682F80
:10176000C60168CFC60161E00E94E8178FEC92E0E5
:101770000E941E0D35C08AE692E061E00E94720F61
:10178000C70162E00E946917BC018FEC92E00E94E1
:10179000020D84CFC70162E00E946417482F8F3F7B
:1017A00031F48AE692E060E04FEF5FEF07C0853BDF
:1017B00008F044EB8AE692E060E050E00E94A20E5E
:1017C0006DCFC60161E00E94E81780E992E006C093
:1017D000C60161E00E94E8178FEC92E00E941A0DAA
:1017E000BC01C6010E94041881E001C080E060963F
:1017F0000FB6F894DEBF0FBECDBFCF91DF911F9122
:101800000F91FF90EF90DF90CF90BF90AF909F909F
:101810008F907F9008950F931F9380917E039091F6
:101820007F03892B09F489C080917E0390917F0307
:10183000049709F088C081C0109267020E94E80CEA
:101840008091580390915903892B21F1809158037D
:10185000909159030497F1F080915D02882349F437
:101860008DE592E040E25EE460E070E00E94CA082C
:1018700011C08DE592E00E94A508882359F085E308
:1018800093E00E94C91684E08093570384E393E0B9
:101890000E94BE1480915703882361F08DE592E089
:1018A0000E94A20885E393E00E94D71684E393E0A8
:1018B0000E94BE148091580390915903049709F037
:1018C00042C08BE593E00E949A178AE190E060E0C5
:1018D0000E946407082F85E393E060E00E9464178C
:1018E000182F8DE592E00E94A20885E393E06BE556
:1018F00073E00E94A60C8823B9F4101711F01F3F63
:1019000071F485E393E06BE573E00E94820A88231B
:1019100059F48BE593E065E00E94E81705C085E384
:1019200093E00E94D7160FC085E393E00E94D7167C
:1019300084E393E00E941E1506C08091670288230D
:1019400009F47ECF79CF1F910F910895CF92DF9246
:10195000EF92FF920F931F93CF93DF938C017B0144
:10196000FC018081882351F16801C80160E00E9478
:101970006417982F8077803709F59037B1F4C70145
:101980000E949A17C1E0D0E009C0C6016C2F0E94E6
:101990006417682FC7010E94E8172196F80180811B
:1019A00090E0C817D9078CF307C0913739F0923708
:1019B00029F080E0933719F481E001C080E0DF91E5
:1019C000CF911F910F91FF90EF90DF90CF900895EE
:1019D000F8940E94DE070E947F078AE692E00E9448
:1019E000F30F8CE292E00E94450A789408950E94D9
:1019F000E80C0E940B0C0E94EB088CE292E00E9423
:101A00005B09F7CFFC0176AF65AF0895FC01448D0B
:101A1000558D25AD36ADC90102974817590714F405
:101A200080E0089580E02E5F3F4F241735070CF0CB
:101A300081E00895FC0185AD96AD0895FC0101900B
:101A4000F081E02D22813381C90108950F931F9306
:101A5000CF93DF93EC018C01025F1F4FC8010E94FE
:101A6000A508882391F0E881F981A081B1812D91A9
:101A70003C91CF01F90109958823E1F1488D598DF9
:101A80006A8D7B8DC8010E94CA088E010C5F1F4FB2
:101A9000C8010E94A508882369F1C80140E251EA03
:101AA00067E070E00E94CA08E881F98122813381F1
:101AB0002C8F3D8FCE018096B9010E94DD15BC01AF
:101AC00097FF03C060E070E006C08F3F910519F0FA
:101AD00014F06FEF70E08DAD9EAD892B11F460E0D6
:101AE00070E0EA81FB81A081B1812D913C91CF0111
:101AF000F9010995DF91CF911F910F9108956F9290
:101B00007F928F929F92AF92BF92CF92DF92EF928D
:101B1000FF920F931F93CF93DF93EC011D8E1C8ECA
:101B20008E8D9F8D40E050E060EE70E40E94F906DB
:101B30003B014C018E8D9F8D029646E656E666EA85
:101B40007EE30E94F9065B016C018E8D9F8D0496E9
:101B500040E050E060E172E40E94F9067B018C01F4
:101B6000CE0180960E94A815C401B30120E030E0A8
:101B700040E050E00E945303882391F5C601B5016F
:101B800020E030E040E050E00E945303882341F51C
:101B9000C801B70120E030E040E050E00E9453036C
:101BA0008823F1F40F2EF0E06F2EF0E07F2EF0EEA0
:101BB0008F2EF0E49F2EF02D0F2EF6E6AF2EF6E6D8
:101BC000BF2EF6EACF2EFEE3DF2EF02D0F2EF0E033
:101BD000EF2EF0E0FF2EF0E10F2FF2E41F2FF02D9B
:101BE00068A279A28AA29BA2ACA2BDA2CEA2DFA2C9
:101BF000E8A6F9A60AA71BA71EAE1DAECE01049645
:101C000040E251EA67E070E00E94CA08488D598DB1
:101C10006A8D7B8DCE010E960E94CA08DF91CF910E
:101C20001F910F91FF90EF90DF90CF90BF90AF90FA
:101C30009F908F907F906F900895AF92BF92CF92B8
:101C4000DF92EF92FF920F931F93CF93DF93EC01FC
:101C500058016901798368835B834A8304960E94F3
:101C60009E08CE010E960E949E08A88EB98ECA8E3E
:101C7000DB8EFF8EEE8ECE0180960E94A8158E8D93
:101C80009F8D892B21F48CE090E09F8F8E8FCE0169
:101C90000E947F0DDF91CF911F910F91FF90EF90E8
:101CA000DF90CF90BF90AF90089597B18095982323
:101CB00097B998B1982398B9EAE7F0E080818F68E6
:101CC00080830895282F80917A0086FF02C080E0EB
:101CD00008959FB7F89470936902609368022F701B
:101CE000206420937C0080917A00806480937A0045
:101CF0009FBF81E008951F920F920FB60F9211249B
:101D00002F933F934F938F939F93EF93FF93209144
:101D1000780040917900E0916802F0916902942F77
:101D200080E030E0822B932B91838083FF91EF91B1
:101D30009F918F914F913F912F910F900FBE0F90D8
:101D40001F901895E62FF0E0EE0FFF1FEA5EFC4FA4
:101D5000518340830895FC018FB7F894EB55FF4FF2
:101D600020813181428153818FBFB901CA01089519
:101D7000FC01EB55FF4F80819181A281B3818C538F
:101D8000964FAF4FBF4F80839183A283B383E0917F
:101D90008103F0E082818F7D828380911803882304
:101DA000E1F480911603909117038F5F9F4FA9F084
:101DB000299A209116033091170380EA90E0AC0134
:101DC000249FC001259F900D349F900D11248058B1
:101DD0009A4D9093890080938800809118038F5FBB
:101DE0008093180380911803893010F01092180323
:101DF0000895009731F52FB7F894442351F01092CD
:101E0000700080918203E82FF0E09281662381F0D8
:101E10000DC0862F81508E3F70F01092700080911F
:101E20008203E82FF0E092816F3F11F482E001C05D
:101E300080E09D7F29C06093B40085E080937000AE
:101E40002BC0019759F52FB7F894442359F083E03C
:101E50008093B00080918103E82FF0E092816623A7
:101E600089F00EC0862F81508E3F88F083E08093EA
:101E7000B00080918103E82FF0E092816F3F11F470
:101E800088E001C080E0977F892B828305C0609342
:101E9000B30083E88093B0002FBF08958091810341
:101EA000E82FF0E09281662311F080E101C080E02C
:101EB0009F7E892B82830895809113029091140252
:101EC00061116FEF41E00E94F90E0895FC01EC559D
:101ED000FF4F108261116FEF80E090E041E00E94BF
:101EE000F90E0895FC01EC55FF4F608308951F9291
:101EF0000F920FB60F9211242F933F934F935F933E
:101F00006F937F938F939F93AF93BF93EF93FF93C1
:101F10008AE692E00E94B80EFF91EF91BF91AF91D7
:101F20009F918F917F916F915F914F913F912F91F1
:101F30000F900FBE0F901F9018951F920F920FB623
:101F40000F92112429980F900FBE0F901F90189593
:101F50004091150380911102909112020E94F90E96
:101F60000895809113039091140341E00E94F90EAB
:101F700008951F920F920FB60F9211248F93EF9333
:101F8000FF938091B400882331F0E0918203F0E068
:101F9000828182608283FF91EF918F910F900FBEBB
:101FA0000F901F9018951F920F920FB60F92112449
:101FB0008F93EF93FF93E0918203F0E082818D7F16
:101FC0008283FF91EF918F910F900FBE0F901F9022
:101FD0001895CB01BA01422F0E942B120895CB0114
:101FE0000E94F91008950F931F938C018FEF9FEFBC
:101FF00090931703809316030E94241482E0809329
:10200000800089E1809381001092820080E49CE945
:10201000909387008093860082E280936F00A0E710
:10202000B0E01C92E0918103F0E0818180628183C5
:10203000E0918203F0E082818D7F8283E0918203D0
:10204000F0E0818182608183E0918103F0E0828110
:10205000877F8283E0918103F0E0818188608183C2
:10206000E0918103F0E082818F7E8283E0918103A1
:10207000F0E081818061818383E88093B00086E015
:102080008093B1001092B3001092B40085E08C935D
:10209000C8010E94B114C80141960E94B114C80140
:1020A00086960E947F0DC8018B599F4F0E947F0D1D
:1020B00004E313E0C80161E00E94CE14C801019658
:1020C0000E94D71681E061E00E948F112998219A21
:1020D0001092150380E090E00E94F91060E070E03B
:1020E00080E090E041E00E942B121F910F91089533
:1020F000AF92BF92CF92DF92EF92FF920F931F9316
:102100006C0163E040E00E947514A1E1AA2EB12C9D
:10211000AC0CBD1CC50166E041E00E94751481E273
:1021200092E0F60193A382A38BE192E095A384A3AE
:10213000A6014E5D5F4FC6018696B60100E513EC21
:1021400020E030E0FCE0EF2EF12C0E941D0EC601D5
:102150008B599F4FB50124E230E0C20ED31EA60179
:1021600000E513EC20E030E0E2E1EE2EF12C0E94DD
:102170001D0E80E890E0C80ED91E81E0F601819323
:10218000108211821282138288E190E064E870E488
:102190000E9442079C013695279536952795237016
:1021A0003070309312022093110234E09695879597
:1021B0003A95E1F79C01237030703093140320931B
:1021C0001303969587959695879583709070909355
:1021D0001402809313021F910F91FF90EF90DF90F4
:1021E000CF90BF90AF9008958AE692E00E94781059
:1021F0000895AC018091190390911A03481759076B
:1022000009F48CC050931A0340931903AFB7F894A4
:1022100080911B03882309F080C080911C038823D0
:1022200009F07BC010926E0041155105A1F483E0C6
:1022300084BDE0912103F0E03281209122032F70D0
:1022400081E090E002C0880F991F2A95E2F78095FF
:102250008323828334C04F3F5105B1F483E084BDB2
:10226000E0912103F0E03281209122032F7081E080
:1022700090E002C0880F991F2A95E2F7282F209539
:102280002323282B22831BC0E0912103F0E032811D
:10229000209122032F7081E090E002C0880F991FE7
:1022A0002A95E2F7282F20952323282B228380913B
:1022B0002003882311F083E801C083E284BD90E00D
:1022C00057FF04C091E0509541955F4FBA014F3FD1
:1022D000510519F014F06FEF70E080912303E82F9F
:1022E000F0E05281809124038F7021E030E002C041
:1022F000220F331F8A95E2F7422F992311F4822F80
:1023000001C080E040954523842B82838091200387
:10231000882311F067BD01C068BDAFBF0895882351
:1023200011F490E002C091E0962790931B0388235C
:1023300011F460E002C0611161E060931C03992315
:1023400039F014BC83E085BD81E080936E00089570
:10235000662309F473C0E0912503F0E03181809198
:1023600026038F7041E050E0BA0102C0660F771F6C
:102370008A95E2F7262F20952323262B2183E091AF
:102380002503F0E03281809126038F70BA0102C0EC
:10239000660F771F8A95E2F7262F20952323262B99
:1023A0002283E0912703F0E03181809128038F7030
:1023B000BA0102C0660F771F8A95E2F7262F209593
:1023C0002323262B2183E0912703F0E032818091A3
:1023D00028038F70BA0102C0660F771F8A95E2F753
:1023E000262F20952323262B2283E0912903F0E03A
:1023F000318180912A038F70BA0102C0660F771F66
:102400008A95E2F7262F20952323262B2183E0911E
:102410002903F0E0928180912A038F7002C0440F5B
:10242000551F8A95E2F740954923428392E094BD77
:1024300090936E0087EC87BD95BD089583E084BDC1
:1024400085BD18BC10926E008091190390911A03FB
:102450000E94F9100895EF92FF920F931F938B0142
:102460009C01F42E80911C03882309F481C0EFB6EF
:10247000F894011511052105310509F45BC0C90166
:10248000B80128EC30E040E050E00E946C18CA012E
:10249000B901209115023091160240E050E00E94EF
:1024A0006C18C901DA0180932B0390932C03A0933D
:1024B0002D03B0932E0382E080936E00809127035A
:1024C000E82FF0E04281809128038F7021E030E016
:1024D00002C0220F331F8A95E2F7922FFF2011F0DE
:1024E000822F01C080E090959423892B8283E09114
:1024F0002503F0E04281809126038F7021E030E0D7
:10250000B90102C0660F771F8A95E2F7CB0180956B
:1025100084238283E0912903F0E0928180912A0351
:102520008F7002C0220F331F8A95E2F7209529236E
:1025300022831DC010926E00E0912503F0E03281ED
:10254000209126032F7081E090E002C0880F991F30
:102550002A95E2F7282F20952323282B22831092F7
:102560002B0310922C0310922D0310922E03EFBE1A
:102570001F910F91FF90EF9008951F920F920FB649
:102580000F9211242F933F934F935F938F939F93B9
:10259000EF93FF932091190330911A0380911D034B
:1025A00090911E03820F931F90931E0380931D032F
:1025B0004CE08337940754F083579C4090931E035C
:1025C00080931D0380911F038E5F0BC097FF0CC08B
:1025D0008D58934F90931E0380931D0380911F038A
:1025E0008250877080931F03232B51F08091330317
:1025F0008F5F80933303815080FD02C021E001C0D2
:1026000020E081E090E000901F0302C0880F991F36
:102610000A94E2F7482F50E080918303E82FF0E01E
:102620009281842F837C09F080E89F77892B8283B5
:102630009091830331E0322711F020E005C020E0C3
:10264000842F8D7D09F021E0E92FF0E09281222393
:1026500011F080E201C080E09F7D892B8283809110
:102660008103E82FF0E092819E7F20E0842F807F1D
:1026700009F021E0922B928390918303332311F090
:1026800080E006C080E047775070452B09F081E07C
:10269000E92FF0E09281882311F080E401C080E00E
:1026A0009F7B892B8283FF91EF919F918F915F9107
:1026B0004F913F912F910F900FBE0F901F90189543
:1026C0001F920F920FB60F9211242F933F934F93A7
:1026D0005F936F937F938F939F93AF93BF93EF938A
:1026E000FF9380912B0390912C03A0912D03B09127
:1026F0002E030097A105B10509F468C080912F034E
:1027000090913003A0913103B09132030196A11D45
:10271000B11D80932F0390933003A0933103B093A6
:10272000320320912F0330913003409131035091B7
:10273000320380912B0390912C03A0912D03B09133
:102740002E03281739074A075B0708F43FC0E091BA
:102750002903F0E0328180912A038F7061E070E0FC
:10276000AB0102C0440F551F8A95E2F7242F209534
:102770002323242B228380912F0390913003A09157
:102780003103B091320320912B0330912C034091FF
:102790002D0350912E03821B930BA40BB50B80933A
:1027A0002F0390933003A0933103B0933203E09151
:1027B0002903F0E0928180912A038F7002C0660F96
:1027C000771F8A95E2F7609569236283FF91EF9105
:1027D000BF91AF919F918F917F916F915F914F9139
:1027E0003F912F910F900FBE0F901F9018959091D1
:1027F00083039093210380912203807F85608093DF
:1028000022039093230380912403807F8760809329
:102810002403809181038093250380912603807F88
:102820008260809326039093270380912803807F02
:102830008260809328039093290380912A03807FEC
:10284000836080932A0308951F9310921A031092B5
:102850001903E0918303F0E0818180628183E0913C
:102860008303F0E082818F7D8283E0918303F0E037
:10287000818180688183E0918303F0E081818064BD
:102880008183E0918303F0E082818F7B8283E091FA
:102890008103F0E081818160818310921B0310929B
:1028A0001E0310921D0311E010931F0388E190E0B6
:1028B00064E870E40E94420780FF15C01093200373
:1028C0009091830380912203807F8660809322030E
:1028D000909321039091810380912403807F8093C2
:1028E0002403909323031F910895FC0187E292E053
:1028F0009183808364831786408B108617821286AB
:102900001186148613861686158608950F931F93D5
:10291000CF93DF93EC018FB7F8940D811E818FBFA9
:10292000BE016B5F7F4F8C810E94620E8823A1F0F5
:102930008F8590E0FC01EE0FFF1FEC0FFD1F10874D
:1029400007830196837090708F87C80168890E9401
:1029500030089B838A8381E0DF91CF911F910F9193
:10296000089521E030E0FC01048002C0220F331FF3
:102970000A94E2F7822F0E94550E08959FB7F894AB
:10298000E0918203F0E082818B7F8283E091830378
:10299000F0E082818F7E82839FBF0895FC01608377
:1029A0008081882321F08091C100806C03C08091D8
:1029B000C1008F738093C10008951F920F920FB6CC
:1029C0000F9211242F933F934F935F936F937F93B5
:1029D0008F939F93AF93BF93EF93FF9380917E0369
:1029E00090917F03892B69F080917E0390917F0302
:1029F000049739F08BE593E00E94A2178093C600FC
:102A00000CC0E0918203F0E082818B7F8283E091B1
:102A10008303F0E082818F7E8283FF91EF91BF91EB
:102A2000AF919F918F917F916F915F914F913F9166
:102A30002F910F900FBE0F901F9018951F93FC01C0
:102A400080818823A9F01FB7F894CF0187960E9450
:102A5000A217E0918203F0E0928194609283E0916A
:102A60008303F0E09281906192838093C6001FBF40
:102A70001F9108951F920F920FB60F9211242F935A
:102A80003F934F935F936F937F938F939F93AF93F6
:102A9000BF93EF93FF936091C60085E393E00E949C
:102AA000DE16FF91EF91BF91AF919F918F917F9132
:102AB0006F915F914F913F912F910F900FBE0F90AB
:102AC0001F9018950F931F938C01FC011192CF0159
:102AD0000E94D016C80187960E9492171092C500D6
:102AE00089E18093C40080E48093C00088E18093F2
:102AF000C10086E08093C200E0918203F0E0818112
:102B000084608183E0918303F0E08181806181832F
:102B10005098589AE0918203F0E082818B7F828303
:102B2000E0918303F0E082818F7E82831F910F9179
:102B3000089584E393E00E946215089583E28093F0
:102B4000810386E28093820389E280938303089560
:102B5000CF93DF93EC011C8E1B8E1A8E198E1E8E66
:102B60001D8E80E090E0A0E0B0E088879987AA877A
:102B7000BB878C839D83AE83BF8388839983AA831D
:102B8000BB83188E0BC0E82FF0E03696EE0FFF1FC8
:102B9000EC0FFD1F118210828F5F888F888D84302B
:102BA00090F3188E80E090E0A0E0B0E08C8B9D8BDD
:102BB000AE8BBF8BDF91CF9108952F923F924F92B2
:102BC0005F926F927F928F929F92AF92BF92CF92BD
:102BD000DF92EF92FF920F931F93DF93CF93CDB7C6
:102BE000DEB728970FB6F894DEBF0FBECDBF98872B
:102BF0008F83FC01058CF68DE02DE61BF70BFA8325
:102C0000E983FC01838D948D29813A81820F931F82
:102C1000948F838F8150914024F080E091E0948FD5
:102C2000838FEF81F885838D948D80509F4F34F48E
:102C300080E09FEFEF81F885948F838F29813A811F
:102C4000B901882777FD8095982F0E948303EF8133
:102C5000F88520813181428153810E9459026B8322
:102C60007C838D839E83EF81F885638D748D8827A7
:102C700077FD8095982F0E948303EF81F88524814A
:102C80003581468157810E9459021B012C01EF8139
:102C9000F885818D928DC980DA80C81AD90A008D95
:102CA00010E00A5F1F4F3801660C771C6E0E7F1E06
:102CB000F30160817181882777FD8095982F0E94AC
:102CC00083039B01AC01EF81F8856489758986894E
:102CD00097890E94FB014B015C01EF81F885648BB1
:102CE000758B868B978BF301D182C082EE24D7FC43
:102CF000E094FE2CC701B6010E9483039B01AC0146
:102D0000C501B4010E942C02EF81F885648B758B9C
:102D1000868B978B0550104003701070008F2085B4
:102D20003185428553850E9459027B018C0129819E
:102D30003A81EF81F885328F218F6B817C818D8183
:102D40009E81A20191010E942C02A80197010E947C
:102D50002C020E94E1039B01AC01220F331FC90129
:102D600028960FB6F894DEBF0FBECDBFCF91DF918E
:102D70001F910F91FF90EF90DF90CF90BF90AF9099
:102D80009F908F907F906F905F904F903F902F908B
:102D90000895FC011182108212A214A213A20895B8
:102DA000FC011182108212A214A213A20895FC0148
:102DB0001182108212A214A213A20895DC0193962C
:102DC0008D919C919497892B91F4653D19F481E044
:102DD00090E066C011961C9211971C9292961C92DC
:102DE000929794961C921E92939781E020C093969E
:102DF0008D919C9194970197E9F4603260F49596D7
:102E00006C93959795968C919597882309F438C083
:102E100082E090E045C011961C9211971C92929608
:102E20001C92929794961C921E92939782E092968F
:102E30008C93089593968D919C919497029719F590
:102E40008C918032B8F411968C911197862728E0E6
:102E50009CE880FB86950EF489272A95D1F7119678
:102E60008C9311978C91FD01E80FF11D62838C9179
:102E70008F5F8C939C9195968C919597981718F1EC
:102E800083E090E00DC093968D919C919497039769
:102E9000D1F411968C911197861739F484E090E063
:102EA00094969C938E939397089511961C921197E4
:102EB0001C9292961C92929794961C921E929397B3
:102EC00083E092968C930895FC01E60FF11D8281B8
:102ED0000895E62FF0E0DC01AE0FBF1F12962C9193
:102EE0003196E80FF91F4281942F80E030E0282BC3
:102EF000392BC9010895A62FB0E0FC01EA0FFB1F92
:102F00006281FD013196E80FF91F72811296FC0172
:102F1000EA0FFB1F22811196A80FB91F12969C91F0
:102F2000822F0895FC011182108212A214A213A212
:102F300015A20895FC011182108212A214A213A2FC
:102F400015A20895DC0193968D919C919497892BFD
:102F500041F481E090E094969C938E93939725EDB5
:102F600035C093968D919C919497019739F42C914B
:102F70008C918823B9F082E090E024C093968D91E3
:102F80009C919497029789F495968C919597FD0161
:102F9000E80FF11D22818F5F95968C9395979C91F8
:102FA0008917A0F083E090E00DC093968D919C91DD
:102FB0009497039711F020E009C011962C91119776
:102FC00084E090E094969C938E939397822F08953B
:102FD000DC018C918032B8F411968C911197862780
:102FE00028E09CE880FB86950EF489272A95D1F786
:102FF00011968C9311978C91FD01E80FF11D62835E
:103000008C918F5F8C930895DC018C918032B8F4A1
:1030100011968C911197862728E09CE880FB869575
:103020000EF489272A95D1F711968C9311978C91DC
:10303000FD01E80FF11D62838C918F5F8C938C9161
:103040008032B8F411968C911197872728E09CE87C
:1030500080FB86950EF489272A95D1F711968C93DB
:1030600011978C91FD01E80FF11D72838C918F5F98
:103070008C930895629FD001739FF001829FE00DB1
:10308000F11D649FE00DF11D929FF00D839FF00DE7
:10309000749FF00D659FF00D9927729FB00DE11D93
:1030A000F91F639FB00DE11DF91FBD01CF01112470
:1030B000089597FB092E07260AD077FD04D02ED05D
:1030C00006D000201AF4709561957F4F0895F6F7A9
:1030D000909581959F4F0895A1E21A2EAA1BBB1BC4
:1030E000FD010DC0AA1FBB1FEE1FFF1FA217B307D4
:1030F000E407F50720F0A21BB30BE40BF50B661FEA
:10310000771F881F991F1A9469F7609570958095AD
:1031100090959B01AC01BD01CF010895AA1BBB1B7B
:1031200051E107C0AA1FBB1FA617B70710F0A61BC7
:10313000B70B881F991F5A95A9F780959095BC01E8
:10314000CD0108952F923F924F925F926F927F929E
:103150008F929F92AF92BF92CF92DF92EF92FF92A7
:103160000F931F93CF93DF93CDB7DEB7CA1BDB0B53
:103170000FB6F894DEBF0FBECDBF09942A883988F8
:1031800048885F846E847D848C849B84AA84B984FF
:10319000C884DF80EE80FD800C811B81AA81B9810B
:1031A000CE0FD11D0FB6F894DEBF0FBECDBFED011F
:1031B0000895EE0FFF1F0590F491E02D0994F89407
:0231C000FFCF3F
:1031C20045787472756465720000000000000000AA
:1031D20000000102020303030304040404040404C0
:1031E200040505050505050505050505050505058E
:1031F200050606060606060606060606060606066E
:10320200060606060606060606060606060606065C
:10321200060707070707070707070707070707073D
:10322200070707070707070707070707070707072C
:10323200070707070707070707070707070707071C
:10324200070707070707070707070707070707070C
:1032520007080808080808080808080808080808ED
:1032620008080808080808080808080808080808DC
:1032720008080808080808080808080808080808CC
:1032820008080808080808080808080808080808BC
:1032920008080808080808080808080808080808AC
:1032A200080808080808080808080808080808089C
:1032B200080808080808080808080808080808088C
:1032C200080808080808080808080808080808087C
:1032D2000801000200C80000000000B10F00000059
:0A32E20000A80F0000000086140091
:00000001FF
