:100000000C9487000C94AF000C94AF000C94AF00DC
:100010000C94AF000C94AF000C94AF000C947010D3
:100020000C94AF000C94AF000C94AF000C94AF0094
:100030000C94AF000C94AF000C94AF000C94AF0084
:100040000C94AF000C94AF000C949D140C94AF0072
:100050000C9444140C94DB060C94AF000C94AF0089
:100060000C94AF000C94AF00050A240A280A2F0A4A
:100070009F0ABB0BD10ABB0BAA0ABB0BB70ABB0B6F
:10008000DC0AE90A140B260BBB0BBB0BBB0BBB0B2F
:10009000BB0BBB0BF50A980ABB0B370A5D0ABB0BFF
:1000A000BB0BBB0BFC0A050B3D0B440B0D0A4D0BA8
:1000B000580B850B010049033600FF006B00D1008F
:1000C000A000B800D500A6000A0199003F018E00EB
:1000D00074018400A9017C00DE01740013026C002D
:1000E000480265007D025D00B2025600E7024E0044
:1000F0001C03460051033D0086033200BB0322006F
:10010000F0030300D209DC0D3E121115161511245F
:100110001FBECFEFD4E0DEBFCDBF12E0A0E0B1E064
:10012000E2E3F1E302C005900D92AA32B107D9F7DC
:1001300013E0AAE2B2E001C01D92AC37B107E1F7CB
:1001400011E0CEE0D1E004C02297FE010E946218C7
:10015000C430D107C9F70E94800C0C9497180C94F6
:100160000000A0E0B0E0E7EBF0E00C942918DC011F
:100170002B01FA019C91923008F439C1EB0188817E
:10018000823008F433C1943069F4843009F02FC10F
:1001900011969C9111978981981709F428C1A9E0BB
:1001A000B1E025C1843009F421C18230A9F4923034
:1001B00009F01DC19A01AD0188E0EA010990AE0184
:1001C000E90109929E018150C1F7E20189811196EE
:1001D0009C918923818308C1923009F407C112964A
:1001E0002D903C901397EB018A819B811496AD90E2
:1001F000BD90CD90DC901797EC80FD800E811F8123
:100200009101281B390BB90137FF04C066277727F6
:10021000621B730B603271050CF061C0121613067D
:100220006CF537014801062E04C0969487947794A4
:1002300067940A94D2F721E030E040E050E004C037
:10024000220F331F441F551F6A95D2F721503040AB
:10025000404050402E213F2140235123211531059C
:100260004105510521F021E030E040E050E0790106
:100270008A01E628F728082919293CC0232BD1F147
:10028000260E371E35014601062E04C0969487942B
:10029000779467940A94D2F721E030E040E050E090
:1002A00004C0220F331F441F551F6A95D2F72150F7
:1002B0003040404050402A213B214C215D212115F6
:1002C00031054105510521F021E030E040E050E0EA
:1002D00059016A01A628B728C828D9280BC0821559
:1002E00093052CF01C01AA24BB24650103C0EE2455
:1002F000FF24870111969C91D20111968C91981739
:1003000009F445C0992339F0A80197012A193B093E
:100310004C095D0906C0A60195012E193F09400B45
:10032000510B57FD08C0118233822282248335830A
:10033000468357831DC081E08183338222828827D0
:100340009927DC01821B930BA40BB50B8483958347
:10035000A683B7830DC0220F331F441F551F24836C
:100360003583468357838281938101979383828368
:100370002481358146815781DA01C9010197A1099C
:10038000B1098F5F9F4FAF4FBF4328F30BC09183DD
:1003900033822282EA0CFB1C0C1D1D1DE482F582B7
:1003A0000683178383E080832481358146815781CA
:1003B00057FF1AC0C901AA2797FDA095BA2F8170CF
:1003C0009070A070B0705695479537952795822B01
:1003D000932BA42BB52B84839583A683B78382812B
:1003E0009381019693838283DF0101C0D201CD0105
:1003F000CDB7DEB7E2E10C944518A0E2B0E0E3E04F
:10040000F2E00C94351869837A838B839C832D8367
:100410003E834F835887E9E0EE2EF12CEC0EFD1E53
:10042000CE010196B7010E94D4058E010F5E1F4FC9
:10043000CE010596B8010E94D4058A8991E08927EA
:100440008A8BC701B801AE01475E5F4F0E94B100C1
:100450000E94FF04A096E6E00C945118A0E2B0E0E0
:10046000E4E3F2E00C94351869837A838B839C83F0
:100470002D833E834F835887F9E0EF2EF12CEC0E4D
:10048000FD1ECE010196B7010E94D4058E010F5EBC
:100490001F4FCE010596B8010E94D405C701B801CF
:1004A000AE01475E5F4F0E94B1000E94FF04A0961C
:1004B000E6E00C945118A0E2B0E0E1E6F2E00C9422
:1004C000291869837A838B839C832D833E834F8392
:1004D0005887CE010196BE01675F7F4F0E94D40509
:1004E000CE010596BE016F5E7F4F0E94D4059985AF
:1004F000923088F089898230C8F0943019F48230C3
:1005000051F404C0843029F4923081F489E091E000
:10051000C6C0923049F420E09A858A89981321E078
:100520002A87CE010996BBC0823049F420E09A8523
:100530008A89981321E02A8BCE014196B0C02D8480
:100540003E844F8458886D887E888F88988CEE24EE
:10055000FF248701AA24BB24650140E050E060E04D
:1005600070E0E0E0F0E0C10181709070892BE9F06B
:10057000E60CF71C081D191D9A01AB012A0D3B1D45
:100580004C1D5D1D80E090E0A0E0B0E0E614F704B3
:100590000805190520F481E090E0A0E0B0E0BA0180
:1005A000A901480F591F6A1F7B1FAA0CBB1CCC1C3A
:1005B000DD1C97FE08C081E090E0A0E0B0E0A82A32
:1005C000B92ACA2ADB2A3196E032F10549F0660CD5
:1005D000771C881C991C5694479437942794C3CF52
:1005E000FA85EA892B893C898B859C85280F391FE0
:1005F0002E5F3F4F17C0CA0181709070892B61F048
:1006000016950795F794E79480E090E0A0E0B0E8B5
:10061000E82AF92A0A2B1B2B76956795579547955B
:100620002F5F3F4F77FDE7CF0CC0440F551F661F6C
:10063000771F17FD4160EE0CFF1C001F111F21509A
:100640003040403090E0590790E0690790E4790726
:1006500060F32B8F3C8FDB01CA018F779070A07005
:10066000B07080349105A105B10561F447FD0AC061
:10067000E114F1040105110529F0405C5F4F6F4F53
:100680007F4F40781A8EFE1711F081E08A8F4D8FD0
:100690005E8F6F8F78A383E0898FCE0149960E9489
:1006A000FF04A096E2E10C944518A8E1B0E0EBE568
:1006B000F3E00C94351869837A838B839C832D83B4
:1006C0003E834F83588789E0E82EF12CEC0EFD1E07
:1006D000CE010196B7010E94D4058E010F5E1F4F17
:1006E000CE010596B8010E94D4058985823040F07C
:1006F0008989823028F0C701B8010E944C0601C0E8
:1007000081E06896E6E00C945118A8E0B0E0EBE8D0
:10071000F3E00C9432189B01AC0183E08983DA0189
:10072000C9018827B7FD83959927AA27BB27B82E2B
:10073000211531054105510519F482E089833AC03C
:100740008823A9F0203080E0380780E0480780E85F
:10075000580729F460E070E080E09FEC30C0EE24A0
:10076000FF248701E21AF30A040B150B02C079017A
:100770008A018EE1C82ED12CDC82CB82ED82FE82F2
:100780000F831887C801B7010E94B004019718169B
:10079000190684F4082E04C0EE0CFF1C001F111F64
:1007A0000A94D2F7ED82FE820F831887C81AD90AFD
:1007B000DC82CB82BA82CE0101960E94FF04289689
:1007C000E9E00C944E18ACE0B0E0E9EEF3E00C94F4
:1007D000391869837A838B839C83CE010196BE018D
:1007E0006B5F7F4F0E94D4058D81823061F1823032
:1007F00050F1843021F48E81882351F12EC02F8155
:10080000388537FD20C06E812F3131051CF06623FD
:10081000F9F023C08EE190E0821B930B29853A8585
:100820004B855C8504C056954795379527958A95E5
:10083000D2F76623B1F050954095309521953F4F02
:100840004F4F5F4F0EC020E030E040E050E009C065
:100850002FEF3FEF4FEF5FE704C020E030E040E0D4
:1008600050E8B901CA012C96E2E00C945518A8E0B2
:10087000B0E0EDE3F4E00C9431187B018C016115DC
:1008800071058105910519F482E0898360C083E0D8
:1008900089838EE1C82ED12CDC82CB82ED82FE8250
:1008A0000F831887C801B7010E94B004FC0131977B
:1008B000F7FF3BC0222733272E1B3F0B5701680150
:1008C000022E04C0D694C794B794A7940A94D2F782
:1008D00040E050E060E070E081E090E0A0E0B0E057
:1008E00004C0880F991FAA1FBB1F2A95D2F7019732
:1008F000A109B1098E219F21A023B1230097A10551
:10090000B10521F041E050E060E070E04A295B2948
:100910006C297D294D835E836F8378878EE190E01B
:100920008E1B9F0B9C838B8312C0309781F00E2E01
:1009300004C0EE0CFF1C001F111F0A94D2F7ED82B9
:10094000FE820F831887CE1ADF0ADC82CB821A82DE
:10095000CE0101960E94FF042896EAE00C944D18FF
:10096000EF92FF920F931F937B018C0180E0E816BA
:1009700080E0F80681E0080780E0180788F48FEF30
:10098000E816F1040105110531F028F088E090E047
:10099000A0E0B0E017C080E090E0A0E0B0E012C0BE
:1009A00080E0E81680E0F80680E0080781E018079C
:1009B00028F088E190E0A0E0B0E004C080E190E0A1
:1009C000A0E0B0E020E230E040E050E0281B390B2E
:1009D0004A0B5B0B04C016950795F794E7948A952C
:1009E000D2F7F701EF5EFE4F8081281B31094109E4
:1009F0005109C9011F910F91FF90EF900895DF9267
:100A0000EF92FF920F931F93FC01E480F580068123
:100A10001781D1808081823048F480E090E0A0E1AD
:100A2000B0E0E82AF92A0A2B1B2BA5C0843009F470
:100A30009FC0823021F4EE24FF24870105C0E11419
:100A4000F1040105110519F4E0E0F0E096C06281BF
:100A500073819FEF623879070CF05BC022E83FEFAB
:100A6000261B370B2A3131052CF020E030E040E026
:100A700050E02AC0B801A701022E04C07695679500
:100A8000579547950A94D2F781E090E0A0E0B0E056
:100A900004C0880F991FAA1FBB1F2A95D2F7019780
:100AA000A109B1098E219F21A023B1230097A1059F
:100AB000B10521F081E090E0A0E0B0E09A01AB0147
:100AC000282B392B4A2B5B2BDA01C9018F779070C9
:100AD000A070B07080349105A105B10539F427FFED
:100AE00009C0205C3F4F4F4F5F4F04C0215C3F4F18
:100AF0004F4F5F4FE0E0F0E02030A0E03A07A0E089
:100B00004A07A0E45A0710F0E1E0F0E079018A0119
:100B100027C06038710564F5FB01E158FF4FD8012B
:100B2000C7018F779070A070B07080349105A105D7
:100B3000B10539F4E7FE0DC080E490E0A0E0B0E03C
:100B400004C08FE390E0A0E0B0E0E80EF91E0A1FB9
:100B50001B1F17FF05C016950795F794E79431966C
:100B600087E016950795F794E7948A95D1F705C025
:100B7000EE24FF248701EFEFF0E06E2F67956627E4
:100B80006795902F9F77D794DD24D7948E2F8695E5
:100B9000492F462B582F5D29B701CA011F910F918C
:100BA000FF90EF90DF900895FC01DB0140815181BF
:100BB0002281622F6F7770E0221F2227221F9381EC
:100BC000892F880F822B282F30E0991F9927991F92
:100BD00011969C93119721153105A9F541155105E1
:100BE0006105710511F482E037C082E89FEF13962A
:100BF0009C938E9312979A01AB0167E0220F331FEB
:100C0000441F551F6A95D1F783E08C930DC0220FC6
:100C1000331F441F551F12968D919C911397019776
:100C200013969C938E931297203080E0380780E0D3
:100C3000480780E4580758F314962D933D934D933D
:100C40005C93179708952F3F310579F441155105AD
:100C50006105710519F484E08C93089564FF03C065
:100C600081E08C9312C01C9210C02F573040139615
:100C70003C932E93129783E08C9387E0440F551F8B
:100C8000661F771F8A95D1F7706414964D935D9314
:100C90006D937C93179708951F93DC01FB019C9142
:100CA000923008F447C08081823008F443C0943009
:100CB00051F411961C91843099F58181682F70E070
:100CC000611B71093FC0843021F0923031F48230D1
:100CD000B9F18181882389F12DC011961C9111975A
:100CE0008230F1F081811817D9F412962D913C9140
:100CF0001397828193818217930794F028173907FD
:100D0000BCF014968D919D910D90BC91A02D2481E5
:100D1000358146815781281739074A075B0718F440
:100D2000112341F00AC082179307A407B50740F4C6
:100D3000112319F061E070E005C06FEF7FEF02C092
:100D400060E070E0CB011F910895982F863070F419
:100D500087B121E030E002C0220F331F9A95E2F7FD
:100D60002095822387B988B1282328B980917A00F9
:100D70008F6880937A000895282FFA0180917A0075
:100D800086FF02C080E008959FB7F89470932B020D
:100D900060932A0250932D0240932C0210822F70F0
:100DA000206420937C0080917A00806480937A0094
:100DB0009FBF81E008951F920F920FB60F921124EA
:100DC0002F933F934F938F939F93EF93FF93209194
:100DD000780040917900E0912A02F0912B02942F43
:100DE00080E030E0822B932B91838083E0912C0272
:100DF000F0912D0281E08083FF91EF919F918F917F
:100E00004F913F912F910F900FBE0F901F9018950B
:100E1000CF92DF92EF92FF920F931F93CF93DF93C6
:100E20008C017B01FC018081882351F16801C8019C
:100E300060E00E940D17982F8077803709F5903772
:100E4000B1F4C7010E944317C1E0D0E009C0C60158
:100E50006C2F0E940D17682FC7010E9491172196D1
:100E6000F801808190E0C817D9078CF307C091374B
:100E700039F0923729F080E0933719F481E001C00E
:100E800080E0DF91CF911F910F91FF90EF90DF9065
:100E9000CF900895EF92FF920F931F93DF93CF931C
:100EA00000D0CDB7DEB79C01F42E052F162FE72E0C
:100EB000CE010196B90142E050E00E946F186981AD
:100EC0006F3F19F48A818F3FE9F070E080E090E095
:100ED0000E9437047B018C016A8170E080E090E021
:100EE0000E94370420E030E040E85BE30E945B02B0
:100EF0009B01AC01C801B7010E942E02F62E072FFC
:100F0000182FE92E2F2D302F412F5E2DB901CA0148
:100F10000F900F90CF91DF911F910F91FF90EF9065
:100F200008950F931F93DF93CF9300D0CDB7DEB713
:100F30009C018B01CE010196B90142E050E00E9474
:100F40006F1889819A818F5F9F4F11F41A830983EB
:100F500089819A810F900F90CF91DF911F910F910E
:100F600008951F93DF93CF930F92CDB7DEB79C0107
:100F7000162FCE010196B90141E050E00E946F1892
:100F800089818F3F09F4198389810F90CF91DF9177
:100F90001F910895DF93CF9300D0CDB7DEB7CE0178
:100FA000019660E070E042E050E00E946F183A81E4
:100FB00084E6389FC00111242981820F911D8F3C46
:100FC0009105A1F032503D3F28F082E090E06BE1C6
:100FD0000E94891887E0898382E08A83CE01019686
:100FE00060E070E042E050E00E947F180F900F90A8
:100FF000CF91DF910895FC01448D558D25AD36AD1F
:10100000C90102974817590714F480E0089580E059
:101010002E5F3F4F241735070CF081E00895FC0147
:1010200085AD96AD0895FC010190F081E02D2281FF
:101030003381C9010895FC01EE5BFF4F81E080839D
:10104000E254F040A281B381ED91FC91119701909F
:10105000F081E02DCD0160E009950895FC01EE5B83
:10106000FF4F808108950F931F93CF93DF93EC017F
:10107000CE5BDF4F8881C254D040882309F096C0F0
:101080008E01025F1F4FC8010E942B0F882399F128
:10109000E881F981A081B1812D913C91CF01F901C5
:1010A0000995009729F097FD12C0039784F47EC03C
:1010B000CD5BDF4F1882C354D040E881F981828133
:1010C00093819D8F8C8F8951914074F009C0FE01EE
:1010D000ED5BFF4F80818F5F8083863008F466C0B0
:1010E000CE010E941B0862C0488D598D6A8D7B8D90
:1010F000C8010E94500F8E010C5F1F4FC8010E9453
:101100002B0F882309F452C0C80140E251EA67E07E
:1011100070E00E94500F2DAD3EAD8C8D9D8D281B33
:10112000390BFE01EF5BFF4F8081882349F02F30A0
:1011300031055CF41082CE0180960E94201505C016
:101140002A31310514F081E08083CF5BDF4F888145
:10115000C154D040882349F0EA81FB81A081B1814C
:101160002D913C91CF016FEF1FC06C8D7D8DCE0115
:1011700080960E945C15BC0197FF03C060E070E0A0
:1011800006C08F3F910519F014F06FEF70E08DAD40
:101190009EAD892B11F460E070E0EA81FB81A081B3
:1011A000B1812D913C91CF01F9010995DF91CF914A
:1011B0001F910F91089580960E946E160895809653
:1011C0000E946516089580960E9461160895809683
:1011D0000E944C1608954F925F926F927F928F9269
:1011E0009F92AF92BF92CF92DF92EF92FF920F93B6
:1011F0001F93CF93DF93EC011D8E1C8ECE5BDF4FD0
:1012000019921882C354D0408E8D9F8D40E050E0DB
:1012100060EE70E40E944A073B014C018E8D9F8D69
:10122000029646E656E666EA7EE30E944A075B01BE
:101230006C018E8D9F8D049640E050E060E172E479
:101240000E944A077B018C0180E2482E512C4C0EF3
:101250005D1EC2010E944515C401B30120E030E0CB
:1012600040E050E00E945503882391F5C601B50186
:1012700020E030E040E050E00E945503882341F533
:10128000C801B70120E030E040E050E00E94550383
:101290008823F1F40F2EF0E06F2EF0E07F2EF0EEB9
:1012A0008F2EF0E49F2EF02D0F2EF6E6AF2EF6E6F1
:1012B000BF2EF6EACF2EFEE3DF2EF02D0F2EF0E04C
:1012C000EF2EF0E0FF2EF0E10F2FF2E41F2FF02DB4
:1012D00068A279A28AA29BA2ACA2BDA2CEA2DFA2E2
:1012E000E8A6F9A60AA71BA7C20160E070E00E9469
:1012F0004C16CE01049640E251EA67E070E00E948D
:10130000500F488D598D6A8D7B8DCE010E960E94AF
:10131000500FDF91CF911F910F91FF90EF90DF90D1
:10132000CF90BF90AF909F908F907F906F905F9085
:101330004F900895AF92BF92CF92DF92EF92FF92BB
:101340000F931F93CF93DF93EC01580169017983C9
:1013500068835B834A8304960E94240FCE010E9615
:101360000E94240FA88EB98ECA8EDB8EFF8EEE8E61
:10137000CE0180960E9445158E8D9F8D892B21F47C
:101380008CE090E09F8F8E8FCE010E94EB08DF9162
:10139000CF911F910F91FF90EF90DF90CF90BF9072
:1013A000AF9008958EE292E00E94240F08957F92FC
:1013B0008F929F92AF92BF92CF92DF92EF92FF9265
:1013C0000F931F93DF93CF93CDB7DEB760970FB620
:1013D000F894DEBF0FBECDBFFC016B018081882376
:1013E00009F4C9C17F01CF0161E00E940D17E82F08
:1013F000F0E0E632F10508F0BEC1EC5CFF4FEE0F05
:10140000FF1F0590F491E02D0994C60161E00E9450
:101410009117C6016FEC70E0AAC1C60161E00E949D
:10142000911700E011E0C601F80160810E94911758
:10143000F8018081882309F49CC10F5F1F4FF1E000
:101440000F311F0781F795C181E08093380274C086
:10145000C60161E00E9491178CE892E0D3C0C701F9
:1014600062E00E941217BC018CE892E0DAC0C7016A
:1014700062E00E9412175C01C70164E00E940D1730
:10148000813148F5E82EFF248E010F5F1F4FC80100
:10149000B501A7010E946F18C60161E00E94911773
:1014A000E00EF11E06C0C601F80161918F010E9495
:1014B00091170E151F05B9F75CC1C70162E00E94C4
:1014C0001217882E792EC70164E00E940D17982EFE
:1014D000F0E1F81728F4C60162E00E94911749C1B3
:1014E0008E010F5F1F4FC801682D772D492D50E0E9
:1014F0000E946F18580115E0092D0B5F08C0C70145
:10150000612F0E940D17F50181935F011F5F101776
:10151000B1F7CE010196682D772D492D50E00E943C
:101520007F18C60161E00E949117C601692DD5CFD1
:1015300089E392E00E94980CC60161E0CECFC7011A
:1015400062E00E940D17682F89E392E070E00E942C
:101550008B0CF2CFC70162E00E940D1760E0813072
:1015600009F461E089E392E00E949E0CE5CFC70197
:1015700062E00E940D17682F70E0769567956170A4
:1015800089E392E00E949E0CC70162E00E940D1761
:10159000682F70E06170707089E392E00E94A10C86
:1015A000CBCFC70162E00E942417AB01BC0189E3E5
:1015B00092E00E94900CC0CFC70162E00E940D171C
:1015C000682F70E0617070708CE692E00E943310BA
:1015D000B3CFC70162E00E940D17682F70E0617001
:1015E00070708CE692E00E944810C60161E00E9493
:1015F00091178CE892E057C0C60161E00E949117F4
:1016000080ED92E00E941308B0C08CE692E061E0A9
:101610000E946B10C70162E00E941217BC0180EDAE
:1016200092E00E94E70888CFC70162E00E940D1790
:10163000482F8F3F21F48CE692E060E011C0853B9B
:1016400008F044EB8CE692E060E013C0C70162E072
:101650000E940D17482F8F3F31F48CE692E061E035
:101660004FEF5FEF07C0853B08F044EB8CE692E05C
:1016700061E050E00E94E4105FCFC60161E00E948B
:1016800091178CE892E006C0C60161E00E949117B4
:1016900080ED92E00E940F0868C0C60161E00E94E0
:1016A000911780ED92E00E94FB07682FC60115CFCD
:1016B000C60161E00E9491178CE892E00E942E081A
:1016C000882311F410E001C010E880ED92E00E9440
:1016D0002E08882311F4EE2402C090E4E92E8CE653
:1016E00092E00E948D0F082F8CE892E00E94FB0789
:1016F000E12AE82A10E00F701070000F111F000F90
:10170000111FE02AC6016E2DE8CEC60161E00E94DD
:1017100091178CE892E00E94E308BC01C6010E9488
:10172000AD178CE892E00E94DF08BC01C6010E9460
:10173000AD178CE892E00E94DB08BC01C6010E9454
:10174000AD1780ED92E00E94E308BC01C6010E9443
:10175000AD1780ED92E00E94DF08BC01C6010E9437
:10176000AD1780ED92E00E94DB08BC01C6010E942B
:10177000AD1781E001C080E060960FB6F894DEBF3F
:101780000FBECDBFCF91DF911F910F91FF90EF90D2
:10179000DF90CF90BF90AF909F908F907F900895F3
:1017A0000F931F938091740390917503892B09F413
:1017B00089C08091740390917503049709F088C0E3
:1017C00081C0109238020E946B0C80914E03909160
:1017D0004F03892B21F180914E0390914F03049781
:1017E000F1F080912E02882349F48EE292E040E2EB
:1017F0005EE460E070E00E94500F11C08EE292E063
:101800000E942B0F882359F08BE293E00E947216FE
:1018100084E080934D038AE293E00E942914809132
:101820004D03882361F08EE292E00E94280F8BE244
:1018300093E00E9480168AE293E00E94291480912E
:101840004E0390914F03049709F042C081E593E065
:101850000E9443178AE190E060E00E94B107082FE0
:101860008BE293E060E00E940D17182F8EE292E069
:101870000E94280F8BE293E061E573E00E94080765
:101880008823B9F4101711F01F3F71F48BE293E035
:1018900061E573E00E94D709882359F481E593E05C
:1018A00065E00E94911705C08BE293E00E948016CC
:1018B0000FC08BE293E00E9480168AE293E00E94C0
:1018C000841406C080913802882309F47ECF79CF32
:1018D0001F910F9108951F93F89414B714BE0E949E
:1018E000660E0E94CA071F708CE692E0612F0E946C
:1018F0000F1189E392E00E94BE0D78941F91089524
:101900000E946B0C0E94D00B0E94E10D89E392E0D3
:101910000E94E80CF7CFFC01748363831082089562
:10192000FC01458356836783708781E08083089537
:10193000FC01818591E0892781870895FC016183FD
:1019400008951F93CF93DF93EC01162F8A816623AE
:1019500019F58823C1F189818823A9F18A85882313
:1019600091F1CE0147960E942B0F882361F181E00F
:1019700090E09C878B8769A17AA18BA19CA128EE1E
:1019800033E040E050E00E94E317AB01BC01CE0120
:101990000D960E94500F17C0882399F489818823DF
:1019A00081F06DA57EA58FA598A928EE33E040E0D3
:1019B00050E00E94E317AB01BC01CE0147960E94A4
:1019C000500F1C861B861A83DF91CF911F910895BB
:1019D0000F931F93CF93DF93EC018A85882309F43B
:1019E00071C08B859C85892B09F46CC08E01035FC7
:1019F0001F4FC8010E942B0F882309F47EC08B85DE
:101A00009C858230910539F18330910524F401974A
:101A100009F073C007C083309105A9F1049709F05C
:101A20006CC047C082E090E09C878B876DA17EA14F
:101A30008FA198A528EE33E040E050E00E94E31724
:101A4000AB01BC01C8010E94500F6B817C81709575
:101A500061957F4F4EC083E090E09C878B8769A1A2
:101A60007AA18BA19CA128EE33E040E050E00E94D7
:101A7000E317AB01BC01C8010E94500F8CE692E055
:101A800060E070E038C084E090E09C878B8769A5B7
:101A90007AA58BA59CA528EE33E040E050E00E949B
:101AA000E317AB01BC01C8010E94500F6B817C8120
:101AB00020C08CE692E060E070E00E940B111C8672
:101AC0001B861BC088818823C1F48985882379F40B
:101AD0008A81882361F089812B813C81882311F0E0
:101AE000B90107C066277727621B730B02C060E04D
:101AF00070E08CE692E00E940B11DF91CF911F9174
:101B00000F9108950F931F938C01FC01128684E0BE
:101B100090E065E070E00E949107A0E0B0E0F8017D
:101B200081A392A3A3A3B4A386E090E064EF71E045
:101B30000E949107A0E0B0E0F80185A396A3A7A3B7
:101B4000B0A788E090E06CE271E00E949107A0E00D
:101B5000B0E0F80181A792A7A3A7B4A78AE090E01C
:101B60006CE271E00E949107A0E0B0E0F80185A767
:101B700096A7A7A7B0AB1F910F910895FC0181E034
:101B80008183118612821482138210821486138636
:101B9000CF010E94820D08950F931F938C010D9623
:101BA0000E94240FC80147960E94240FC8010E947A
:101BB000BE0D1F910F91089589E392E00E94CC0D14
:101BC00008958CE892E00E943308809114038823E2
:101BD00021F080ED92E00E9433080895FC0185E138
:101BE00092E09183808364831782108A418B1186EF
:101BF0001086138612861586148617861686089513
:101C0000FF920F931F93CF93DF93EC019FB7F8944C
:101C1000FF800D811E818F8181111F829FBFBE01B8
:101C20006B5F7F4FAE01495F5F4F8C810E94BC06A6
:101C3000882319F421E030E027C0FF2019F422E0C6
:101C400030E022C0888990E00496FC01EE0FFF1F6F
:101C5000EC0FFD1F11830083039783709070888BB6
:101C6000C80102978D5F934038F080E094E09B8339
:101C70008A8323E030E008C0C80169890E94B60E5B
:101C80009B838A8320E030E0C901DF91CF911F91CF
:101C90000F91FF900895FC0184810E94A50608958C
:101CA000DF93CF930F92CDB7DEB7BC01CE01019683
:101CB00041E050E00E946F1890E089818F3F09F069
:101CC00091E0892F0F90CF91DF91089580E091E00E
:101CD0000E94500E80936A0280E891E00E94500EAC
:101CE00080936B020895DF93CF9300D000D0CDB7DF
:101CF000DEB7982FE62FFF27E7FDF095E659FD4F59
:101D000080818823C1F0662319F060E871E002C089
:101D100060E071E0892F992787FD9095880F991FC2
:101D2000880F991F680F791FCE01019644E050E09B
:101D30000E946F1810C0692F772767FD7095660F96
:101D4000771F660F771F6C547F4FCE01019644E0DA
:101D500050E00E94661869817A818B819C810F9086
:101D60000F900F900F90CF91DF910895AF92BF9297
:101D7000CF92DF92EF92FF920F931F93CF93DF9357
:101D80007C01A62E00E033E1B32E19E0812F6A2DED
:101D90000E94730E412F552747FD5095E616F70612
:101DA00064F4802F992787FD9095840F951F62E03A
:101DB00070E00E940218B12E0BC08B2D992787FD71
:101DC0009095840F951F62E070E00E940218012F29
:101DD000162F0617DCF2802F6A2D0E94730E6C01FD
:101DE000EB018B2D6A2D0E94730E9C01002319F4C8
:101DF000EC16FD06DCF083E1B81619F46E157F05CC
:101E0000ACF0EC1AFD0A2C193D096C1B7D0BE29E0F
:101E1000C001E39E900DF29E900D11240E940218C5
:101E20006C0D7D1D6F3F710519F014F06FEF70E0C0
:101E3000CB01DF91CF911F910F91FF90EF90DF9039
:101E4000CF90BF90AF900895FC0110821182089549
:101E5000FC0110820895CF93DF93EC0188818823E1
:101E6000D9F089818823C1F48CE692E00E94920F18
:101E70002A813B814C815D81621B730B840B950B26
:101E80002E813F814885598562177307840795071E
:101E900018F0188281E089838981DF91CF910895BC
:101EA000CF92DF92EF92FF920F931F938C016A0102
:101EB0007B0181E0F801808311828CE692E00E9430
:101EC000920FF8016283738384839583C682D782DD
:101ED000E086F1861F910F91FF90EF90DF90CF90F9
:101EE0000895FC018081A82FB0E012964C911297C2
:101EF00081818F7021E030E002C0220F331F8A956C
:101F0000E2F7922F662311F0822F01C080E09095B6
:101F10009423892B12968C930895FC01E954FF4F6A
:101F200080810895FC018FB7F894E755FF4F208119
:101F30003181428153818FBFB901CA010895CF9386
:101F4000DF93EC01FC01E755FF4F80819181A28175
:101F5000B381805C9F4FAF4FBF4F80839183A2833B
:101F6000B3838091240390912503A0912603B0911F
:101F70002703805C9F4FAF4FBF4F80932403909304
:101F80002503A0932603B093270381589E43A040C6
:101F9000B04010F1109224031092250310922603F2
:101FA00010922703C155DF4F8881CF5AD040882334
:101FB00031F0CE0183559F4F61E00E94710FCC54E8
:101FC000DF4F8881C45BD040882331F0CE018E542E
:101FD0009F4F61E00E94710FC155DF4F8881CF5A3A
:101FE000D0408823D9F0C055DF4F88819981C05BEC
:101FF000D040A0E0B0E0209124033091250340912F
:1020000026035091270382179307A407B50730F4DE
:10201000CE0183559F4F60E00E94710FCC54DF4F7B
:102020008881C45BD0408823D9F0CB54DF4F8881AE
:102030009981C55BD040A0E0B0E0209124033091AD
:102040002503409126035091270382179307A40785
:10205000B50730F4CE018E549F4F60E00E94710F9F
:10206000DF91CF910895DF93CF9300D0CDB7DEB746
:102070008091790389838A81807F82608A83CE01FF
:1020800001960E94710F0F900F90CF91DF910895EC
:102090001F93DF93CF9300D0CDB7DEB7FC011FB7FE
:1020A000F894E855FF4F1082E0E8F0E080818F73EC
:1020B00080838091790389838A81807F81608A838C
:1020C000CE0101960E94710F1FBF0F900F90CF910C
:1020D000DF911F910895FC01E855FF4F608308953B
:1020E0001F920F920FB60F9211242F933F934F938D
:1020F0005F936F937F938F939F93AF93BF93EF9370
:10210000FF938CE692E00E949F0FFF91EF91BF91A9
:10211000AF919F918F917F916F915F914F913F917F
:102120002F910F900FBE0F901F9018951F93DF9364
:10213000CF9300D0CDB7DEB7962F1FB7F894862F78
:1021400081508E3F98F084B58F7384BD80917B035E
:1021500089838A81807F86608A8360E09F3F09F45B
:1021600061E0CE0101960E94710F04C067BD84B585
:10217000806884BD1FBF0F900F90CF91DF911F919A
:1021800008951F93DF93CF9300D0CDB7DEB71FB76D
:10219000F894809180008F73809380008091790300
:1021A00089838A81807F81608A8320E0611121E0B8
:1021B000CE010196622F0E94710F1FBF0F900F90EA
:1021C000CF91DF911F9108950F931F93CF93DF93CA
:1021D0008A01662321F4EC01C355DF4F05C061304D
:1021E000A9F4EC01CE54DF4F8FEF0F3F180721F415
:1021F000CE010E94D5120AC08A81882319F4CE012B
:102200000E94D112CE01602F0E94C412DF91CF91A3
:102210001F910F910895CB010E945A1208950F93B8
:102220001F93DF93CF9300D000D000D0CDB7DEB79F
:102230008C0109541F4FF8016083075B10400E9416
:102240004312C80183559F4F0E94D512C8018E5476
:102250009F4F0E94D5128091790389838A81807F64
:1022600082608A83CE01019660E00E94710FE09146
:102270007903F0E0818184608183809179038B838D
:102280008C81807F81608C83CE01039660E00E9408
:10229000710FE0917903F0E0818182608183809108
:1022A0007B038D838E81807F86608E83CE01059631
:1022B00060E00E94710FE0917B03F0E08181806417
:1022C000818381E084BD83E085BD17BC18BCEEE648
:1022D000F0E010821092800092E0909381001092C2
:1022E00089001092880010928B0010928A00108250
:1022F0009093B0008093B10080E28093B3009093FC
:102300007000C8010E940E13C8010A960E944B0E6D
:10231000C80180960E94EB08C8018C599F4F0E940B
:10232000EB0880E090E00E945A120AE213E0C80134
:1023300061E00E943514C80101960E94801626961D
:102340000FB6F894DEBF0FBECDBFCF91DF911F91C6
:102350000F910895AF92BF92CF92DF92EF92FF92CA
:102360000F931F93DF93CF9300D000D000D0CDB751
:10237000DEB76C0180917B0389838A81807F8460D2
:102380008A83909179039B838C81807F85608C8385
:102390009D838E81807F84608E83C601BE016F5FC6
:1023A0007F4FAE014D5F5F4F9E012B5F3F4F0E94FD
:1023B000EA12AAE0AA2EB12CAC0CBD1CC50166E045
:1023C00041E00E94EE0D81E292E0F601958F848F4C
:1023D0008BE192E0978F868FA601445E5F4FC60126
:1023E0008096B60100E211EA27E030E0FCE0EF2E33
:1023F000F12C0E949A09C6018C599F4FB5012EE11C
:1024000030E0C20ED31EA60100E513EC20E030E060
:10241000E2E1EE2EF12C0E949A098AE890E0C80EC3
:10242000D91E81E0F60181936F0110821182128220
:10243000138227E53FEFC20ED31E60917A03C601D7
:1024400083559F4F72E00E94A71260917A03C601E4
:102450008E549F4F73E00E94A71226960FB6F894F1
:10246000DEBF0FBECDBFCF91DF911F910F91FF90C7
:10247000EF90DF90CF90BF90AF9008958CE692E000
:102480000E94AA1108951092290310922803E09146
:102490007B03F0E0818180628183E0917B03F0E047
:1024A00082818F7D8283E0917903F0E08181816078
:1024B000818308959C018091280390912903281716
:1024C000390709F443C0309329032093280360E0BF
:1024D00037FF04C061E0309521953F4FA9012F3FA0
:1024E000310519F014F04FEF50E03FB7F894411563
:1024F000510519F04F3F510591F484B58F7C84BD8F
:1025000080917B03E82FF0E022814F3F510511F4C9
:1025100080E201C080E02F7D822B828309C0E091A0
:102520007B03F0E082818062828384B5806284BD17
:1025300080917903E82FF0E082818E7F90E066231E
:1025400009F491E0892B828348BD3FBF0895DC01E7
:102550007F706C9311968C911197807F872B1196C9
:102560008C93E62FF0E0218181E090E002C0880F9B
:10257000991F7A95E2F7382F30952323282B218352
:102580008281832382830895FC01653B08F064EB1C
:102590008AE0689FC0011124885A9D4F94838383E9
:1025A000089521E0FC0122830895FC011282A0819C
:1025B000B0E012963C91129721812F7081E090E05B
:1025C00002C0880F991F2A95E2F7809583231296FF
:1025D0008C930895FC01DB0187E292E09183808374
:1025E0006C9111969C919F708581807F892B85834A
:1025F0006483DA016C9111969C919F708781807F32
:10260000892B87836683D9014C9111969C919F7089
:102610008185807F892B818740870895DC0114960E
:10262000EC911497F0E0318115968C9115978F708D
:1026300041E050E0BA0102C0660F771F8A95E2F7C9
:10264000262F20952323262B21831696EC9116976F
:10265000F0E0318117968C9117978F70BA0102C004
:10266000660F771F8A95E2F7262F20952323262BC6
:1026700021831896EC911897F0E0918119968C912E
:102680008F7002C0440F551F8A95E2F74095492389
:10269000418308950F931F93CF93DF93DC0114962A
:1026A000EC911497F0E0328115962C9115972F70CC
:1026B00081E090E002C0880F991F2A95E2F780958B
:1026C00083238283000000000000000000001696B3
:1026D000EC911697F0E0328117962C9117972F7096
:1026E00081E090E002C0880F991F2A95E2F780955B
:1026F000832382830000000000000000000060E0EF
:1027000070E040E050E0C1E0D0E01696EC91169702
:10271000F0E0328117968C9117978F708E0102C06E
:10272000000F111F8A95E2F7202F20952323202BDD
:10273000228300000000000000000000CA01019791
:102740000A9798F4660F771F1896EC911897F0E0A7
:10275000808190E019962C9119972F7002C0959561
:1027600087952A95E2F780FD61604D305105D1F4DF
:102770001896EC911897F0E0808190E019962C91D2
:1027800019972F7002C0959587952A95E2F780FFDB
:1027900009C080E094E013969C938E93129723E0F7
:1027A00030E051C01696EC911697F0E02281179612
:1027B0008C9117978F708E0102C0000F111F8A95A0
:1027C000E2F7C801809582238283000000000000A8
:1027D000000000004F5F5F4F4031510509F095CF79
:1027E0001496EC911497F0E0328115962C91159780
:1027F0002F7081E090E002C0880F991F2A95E2F7C0
:10280000282F20952323282B22830000000000007E
:10281000000000001696EC911697F0E032811796B2
:102820002C9117972F7081E090E002C0880F991FBC
:102830002A95E2F780958323828313967C936E9387
:10284000129720E030E0C901DF91CF911F910F91E5
:1028500008958FB7F89410927703E0917A03F0E02F
:1028600092819E7F92838FBF0895FC016083808157
:10287000882321F08091C100806C03C08091C10049
:102880008F738093C10008951F920F920FB60F921D
:1028900011242F933F934F935F936F937F938F9365
:1028A0009F93AF93BF93EF93FF93809174039091A5
:1028B0007503892B91F080917403909175030497AF
:1028C00061F0809177038F5F8093770381E593E0D8
:1028D0000E944B178093C60006C0E0917A03F0E097
:1028E00082818E7F8283FF91EF91BF91AF919F9103
:1028F0008F917F916F915F914F913F912F910F90A9
:102900000FBE0F901F9018951F93FC0180818823A4
:1029100091F01FB7F894CF0187960E944B17E09172
:102920007A03F0E092819160928391E09093770333
:102930008093C6001FBF1F9108951F920F920FB67C
:102940000F9211242F933F934F935F936F937F9335
:102950008F939F93AF93BF93EF93FF938091C600A4
:102960008093780380917703882331F080917703F7
:1029700081508093770306C0609178038BE293E0E7
:102980000E948716FF91EF91BF91AF919F918F9118
:102990007F916F915F914F913F912F910F900FBE5B
:1029A0000F901F9018950F931F938C01FC011192AB
:1029B000CF010E947916C80187960E943B1710929A
:1029C000C50089E18093C40080E48093C00088E161
:1029D0008093C10086E08093C200E0917A03F0E02A
:1029E000818181608183E0917A03F0E0818182605E
:1029F0008183E0917A03F0E082818D7F8283E09190
:102A00007B03F0E081818E7F81838281816082837C
:102A1000E0917A03F0E082818E7F82831F910F9193
:102A200008958AE293E00E94D314089583E280938C
:102A3000790386E280937A0389E280937B03089589
:102A4000CF93DF93EC011C8E1B8E1A8E198E188E7D
:102A50000BC0E82FF0E03696EE0FFF1FEC0FFD1FC6
:102A6000118210828F5F888F888D843090F3188E4A
:102A700080E090E0A0E0B0E08C8B9D8BAE8BBF8BB4
:102A800018A21F8EDF91CF910895FC01168E158E2E
:102A900080E090E0A0E0B0E080879187A287B387D4
:102AA00084839583A683B78380839183A283B38332
:102AB000CF010E94201508952F923F924F925F926E
:102AC0006F927F928F929F92AF92BF92CF92DF923E
:102AD000EF92FF920F931F93DF93CF93CDB7DEB7A3
:102AE00028970FB6F894DEBF0FBECDBF98878F83AF
:102AF000FC01058CF68DE02DE61BF70BFA83E983CC
:102B0000FC01838D948D29813A81820F931F948FCC
:102B1000838F8150914024F080E091E0948F838FE7
:102B2000EF81F885838D948D80509F4F34F480E041
:102B30009FEFEF81F885948F838F29813A81B901C6
:102B4000882777FD8095982F0E948503EF81F8856F
:102B500020813181428153810E945B026B837C839F
:102B60008D839E83EF81F885638D748D882777FD33
:102B70008095982F0E948503EF81F8852481358107
:102B8000468157810E945B021B012C01EF81F88571
:102B9000818D928DC980DA80C81AD90A008D10E023
:102BA0000A5F1F4F3801660C771C6E0E7F1EF30103
:102BB00060817181882777FD8095982F0E94850319
:102BC0009B01AC01EF81F8856489758986899789B5
:102BD0000E94FD014B015C01EF81F885648B758BD0
:102BE000868B978BF301D182C082EE24D7FCE094D0
:102BF000FE2CC701B6010E9485039B01AC01C501F3
:102C0000B4010E942E02EF81F885648B758B868B50
:102C1000978B0550104003701070008F2085318510
:102C2000428553850E945B027B018C0129813A8198
:102C3000EF81F885328F218F6B817C818D819E8120
:102C4000A20191010E942E02A80197010E942E026A
:102C50000E94E3039B01AC01220F331FEF81F88533
:102C600030A3278FC90128960FB6F894DEBF0FBE98
:102C7000CDBFCF91DF911F910F91FF90EF90DF902B
:102C8000CF90BF90AF909F908F907F906F905F900C
:102C90004F903F902F9008950F931F93CF93DF9302
:102CA000EC018B018D8D9E8D8617970729F0CE0143
:102CB0000E9420151E8F0D8FDF91CF911F910F91D4
:102CC0000895FC01838D948D0895FC0164897589B4
:102CD000868997890E94E303CB010895FC01878DC3
:102CE00090A10895FC011182108212A214A213A2D5
:102CF0000895FC011182108212A214A213A2089559
:102D0000FC011182108212A214A213A20895DC0108
:102D100093968D919C919497892B91F4653D19F42C
:102D200081E090E066C011961C9211971C929296D9
:102D30001C92929794961C921E92939781E020C0C9
:102D400093968D919C9194970197E9F4603260F489
:102D500095966C93959795968C919597882309F401
:102D600038C082E090E045C011961C9211971C92E9
:102D700092961C92929794961C921E92939782E040
:102D800092968C93089593968D919C919497029727
:102D900019F58C918032B8F411968C911197862791
:102DA00028E09CE880FB86950EF489272A95D1F7C8
:102DB00011968C9311978C91FD01E80FF11D6283A0
:102DC0008C918F5F8C939C9195968C919597981789
:102DD00018F183E090E00DC093968D919C919497AB
:102DE0000397D1F411968C911197861739F484E0EA
:102DF00090E094969C938E939397089511961C92CD
:102E000011971C9292961C92929794961C921E92E5
:102E1000939783E092968C930895FC01E60FF11D41
:102E200082810895E62FF0E0DC01AE0FBF1F1296FD
:102E30002C913196E80FF91F4281942F80E030E009
:102E4000282B392BC9010895A62FB0E0FC01EA0F09
:102E5000FB1F6281FD013196E80FF91F7281129606
:102E6000FC01EA0FFB1F22811196A80FB91F1296D1
:102E70009C91822F0895FC011182108212A214A24B
:102E800013A215A20895FC011182108212A214A2AD
:102E900013A215A20895DC0193968D919C919497AD
:102EA000892B41F481E090E094969C938E939397C4
:102EB00025ED35C093968D919C919497019739F4A7
:102EC0002C918C918823B9F082E090E024C09396F5
:102ED0008D919C919497029789F495968C919597F2
:102EE000FD01E80FF11D22818F5F95968C939597D8
:102EF0009C918917A0F083E090E00DC093968D918E
:102F00009C919497039711F020E009C011962C91A1
:102F1000119784E090E094969C938E939397822FE0
:102F20000895DC018C918032B8F411968C91119740
:102F3000862728E09CE880FB86950EF489272A9551
:102F4000D1F711968C9311978C91FD01E80FF11D2B
:102F500062838C918F5F8C930895DC018C91803219
:102F6000B8F411968C911197862728E09CE880FB95
:102F700086950EF489272A95D1F711968C9311978F
:102F80008C91FD01E80FF11D62838C918F5F8C9312
:102F90008C918032B8F411968C911197872728E094
:102FA0009CE880FB86950EF489272A95D1F7119627
:102FB0008C9311978C91FD01E80FF11D72838C9118
:102FC0008F5F8C930895629FD001739FF001829F61
:102FD000E00DF11D649FE00DF11D929FF00D839FA8
:102FE000F00D749FF00D659FF00D9927729FB00D45
:102FF000E11DF91F639FB00DE11DF91FBD01CF0158
:103000001124089597FB092E07260AD077FD04D0D6
:103010000CD006D000201AF4709561957F4F08956A
:10302000F6F7909581959F4F0895AA1BBB1B51E120
:1030300007C0AA1FBB1FA617B70710F0A61BB70B28
:10304000881F991F5A95A9F780959095BC01CD01CD
:1030500008952F923F924F925F926F927F928F923C
:103060009F92AF92BF92CF92DF92EF92FF920F9317
:103070001F93CF93DF93CDB7DEB7CA1BDB0B0FB621
:10308000F894DEBF0FBECDBF09942A8839884888DE
:103090005F846E847D848C849B84AA84B984C88474
:1030A000DF80EE80FD800C811B81AA81B981CE0F6B
:1030B000D11D0FB6F894DEBF0FBECDBFED01089550
:1030C000EE0FFF1F0590F491E02D0994FB01DC0148
:1030D00002C005900D9241505040D8F70895DC0190
:1030E000CB01FC01F999FECF06C0F2BDE1BDF89A13
:1030F000319600B40D9241505040B8F70895DC016C
:10310000CB0103C02D910E948A1841505040D0F746
:103110000895262FF999FECF1FBA92BD81BD20BD1B
:103120000FB6F894FA9AF99A0FBE01960895F8949A
:02313000FFCFCF
:10313200457874727564657200000000000000003A
:103142000000010202030303030404040404040450
:10315200040505050505050505050505050505051E
:1031620005060606060606060606060606060606FE
:1031720006060606060606060606060606060606ED
:1031820006070707070707070707070707070707CE
:1031920007070707070707070707070707070707BD
:1031A20007070707070707070707070707070707AD
:1031B200070707070707070707070707070707079D
:1031C200070808080808080808080808080808087E
:1031D200080808080808080808080808080808086D
:1031E200080808080808080808080808080808085D
:1031F200080808080808080808080808080808084D
:10320200080808080808080808080808080808083C
:10321200080808080808080808080808080808082C
:10322200080808080808080808080808080808081C
:10323200080808080808080808080808080808080C
:103242000800000000000E00000000C11000000095
:0A325200009610000000004A13006F
:00000001FF
