:100000000C9491000C94BB000C94BB000C94BB00AE
:100010000C94BB000C94BB000C94BB000C94BB0074
:100020000C94BB000C94BB000C94BB000C94BB0064
:100030000C94BB000C94BB000C94BB000C94CB2B19
:100040000C94BB000C94E02C0C94BB000C94BB00F3
:100050000C94BB000C94BB000C94BB000C94BB0034
:100060000C94BB000C94CA2F0C94BB000C94372F3B
:100070000C94BB000C94BB000C94BB000C94BB0014
:100080000C94BB000C94BB000C94BB000C94BB0004
:100090000C94902F0C94BB000C94F22E0C94BB008B
:1000A0000C94BB000C94BB000C94BB000C94BB00E4
:1000B0000C94BB000C94BB000C94BB000C94BB00D4
:1000C0000C94BB000C94BB000C94BB000C94BB00C4
:1000D0000C94BB000C94BB000C94BB000C94BB00B4
:1000E0000C94BB008A07D508AF07AB07B907D7093F
:1000F000D709AB07CC08D709D8084E096309890985
:1001000054085D086908AB079008D7099407FE07F3
:10011000BF097C015E05CE06060F7913442C4530DD
:10012000503011241FBECFEFD1E2DEBFCDBF12E0B1
:10013000A0E0B2E0E2EEF6E600E00BBF02C00790FE
:100140000D92AE31B107D9F719E0AEE1B2E001C0CE
:100150001D92A033B107E1F711E0C2E2D1E004C083
:100160002297FE010E94F732C231D107C9F70E94DF
:100170000E0B0C946F330C940000F89480912004C3
:100180009091210420911E0430911F04281B390BEB
:100190007894C901089580932804089580912804D3
:1001A0000895809120049091210420E0892B09F486
:1001B00021E0822F089510922104109220041092C1
:1001C0002304109222041092260410922704109205
:1001D0002A04109229040895FC01CB012481358161
:1001E00060817181820F931F0E9491322681378135
:1001F000280F391FC90108951F93182F209120043B
:100200003091210480911E0490911F042817390712
:10021000A0F460912004709121048EE194E00E948A
:10022000EC00FC0110838091200490912104019640
:10023000909321048093200403C081E080932604DE
:100240001F910895CF93DF93EC018A819B81892BC5
:1002500021F481E0898780E015C0CE0160E070E084
:100260000E94EC00FC018C819D816881798101965E
:100270000E9491329D838C838A819B8101979B830D
:100280008A838081DF91CF910895DF92EF92FF9270
:100290000F931F930EE114E0C8010E942201D82E93
:1002A000C8010E942201E82EC8010E942201F82EF6
:1002B000C8010E942201982F6D2D7E2D8F2D1F9138
:1002C0000F91FF90EF90DF900895FF920F931F938F
:1002D0000EE114E0C8010E942201F82EC8010E941C
:1002E0002201982F8F2D1F910F91FF9008958EE17D
:1002F00094E00E942201089580E092E090931F0410
:1003000080931E0410922104109220041092230462
:10031000109222048EE192E09093250480932404AD
:1003200010922604109227048BE294E00E9410138E
:1003300085E394E00E9410138FE394E00E94101371
:1003400008952F923F924F925F926F927F928F9279
:100350009F92AF92BF92CF92DF92EF92FF920F9354
:100360001F93DF93CF93CDB7DEB7C057D0400FB602
:10037000F894DEBF0FBECDBF0E941D0B8823C1F4D1
:1003800036C060912004709121048EE194E00E94B7
:10039000EC00FC01108380912004909121040196CF
:1003A000909321048093200404C00093260401C08C
:1003B00001E0209120043091210480911E0490914D
:1003C0001F048217930799F00E94230B882379F06A
:1003D0000E949A0B182F20912004309121048091C3
:1003E0001E0490911F0428173907F8F6CACF809190
:1003F0002804882309F048C38091290490912A0495
:10040000039781F40E94E30D882341F085E394E093
:100410000E941713882331F00E94690E10922A045B
:10042000109229048091290490912A04019741F4A3
:100430000E94E30D882321F410922A0410922904CB
:100440008091290490912A04029751F48BE294E060
:100450000E941713882321F010922A041092290475
:100460008091290490912A040497D9F58FE394E0B0
:100470000E941713882329F010922A04109229044D
:1004800030C00E946313882361F10E9460138C01C5
:100490000E945D137C01C8010E944D31C80160912A
:1004A00028050E94A131C80164E20E94A1310E9486
:1004B0007E1302C00E949A130E9474138823D1F302
:1004C000D70192968C91882351F4C70161E00E9474
:1004D0002E3180FF04C010922A04109229040E9439
:1004E00071138091290490912A040597D1F58FE327
:1004F00094E00E941713882329F010922A04109286
:1005000029042FC00E946313882359F10E946013AD
:100510008C010E945D137C01C8010E944D31C8010D
:10052000609128050E94A131C80163E20E94A131B7
:100530000E947E1302C00E949A130E9474138823A3
:10054000D1F3F70182A1882351F4C70161E00E9431
:100550002E31882321F010922A04109229040E943F
:1005600071138091290490912A04892B09F08CC27F
:100570008091200490912104892B09F485C28EE199
:1005800094E060E070E00E94EC00FC011081113802
:10059000C1F58091200490912104419708F474C220
:1005A0008EE194E00E94220181E090E090932A0481
:1005B000809329040E9445013B014C010E944501A2
:1005C0005B016C010E9445017B018C010E94450189
:1005D000AB01BC0169827A828B829C82AD82BE8231
:1005E000CF82D886E986FA860B871C871D861E86F1
:1005F0001F86188A198A1A8A1B8A1C8ACE010196BC
:100600004CC01B3809F04CC080912004909121040B
:10061000499708F439C28EE194E00E94220181E0FA
:1006200090E090932A04809329040E944501E1966A
:100630006CAF7DAF8EAF9FAFE1970E9445011B016C
:100640002C010E9445013B014C010E9445015B01C8
:100650006C010E9445017B018C010E944501AB01A8
:10066000BC01E1968CAD9DADAEADBFADE1978D8B7C
:100670009E8BAF8BB88F298E3A8E4B8E5C8E6D8E93
:100680007E8E8F8E98A2A9A2BAA2CBA2DCA2EDA2E6
:10069000FEA20FA318A7CE0145960E943F12F4C1F7
:1006A0001E3809F05BC080912004909121044A9784
:1006B00008F4EAC18EE194E00E94220181E090E01A
:1006C00090932A04809329040E944501AD966CAF53
:1006D0007DAF8EAF9FAFAD970E944501A9966CAFDD
:1006E0007DAF8EAF9FAFA9970E9445011B012C01E2
:1006F0000E9445013B014C010E9445017B018C0198
:100700000E9445015B016C010E947701282FAD9684
:100710008CAD9DADAEADBFADAD9789A79AA7ABA788
:10072000BCA7A9968CAD9DADAEADBFADA9978DA769
:100730009EA7AFA7B8AB29AA3AAA4BAA5CAA6DAAF2
:100740007EAA8FAA98AEE9AEFAAE0BAF1CAFCE016F
:100750008996B601A5010E94751196C1163891F4CB
:100760008091200490912104029708F48DC18EE1BC
:1007700094E00E9422018EE194E00E942201809385
:10078000280582C1193851F58091200490912104E7
:10079000029708F479C18EE194E00E9422018EE173
:1007A00094E00E942201D82EDD1CDD24DD1C00E037
:1007B00010E0E82EFF24C701002E02C09595879512
:1007C0000A94E2F780FF04C0802F6D2D0E947710FD
:1007D0000F5F1F4F0530110571F756C11238D1F563
:1007E00080912004909121040D9708F44DC18EE171
:1007F00094E00E9422010E9445017B018C010E942D
:1008000045015B016C010E944501DE01DD96ED9220
:10081000FD920D931C931397FE01EF5BFF4FA08297
:10082000B182C282D382FE01EB5BFF4F6083718392
:1008300082839383FE01E75BFF4F10821182128255
:100840001382FE01E35BFF4F10821182128213823A
:10085000CD0137C01C38C1F580912004909121044E
:10086000459708F411C18EE194E00E9422010E9494
:1008700045011B012C010E9445013B014C010E94D6
:1008800045015B016C010E9445017B018C010E94C6
:100890004501FE01EF5AFF4F20823182428253828E
:1008A0006482758286829782A086B186C286D3864C
:1008B000E486F58606871787608B718B828B938B16
:1008C000CF010E946E0EE0C01538F1F48091200433
:1008D00090912104059708F4D7C082E090E09093AE
:1008E0002A04809329048EE194E00E9422010E9450
:1008F000450128EE33E040E050E00E947232AB0147
:10090000BC018BE294E06DC0812F83588230A0F54A
:100910008091200490912104089708F4B5C08EE1DD
:1009200094E00E9422010E947701082F0E94450155
:100930006B017C010E94650123E030E030932A04C2
:1009400020932904A0E0B0E0BC01CD0120E432E412
:100950004FE050E00E947232AB01BC0185E394E0AD
:100960000E943C1380E0143809F481E0602FA70155
:1009700096010E948B1088C0173851F48091200492
:1009800090912104069708F47FC084E090E00BC0AA
:100990001D3851F58091200490912104069708F4A8
:1009A00073C085E090E090932A04809329048EE13F
:1009B00094E00E9422018EE194E00E9422010E94B4
:1009C00065010E946501A0E0B0E0BC01CD0120E41A
:1009D00032E44FE050E00E947232AB01BC018FE381
:1009E00094E00E943C1350C0183809F04DC080912B
:1009F000200490912104049708F446C08EE194E00D
:100A000063E070E00E94EC00FC0120912004309132
:100A10002104808190E0049628173907A8F10E94EC
:100A20006313882389F10E9460137C010E944D3179
:100A30008EE194E00E9422018EE194E00E94220166
:100A4000682FC7010E94A1318EE194E00E9422012B
:100A5000682FC7010E94A1310E947701C82EDD24B2
:100A600000E010E00AC08EE194E00E942201682FAD
:100A7000C7010E94A1310F5F1F4F0C151D059CF38C
:100A80000E947E130E947113C059DF4F0FB6F89475
:100A9000DEBF0FBECDBFCF91DF911F910F91FF90B1
:100AA000EF90DF90CF90BF90AF909F908F907F900E
:100AB0006F905F904F903F902F90089589E494E05D
:100AC0000E94453108956F927F928F929F92AF92CC
:100AD000BF92CF92DF92EF92FF920F931F93DF931B
:100AE000CF93CDB7DEB764970FB6F894DEBF0FBED5
:100AF000CDBF7C016B01FC018081882309F4E2C039
:100B00003701C70160E00E942E31982F807780372F
:100B100009F0D8C09037B9F4C6010E944D3101E008
:100B200010E00AC0C301602F0E942E31682FC60159
:100B30000E94A1310F5F1F4FF701808190E00817DD
:100B4000190784F3C1C0913709F4BCC0923709F486
:100B5000B9C0933709F07FC00E9460135C010E9406
:100B60005D134C01C5010E944D3101E010E00AC047
:100B7000C301602F0E942E31682FC5010E94A13150
:100B80000F5F1F4FF701808190E00817190784F36A
:100B90008E010F5F1F4FC8010E941013C80140E56E
:100BA00053EC60E070E00E943C13F02E012F0FC068
:100BB0008F2D902F0E941713882349F0C60168E0FB
:100BC0000E94A13182EF97E062E070E026C00E94AF
:100BD0006313882369F38E01055F1F4FC8010E94CC
:100BE0001013C80140E553EC60E070E00E943C1334
:100BF0000E947E130E947113F02E012F13C08F2DBF
:100C0000902F0E941713882359F0C60167E00E94B5
:100C1000A13182EF97E061E070E00E94AA2B54C0FE
:100C20000E949A130E947413882349F3740100E010
:100C300010E00AC0C701602F0E942E31682FC60144
:100C40000E94A1310F5F1F4FF401808190E00817CF
:100C5000190784F339C0943739F40E94DB00C601C8
:100C600061E00E94A13130C09637A1F4C70161E074
:100C70000E942E31182FC70162E00E942E31682F8A
:100C8000112329F482EF97E070E00E94AA2BC6019D
:100C900061E016C09737B1F4C70161E00E942E31C0
:100CA000182FC60161E00E94A131112339F482EFAF
:100CB00097E00E94C82B682FC60102C0C60160E001
:100CC0000E94A13180E001C081E064960FB6F894E3
:100CD000DEBF0FBECDBFCF91DF911F910F91FF906F
:100CE000EF90DF90CF90BF90AF909F908F907F90CC
:100CF0006F9008951F93DF93CF930F92CDB7DEB718
:100D00009C01162FCE010196B90141E050E00E94EE
:100D1000473389818F3F09F4198389810F90CF91DF
:100D2000DF911F910895DF93CF9300D0CDB7DEB749
:100D3000CE01019660E070E042E050E00E9447334F
:100D40003A8184E6389FC00111242981820F911DC8
:100D50008F3C9105F1F032503D3F78F082E090E019
:100D600062E00E94613383E090E06FE10E946133B2
:100D700080E290E060E00E94613387E0898382E056
:100D80008A83CE01019660E070E042E050E00E946C
:100D900057330F900F90CF91DF9108958FE694E035
:100DA0000E9410130895AF92BF92CF92DF92EF92FC
:100DB000FF920F931F93DF93CF93CDB7DEB72A97A0
:100DC0000FB6F894DEBF0FBECDBF6C018E010F5F72
:100DD0001F4FC8010E941013C80142E350E060E0B9
:100DE00070E00E943C13F02E012F11C08F2D902F28
:100DF0000E941713882359F0C60167E00E94A131B1
:100E000082EF97E062E070E00E94AA2B3EC00E9451
:100E10006313882359F30E9460138C010E945D13B1
:100E20007C01C8010E944D31C801609128050E94D3
:100E3000A131C80167E10E94A1310E947E130E9486
:100E4000711302C00E949A130E9474138823D1F375
:100E5000F70182A1843021F0570100E010E00FC0BB
:100E6000C60167E00E94A13110C0C501602F0E9439
:100E70002E31682FC6010E94A1310F5F1F4FF7016D
:100E8000808190E00817190784F32A960FB6F8942A
:100E9000DEBF0FBECDBFCF91DF911F910F91FF90AD
:100EA000EF90DF90CF90BF90AF9008956F927F92B8
:100EB0008F929F92AF92BF92CF92DF92EF92FF926A
:100EC0000F931F93DF93CF93CDB7DEB7CD54D040B0
:100ED0000FB6F894DEBF0FBECDBF7C015B01FC01F5
:100EE0008081882309F463C27E2C6F2CC70160E0E7
:100EF0000E942E3187FD5BC2E82FF0E0E731F1055B
:100F000008F055C2EE58FF4FEE0FFF1F0590F49109
:100F1000E02D0994C50161E00E94A131C5016FEC8B
:100F200070E00E94BD3141C2C50161E00E94A13163
:100F300000E012E0C501F80160810E94A131F801D2
:100F40008081882309F431C20F5F1F4FF2E00F3117
:100F50001F0781F72AC281E08093790426C1C50169
:100F600061E00E94A1310E94BD00AC0160E070E030
:100F7000ACC0F894CE014B960E94AC0EC50161E066
:100F80000E94A1314B8D5C8D6D8D7E8DC5010E94BF
:100F9000F3314F8D58A169A17AA1C5010E94F331A7
:100FA0004BA15CA16DA17EA1C5010E94F33173E04C
:100FB000E72EF12CCC240894E108F108870164E0C5
:100FC000000F111F6A95E1F70E0D1F1D0E50184FEF
:100FD000C8010E94C52D882311F4DD2402C052E00F
:100FE000D52EC8010E94E52DCC0CCC0CCD28C82AEA
:100FF000E114F10401F7C5016C2D61C1F894CE0133
:101000004B960E94AC0EC50161E00E94A1314B8D50
:101010005C8D6D8D7E8DC5010E94F3314F8D58A181
:1010200069A17AA1C5010E94F3314BA15CA16DA118
:101030007EA1C5010E94F3314FA158A569A57AA5EB
:10104000C5010E94F3314BA55CA56DA57EA5C50128
:101050000E94F33145E0E42EF12CCC240894E10801
:10106000F108870134E0000F111F3A95E1F70E0DEA
:101070001F1D0E50184FC8010E94C52D882311F462
:10108000DD2402C022E0D22EC8010E94E52DCC0C46
:10109000CC0CCD28C82AE114F10401F7C5016C2D50
:1010A00070E00E94BD310DC1C50161E00E94A13117
:1010B000C70103960E94900D30C0C50161E00E94F7
:1010C000A1310E94370BAB01BC01C5010E94F33175
:1010D0006CC1C50161E00E94A1319FE2C92ED12CF3
:1010E000CC0EDD1E01E010E00AC0872D962D602F8A
:1010F0000E942E31F60181936F010F5F1F4FF701A0
:10110000808190E00817190784F3FE01E35BFF4F2D
:101110001082CE018F960E945C0D682FC50143C1DD
:10112000C50161E00E94A1318E2D9F2D61E00E94DA
:101130002E31882339F00E94CF0DBC01009711F0A9
:10114000C5012DC18E01015D1F4FC8016FE10E94D5
:10115000620CBC018FA5882329F06115710511F47B
:101160008E3299F3C5010E94A1318E01015D1F4F9E
:101170008FE1E82EF12CE00EF11E09C0C5010E949E
:10118000A1310F5F1F4F0E151F0509F40AC1F801A9
:101190006081662399F705C10E94CE0091E08927FE
:1011A0000E94CB00C5010E94D306C50161E0FBC0CF
:1011B000F7018081823048F4C50160E00E94A131CE
:1011C00082EF97E068E070E01EC08E010F5F1F4F56
:1011D000C8010E941013C80142E350E060E070E0D3
:1011E0000E943C13D02E012F11C08D2D902F0E94F4
:1011F0001713882359F0C50167E00E94A13182EFDF
:1012000097E062E070E00E94AA2BCFC00E946313B7
:10121000882359F30E9460134C010E945D136C01F6
:10122000C4010E944D3101E010E00BC0872D962DC6
:10123000602F0E942E31682FC4010E94A1310F5FE0
:101240001F4FF701808190E0081719077CF30E9477
:101250007E130E94711302C00E949A130E9474139D
:101260008823D1F3F60182A1843021F0760100E0D9
:1012700010E00DC0C50167E096C0C701602F0E9455
:101280002E31682FC5010E94A1310F5F1F4FF6015B
:10129000808190E00817190784F387C0C50161E0D9
:1012A0000E94A131F8940E94E30D882309F096C0B2
:1012B0000E94D100882309F491C061E0C5010E9419
:1012C000A131789472C08E2D9F2D61E00E94333140
:1012D0006C018E2D9F2D63E00E942E31E82EFF249D
:1012E0008E01055F1F4FC801B601A7010E94473359
:1012F000C50161E00E94A131E00EF11E06C0C501EA
:10130000F80161918F010E94A1310E151F05B9F7F7
:101310004CC08E2D9F2D61E00E943331C82E992E36
:101320008E2D9F2D63E00E942E31D82E8E01055FF9
:101330001F4FC8016C2D792D4D2D50E00E94473371
:10134000780114E00D2D0C5F09C0872D962D612FBB
:101350000E942E31F70181937F011F5F1017A9F7BB
:10136000CE010B966C2D792D4D2D50E00E945733F8
:10137000C50161E00E94A131C5016D2D14C08E2D03
:101380009F2D61E00E942E31082F80FF02C00E9435
:10139000690E01FF02C00E94DB00C50161E00E94EE
:1013A000A131C50160E00E94A13181E001C080E06F
:1013B000C35BDF4F0FB6F894DEBF0FBECDBFCF913A
:1013C000DF911F910F91FF90EF90DF90CF90BF9032
:1013D000AF909F908F907F906F90089560E06ECF58
:1013E000CF92DF92EF92FF920F931F93CF93DF93F1
:1013F000EC017B0188818823A1F16E01CE0160E0C0
:101400000E942E3187FF2DC00E94200B882341F0BF
:10141000CE010E94A20BC70161E00E94A1311FC052
:10142000F89418810E94BD00212F30E082179307A5
:1014300088F0C0E0D0E0890107C0C6016C2F0E948F
:101440002E310E94FC002196C017D107B4F3C701CA
:1014500061E002C0C70162E00E94A131789481E09E
:1014600001C080E0DF91CF911F910F91FF90EF902D
:10147000DF90CF9008958091C7089091C808892B7C
:1014800009F483C08091C7089091C808049709F0B7
:1014900082C07BC01092790480E00E94CC0A8FE663
:1014A00094E00E94141308958091A1089091A208DD
:1014B000892B01F18091A1089091A2080497D1F0A5
:1014C00080916F04882349F48FE694E040E25EE463
:1014D00060E070E00E943C130DC08FE694E00E9433
:1014E0001713882339F08EE798E00E94933084E048
:1014F0008093A0088091A008882399F08091A0088B
:10150000843029F482EF97E064E070E004C082EF59
:1015100097E065E070E00E94AA2B8EE798E00E94B9
:10152000A1308091A1089091A2080497A1F58FE6BF
:1015300094E00E94141384EA98E00E944D318EE7F3
:1015400098E064EA78E00E9463058823A9F48EE7B6
:1015500098E064EA78E00E94F009882369F48EE755
:1015600098E064EA78E00E945607882329F484EA28
:1015700098E065E00E94A1318EE798E00E94A130DA
:101580008CE798E00E946F2F08958091790488235A
:1015900009F48ACF7FCF0895FF920F931F93DF93B3
:1015A000CF93CDB7DEB72A970FB6F894DEBF0FBE44
:1015B000CDBF182FF8940E94560B0E94690E0E940E
:1015C000DB000E94930682EF97E00E940A2D789438
:1015D0001123A9F08E010F5F1F4FC8010E94101345
:1015E000C80140EA55E266E270E00E943C13F02E2A
:1015F000012F8F2D902F0E9417138823D1F30E9463
:10160000F31378942A960FB6F894DEBF0FBECDBFC1
:10161000CF91DF911F910F91FF90089582EF97E096
:101620000E94EC0D81E00E94CC0A78940E949A13EB
:101630000E943B0A0E94A101F9CF80918304089582
:101640008091820408958091890408951092830402
:101650008091800490918104009721F00E941620CF
:101660000E94652310928104109280040895809155
:101670008204882381F080918004909181040097F6
:1016800021F00E9416200E9465231092810410927E
:101690008004109282040E94560B60918404709121
:1016A0008504809186049091870408958091830435
:1016B000882311F00E94260B80918204882311F068
:1016C0000E94370B80917E0490917F04009731F047
:1016D0000E94D01810927F0410927E0480917C04A6
:1016E00090917D04009731F00E94651410927D0462
:1016F00010927C0480917A0490917B04009731F0E1
:101700000E942F2110927B0410927A0408958091F8
:1017100080049091810468E874E041E050E00E9408
:101720000C1610928904181619061CF481E0809397
:10173000890408951F93109188040E94870B812FBC
:101740001F910895CF93DF93EC01809180049091D5
:1017500081040097E1F0BE016E5F7F4F488150E049
:101760000E94561728818091840490918504A0914D
:101770008604B0918704820F911DA11DB11D809335
:10178000840490938504A0938604B0938704DF912A
:10179000CF910895DF93CF93CDB7DEB7AB970FB658
:1017A000F894DEBF0FBECDBFBC0180917E04909146
:1017B0007F04AE014F5F5F4F0E94B21F811181E035
:1017C000AB960FB6F894DEBF0FBECDBFCF91DF91C1
:1017D00008950F931F93CF93DF93EC018B010EC0FD
:1017E000C801BE010E941633009741F480917E0427
:1017F00090917F040E94D61881E009C080917E04F8
:1018000090917F04B8010E94BA19882349F7DF91AB
:10181000CF911F910F9108950F931F93DF93CF9353
:10182000CDB7DEB7AB970FB6F894DEBF0FBECDBF16
:101830008E010F5F1F4FB8010E94E90B882341F012
:1018400080917C0490917D04B8010E94E31881E0AE
:10185000AB960FB6F894DEBF0FBECDBFCF91DF9130
:101860001F910F910895EF92FF920F931F93DF93B3
:10187000CF93CDB7DEB7AB970FB6F894DEBF0FBEF0
:10188000CDBF7B018E010F5F1F4FB8010E94E90B96
:10189000882359F080917C0490917D04B8010E94C6
:1018A0006620F7019183808381E0AB960FB6F894B0
:1018B000DEBF0FBECDBFCF91DF911F910F91FF9083
:1018C000EF900895AF92BF92DF92EF92FF920F9345
:1018D0001F93DF93CF93CDB7DEB7AB970FB6F894D6
:1018E000DEBF0FBECDBF7C0185E0D82E5E0108941F
:1018F000A11CB11C062F10E00150104080917E0405
:1019000090917F04B5010E94BA198823D1F080E03C
:1019100090E005C0F701E80FF91F208301968017BA
:10192000910734F4F501E80FF91F2081222391F784
:10193000F701E80FF91F1082892B29F4DA94F1F6E8
:1019400002C0F701108280E090E0AB960FB6F894E9
:10195000DEBF0FBECDBFCF91DF911F910F91FF90E2
:10196000EF90DF90BF90AF9008950F931F93DF9398
:10197000CF93CDB7DEB7AB970FB6F894DEBF0FBEEF
:10198000CDBF80917C0490917D0468E072E08E016F
:101990000F5F1F4FA8010E949E2080917C049091B0
:1019A0007D04B8010E94292090937F0480937E04D7
:1019B00020E0892B09F021E0822FAB960FB6F89436
:1019C000DEBF0FBECDBFCF91DF911F910F91089564
:1019D00080917A0490917B040E949E1B90937D04D9
:1019E00080937C0420E0892B09F021E0822F089568
:1019F0000F938FE793E26DE374E246E852E22BE542
:101A000035E200E00E94372190937B0480937A04B2
:101A1000892B79F48FE793E26DE374E246E852E2B2
:101A20002BE535E20FEF0E94372190937B048093E2
:101A30007A0420E080917A0490917B04892B09F04C
:101A400021E0822F0F9108950E94AD24882371F424
:101A50000E941322882329F40E94560B21E030E0D3
:101A600029C00E94560B22E030E024C00E94F80CEE
:101A7000882329F40E94560B23E030E01BC00E940B
:101A8000E80C882329F40E94560B24E030E012C0B1
:101A90000E94B50C882329F40E94560B25E030E003
:101AA00009C00E941C22882319F420E030E002C003
:101AB00026E030E0C9010895CF93DF93EC010E9446
:101AC000560B0E94240D9C01009719F08630910559
:101AD000D9F4109284041092850410928604109216
:101AE00087041092810410928004CE0160E874E0B3
:101AF0000E94330C882331F08091800490918104FE
:101B0000892B31F427E030E0C901DF91CF910895AE
:101B100081E0809383040E94870B20E030E0F4CFC3
:101B20000F931F93CF93DF93EC010E94560B0E94FB
:101B3000240D8C01009769F510928404109285049D
:101B400010928604109287041092810410928004EF
:101B5000CE010E940C0CCE010E94CA0B882319F4FE
:101B600007E010E016C0CE0160E874E00E94330C7C
:101B7000882319F403E010E00CC080918004909158
:101B80008104892B19F408E010E003C081E0809300
:101B90008204C801DF91CF911F910F9108950E9497
:101BA000560B0E94240D9C01009719F08630910578
:101BB00041F480917E0490917F040E94D61820E029
:101BC00030E0C901089580918A04882311F081E0F2
:101BD000089580911A0508950F931F93DF93CF9373
:101BE000CDB7DEB761970FB6F894DEBF0FBECDBF9D
:101BF000BC0110928A0443E954E020E030E00BE19C
:101C000010E01E861F86188A198A1A861B861C8673
:101C10001D861E821F82188619861A821B821C82CC
:101C20001D82209FF001219FF00D309FF00D1124A7
:101C3000ED56FB4F8981828F8A819B81AC81BD816A
:101C4000868B978BA08FB18F8E819F81A885B98558
:101C5000828B938BA48BB58B8A859B85AC85BD8548
:101C600086879787A08BB18BDA011A961D921D92F9
:101C70001D921C921D9716961D921D921D921C92EC
:101C800019978E859F85A889B98982839383A483B8
:101C9000B583C901E4E0880F991FEA95E1F7820F47
:101CA000931F860F971FFA01918380832F5F3F4F09
:101CB000455E5F4F2530310509F0A3CF61960FB621
:101CC000F894DEBF0FBECDBFCF91DF911F910F9172
:101CD000089510928A0410921A050895FC018081DB
:101CE0009181A281B3818093950490939604A093EF
:101CF0009704B093980484819581A681B7818093DD
:101D0000B0049093B104A093B204B093B30480855F
:101D10009185A285B3858093CB049093CC04A09346
:101D2000CD04B093CE0484859585A685B785809330
:101D3000E6049093E704A093E804B093E904808953
:101D40009189A289B3898093010590930205A0939C
:101D50000305B093040508956F927F928F929F922E
:101D6000AF92BF92CF92DF92EF92FF920F931F93A9
:101D7000FC018091950490919604A0919704B091F4
:101D800098042091B0043091B1044091B204509174
:101D9000B304E090CB04F090CC040091CD041091FA
:101DA000CE04A090E604B090E704C090E804D09080
:101DB000E904609001057090020580900305909001
:101DC000040580839183A283B38324833583468370
:101DD0005783E086F18602871387A486B586C68678
:101DE000D786608A718A828A938ACF011F910F9168
:101DF000FF90EF90DF90CF90BF90AF909F908F902B
:101E00007F906F90089580931B050895E3E9F4E0B7
:101E1000118210827B9685E0EA31F807C9F70895B0
:101E20008F929F92AF92BF92CF92DF92EF92FF92EA
:101E30000F931F93CF93DF9380918A04882309F433
:101E4000B1C080918F0490919004A0919104B091C1
:101E500092040197A109B10980938F049093900493
:101E6000A0939104B09392040196A11DB11D009717
:101E7000A105B10519F410928A0491C003E914E098
:101E8000EE24FF24ABE18A2E912CA0908B04B0901D
:101E90008C04C0908D04D0908E04E89CE001E99CF5
:101EA000D00DF89CD00D1124CD56DB4F8A899B892B
:101EB000AC89BD892E893F89488D598D280F391FDE
:101EC0004A1F5B1F2A8B3B8B4C8B5D8B8A899B89BE
:101ED000AC89BD89B7FD59C06A8DF80180819181B7
:101EE0000E946F2D8A899B89AC89BD898A199B09BB
:101EF000AC09BD098A8B9B8BAC8BBD8B8A8DF8019D
:101F0000208131818823E1F0C9010E94C52D8823F9
:101F100031F4F8018081918161E00E948F2DE89C6D
:101F2000F001E99CF00DF89CF00D1124ED56FB4FEB
:101F300082819381A481B5810196A11DB11D1BC031
:101F4000C9010E94E52D882331F4F8018081918137
:101F500061E00E948F2DE89CF001E99CF00DF89C57
:101F6000F00D1124ED56FB4F82819381A481B58140
:101F70000197A109B10982839383A483B583F801F2
:101F80008081918160E00E948F2D0894E11CF11CFA
:101F9000055E1F4FF5E0EF16F10409F076CF809152
:101FA0008A0498C080911A05882309F493C010927E
:101FB0001A0503E914E0AA24BB24FBE18F2E912C1F
:101FC000C0908B04D0908C04E0908D04F0908E042F
:101FD000A89CE001A99CD00DB89CD00D1124CD5631
:101FE000DB4F8E899F89A88DB98D0097A105B1051A
:101FF00009F45EC08A899B89AC89BD892E893F8995
:10200000488D598D280F391F4A1F5B1F2A8B3B8B28
:102010004C8B5D8B8A899B89AC89BD89B7FD4BC090
:102020006A8DF801808191810E946F2D8A899B8938
:10203000AC89BD898C199D09AE09BF098A8B9B8B20
:10204000AC8BBD8B8A8DF80120813181882399F07A
:10205000C9010E94C52D882359F5F801808191811D
:1020600061E00E948F2D8A819B81AC81BD810196A8
:10207000A11DB11D12C0C9010E94E52D8823C1F424
:10208000F8018081918161E00E948F2D8A819B817E
:10209000AC81BD810197A109B1098A839B83AC837F
:1020A000BD83F8018081918160E00E948F2D03C083
:1020B00080911A05811181E080931A050894A11C72
:1020C000B11C055E1F4FF5E0AF16B10409F078CFE3
:1020D00080911A05DF91CF911F910F91FF90EF90A2
:1020E000DF90CF90BF90AF909F908F9008958530F4
:1020F00088F4282F30E08BE190E0289FF001299FA1
:10210000F00D389FF00D1124ED56FB4F8081918129
:102110000E94AA2D08952F923F924F925F926F9244
:102120007F928F929F92AF92BF92CF92DF92EF9267
:10213000FF920F931F93DF93CF9300D00F92CDB7F1
:10214000DEB78983162F8FEF9FEFAFEFBFE7809346
:102150008F0490939004A0939104B093920496E01E
:1021600056954795379527959A95D1F720938B04E7
:1021700030938C0440938D0450938E04CA01B901AE
:1021800022E030E040E050E00E94DA3288249924D6
:102190005401821A930AA40AB50A83E9C82E84E07E
:1021A000D82EEE24FF240BE1202E312C012F10E03D
:1021B000B1E04B2E512C612C712CE29CC001E39CB0
:1021C000900DF29C900D11248D569B4F9B838A831A
:1021D000FC01828A938AA48AB58AC8010E2C02C0A7
:1021E000959587950A94E2F780FF0FC08981828FC9
:1021F000F6018081918161E00E94AA2DEA81FB8134
:10220000468A578A608E718E06C0EA81FB81168AE3
:10221000178A108E118E0894E11CF11C8BE190E05E
:10222000C80ED91E95E0E916F10439F681E08093D5
:102230001A050F900F900F90CF91DF911F910F9182
:10224000FF90EF90DF90CF90BF90AF909F908F90D6
:102250007F906F905F904F903F902F900895CF9315
:10226000DF93EC014E875F87688B798B222329F0FF
:102270008E859F85A889B9890CC08E859F85A88980
:10228000B9892A813B814C815D81821B930BA40B10
:10229000B50B8E8B9F8BA88FB98F81E08A8F8E892B
:1022A0009F89A88DB98D0097A105B10529F0888176
:1022B000998161E00E94AA2D8E899F89A88DB98D90
:1022C000B7FF10C08E899F89A88DB98DB095A09554
:1022D000909581959F4FAF4FBF4F8E8B9F8BA88F4F
:1022E000B98F1A8EDF91CF9108954F925F926F92BE
:1022F0007F928F929F92AF92BF92CF92DF92EF9296
:10230000FF920F931F93CF93DF934A015B016C0100
:1023100043E9E42E44E0F42EC0E0D0E03BE1432E5C
:10232000512C622E7724C49D8001C59D100DD49D33
:10233000100D11240D561B4FF60140815181628111
:10234000738193010C2E02C0359527950A94E2F70C
:1023500021703070C8010E942F11F8012689378939
:10236000408D518DC230D10579F480911B058823B1
:1023700059F48091C9049091CA0460E02115310597
:102380004105510551F008C02115310541055105A0
:1023900031F0F7018081918161E00E94AA2D2196A0
:1023A00084E090E0C80ED91EEBE1F0E0EE0EFF1ED7
:1023B000C530D10509F0B7CFC501B40120E430E044
:1023C00040E050E00E94DA32B901CA0160938B0408
:1023D00070938C0480938D0490938E0460938F048B
:1023E00070939004809391049093920422E030E0E3
:1023F00040E050E00E94DA325095409530952195AA
:102400003F4F4F4F5F4F2093A5043093A604409356
:10241000A7045093A8042093C0043093C1044093B0
:10242000C2045093C3042093DB043093DC04409334
:10243000DD045093DE042093F6043093F7044093B8
:10244000F8045093F904209311053093120540933A
:1024500013055093140581E080938A04DF91CF9196
:102460001F910F91FF90EF90DF90CF90BF90AF90B2
:102470009F908F907F906F905F904F9008952F92D4
:102480003F924F925F926F927F928F929F92AF9204
:10249000BF92CF92DF92EF92FF920F931F93CF9351
:1024A000DF931A012B013C0153E9852E54E0952E50
:1024B000AA24BB246501C0E0D0E08BE190E0C89F76
:1024C0008001C99F100DD89F100D11240D561B4F70
:1024D000F3014081518162817381C80120E00E9433
:1024E0002F11F801E688F788008D118DC230D105D3
:1024F00079F480911B05882359F48091C904909147
:10250000CA0460E0E114F1040105110551F008C0AE
:10251000E114F1040105110531F0F401808191818C
:1025200061E00E94AA2DAE14BF04C006D10614F4C7
:1025300057016801219684E090E0680E791EEBE176
:10254000F0E08E0E9F1EC530D10509F0B6CFC60152
:10255000B501A20191010E94723220E430E040E016
:1025600050E00E94DA32B901CA0160938B04709383
:102570008C0480938D0490938E0460938F047093E9
:102580009004809391049093920422E030E040E024
:1025900050E00E94DA3250954095309521953F4F9A
:1025A0004F4F5F4F2093A5043093A6044093A70498
:1025B0005093A8042093C0043093C1044093C204F4
:1025C0005093C3042093DB043093DC044093DD0478
:1025D0005093DE042093F6043093F7044093F804FC
:1025E0005093F9042093110530931205409313057D
:1025F0005093140581E080938A04DF91CF911F915D
:102600000F91FF90EF90DF90CF90BF90AF909F9091
:102610008F907F906F905F904F903F902F90089594
:10262000FC01108211820895FC0110820895CF935D
:10263000DF93EC0188818823D9F089818823C1F454
:1026400082EF97E00E949D2B2A813B814C815D8126
:10265000621B730B840B950B2E813F814885598536
:10266000621773078407950718F0188281E0898341
:102670008981DF91CF910895CF92DF92EF92FF92FF
:102680000F931F938C016A017B0181E0F801808325
:10269000118282EF97E00E949D2BF8016283738381
:1026A00084839583C682D782E086F1861F910F913D
:1026B000FF90EF90DF90CF9008958CEC98E0089514
:1026C00082EF98E0089580911C05882341F4809161
:1026D0001D05882321F481E080931D05089580E085
:1026E000089510921D05089580911C0591E0892799
:1026F00008958EE195E00E94101308950F931F93A3
:1027000081E080931C058EE195E040E553EC60E0AC
:1027100070E00E943C1385E080930A020CEC18E004
:10272000C8010E94A130C80102970E946F2F1F911B
:102730000F91089580911C05882309F453C080915E
:10274000EF089091F008049719F410921C05089571
:102750008091EE08882369F080910A02882399F419
:1027600010921C0582EF97E063E070E00E94AA2BB4
:1027700008958EE195E00E941713882399F18091C6
:102780000A028823E1F0815080930A028EE195E0ED
:1027900040E553EC60E070E00E943C1382EF98E06B
:1027A0000E9455318CEC98E00E94A1308AEC98E0B0
:1027B0000E94E42E8AEC98E00E946F2F08958CEC22
:1027C00098E00E94933084E08093EE088AEC98E0D1
:1027D0000E94E42E10921C0582EF97E061E070E009
:1027E0000E94AA2B0895FF920F931F93DF93CF931C
:1027F000CDB7DEB72A970FB6F894DEBF0FBECDBFB8
:102800008E010F5F1F4FC8010E941013C80140EADC
:1028100056E861E070E00E943C13F02E012F0CC0DE
:1028200081E080931D0510921C0582EF97E062E025
:1028300070E00E94AA2B13C080911C05882341F4EC
:1028400080911D05882321F481E080931D0507C038
:102850008F2D902F0E941713882371F3E1CF82EF01
:1028600098E00E944D3182EF98E06FEF0E94A13115
:1028700082EF98E061E00E94A1310E947E138EE118
:1028800095E040EA56E861E070E00E943C13109247
:102890001D0502C00E949A1380911C058823D1F760
:1028A0008091EF089091F00820E0049709F421E06E
:1028B000822F2A960FB6F894DEBF0FBECDBFCF9100
:1028C000DF911F910F91FF900895FC01009711F087
:1028D000118210820895DF93CF9300D0CDB7DEB779
:1028E000DC01009781F16230710568F1ED91FC9196
:1028F0001197660F771F80E090E016962D913D911D
:102900004D915C911997620F731F841F951F019061
:10291000F081E02DAE014F5F5F4F22E030E009957E
:10292000882389F029813A812115310571F08FEFD3
:10293000273F380741F0C9014096079720F08FEFF5
:10294000283F380710F020E030E0C9010F900F90C9
:10295000CF91DF9108954F925F926F927F928F9205
:102960009F92AF92BF92CF92DF92EF92FF920F931E
:102970001F93DF93CF9300D0CDB7DEB75C010097F4
:1029800009F449C06230710508F445C0DC011696AF
:102990006D907D908D909C9019972E010894411C0C
:1029A000511C660F771F7B0100E010E0E60CF71C5E
:1029B000081D191DD501ED91FC910190F081E02DCC
:1029C000C801B701A20122E030E00995882319F17E
:1029D000C980DA80C114D10401F1C601409608977C
:1029E000D0F0B8EFCB16BFEFDB0610F0CC24DD241F
:1029F0001A821982D501ED91FC910480F581E02DB8
:102A0000C801B701A20122E030E00995B601C11466
:102A1000D10439F602C080E001C081E00F900F9030
:102A2000CF91DF911F910F91FF90EF90DF90CF90AA
:102A3000BF90AF909F908F907F906F905F904F90DE
:102A400008952F923F924F925F926F927F928F9252
:102A50009F92AF92BF92CF92DF92EF92FF920F932D
:102A60001F93DF93CF93CDB7DEB72C970FB6F894B3
:102A7000DEBF0FBECDBF4C011B01CA018114910402
:102A800009F4ABC0D401ED91FC9111972081318103
:102A90003C872B87448155815A87498716962D910B
:102AA0003D914D915C9119972D833E834F835887BB
:102AB0005A96AD90BC905B971A962D913D914D9191
:102AC0005C911D9756954795379527953C832B83A9
:102AD0005B961C921E925A973C012901CC24DD245E
:102AE00054C0B2E0AB16B10428F0EB81FC81AE1605
:102AF000BF0618F042E0A42EB12CC501880F991F23
:102B00007C0100E010E02D813E814F815885E20E6E
:102B1000F31E041F151FC801B701AE014F5F5F4FC1
:102B200022E030E0AB85BC85FD010995882309F4DE
:102B300054C089819A81892B11F56114710421F4A3
:102B4000F401B38EA28E27C0C114D10429F42FEF53
:102B50003FEF3A83298302C0DA82C982C801B701F4
:102B6000AE014F5F5F4F22E030E0A985BA85FD01DD
:102B70000995882371F1089461087108650108942A
:102B8000410851080894A11CB11C4114510409F0DA
:102B9000A8CF6728F1F4B2E02B16310400F1C98206
:102BA000DA82220C331CB10180E090E02D813E815D
:102BB0004F815885620F731F841F951FAE014F5FB1
:102BC0005F4F22E030E0A985BA85FD010995882391
:102BD00031F4C401B6010E94AB14CC24DD24C6013B
:102BE0002C960FB6F894DEBF0FBECDBFCF91DF910C
:102BF0001F910F91FF90EF90DF90CF90BF90AF901B
:102C00009F908F907F906F905F904F903F902F900C
:102C1000089580E190E008952F923F924F925F9245
:102C20006F927F928F929F92AF92BF92CF92DF92DC
:102C3000EF92FF920F931F93DF93CF93CDB7DEB741
:102C40002A970FB6F894DEBF0FBECDBF2C017A8352
:102C500069835C834B83009709F409C1672B09F4EE
:102C600006C1452B09F403C1DC019D96AD90BD90D2
:102C7000CD90DC90D09795962D913D914D915C91A2
:102C80009897EB81FC81CF01A0E0B0E08A0D9B1DFD
:102C9000AC1DBD1D281739074A075B0740F4B90171
:102CA0006A197B097C836B83672B09F4E3C0D2012B
:102CB000ED91FC91119720883188D196ED91FC918E
:102CC000D297FA87E987EF2BF1F593962D913C91F6
:102CD00094973A872987232B39F4A114B104C104AE
:102CE000D10409F4C7C0C3C0A114B104C104D10404
:102CF00051F18601750131018824992466277727CF
:102D0000CB0166197709880999096D837E838F83C2
:102D1000988714C0D2018D919C9169857A850E9413
:102D20006B149A878987892B09F4A1C06D817E81F4
:102D30008F819885E60EF71E081F191FE614F70409
:102D40000805190538F7089421083108A220B32096
:102D50000894211C311CCB80DC80D201ED90FC90CA
:102D6000E114F10409F1E985FA85E230F105E0F0BA
:102D70003297BF0180E090E03296FA87E987D70169
:102D800050962D913C91519740E050E00E94723254
:102D90009B01AC01F70182899389A489B589280F29
:102DA000391F4A1F5B1F04C020E030E040E050E0C4
:102DB00081010A191B09C016D10608F48601D70142
:102DC000ED91FC91C501A0E0B0E0280F391F4A1F2A
:102DD0005B1F0190F081E02DCA01B90149815A8140
:102DE00098010995882341F1C01AD10AC801A0E0D1
:102DF000B0E0F20125A536A547A550A9280F391F37
:102E00004A1F5B1FD2019D962D933D934D935C937A
:102E1000D097C8018A0D9B1D82159305A0F08D9156
:102E20009C9169857A850E946B149A878987892B82
:102E300041F4F20112AA11AA4B815C814C195D097F
:102E40001BC0AA24BB24E985FA85D201D296FC9343
:102E5000EE93D197C114D10439F029813A81200F22
:102E6000311F3A83298379CF4B815C8105C04FEFB5
:102E70005FEF02C040E050E0CA012A960FB6F89416
:102E8000DEBF0FBECDBFCF91DF911F910F91FF909D
:102E9000EF90DF90CF90BF90AF909F908F907F90FA
:102EA0006F905F904F903F902F9008952F923F9298
:102EB0004F925F926F927F928F929F92AF92BF924A
:102EC000CF92DF92EF92FF920F931F93DF93CF93F6
:102ED00000D000D000D0CDB7DEB76C017A83698313
:102EE0005C834B83009709F43FC1672B09F43CC115
:102EF000452B09F439C1DC019D968D909D90AD90D4
:102F0000BC90D09795968D919D910D90BC91A02DE0
:102F100088159905AA05BB0508F426C1D601ED91CF
:102F2000FC91119720883188D1962D913C91D297B0
:102F30003E832D83232B09F057C093968D919C914E
:102F400094979E838D83892BB9F481149104A104F5
:102F5000B10409F009C1CF0160E070E041E050E048
:102F60000E9421159E838D83D60194969C938E9307
:102F70009397892B09F4F8C0F601E5A4F6A407A5F8
:102F800010A9E114F1040105110531F52DC0E41873
:102F9000F50806091709D6018D919C916D817E81F6
:102FA0000E946B14009719F09E838D8318C0E11462
:102FB000F1040105110509F0D7C0F6018081918166
:102FC0006D817E8141E050E00E942115009709F457
:102FD000CBC09E838D8303C0210166247724E41433
:102FE000F5040605170598F6089421083108822093
:102FF00093200894211C311CAB80BC80D601ED903D
:10300000FC90E114F10409F1ED81FE81E230F1055B
:10301000E0F03297BF0180E090E03296FE83ED83CE
:10302000D70150962D913C91519740E050E00E947D
:1030300072329B01AC01F70182899389A489B58919
:10304000280F391F4A1F5B1F04C020E030E040E01A
:1030500050E0810108191909A016B10608F485018C
:10306000D701ED91FC91C401A0E0B0E0280F391F19
:103070004A1F5B1F0480F581E02DCA01B901498117
:103080005A8198010995882309F44DC0A01AB10A04
:10309000C801A0E0B0E0F60125A536A547A550A9D6
:1030A000280F391F4A1F5B1FD6019D962D933D9314
:1030B0004D935C93D097C801880D991D8215930597
:1030C00018F18D919C916D817E810E946B14009707
:1030D00019F09E838D8316C0A114B10459F0F60136
:1030E000808191816D817E8141E050E00E942115B7
:1030F000009731F4D601D2961C921E92D19713C03C
:103100009E838D83882499242D813E81F60132ABE4
:1031100021ABA114B10439F089819A81800F911FEC
:103120009A8389836BCFD6019D962D913D914D91C8
:103130005C91D09795968D919D910D90BC91A02D0D
:1031400082179307A407B50750F481E0F60183AB1B
:10315000D60195962D933D934D935C9398974B8113
:103160005C814A195B0902C04FEF5FEFCA012696E6
:103170000FB6F894DEBF0FBECDBFCF91DF911F9188
:103180000F91FF90EF90DF90CF90BF90AF909F9006
:103190008F907F906F905F904F903F902F90089509
:1031A000FC01009711F0118210820895FC01009734
:1031B00011F480E0089583A194A196A785A710AA91
:1031C00017A681E008957F928F929F92AF92BF924F
:1031D000CF92DF92EF92FF920F931F93DF93CF93E3
:1031E000CDB7DEB72C970FB6F894DEBF0FBECDBFBC
:1031F0006C015B01009709F44EC06115710509F47B
:103200004AC0DB019796ED90FD900D911C919A9725
:10321000E114F10401051105F1F14E010894811C3E
:10322000911C75EE772ED601ED91FC910190F08105
:10323000E02DC801B701A4012CE030E009958823F6
:1032400051F17982D601ED91FC910480F581E02D58
:10325000C801B701A4012CE030E009958823D9F01A
:103260008C858F3049F480E290E0A0E0B0E0E80E79
:10327000F91E0A1F1B1FD7CFD50191966D917C9126
:1032800092976115710529F0C6010E94AB1488233D
:1032900019F081E001C080E02C960FB6F894DEBFF3
:1032A0000FBECDBFCF91DF911F910F91FF90EF9097
:1032B000DF90CF90BF90AF909F908F907F900895B8
:1032C000CF92DF92EF92FF920F931F93DF93CF93F2
:1032D000CDB7DEB760970FB6F894DEBF0FBECDBF97
:1032E0008C016230710510F480E035C0009729F43C
:1032F00040E050E060E070E016C06250704080E056
:1033000090E0F8012089318940E050E00E9472325B
:10331000AB01BC01F80182899389A489B589480F62
:10332000591F6A1F7B1FDE01119680E1FD0111927A
:103330008A95E9F7F8018081918120893189FC0122
:10334000C680D780CB01BA01AD0109E016E1EE24B9
:10335000FF24F601099560960FB6F894DEBF0FBE04
:10336000CDBFCF91DF911F910F91FF90EF90DF9034
:10337000CF9008952F923F924F925F926F927F92DB
:103380008F929F92AF92BF92CF92DF92EF92FF9275
:103390000F931F93DF93CF93CDB7DEB7AA970FB6E6
:1033A000F894DEBF0FBECDBF4C01DB01009709F4DE
:1033B000B5C06115710509F4B1C0FC016080718070
:1033C000F30120883188FC01A5A4B6A427A530A963
:1033D0002215330508F07EC0AE014F5F5F4F86E0D7
:1033E000FA0111928A95E9F78BE2FB0111928A9515
:1033F000E9F7A114B10409F074C0F30122883388FD
:1034000086899789281A390A6CC0720100E010E099
:10341000A114B10441F4D30156966D917D918D9123
:103420009C91599724C061147104D9F0B2E0AB1695
:10343000B104B8F0F3012089318940E050E06FA178
:1034400078A589A59AA50E9472329B01AC01F3016F
:1034500082899389A489B589280F391F4A1F5B1F68
:1034600004C020E030E040E050E0CA01B9016E0D38
:103470007F1D801F911F1C821B82D301ED91FC9147
:103480008101041915090280F381E02DAE01495F25
:103490005F4F20E230E0A8EAEA2EAAE1FA2E6E01A0
:1034A0000894C11CD11C09958823C1F18B819C8192
:1034B000480E591E4214530430F1C301B5010E9455
:1034C0006B145C0120E030E0009769F48E81882362
:1034D000F1F4F40183A194A196A785A710AA17A6D9
:1034E0001DC0BA83A98329018EEF9FEFA80EB91ED4
:1034F000C501A0E0B0E08FA398A7A9A7BAA7A2E052
:10350000B0E0AA0EBB1E8E81882309F47ECFF401A1
:10351000B6A6A5A650AA47A68E8101C080E0AA96AD
:103520000FB6F894DEBF0FBECDBFCF91DF911F91D4
:103530000F91FF90EF90DF90CF90BF90AF909F9052
:103540008F907F906F905F904F903F902F90089555
:10355000CF92DF92EF92FF920F931F93CF93DF935F
:103560008C016A017B01A901D901CD91DC911197F0
:1035700012968D919C911397809613969C938E939F
:103580001297F8019081953E11F0992321F4DA0108
:1035900014961C92C9C0F80183858F30E1F5D901DA
:1035A00014969C91992319F08585981771F08BE2F8
:1035B000FE0111928A95E9F7D8011D968C91FA01C6
:1035C0008483CFA2D8A6E9A6FAA6D8018C9190E070
:1035D0008F7390702DE030E0829FA001839F500D8B
:1035E000929F500D11244D505040ABE0B2E0C40FFB
:1035F000D51F0DC08D91F801E80FF11D80818993D1
:103600004F5F5F4FE2E0A831BE0709F48DC04F3134
:10361000510580F389C088818823D1F0D90114969F
:103620006C91F801A1E0892F90E09C0135952795D8
:103630009695982F882797958795982F922B81811B
:10364000980FAF5F3196AB3071F7691709F457C027
:103650008BE2FE0111928A95E9F7CFA2D8A6E9A6DE
:10366000FAA6B801DE01780120E0F70190819032DE
:10367000A1F09C93F801848583FF08C0F701808145
:10368000813420F08B3510F4905E9C932F5F08946A
:10369000E11CF11C1196283041F78881853011F426
:1036A00085EE8883D80118968C91803221F1FE0135
:1036B000E20FF11D8EE28083322F3F5F2C5FFB0112
:1036C00090859032B9F0FE01E30FF11D9083D8018F
:1036D0001C968C9184FF09C0DB0118968C91813473
:1036E00020F08B3510F4905E90833F5F6F5F7F4FCB
:1036F000321729F7232FFE01E20FF11D1082F80186
:10370000838588A3828D938D9AA389A3848D958DBB
:10371000A68DB78D8BA39CA3ADA3BEA381E0DA01D8
:1037200015968C9380E001C081E0DF91CF911F91CD
:103730000F91FF90EF90DF90CF9008952F923F92DE
:103740004F925F926F927F928F929F92AF92BF92B1
:10375000CF92DF92EF92FF920F931F93DF93CF935D
:10376000CDB7DEB7A8970FB6F894DEBF0FBECDBFBA
:1037700098A78FA3009709F436C1DC0114968D91A8
:103780009C911597892B09F42EC116968D919C91C9
:103790001797892B09F427C16DC1E981FA81FBA331
:1037A000EAA32C813D81FB81FCA34E818F8198850A
:1037B0009EA38DA3E985FA856C857D856E887F88BB
:1037C000888C998C611471048104910431F43097D0
:1037D00009F405C13F01882499246115710509F494
:1037E000FEC0C901A0E0B0E08A8F9B8FAC8FBD8F77
:1037F00080E090E0242F30E040E050E00E94723200
:103800006E8F7F8F88A399A3840173012A8D3B8DCE
:103810004C8D5D8DE21AF30A040B150BE61AF70ABC
:10382000080B190B8AA19BA101972DA13EA145E090
:10383000220F331F4A95E1F7820F931F6AA17BA1E4
:103840000E94913280E090E0E61AF70A080B190B0B
:103850008CA1282F30E040E050E0C801B7010E9461
:10386000B83279018A0195EFE9169FE0F90690E0F8
:10387000090790E0190708F4B2C0A5EFEA16AFEF08
:10388000FA06A0E00A07A0E01A0728F486E0EFA1F4
:10389000F8A5808705C08BE0AFA1B8A518968C93DA
:1038A00088E1E1ECF5E0DF011D928A95E9F7EAA1F4
:1038B000FBA15F01CC24DD24C401B301A601950165
:1038C0000E9472326093C1057093C2058093C30554
:1038D0009093C405C601B5012A8D3B8D4C8D5D8D3D
:1038E0000E947232260E371E481E591E2092C505B0
:1038F0003092C6054092C7055092C805AFA1B8A541
:1039000018968C91863029F064E070E080E090E0B9
:1039100004C062E070E080E090E022E030E040E04F
:1039200050E0E20EF31E041F151FA80197010E942C
:1039300072326093C9057093CA058093CB0590934A
:10394000CC054AA15BA15093CE054093CD055CA167
:10395000852F90E0DC01EAA1FBA1AE9FC001AF9FE3
:10396000900DBE9F900D11249093D0058093CF05AC
:103970006E8D7F8D88A199A1A60195010E9472325A
:103980002091C5053091C6054091C7055091C805E5
:10399000620F731F841F951F6093D5057093D60522
:1039A0008093D7059093D805ADA1BEA19D0140E0BD
:1039B00050E0B5E0220F331F441F551FBA95D1F7D1
:1039C000620F731F841F951F6093D1057093D205FA
:1039D0008093D3059093D4052FEB35E006C0109269
:1039E000C0051092BF0520E030E0C901A8960FB6CF
:1039F000F894DEBF0FBECDBFCF91DF911F910F9125
:103A0000FF90EF90DF90CF90BF90AF909F908F90FE
:103A10007F906F905F904F903F902F900895EFEBC5
:103A2000F5E08CE1DF011D928A95E9F7EFA1F8A599
:103A3000F093C005E093BF0521843284438454840D
:103A4000A9E0220C331C441C551CAA95D1F7C201D5
:103A5000B101655F7F4F8F4F9F4F0190F081E02D47
:103A6000AE014F5F5F4F29E130E00995882309F4EB
:103A7000B6CF93CE8091BF059091C005892B09F0F8
:103A8000B2CFCDCF2F923F924F925F926F927F92A3
:103A90008F929F92AF92BF92CF92DF92EF92FF925E
:103AA0000F931F93DF93CF9300D00F92CDB7DEB764
:103AB0001C019B01009709F4D2C04115510509F47E
:103AC000CEC0FA0101900020E9F7E41BF50BCF010D
:103AD0000B966DE070E00E949132862F8F5F8B8392
:103AE000D90193964D905C9094974114510451F0F4
:103AF000AA24BB246501EE24FF24870166247724D1
:103B000043010BC0F101E688F788008D118D6288B2
:103B1000738884889588570168011A82E614F7042F
:103B20000805190509F06EC04114510409F497C045
:103B3000E114F1040105110589F1C101B2010E94EE
:103B40006B14009751F5C101B20141E050E00E94B1
:103B500021158C01009709F482C002501040B80171
:103B600080E090E00E5F1F4FD10150962D913C9167
:103B7000519740E050E00E9472325B016C01F1010C
:103B800082899389A489B589A80EB91ECA1EDB1E35
:103B9000C101B8010E94601965C02C01F2E04F1606
:103BA000510420F4EE24FF2487011DC02EEF3FEFC7
:103BB000420E531EB20180E090E0A2E0B0E04A0E57
:103BC0005B1EF1012089318940E050E00E94723291
:103BD0007B018C01F10182899389A489B589E80E62
:103BE000F91E0A1F1B1FD10150968D919C91519770
:103BF0003C01882499246E0C7F1C801E911E570165
:103C000068011A82D101ED91FC910190F081E02DC3
:103C1000C801B701AE014F5F5F4F21E030E0099569
:103C20008823E9F08981853E11F0882379F4BA81EF
:103C3000BF5FBA83EB81BE17A8F480E290E0A0E0FA
:103C4000B0E0E80EF91E0A1F1B1F68CF80E290E06B
:103C5000A0E0B0E0E80EF91E0A1F1B1F5CCFAA24EB
:103C6000BB246501B501C6010F900F900F90CF9155
:103C7000DF911F910F91FF90EF90DF90CF90BF9059
:103C8000AF909F908F907F906F905F904F903F90FC
:103C90002F9008953F924F925F926F927F928F92F2
:103CA0009F92AF92BF92CF92DF92EF92FF920F93CB
:103CB0001F93DF93CF93CDB7DEB7A0970FB6F894DD
:103CC000DEBF0FBECDBFFC018B01009709F431C1EF
:103CD0006115710509F42DC10190F081E02D44803A
:103CE0005580DB019796AD90BD90CD90DC909A9772
:103CF000E62E912EFB0101900020E9F73197FE2E70
:103D0000F61A8F2D90E00C966DE070E00E94A532BF
:103D1000762ECE01019660E270E04BE050E00E940A
:103D20000433C8016EE270E00E943C33FC0100974E
:103D3000E1F09C012F5F3F4F81818823B1F0D901D1
:103D40000D900020E9F71197A21BB30B8A2F8095E5
:103D5000F80EBE01675F7F4F4A2FA43008F043E0A2
:103D6000CB01B90150E00E94FB32CE010196B8E0D0
:103D7000BF1588F06E2D792D4F2D50E00E94FB323B
:103D8000F80180818E3291F581818E3209F4828131
:103D9000882359F12BC0DC018E2D992D9C01F9014E
:103DA00088E001900D928150E1F7D80191962C9115
:103DB000822F90E0203A40F444E0959587954A950B
:103DC000E1F7982F905D07C034E0959587953A9577
:103DD000E1F7982F9F59822F8F708A3010F4805D01
:103DE00001C08F599F83888701C077248981853ED0
:103DF00011F485E089838CE0882E912C8C0E9D1E19
:103E000085E1F40111928A95E9F7D80190968C9199
:103E100090978C8791968D919C9192979C8F8B8F88
:103E200093968D919D910D90BC91A02D8D8F9E8F1D
:103E3000AF8FB8A3672D70E0B5E0660F771FBA9516
:103E4000E1F780E090E06A0D7B1D8C1D9D1DAE01A9
:103E50004F5F5F4F20E230E0F2010995882309F4BB
:103E600068C0E980FE013296A4018E2D90E09C018D
:103E7000359527959695982F882797958795E82EBD
:103E8000E22A8191E80EE417F50779F7F72C4E0145
:103E90000894811C911C6DE0362E5FE0652E44C0B5
:103EA000C4016FEF70E040E250E00E940433F39CE5
:103EB000D00111241D97A00FB11F91E0F401E90F6B
:103EC000F11D8C918083892F8F5FF401E80FF11D24
:103ED00010829E5F9B3019F09A3121F402C09EE05F
:103EE00001C09CE18C91882321F09F3110F4119640
:103EF000E5CFF982F71419F48F2D806489836C86DD
:103F0000EE861D861B8E1C8EC601B501A40120E223
:103F100030E0F201099580E290E0A0E0B0E0A80E68
:103F2000B91ECA1EDB1EFA94FF2009F0B9CF81E04A
:103F300001C080E0A0960FB6F894DEBF0FBECDBFE3
:103F4000CF91DF911F910F91FF90EF90DF90CF9075
:103F5000BF90AF909F908F907F906F905F904F90A9
:103F60003F900895AF92BF92CF92DF92EF92FF926F
:103F70000F931F93CF93DF938C017B01EA0100978E
:103F800009F448C06115710509F444C0FB01808142
:103F9000882309F43FC041155105E1F1B42EAD2E3F
:103FA000C801BE010E94BA19882379F0C7016B2DA0
:103FB0007A2D0E941633009799F7F80183A194A1F6
:103FC00096A785A710AA17A625C0F801C080D180A2
:103FD0008BE2FE0111928A95E9F78B2D9A2DB7019C
:103FE0004FE150E00E942D33C601B801AE010E949E
:103FF000421D6FA378A789A79AA76115710581054E
:10400000910541F0C601BE010E944A1E882319F0A5
:1040100081E001C080E0DF91CF911F910F91FF906F
:10402000EF90DF90CF90BF90AF900895CF93DF9344
:10403000EC01009759F08BA9813031F4FE01819198
:104040009191BF010E944A1E19821882DF91CF917F
:104050000895CF93DF93AC01DB01009789F16115DF
:10406000710571F190968C91909784FF29C0809191
:10407000290590912A05892B19F4E9E2F5E008C099
:1040800080915A0590915B05892BD1F4EAE5F5E022
:104090009F012E5F3F4FBD018BE2EB010990BE01F6
:1040A000E90109929E018150C1F7518340839196A5
:1040B0008D919C91929796A785A710AA17A602C0EA
:1040C000E0E0F0E0CF01DF91CF910895CF93DF934F
:1040D0009C01FB01009731F06115710519F080A179
:1040E00084FF25C020E030E0C901DF91CF91089521
:1040F000CDE8D5E0DF018BE20D9009928150E1F728
:1041000030938C0520938B051092B8051092B90559
:104110001092BA051092BB0581A192A19093BD05A2
:104120008093BC051092BE052BE835E0DDCF809171
:104130008B0590918C05892BA9F6DACF6F927F922F
:104140008F929F92AF92BF92CF92DF92EF92FF92A7
:104150000F931F93CF93DF934C01EB017A010097EC
:1041600009F467C06115710509F463C0888188236B
:1041700009F45FC04115510509F45BC08F3209F4A1
:1041800021968BE2F70111928A95E9F780E1F70118
:1041900080A3370101C0E5018881882309F44BC061
:1041A000C401B7010E9429206C01009709F441C0A5
:1041B000CE016FE270E00E940B33009739F0482F78
:1041C0004C1B5C010894A11CB11C2AC0FE0101908B
:1041D0000020E9F731974E2F4C1B5E01A40EB11C55
:1041E0001FC0F30101900020E9F73197E619F709A4
:1041F000E017F107B9F4CE01B301A8010E941F3303
:10420000009781F4F601118210820C0F1D1FF80136
:104210008081882381F0F70180A184FDBCCF09C093
:10422000042F10E0C601B7010E94BA198823C9F60D
:1042300012C080E001C081E0DF91CF911F910F910A
:10424000FF90EF90DF90CF90BF90AF909F908F90B6
:104250007F906F900895F601118210829DCFFC012E
:10426000009711F480E00895108681E008958F9200
:104270009F92AF92BF92CF92DF92EF92FF920F93F5
:10428000DF93CF93CDB7DEB760970FB6F894DEBF5C
:104290000FBECDBF7C016B015A014901009709F4A3
:1042A00093C06115710509F48FC004300CF08CC007
:1042B00007FD1DC0602F772767FD7095E4E0660F4E
:1042C000771FEA95E1F762547E4F882777FD809546
:1042D000982FAE014F5F5F4F20E130E0F701099565
:1042E000882309F471C08D81882309F46DC0809101
:1042F000E305882309F068C07CC08D818093E305C5
:104300002A8530E040E050E0542F432F322F2227FF
:104310008B8590E0A0E0B0E0DC0199278827282B6E
:10432000392B4A2B5B2B898590E0A0E0B0E0282B4D
:10433000392B4A2B5B2B8C8590E0A0E0B0E0B82FA6
:10434000AA2799278827282B392B4A2B5B2B2093C8
:10435000E4053093E5054093E6055093E7052E8587
:1043600030E040E050E0542F432F322F22278F853A
:1043700090E0A0E0B0E0DC0199278827282B392BBA
:104380004A2B5B2B8D8590E0A0E0B0E0282B392BE9
:104390004A2B5B2B888990E0A0E0B0E0B82FAA27D9
:1043A00099278827282B392B4A2B5B2B2093E8054C
:1043B0003093E9054093EA055093EB0503C08FEF76
:1043C0008093E3059F0102C020E030E0C9016096C0
:1043D0000FB6F894DEBF0FBECDBFCF91DF910F9126
:1043E000FF90EF90DF90CF90BF90AF909F908F9015
:1043F0000895EBEDF5E081E1DF011D928A95E9F783
:10440000F092DC05E092DB05D092DE05C092DD057E
:10441000B092E005A092DF059092E2058092E1055E
:1044200007FF6BCFCCCFE0912009F091210980816B
:104430008695809581700895E0912009F091210979
:10444000808181700895282F8FEF8EBD0DB407FEF7
:10445000FDCF8DB58F778DBD8EB5822F80648EBDDB
:104460000DB407FEFDCF8DB58F778DBD872F9927B2
:10447000AA27BB278EBD0DB407FEFDCF8DB58F7764
:104480008DBDCB01AA27BB278EBD0DB407FEFDCF86
:104490008DB58F778DBDBB27A72F962F852F8EBD0E
:1044A0000DB407FEFDCF8DB58F778DBD4EBD0DB41C
:1044B00007FEFDCF8DB58F778DBD222319F02830F3
:1044C00069F406C085E98EBD0DB407FEFDCF0BC0B3
:1044D00087E88EBD0DB407FEFDCF05C08FEF8EBD02
:1044E0000DB407FEFDCF8DB58F778DBD90E02FEF1A
:1044F0002EBD0DB407FEFDCF8DB58F778DBD8EB56A
:104500008F3F19F49F5F9A3099F708952F923F9249
:104510004F925F926F927F928F929F92AF92BF92D3
:10452000CF92DF92EF92FF920F931F93CF93DF937F
:104530004B015C012A013901E0912009F091210928
:10454000808180FFA3C0ABC0E401D170CE01A0E0A8
:10455000B0E085017401E81AF90A0A0B1B0BC12CA3
:10456000B2E0DB2ECC1ADD0A6C147D0408F4630182
:104570008091ED059091EE05A091EF05B091F005C9
:10458000E816F9060A071B07F9F00E94652388233D
:1045900009F485C0209729F480E0C81682E0D80687
:1045A00058F4C801B70141EF55E020E032E00E9425
:1045B0007F23882309F473C0E092ED05F092EE05A5
:1045C0000093EF051093F00581EF481685E058063B
:1045D00071F09E012F503A4FC901B201A6010E940D
:1045E000FB321092EC056C147D0409F45AC0289833
:1045F00088E1B801A7010E942322882311F0289A9C
:104600004EC08EEF8EBD0DB407FEFDCF8DB58F77FA
:104610008DBDE1EFF5E081918EBD0DB407FEFDCFBC
:104620008DB58F778DBD87E0E13FF807A1F73EBCE0
:104630000DB407FEFDCF8DB58F778DBD3EBC0DB49B
:1046400007FEFDCF8DB58F778DBD3EBC0DB407FE47
:10465000FDCF8DB58F778DBD8EB58F3FB1F78EBDF8
:104660000DB407FEFDCF8DB58F778DBD8EB5289A21
:104670004C0C5D1CC601A0E0B0E0880E991EAA1E7D
:10468000BB1E6C187D082092EC0504C033243A94BC
:10469000222423946114710409F056CF02C080E0F3
:1046A00001C081E0DF91CF911F910F91FF90EF90BA
:1046B000DF90CF90BF90AF909F908F907F906F9042
:1046C0005F904F903F902F9008958091EC05882344
:1046D00011F081E008956091ED057091EE058091F3
:1046E000EF059091F00541EF55E020E032E00E94A7
:1046F0008622882319F081E08093EC0508953F928B
:104700004F925F926F927F928F929F92AF92BF92E1
:10471000CF92DF92EF92FF920F931F93CF93DF938D
:104720003B014C016A01290133243A948FC01FEFE9
:10473000A12E11E0B12EA620B720C501A0E0B0E067
:1047400084017301E81AF90A0A0B1B0BC0E0D2E0DE
:10475000CA19DB094C165D0608F4E2018091ED05EB
:104760009091EE05A091EF05B091F005E816F906DD
:104770000A071B0709F457C00E946523882309F420
:104780006AC0289881E1B801A7010E9423228823EA
:1047900019F0289A80E05FC03EBC0DB407FEFDCF43
:1047A0008DB58F778DBD8EB58E3FB1F7E1EFF5E01A
:1047B0003EBC0DB407FEFDCF8DB58F778DBD8EB598
:1047C000808387E0E03FF80711F03196F1CFE09267
:1047D000ED05F092EE050093EF051093F0059501BD
:1047E0002F503A4FC601B901AE010E94FB323EBCC8
:1047F0000DB407FEFDCF8DB58F778DBD8EB53EBC58
:104800000DB407FEFDCF8DB58F778DBD8EB5289A7F
:104810003EBC0DB407FEFDCFCC0EDD1E8DB58F77EF
:104820008DBD8EB50AC095012F503A4FC601B90112
:10483000AE010E94FB32CC0EDD1E4C1A5D0ACE0189
:10484000A0E0B0E0680E791E8A1E9B1E4114510440
:1048500009F06DCF81E0DF91CF911F910F91FF9013
:10486000EF90DF90CF90BF90AF909F908F907F9010
:104870006F905F904F903F9008952F923F924F928C
:104880005F926F927F928F929F92AF92BF92CF92E0
:10489000DF92EF92FF920F931F93DF93CF9300D09D
:1048A00000D0CDB7DEB74B015C013A013C832B83CE
:1048B0002701DA82C98241155105A9F12115310577
:1048C00091F10217130778F1E114F10461F1190174
:1048D0003094219431083394021B130B6901EE24A8
:1048E000FF24C501B401A3012B813C810E947F23D9
:1048F0008823C9F0C301B501A40129813A81F201DD
:104900000995882391F0020D131D8B819C81800FE6
:10491000911F2B813C818217930738F08C0C9D1CD2
:10492000AE1CBF1CDECF80E001C081E00F900F9075
:104930000F900F90CF91DF911F910F91FF90EF900B
:10494000DF90CF90BF90AF909F908F907F906F90AF
:104950005F904F903F902F9008950F931F93CF93A8
:10496000DF93E0912009F091210981818D7F81837E
:10497000E0912009F091210981818E7F8183229A23
:10498000219A209A2398289A83E58CBD8DB58E7F35
:104990008DBD1092F107E0912009F09121098081ED
:1049A00081FD1FC090E02FEF2EBD0DB407FEFDCF9F
:1049B0008DB58F778DBD8EB59F5F9A30A9F72898FA
:1049C000C0E0D0E080E040E050E060E070E00E94B5
:1049D0002322182F813049F081E0CF3FD80719F406
:1049E000289A80E063C02196EDCF87E340E050E055
:1049F00060E070E00E94232289E240E050E060E045
:104A000070E00E94232282FD02C01093F107809182
:104A1000F107082F10E003701070C0E0D0E001151E
:104A2000110549F087E340E050E060E070E00E944B
:104A3000232289E201C081E040E050E060E070E0C4
:104A40000E94232280FF06C08FE7CF3FD80741F2A4
:104A50002196E5CF80E140E052E060E070E00E9406
:104A60002322882309F0BCCF289A8CB58C7F8CBD7B
:104A70008DB581608DBD8FEF9FEFAFEFBFEF80935E
:104A8000ED059093EE05A093EF05B093F00581E05E
:104A90008093EC0560E070E080E090E041EF55E04D
:104AA00020E032E00E947F23811181E0DF91CF91ED
:104AB0001F910F9108954F925F926F927F928F9204
:104AC0009F92AF92BF92CF92DF92EF92FF920F939D
:104AD0001F93CF93DF935B016C014A01E901380119
:104AE00027014115510571F10115110559F1FF24F7
:104AF0002115310511F5FF24F3941FC0C401B6013F
:104B0000A5019201F30109958C010097E9F0FF20BE
:104B100019F4C817D907B0F0C601B501A40198016E
:104B20000E948622882371F0C801A0E0B0E0A80EA0
:104B3000B91ECA1EDB1EC01BD10BFF20F9F6209741
:104B4000E9F602C080E001C081E0DF91CF911F91C2
:104B50000F91FF90EF90DF90CF90BF90AF909F901C
:104B60008F907F906F905F904F900895FC01A0818F
:104B7000B18112964C91129782818F7021E030E0C2
:104B800002C0220F331F8A95E2F7922F662311F09D
:104B9000822F01C080E090959423892B12968C93EC
:104BA0000895FF920F931F938C01085F1F4FC80158
:104BB00060E00E94B62585E0F82E8F2D8A95F1F7EA
:104BC000C80161E00E94B625FA94F1F7C80160E0DF
:104BD0000E94B62580E991E00197F1F71F910F91AE
:104BE000FF900895AF92BF92CF92DF92EF92FF9223
:104BF0000F931F93CF93DF938C017C01C0E0D0E033
:104C000021E0A22EB12CC62EDD24F701A385B485A8
:104C100011963C911197AE01440F551F4C0F5D1F2B
:104C2000F801E40FF51F85858F70B50102C0660F8E
:104C3000771F8A95E2F7262F20952323262B11969E
:104C40002C93455F5F4FB6010C2E02C0759567959A
:104C50000A94E2F761707070C801840F951F0E947A
:104C6000B625219683E090E0E80EF91EC430D10508
:104C700061F6C8010E94D125DF91CF911F910F915C
:104C8000FF90EF90DF90CF90BF90AF900895AF92DC
:104C9000BF92CF92DF92EF92FF920F931F93CF9329
:104CA000DF938C017C01C0E0D0E071E0A72EB12C35
:104CB000C62EDD24F701A385B48511963C9111978A
:104CC000AE01440F551F4C0F5D1FF801E40FF51F97
:104CD00085858F70B50102C0660F771F8A95E2F750
:104CE000262F20952323262B11962C93455F5F4F6B
:104CF000B6010C2E02C0759567950A94E2F76170B3
:104D00007070C801840F951F0E94B625219683E01C
:104D100090E0E80EF91EC830D10561F6C8010E9486
:104D2000D125DF91CF911F910F91FF90EF90DF90F0
:104D3000CF90BF90AF9008951F93CF93DF93EC0176
:104D4000162F0296642F0E94B6258D819E818F5F5B
:104D50009F4F29F0CE01059660E00E94B6258BA1F9
:104D600084FF05C0CE01612F0E9447260EC0612F2F
:104D700070E0E4E075956795EA95E1F7CE010E9451
:104D8000F225CE01612F0E94F225DF91CF911F9174
:104D9000089541E00E949C26089540E00E949C26D0
:104DA0000895FC0164A1862F846084A36C60CF0108
:104DB0000E94CD26089561E00E94CD2680E49FE107
:104DC0000197F1F708950F931F93CF93DF93EC01B1
:104DD000423018F08BA188608BA34FA318A6222322
:104DE00029F0413019F48BA184608BA384EF91E00A
:104DF00020E931E0F9013197F1F70197D9F7CE01B8
:104E0000029660E00E94B625CE01089660E00E94FE
:104E1000B6258D819E818F5F9F4F29F0CE0105962B
:104E200060E00E94B6256BA164FD1DC0CE0163E069
:104E30000E94F22500E516E4C8010197F1F7CE01C2
:104E400063E00E94F225C8010197F1F7CE0163E00B
:104E50000E94F22588E592E00197F1F7CE0162E029
:104E60000E94F22516C06062CE010E94CD2680E528
:104E700096E40197F1F76BA16062CE010E94CD2606
:104E800088E592E00197F1F76BA16062CE010E9484
:104E9000CD266BA16062CE010E94CD2684E08CA35A
:104EA000CE010E94D126CE010E94DB2682E08DA396
:104EB000CE0166E00E94CD26DF91CF911F910F9128
:104EC0000895AF92BF92CF92EF92FF920F931F93EC
:104ED000DF93CF93CDB7DEB729970FB6F894DEBF37
:104EE0000FBECDBFDC0129833A834B83EC82FD8268
:104EF0000E83AF82B886C9869C012E5F3F4FAE01FC
:104F00004F5F5F4F83E0FA010190AF01F901019219
:104F10009F018150C1F79D012B5F3F4FAE014C5F58
:104F20005F4F83E0FA010190AF01F90101929F0107
:104F30008150C1F79D01285F3F4FAE01495F5F4F30
:104F400083E0FA010190AF01F90101929F018150C4
:104F5000C1F79D01255F3F4FAE014B5E5F4F83E080
:104F6000FA010190AF01F90101929F018150C1F74F
:104F70009D01225F3F4FAE01485E5F4F83E0FA0123
:104F80000190AF01F90101929F018150C1F79D018C
:104F90002F5E3F4FAE01455E5F4F83E0FA01019007
:104FA000AF01F90101929F018150C1F79D012C5E73
:104FB0003F4FAE01425E5F4F83E0FA010190AF01C7
:104FC000F90101929F018150C1F79D01295E3F4F78
:104FD000AE014F5D5F4F83E0FA010190AF01F9012F
:104FE00001929F018150C1F79D01265E3F4FAE01A6
:104FF0004C5D5F4F83E0FA010190AF01F90101922E
:105000009F018150C1F79D01235E3F4FAE01495D75
:105010005F4F83E0FA010190AF01F90101929F0116
:105020008150C1F79D01205E3F4FAE01465D5F4F4D
:1050300083E0FA010190AF01F90101929F018150D3
:10504000C1F71296ED91FC911397318114968C91D2
:1050500014978F7041E050E08A0102C0000F111FC9
:105060008A95E2F7202F20952323202B2183159664
:10507000ED91FC9116971FEFEF3FF10779F0218139
:1050800017968C9117978F7002C0440F551F8A9501
:10509000E2F7842F80958223842B81831896ED91EB
:1050A000FC91199731811A962C911A972F7081E0F3
:1050B00090E002C0880F991F2A95E2F7282F2095CB
:1050C0002323282B2183662321F093961C92939708
:1050D00004C080E193968C939397CD0160E141E009
:1050E00020E00E94E32629960FB6F894DEBF0FBE9B
:1050F000CDBFCF91DF911F910F91FF90EF90CF9097
:10510000BF90AF9008956F927F928F929F92AF92CF
:10511000BF92CF92DF92EF92FF920F931F93DF9394
:10512000CF93CDB7DEB76B970FB6F894DEBF0FBE47
:10513000CDBF3C01488B598B6A8B0B8B1C8B2D8B05
:10514000CE8ADF8AE88E898E9A8EAB8E8CE192E0D1
:10515000F301918380832FEF3FEF33832283848198
:10516000807F8483368325838781807F878331870F
:1051700020878285807F82873B9620E030E04FEF5A
:105180005FEF518340838281807F82832D5F3F4F19
:10519000339628313105A9F75A8349838B81807F63
:1051A0008B835D834C838E81807F8E8358874F8372
:1051B0008985807F89875B874A878C85807F8C87FC
:1051C0005E874D878F85807F8F878DB79EB7489785
:1051D0000FB6F8949EBF0FBE8DBF2DB73EB72F5FA1
:1051E0003F4FD901FE01769683E001900D928150E8
:1051F000E1F7D9011396FE01799683E001900D92B3
:105200008150E1F7D9011696FE01BC9683E001902A
:105210000D928150E1F7D9011996FE01BF9683E006
:1052200001900D928150E1F7D9011C96FE01349650
:1052300083E001900D928150E1F7D9011F96FE01A4
:10524000379683E001900D928150E1F7D901529693
:10525000FE013A9683E001900D928150E1F7D90169
:105260005596FE013D9683E001900D928150E1F745
:10527000C30161E0288939894A89E980FA800B8174
:10528000AB88BC88CD880E946127EDB7FEB77896C1
:105290000FB6F894FEBF0FBEEDBF6B960FB6F89435
:1052A000DEBF0FBECDBFCF91DF911F910F91FF9059
:1052B000EF90DF90CF90BF90AF909F908F907F90B6
:1052C0006F9008950F931F93DF93CF93CDB7DEB701
:1052D000C05AD0400FB6F894DEBF0FBECDBF8C01D0
:1052E000FC0120E030E04FEF5FEF5183408382818B
:1052F000807F8283548343838581807F8583578326
:1053000046838085807F8087528741878385807F21
:105310008387558744878685807F86872F5E3F4FAA
:1053200071962535310509F720911A0930911B092D
:1053300040911C0950911D093A8329838B81807FFC
:1053400085608B83DE01A45BBF4FFE01319683E055
:1053500001900D928150E1F73D832C838E81807FF7
:1053600086608E83DE01A15BBF4FFE01349683E031
:1053700001900D928150E1F738872F838985807FD6
:1053800084608987DE01AE5ABF4FFE01379683E005
:1053900001900D928150E1F75B874A878C85807F71
:1053A00085608C87DE01AB5ABF4FFE013A9683E0E1
:1053B00001900D928150E1F75E874D878F85807F48
:1053C00086608F87DE01A85ABF4FFE013D9683E0BD
:1053D00001900D928150E1F7FE01E45BFF4F81E007
:1053E0008787108AD80181E101900D928150E1F701
:1053F00020911A0930911B094091280950912909DF
:1054000060911C0970911D09398B288B8A89807FD6
:1054100082608A8BDE01A35ABF4FFE01709683E043
:1054200001900D928150E1F73C8B2B8B8D89807F11
:1054300083608D8BDE01A05ABF4FFE01739683E01F
:1054400001900D928150E1F73F8B2E8B888D807FEC
:105450008160888FDE01AD59BF4FFE01769683E0F3
:1054600001900D928150E1F75A8F498F8B8D807F8B
:1054700086608B8FDE01AA59BF4FFE01799683E0CB
:1054800001900D928150E1F77D8F6C8F8E8D807F22
:1054900084608E8FDE01A759BF4FFE017C9683E0AA
:1054A00001900D928150E1F7FE01E35AFF4F81E038
:1054B0008787108AD801519681E101900D92815021
:1054C000E1F758A34F8F89A1807F89A3DE01A259FC
:1054D000BF4FFE017F9683E001900D928150E1F76E
:1054E0003BA32AA38CA1807F8CA3DE01AF58BF4FC2
:1054F000FE01B29683E001900D928150E1F75EA328
:105500004DA38FA1807F81608FA3DE01AC58BF4F78
:10551000FE01B59683E001900D928150E1F759A705
:1055200048A78AA5807F84608AA7DE01A958BF4F5B
:10553000FE01B89683E001900D928150E1F75CA7DF
:105540004BA78DA5807F85608DA7DE01A658BF4F34
:10555000FE01BB9683E001900D928150E1F7FE01C0
:10556000E259FF4F81E08787108AD801929681E146
:1055700001900D928150E1F720912A0930912B0979
:1055800060912209709123093FA72EA788A9807FE7
:10559000816088ABDE01A158BF4FFE01BE9683E05B
:1055A00001900D928150E1F73AAB29AB8BA9807F36
:1055B0008BABDE01AE57BF4FFE01F19683E0019049
:1055C0000D928150E1F77DAB6CAB8EA9807F856039
:1055D0008EABDE01AB57BF4FFE01F49683E0019026
:1055E0000D928150E1F78FEF9FEF98AF8FAB89ADB0
:1055F000807F89AFDE01A857BF4FFE01F79683E099
:1056000001900D928150E1F78FEF9FEF9BAF8AAF32
:105610008CAD807F8CAFDE01A557BF4FFE01FA969F
:1056200083E001900D928150E1F7FE01E158FF4FB8
:1056300081E08787108AD801D39681E101900D928D
:105640008150E1F720912609309127097EAF6DAF97
:105650008FAD807F83608FAFDE01A057BF4FFE010B
:10566000FD9683E001900D928150E1F7DE01A05C90
:10567000BF4F11963C932E93FE01EE5BFF4F80814E
:10568000807F856080839E012D563F4FFD0183E022
:105690000190D9010D929D018150D1F7FE01ED5B82
:1056A000FF4F518340838281807F83608283DE014C
:1056B000AA56BF4F83E001900D928150E1F7FE01A1
:1056C000EA5BFF4F8FEF9FEF918380838281807F22
:1056D0008283DE01A756BF4F83E001900D92815077
:1056E000E1F7FE01E75BFF4F8FEF9FEF9183808330
:1056F0008281807F8283DE01A456BF4F83E00190C8
:105700000D928150E1F7FE01E057FF4F81E087875E
:10571000108AD801AC5BBF4F81E101900D9281509E
:10572000E1F7C056DF4F0FB6F894DEBF0FBECDBF16
:10573000CF91DF911F910F910895FC018FB7F894DD
:10574000EA5AFF4F20813181428153818FBFB901D5
:10575000CA0108956115710561F4109277081092DD
:105760007608E0911C09F0911D0982818F77828370
:105770000CC08091750890E08617970731F082E0A1
:1057800090E0909377088093760860937508089569
:105790008091750808951F920F920FB60F920BB665
:1057A0000F9211242F933F938F939F93EF93FF9327
:1057B00080917808909179081816190614F40197C9
:1057C00038C0809176089091770881309105E1F496
:1057D00080917A0890917B08019690937B08809342
:1057E0007A0882E090E0909377088093760882E1CF
:1057F00090E09093790880937808E0911C09F091EB
:105800001D0982818F7732C082309105B9F4809171
:10581000750890E020917A0830917B0828173907A5
:105820009CF083E090E0909377088093760880E581
:1058300090E0909379088093780819C00397B9F4A1
:1058400010927B0810927A0881E090E0909377089C
:105850008093760882E190E09093790880937808AD
:10586000E0911C09F0911D09828180688283FF917B
:10587000EF919F918F913F912F910F900BBE0F90C1
:105880000FBE0F901F9018958F929F92AF92CF925C
:10589000DF92EF920F931F93DF93CF93CDB7DEB7D5
:1058A00062970FB6F894DEBF0FBECDBF82EF97E0D0
:1058B0000E94622920911E0930911F093A83298391
:1058C0008B81807F84608B833D832C838E81807F5E
:1058D00083608E83809120099091210998878F831E
:1058E0008985807F876089872091260930912709E3
:1058F0003B872A878C85807F82608C873E872D87B7
:105900008F85807F81608F87398B288B8A89807F04
:105910008A8B00D000D000D02DB73EB72F5F3F4F0D
:10592000D901FE013D9683E001900D928150E1F78F
:10593000D9011396FE01709683E001900D9281507B
:10594000E1F78CE498E049815A816B810C811D81DB
:105950002E81CF80D884E9848A849B84AC840E9481
:1059600083288DB79EB706960FB6F8949EBF0FBEDC
:105970008DBF62960FB6F894DEBF0FBECDBFCF913C
:10598000DF911F910F91EF90DF90CF90AF909F909C
:105990008F900895FC01EA5AFF4F80819181A28186
:1059A000B381805C9F4FAF4FBF4F80839183A283B1
:1059B000B3830E94CE00882311F40E94100F089533
:1059C0001F920F920FB60F920BB60F9211242F93C6
:1059D0003F934F935F936F937F938F939F93AF9377
:1059E000BF93EF93FF9382EF97E00E94CA2CFF9141
:1059F000EF91BF91AF919F918F917F916F915F9147
:105A00004F913F912F910F900BBE0F900FBE0F90B3
:105A10001F901895EF92FF920F931F93CF93DF93F0
:105A20007C0160E070E00E94AA2B87010B5A1F4F97
:105A3000C8010E946D2DC80161E00E946E2D81E0B9
:105A40000E94030FC0E0D0E0CE0124E0880F991F30
:105A50002A95E1F78C0F9D1F8E0D9F1D6C2F0E94C4
:105A6000052E2196C530D10579F78CE798E061E0E5
:105A70000E94C32E8EE798E00E94A1308AEC98E045
:105A800061E00E94C32E8CEC98E00E94A13010923D
:105A9000800089E0809381001092820080E094E091
:105AA000909389008093880082E080936F00109229
:105AB000B00087E08093B10081E080937000E091B6
:105AC0001C09F0911D09818180688183DF91CF914C
:105AD0001F910F91FF90EF90089508950895FC0194
