:100000000C9460000C9488000C9488000C94880078
:100010000C9488000C9488000C9488000C94880040
:100020000C9488000C9488000C9488000C94F4269E
:100030000C9488000C94E4270C9488000C9488009D
:100040000C9488000C9488000C9488000C94880010
:100050000C9420310C9488000C9420300C9488006F
:100060000C9488000C9488000C9488000C948800F0
:100070000C94EC300C9488000C946B30DF076B0907
:1000800013080F081D08900A900A0F086209900AC9
:100090006E09E409F909200AF208FB0802090F08B1
:1000A0002109900AF8077908560A900A900A670A07
:1000B0004901E7051307210FB812ED29472ABA3184
:1000C00011241FBECFEFD0E1DEBFCDBF11E0A0E015
:1000D000B1E0E0E9F5E602C005900D92A231B1076A
:1000E000D9F718E0A2E1B1E001C01D92A232B10738
:1000F000E1F710E0C0ECD0E004C02297FE010E94BE
:100100004E32C03BD107C9F70E94D10B0C94C632C6
:100110000C940000F89480911403909115032091A1
:10012000120330911303281B390B7894C9010895E9
:1001300080931C03089580911C03089580911403FB
:100140009091150320E0892B09F421E0822F089576
:1001500010921503109214031092170310921603B5
:1001600010921A0310921B0310921E0310921D038B
:100170000895FC01CB012481358160817181820F5A
:10018000931F0E94E83126813781280F391FC9014A
:1001900008951F93182F2091140330911503809117
:1001A00012039091130328173907A0F460911403E8
:1001B0007091150382E193E00E94B900FC01108365
:1001C00080911403909115030196909315038093E9
:1001D000140303C081E080931A031F910895CF9305
:1001E000DF93EC018A819B81892B21F481E089874F
:1001F00080E015C0CE0160E070E00E94B900FC0113
:100200008C819D816881798101960E94E8319D836E
:100210008C838A819B8101979B838A838081DF9174
:10022000CF910895DF92EF92FF920F931F9302E117
:1002300013E0C8010E94EF00D82EC8010E94EF0011
:10024000E82EC8010E94EF00F82EC8010E94EF00BE
:10025000982F6D2D7E2D8F2D1F910F91FF90EF9078
:10026000DF900895FF920F931F9302E113E0C801FE
:100270000E94EF00F82EC8010E94EF00982F8F2DEA
:100280001F910F91FF90089582E193E00E94EF008B
:10029000089580E092E090931303809312031092EC
:1002A000150310921403109217031092160382E1A3
:1002B00091E0909319038093180310921A031092FF
:1002C0001B038FE193E00E94B32F89E293E00E9429
:1002D000B32F83E393E00E94B32F08952F923F92B0
:1002E0004F925F926F927F928F929F92AF92BF9246
:1002F000CF92DF92EF92FF920F931F93DF93CF93F2
:10030000CDB7DEB7C559D0400FB6F894DEBF0FBEEB
:10031000CDBF0E944A0C8823C1F436C060911403FB
:100320007091150382E193E00E94B900FC011083F3
:100330008091140390911503019690931503809377
:10034000140304C000931A0301C001E020911403B8
:100350003091150380911203909113038217930734
:1003600099F00E94500C882379F00E94C70C182F36
:10037000209114033091150380911203909113037F
:1003800028173907F8F6CACF80911C03882309F093
:1003900004C480911D0390911E03039781F40E9471
:1003A000100F882341F089E293E00E94BA2F88233E
:1003B00031F00E94190F10921E0310921D038091BC
:1003C0001D0390911E03019741F40E94100F882392
:1003D00021F410921E0310921D0380911D03909131
:1003E0001E03029751F48FE193E00E94BA2F8823F5
:1003F00021F010921E0310921D0380911D03909115
:100400001E030497D9F583E393E00E94BA2F882353
:1004100029F010921E0310921D0330C00E949C12FE
:10042000882361F10E9475128C010E9472127C0176
:10043000C8010E947E2B0E94B512682FC8010E943D
:10044000D22BC80164E20E94D22B0E94BD1202C0CE
:100450000E9414130E94AD128823D1F3F70182A1E8
:10046000882351F4C70161E00E945F2B80FF04C024
:1004700010921E0310921D030E94AA1280911D0368
:1004800090911E030597D9F583E393E00E94BA2F5C
:10049000882329F010921E0310921D0330C00E9481
:1004A0009C12882361F10E9475128C010E947212C5
:1004B0007C01C8010E947E2B0E94B512682FC801E2
:1004C0000E94D22BC80163E20E94D22B0E94BD126F
:1004D00002C00E9414130E94AD128823D1F3F701C9
:1004E00082A1882351F4C70161E00E945F2B882319
:1004F00021F010921E0310921D030E94AA128091F7
:100500001D0390911E03892B09F047C380911403AA
:1005100090911503892B09F440C382E193E060E0D8
:1005200070E00E94B900FC0110811138E9F580915A
:10053000140390911503419708F42FC382E193E0CF
:100540000E94EF0081E090E090931E0380931D03D2
:100550000E941201CE56DF4F688379838A839B8382
:10056000C259D0400E9412014B015C010E9412014D
:100570006B017C010E9412012B013C0175E0272ECA
:10058000312C2C0E3D1EC101CE56DF4F48815981C2
:100590006A817B81C259D040950184010E94180C68
:1005A000C101B301A2016BC01B3809F06BC080917F
:1005B000140390911503499708F4EFC282E193E088
:1005C0000E94EF0081E090E090931E0380931D0352
:1005D0000E941201C257DF4F688379838A839B830D
:1005E000CE58D0400E941201C657DF4F68837983EE
:1005F0008A839B83CA58D0400E9412016B017C0100
:100600000E9412014B015C010E9412012B013C016E
:100610000E941201CA57DF4F688379838A839B83C4
:10062000C658D04000D000D065E1262E312C2C0ECB
:100630003D1EEDB7FEB74182528263827482C101D2
:10064000C257DF4F488159816A817B81CE58D040A3
:10065000C657DF4F088119812A813B81CA58D04093
:100660000E94E40B0F900F900F900F90C101CA579A
:10067000DF4F488159816A817B81C658D0400E94F2
:10068000E6108BC21E3809F06FC080911403909160
:1006900015034A9708F481C282E193E00E94EF00BB
:1006A00081E090E090931E0380931D030E9412014D
:1006B000CE57DF4F688379838A839B83C258D040AB
:1006C0000E941201C258DF4F688379838A839B831B
:1006D000CE57D0400E9412016B017C010E94120192
:1006E0004B015C010E9412012B013C010E9412018E
:1006F000EE966CAF7DAF8EAF9FAFEE970E94440138
:10070000EA968FAFEA9700D000D055E2252E312C23
:100710002C0E3D1EEDB7FEB7418252826382748279
:10072000C101CE57DF4F488159816A817B81C25810
:10073000D040C258DF4F088119812A813B81CE57B2
:10074000D0400E94E40B0F900F900F900F90C101CA
:10075000EE964CAD5DAD6EAD7FADEE97EA962FADEA
:10076000EA970E94371019C2163891F48091140349
:1007700090911503029708F410C282E193E00E9461
:10078000EF0082E193E00E94EF000E94B21205C2E6
:10079000193851F58091140390911503029708F4CC
:1007A000FCC182E193E00E94EF0082E193E00E94AD
:1007B000EF00D82EDD1CDD24DD1C00E010E0E82E6B
:1007C000FF24C701002E02C0959587950A94E2F791
:1007D00080FF04C0802F6D2D0E94BE0F0F5F1F4F42
:1007E0000430110571F7D9C1123821F58091140335
:1007F000909115030D9708F4D0C182E193E00E9417
:10080000EF000E9412012B013C010E9412014B01DA
:100810005C010E9412016B017C0145E3242E312C06
:100820002C0E3D1EC101B301A201950184010E945D
:10083000180C40C01C3809F03FC0809114039091FF
:100840001503459708F4A9C182E193E00E94EF00E7
:100850000E941201E9966CAF7DAF8EAF9FAFE99712
:100860000E9412012B013C010E9412016B017C01CC
:100870000E9412014B015C010E94120100D000D0C5
:1008800035E4232E312C2C0E3D1EEDB7FEB76183CF
:10089000728383839483C101E9964CAD5DAD6EADE7
:1008A0007FADE997930182010E94E40B0F900F90B6
:1008B0000F900F90C1011EC11538F1F480911403FF
:1008C00090911503059708F468C182E090E0909339
:1008D0001E0380931D0382E193E00E94EF000E94BB
:1008E000120128EE33E040E050E00E94C931AB0134
:1008F000BC018FE193E061C0812F83588230A0F565
:100900008091140390911503089708F446C182E181
:1009100093E00E94EF000E944401082F0E94120100
:100920006B017C010E94320123E030E030931E0312
:1009300020931D03A0E0B0E0BC01CD0120E432E42F
:100940004FE050E00E94C931AB01BC0189E293E065
:100950000E94DF2F80E0143809F481E0602FA701A6
:1009600096010E94CA0F19C1173851F580911403DE
:1009700090911503069708F410C184E090E09093DD
:100980001E0380931D0382E193E00E94EF0082E149
:1009900093E00E94EF000E9432010E943201A0E029
:1009A000B0E0BC01CD0120E432E44FE050E00E9411
:1009B000C931AB01BC0183E393E00E94DF2FEDC09E
:1009C0001D3851F48091140390911503069708F493
:1009D000E4C085E090E0D3CF1F3809F048C0809193
:1009E000140390911503029708F4D7C082E193E0B5
:1009F0000E94EF000E94440100E010E020E6E22E99
:100A0000F12CC82EDD2495E5A92EB12CAC0EBD1E0F
:100A10004E010894811C911CC601002E02C09595C0
:100A200087950A94E2F780FF18C0C5010E94A811BB
:100A3000C501B8010E943A0CFC0180819181A2811C
:100A4000B38189839A83AB83BC83F894C401B701D3
:100A500044E050E00E94AE3278940F5F1F4F84E074
:100A600090E0E80EF91E04301105B1F696C0103979
:100A700009F043C08091140390911503029708F484
:100A80008CC082E193E00E94EF000E944401F82EA6
:100A90008E010B591F4FC8010E94A811CC24DD24E0
:100AA00080E6A82EB12CEF2CFF24902E012FC70139
:100AB0000C2C02C0959587950A94E2F780FF0CC034
:100AC000F894892D902FB6010E94420CB50144E0A4
:100AD00050E00E949E3278940894C11CD11CE4E03E
:100AE000F0E0AE0EBF1EF4E0CF16D10401F7CE0148
:100AF0008B599F4F0E94FA1150C0183809F04DC011
:100B00008091140390911503049708F446C082E184
:100B100093E063E070E00E94B900FC0120911403AF
:100B200030911503808190E0049628173907A8F1C9
:100B30000E949C12882389F10E9475127C010E94F8
:100B40007E2B82E193E00E94EF0082E193E00E941D
:100B5000EF00682FC7010E94D22B82E193E00E9430
:100B6000EF00682FC7010E94D22B0E944401C82EBB
:100B7000DD2400E010E00AC082E193E00E94EF0073
:100B8000682FC7010E94D22B0F5F1F4F0C151D0548
:100B90009CF30E94BD120E94AA12CB56DF4F0FB6E3
:100BA000F894DEBF0FBECDBFCF91DF911F910F91A3
:100BB000FF90EF90DF90CF90BF90AF909F908F907D
:100BC0007F906F905F904F903F902F9008958DE3AE
:100BD00093E00E94762B08956F927F928F929F925E
:100BE000AF92BF92CF92DF92EF92FF920F931F933B
:100BF000DF93CF93CDB7DEB764970FB6F894DEBF1F
:100C00000FBECDBF7C016B01FC018081882309F4FC
:100C1000E2C03701C70160E00E945F2B982F807708
:100C2000803709F0D8C09037B9F4C6010E947E2BF6
:100C300001E010E00AC0C301602F0E945F2B682F03
:100C4000C6010E94D22B0F5F1F4FF701808190E0F9
:100C50000817190784F3C1C0913709F4BCC0923753
:100C600009F4B9C0933709F07FC00E9475125C0186
:100C70000E9472124C01C5010E947E2B01E010E01F
:100C80000AC0C301602F0E945F2B682FC5010E941C
:100C9000D22B0F5F1F4FF701808190E008171907D3
:100CA00084F38E010F5F1F4FC8010E94B32FC8014C
:100CB00040E553EC60E070E00E94DF2FF02E012F42
:100CC0000FC08F2D902F0E94BA2F882349F0C601A4
:100CD00068E80E94D22B87E397E062E070E026C0CC
:100CE0000E949C12882369F38E01055F1F4FC80183
:100CF0000E94B32FC80140E553EC60E070E00E9411
:100D0000DF2F0E94BD120E94AA12F02E012F13C0E5
:100D10008F2D902F0E94BA2F882359F0C60167E8C3
:100D20000E94D22B87E397E061E070E00E949F274A
:100D300054C00E9414130E94AD12882349F3740119
:100D400000E010E00AC0C701602F0E945F2B682FEF
:100D5000C6010E94D22B0F5F1F4FF401808190E0EB
:100D60000817190784F339C0943739F40E94A80092
:100D7000C60161E80E94D22B30C09637A1F4C701AA
:100D800061E00E945F2B182FC70162E00E945F2B79
:100D9000682F112329F487E397E070E00E949F27D2
:100DA000C60161E816C09737B1F4C70161E00E943F
:100DB0005F2B182FC60161E80E94D22B112339F452
:100DC00087E397E00E94F126682FC60102C0C601A2
:100DD00060E00E94D22B80E001C081E064960FB6F3
:100DE000F894DEBF0FBECDBFCF91DF911F910F9161
:100DF000FF90EF90DF90CF90BF90AF909F908F903B
:100E00007F906F90089582E090E062E00E94B83297
:100E100083E090E06FE10E94B83280E290E060E011
:100E20000E94B832089583E693E00E94B32F08959C
:100E30008DE893E00E94890E9C01009731F482E0D6
:100E400090E09093AD038093AC03C9010895AF92F5
:100E5000BF92CF92DF92EF92FF920F931F93DF9397
:100E6000CF93CDB7DEB72A970FB6F894DEBF0FBE8B
:100E7000CDBF6C018E010F5F1F4FC8010E94B32FC1
:100E8000C80142E350E060E070E00E94DF2FF02EE6
:100E9000012F11C08F2D902F0E94BA2F882359F057
:100EA000C60167E80E94D22B87E397E062E070E01A
:100EB0000E949F273FC00E949C12882359F30E94E2
:100EC00075128C010E9472127C01C8010E947E2B57
:100ED0000E94B512682FC8010E94D22BC80167E199
:100EE0000E94D22B0E94BD120E94AA1202C00E9430
:100EF00014130E94AD128823D1F3F70182A184302C
:100F000021F0570100E010E00FC0C60167E80E9421
:100F1000D22B10C0C501602F0E945F2B682FC60125
:100F20000E94D22B0F5F1F4FF701808190E00817BE
:100F3000190784F32A960FB6F894DEBF0FBECDBF13
:100F4000CF91DF911F910F91FF90EF90DF90CF90A5
:100F5000BF90AF9008956F927F928F929F92AF92C1
:100F6000BF92CF92DF92EF92FF920F931F93DF9386
:100F7000CF93CDB7DEB7C954D0400FB6F894DEBFDB
:100F80000FBECDBF6C015B01FC018081882309F499
:100F9000C7C27C2C6D2CC60160E00E945F2B87FDD0
:100FA000BFC2E82FF0E0EA31F10508F0B9C2E25C17
:100FB000FF4FEE0FFF1F0590F491E02D09948C2D4B
:100FC0009D2D61E00E94642B4B9740F4C50161E8C0
:100FD0000E94D22BC50160E070E007C0C50161E846
:100FE0000E94D22BC5016DE271E00E94EE2B96C2E9
:100FF000C50161E80E94D22B0DE813E0C501F8019C
:1010000060810E94D22BF8018081882309F486C276
:101010000F5F1F4FF3E00C3A1F0781F77FC281E09B
:101020008093020158C1C50161E80E94D22B0E9441
:101030008A00AC0160E070E06EC2F8948E01055F3A
:101040001F4FC8010E94A811C50161E80E94D22B60
:10105000C80160E070E00E943A0CFC0140815181BF
:1010600062817381C5010E94242CC80161E070E097
:101070000E943A0CFC014081518162817381C5015B
:101080000E94242CC80162E070E00E943A0CFC012E
:101090004081518162817381C5010E94242CE3E06B
:1010A000CE2ED12CEE240894C108D108C601880F99
:1010B000991F8C0163E0000F111F6A95E1F7081B6F
:1010C000190B095C184FC8010E94932F882311F453
:1010D000FF2402C052E0F52EC8010E94732FEE0CCF
:1010E000EE0CEF28E82AC114D104E9F6C5016E2DF3
:1010F0007CC1F8948E01055F1F4FC8010E94A811A2
:10110000C50161E80E94D22BC80160E070E00E9436
:101110003A0CFC014081518162817381C5010E94BA
:10112000242CC80161E070E00E943A0CFC0140816F
:10113000518162817381C5010E94242CC80162E043
:1011400070E00E943A0CFC01408151816281738100
:10115000C5010E94242CC80163E070E00E943A0C93
:10116000FC014081518162817381C5010E94242C60
:10117000C80164E070E00E943A0CFC01408151819A
:1011800062817381C5010E94242C44E0C42ED12CBD
:10119000EE240894C108D108C601880F991F8C015C
:1011A00023E0000F111F2A95E1F7081B190B095CBA
:1011B000184FC8010E94932F882311F4FF2402C006
:1011C00092E0F92EC8010E94732FEE0CEE0CEF286E
:1011D000E82AC114D104E9F6C5016E2D70E00E9421
:1011E000EE2B05C1C50161E80E94D22BC601039612
:1011F0000E94BD0E23C0C50161E80E94D22B0E944F
:10120000640C87C1C50161E80E94D22B01E010E0A7
:101210000BC0872D962D602F0E945F2BF801E4579D
:10122000FC4F80830F5F1F4FF601808190E008170D
:1012300019077CF31092AB030E941807682FC501B1
:1012400015C0C50161E80E94D22B8C2D9D2D61E057
:101250000E945F2B882369F00E94FC0EBC0100975E
:1012600041F0C5010E94D22BC50160E00E94D22B43
:1012700055C18E01055D1F4FC8016FE10E948F0DA2
:10128000BC018BA5882329F06115710511F48E32FC
:1012900099F3C5010E94D22B8E01055D1F4F8FE18E
:1012A000E82EF12CE00EF11E08C0C5010E94D22BE1
:1012B0000F5F1F4F0E151F05B9F2F80160816623FD
:1012C000A1F7D2CF0E949B0091E089270E9498004D
:1012D000C5010E942707C50161E8C8CFF6018081DA
:1012E000823048F4C50160E80E94D22B87E397E082
:1012F00068E070E01EC08E010F5F1F4FC8010E94A2
:10130000B32FC80142E350E060E070E00E94DF2F9D
:10131000F02E012F11C08F2D902F0E94BA2F8823FD
:1013200059F0C50167E80E94D22B87E397E062E09D
:1013300070E00E949F27F2C00E949C12882359F3FC
:101340000E9475124C010E9472127C01C4010E941D
:101350007E2B01E010E00BC0872D962D602F0E94A0
:101360005F2B682FC4010E94D22B0F5F1F4FF60125
:10137000808190E0081719077CF30E94BD120E943B
:10138000AA1202C00E9414130E94AD128823D1F346
:10139000F70182A1843021F0670100E010E00DC068
:1013A000C50167E863CFC601602F0E945F2B682FDD
:1013B000C5010E94D22B0F5F1F4FF701808190E083
:1013C0000817190784F3AAC0C50161E80E94D22B4F
:1013D000F8940E94100F882309F0B9C00E949E0063
:1013E000882309F4B4C061E0C5010E94D22B78942F
:1013F00095C08C2D9D2D61E00E94642B6C01872D82
:10140000962D63E00E945F2BE82EFF248E01055E7F
:101410001F4FC801B601A7010E949E32C50161E8B5
:101420000E94D22B6801CE0CDF1C06C0C501F8015A
:1014300061918F010E94D22B0C151D05B9F76EC06A
:101440008C2D9D2D61E00E94642BE82E992E8C2D11
:101450009D2D63E00E945F2BF82E8E01055E1F4FCD
:10146000C8016E2D792D4F2D50E00E949E326801EB
:1014700014E00F2D0C5F09C0872D962D612F0E945F
:101480005F2BF60181936F011F5F1017A9F7CE0143
:101490004B966E2D792D4F2D50E00E94AE32C50136
:1014A00061E80E94D22BC5016F2DE0CE8C2D9D2DC1
:1014B00061E00E945F2B082F80FF02C00E94190F7D
:1014C00001FF02C00E94A800C50161E8CBCEC501A2
:1014D00061E80E94D22BC50140E050E060E070E07E
:1014E0000E94242C0E947812AB01BC01C5010E940D
:1014F000242C0E948112AB01BC01C5010E94242C46
:101500000E948A12AB01BC01C5010E94242C0E94DA
:101510009312AB01BC01C5010E94242C81E001C0E3
:1015200080E0C75BDF4F0FB6F894DEBF0FBECDBFC4
:10153000CF91DF911F910F91FF90EF90DF90CF90AF
:10154000BF90AF909F908F907F906F90089560E0D4
:101550004BCFCF92DF92EF92FF920F931F93CF93D7
:10156000DF93EC017B0188818823A1F16E01CE011C
:1015700060E00E945F2B87FF2DC00E944D0C8823E6
:1015800041F0CE010E94CF0CC70161E80E94D22B2E
:101590001FC0F89418810E948A00212F30E0821722
:1015A000930788F0C0E0D0E0890107C0C6016C2F26
:1015B0000E945F2B0E94C9002196C017D107B4F387
:1015C000C70161E802C0C70162E80E94D22B78948B
:1015D00081E001C080E0DF91CF911F910F91FF90DA
:1015E000EF90DF90CF9008958091CE079091CF0734
:1015F000892B09F48BC08091CE079091CF07049777
:1016000009F08AC083C01092020180E00E948D0B15
:1016100083E693E00E94B72F10926D0310928D0322
:101620001092AD031092AC0308958091A807909199
:10163000A907892B01F18091A8079091A907049728
:10164000D1F080916303882349F483E693E040E27C
:101650005EE460E070E00E94DF2F0DC083E693E05F
:101660000E94BA2F882339F085E897E00E94C42AA7
:1016700084E08093A7078091A707882399F0809141
:10168000A707843029F487E397E064E070E004C0A2
:1016900087E397E065E070E00E949F2785E897E088
:1016A0000E94D22A8091A8079091A9070497A1F5DA
:1016B00083E693E00E94B72F8BEA97E00E947E2B8F
:1016C00085E897E06BEA77E00E94EC058823A9F4AF
:1016D00085E897E06BEA77E00E94A90A882369F41D
:1016E00085E897E06BEA77E00E94AB07882329F44E
:1016F0008BEA97E065E80E94D22B85E897E00E948C
:10170000D22A81E897E00E94B430089580910201C6
:10171000882309F48ACF77CF0895FF920F931F9300
:10172000DF93CF93CDB7DEB72A970FB6F894DEBF1D
:101730000FBECDBF182FF8940E94830C0E94190F82
:101740000E94A8000E946D2A87E397E00E940A2861
:1017500078941123B9F08E010F5F1F4FC8010E94CA
:10176000B32FC80140EA55E266E270E00E94DF2F25
:10177000F02E012F8F2D902F0E94BA2F8823D1F3A6
:101780000E9421150E94C31378942A960FB6F894EC
:10179000DEBF0FBECDBFCF91DF911F910F91FF90A4
:1017A000089587E397E00E94221281E00E948D0B4A
:1017B00078940E9414130E94F40A0E946E0187E339
:1017C00097E00E94F026F5CF8F929F92AF92BF9242
:1017D000CF92DF92EF92FF920F931F93DF93CF93FD
:1017E000CDB7DEB7FC0140835183628373830483EA
:1017F000158326833783C086D186E286F386848666
:101800009586A686B7868F859889A989BA89808B9F
:10181000918BA28BB38BCF91DF911F910F91FF9092
:10182000EF90DF90CF90BF90AF909F908F900895F2
:10183000CF92DF92EF92FF920F931F93FC014083B0
:101840005183628373830483158326833783C08621
:10185000D186E286F3861486158616861786108A48
:10186000118A128A138A1F910F91FF90EF90DF90D7
:10187000CF900895660F771F660F771F680F791F47
:10188000CB010895660F771F660F771F680F791FCA
:10189000CB0108958091B70308958091B603089510
:1018A0008091BD0308951092B7038091B403909185
:1018B000B503009721F00E940E210E94612410922E
:1018C000B5031092B40308958091B603882381F084
:1018D0008091B4039091B503009721F00E940E21EE
:1018E0000E9461241092B5031092B4031092B603C3
:1018F0000E94830C6091B8037091B9038091BA0380
:101900009091BB0308958091B703882311F00E9442
:10191000530C8091B603882311F00E94640C8091CF
:10192000B2039091B303009731F00E94C81910924E
:10193000B3031092B2038091B0039091B10300976A
:1019400031F00E945D151092B1031092B0038091A6
:10195000AE039091AF03009731F00E9427221092BE
:10196000AF031092AE0308958091B4039091B50334
:101970006CEB73E041E050E00E9404171092BD034D
:10198000181619061CF481E08093BD0308951F9377
:101990001091BC030E94B40C812F1F910895CF9326
:1019A000DF93EC018091B4039091B5030097E1F0CF
:1019B000BE016E5F7F4F488150E00E944E18288123
:1019C0008091B8039091B903A091BA03B091BB0381
:1019D000820F911DA11DB11D8093B8039093B9038F
:1019E000A093BA03B093BB03DF91CF910895DF9327
:1019F000CF93CDB7DEB7AB970FB6F894DEBF0FBE6F
:101A0000CDBFBC018091B2039091B303AE014F5F93
:101A10005F4F0E94AA20811181E0AB960FB6F89427
:101A2000DEBF0FBECDBFCF91DF9108950F931F93FF
:101A3000CF93DF93EC018B010EC0C801BE010E9461
:101A40006D32009741F48091B2039091B3030E94EC
:101A5000CE1981E009C08091B2039091B303B8011F
:101A60000E94B21A882349F7DF91CF911F910F91FD
:101A700008950F931F93DF93CF93CDB7DEB7AB9746
:101A80000FB6F894DEBF0FBECDBF8E010F5F1F4FA4
:101A9000B8010E94160D882341F08091B003909107
:101AA000B103B8010E94DB1981E0AB960FB6F89440
:101AB000DEBF0FBECDBFCF91DF911F910F91089573
:101AC000EF92FF920F931F93DF93CF93CDB7DEB7C3
:101AD000AB970FB6F894DEBF0FBECDBF7B018E0172
:101AE0000F5F1F4FB8010E94160D882359F0809197
:101AF000B0039091B103B8010E945E21F701918378
:101B0000808381E0AB960FB6F894DEBF0FBECDBFE9
:101B1000CF91DF911F910F91FF90EF900895AF92B9
:101B2000BF92DF92EF92FF920F931F93DF93CF93B9
:101B3000CDB7DEB7AB970FB6F894DEBF0FBECDBF03
:101B40007C0185E0D82E5E010894A11CB11C062FF3
:101B500010E0015010408091B2039091B303B501A1
:101B60000E94B21A8823D1F080E090E005C0F7010E
:101B7000E80FF91F208301968017910734F4F501CF
:101B8000E80FF91F2081222391F7F701E80FF91FD1
:101B90001082892B29F4DA94F1F602C0F701108241
:101BA00080E090E0AB960FB6F894DEBF0FBECDBFDD
:101BB000CF91DF911F910F91FF90EF90DF90BF9039
:101BC000AF9008950F931F93DF93CF93CDB7DEB7F8
:101BD000AB970FB6F894DEBF0FBECDBF8091B003B8
:101BE0009091B10360E071E08E010F5F1F4FA8017B
:101BF0000E9496218091B0039091B103B8010E9498
:101C000021219093B3038093B20320E0892B09F044
:101C100021E0822FAB960FB6F894DEBF0FBECDBF8A
:101C2000CF91DF911F910F9108958091AE03909114
:101C3000AF030E94961C9093B1038093B00320E001
:101C4000892B09F021E0822F08950F938BE794E20E
:101C500069E375E244E853E229EA35E200E00E94D4
:101C60002F229093AF038093AE03892B79F48BE7F7
:101C700094E269E375E244E853E229EA35E20FEFC2
:101C80000E942F229093AF038093AE0320E08091B7
:101C9000AE039091AF03892B09F021E0822F0F91C1
:101CA00008950E941C26882371F40E94042688232C
:101CB00029F40E94830C21E030E029C00E94830CAB
:101CC00022E030E024C00E94250E882329F40E94DF
:101CD000830C23E030E01BC00E94150E882329F4FA
:101CE0000E94830C24E030E012C00E94E20D8823A1
:101CF00029F40E94830C25E030E009C00E946E2385
:101D0000882319F420E030E002C026E030E0C90169
:101D10000895CF93DF93EC010E94830C0E94510E33
:101D20009C01009719F086309105D9F41092B80300
:101D30001092B9031092BA031092BB031092B5032C
:101D40001092B403CE0164EB73E00E94600D88230F
:101D500031F08091B4039091B503892B31F427E0E1
:101D600030E0C901DF91CF91089581E08093B703FE
:101D70000E94B40C20E030E0F4CF0F931F93CF9378
:101D8000DF93EC010E94830C0E94510E8C0100979E
:101D900069F51092B8031092B9031092BA03109229
:101DA000BB031092B5031092B403CE010E94390D0B
:101DB000CE010E94F70C882319F407E010E016C04A
:101DC000CE0164EB73E00E94600D882319F403E0F8
:101DD00010E00CC08091B4039091B503892B19F4E5
:101DE00008E010E003C081E08093B603C801DF91F2
:101DF000CF911F910F9108950E94830C0E94510E64
:101E00009C01009719F08630910541F48091B2034E
:101E10009091B3030E94CE1920E030E0C9010895EB
:101E20008091BE03882311F081E0089580914F04D2
:101E300008951092BE0310924F04089580935004A9
:101E400008950F931F9307EC13E0C8010E94A32C81
:101E5000C80182960E94A32C8BE094E00E94A32CE0
:101E60008DE294E00E94A32C1F910F910895CF93CF
:101E7000DF938091BE03882309F450C08091C3038F
:101E80009091C403A091C503B091C6030197A10925
:101E9000B1098093C3039093C403A093C503B09387
:101EA000C6030196A11DB11D0097A105B10519F446
:101EB0001092BE0330C04091BF035091C0036091A7
:101EC000C1037091C20387EC93E00E94D42D40912E
:101ED000BF035091C0036091C1037091C20389EEAA
:101EE00093E00E94D42D4091BF035091C0036091B4
:101EF000C1037091C2038BE094E00E94D42D409105
:101F0000BF035091C0036091C1037091C2038DE281
:101F100094E00E94D42D8091BE032DC080914F0487
:101F2000882349F110924F04C0E0D0E0CE01880F21
:101F3000991F9E0145E0220F331F4A95E1F7820F5A
:101F4000931F4091BF035091C0036091C1037091F2
:101F5000C20389539C4F0E94632D882311F081E0B6
:101F600002C080914F0480934F042196C430D10564
:101F7000E9F680914F04DF91CF910895982F843036
:101F800040F482E2989FC001112489539C4F0E9423
:101F9000392E0895BF92CF92DF92EF92FF920F9366
:101FA0001F93CF93DF93B82E162F8FEF9FEFAFEFD6
:101FB000BFE78093C3039093C403A093C503B0937A
:101FC000C603E6E05695479537952795EA95D1F7EC
:101FD0002093BF033093C0034093C1035093C203C7
:101FE000CA01B90122E030E040E050E00E94313205
:101FF000CC24DD247601C21AD30AE40AF50AC0E033
:10200000D0E0012F10E0FE01EE0FFF1FCE0165E0D2
:10201000880F991F6A95E1F7E80FF91FE953FC4F04
:10202000C28AD38AE48AF58AC8010C2E02C095952B
:1020300087950A94E2F780FF05C0CF016B2D0E94BF
:102040003F2E04C0168A178A108E118E2196C43036
:10205000D105C9F681E080934F04DF91CF911F91A4
:102060000F91FF90EF90DF90CF90BF9008958F92E7
:102070009F92AF92BF92CF92DF92EF92FF920F9317
:102080001F93CF93DF934C016A017B0100E010E0C6
:10209000A22EBB24E801CC0FDD1FC801F5E0880F9C
:1020A000991FFA95E1F7C80FD91FC953DC4FC40136
:1020B000B8010E943A0CFC01408151816281738118
:1020C0009501002E02C0359527950A94E2F72170FC
:1020D0003070CE010E94552E2E893F89488D598D32
:1020E0000230110569F480915004882349F460E0BE
:1020F000211531054105510509F061E0CE0107C008
:10210000211531054105510521F0CE0161E00E9404
:10211000392E0F5F1F4F0430110509F0BBCFC701E7
:10212000B60120E430E040E050E00E943132B901D5
:10213000CA016093BF037093C0038093C10390935F
:10214000C2036093C3037093C4038093C503909349
:10215000C60322E030E040E050E00E94313250956A
:102160004095309521953F4F4F4F5F4F2093D903B6
:102170003093DA034093DB035093DC032093FB039B
:102180003093FC034093FD035093FE0320931D0402
:1021900030931E0440931F045093200420933F0467
:1021A00030934004409341045093420481E0809373
:1021B000BE03DF91CF911F910F91FF90EF90DF90C1
:1021C000CF90BF90AF909F908F9008952F923F92A5
:1021D0004F925F926F927F928F929F92AF92BF9237
:1021E000CF92DF92EF92FF920F931F93CF93DF93E3
:1021F0001C012A013B01882499245401CC24DD24AC
:10220000E601CC0FDD1FC601B5E0880F991FBA9516
:10221000E1F7C80FD91FC953DC4FC101B6010E94B5
:102220003A0CFC014081518162817381CE0120E032
:102230000E94552EEE88FF88088D198D82E0C81601
:10224000D10469F480915004882349F460E0E114DA
:10225000F1040105110509F061E0CE0107C0E114A8
:10226000F1040105110521F0CE0161E00E94392E33
:102270008E149F04A006B10614F447015801089477
:10228000C11CD11C84E0C816D10409F0B9CFC50126
:10229000B401A30192010E94C93120E430E040E082
:1022A00050E00E943132B901CA016093BF037093BC
:1022B000C0038093C1039093C2036093C3037093E0
:1022C000C4038093C5039093C60322E030E040E04E
:1022D00050E00E94313250954095309521953F4F06
:1022E0004F4F5F4F2093D9033093DA034093DB03C2
:1022F0005093DC032093FB033093FC034093FD03D6
:102300005093FE0320931D0430931E0440931F043A
:102310005093200420933F043093400440934104A1
:102320005093420481E08093BE03DF91CF911F91CF
:102330000F91FF90EF90DF90CF90BF90AF909F9064
:102340008F907F906F905F904F903F902F90089567
:102350006F927F928F929F92AF92BF92CF92DF92B5
:10236000EF92FF920F931F933C014091C90350914C
:10237000CA036091CB037091CC030091EB031091E1
:10238000EC032091ED033091EE03C0900D04D0904A
:102390000E04E0900F04F090100480902F049090B1
:1023A0003004A0903104B090320480915104909197
:1023B0005204A0915304B091540400D000D0EDB762
:1023C000FEB781839283A383B483C3010E94E40B8D
:1023D0000F900F900F900F90C3011F910F91FF90DE
:1023E000EF90DF90CF90BF90AF909F908F907F90B5
:1023F0006F9008950F931F93CF93DF938C01C0E0EC
:10240000D0E0C801BE010E943A0CFC01CE01880F49
:10241000991F9E0145E0220F331F4A95E1F7820F75
:10242000931F408151816281738189539C4F0E9427
:10243000A72C2196C430D10521F7DF91CF911F91B0
:102440000F910895AF92BF92CF92DF92EF92FF92D9
:102450000F931F93DF93CF93CDB7DEB7A2970FB63D
:10246000F894DEBF0FBECDBF6C011092BE03A7EC87
:10247000EA2EA3E0FA2E00E010E05E010894A11C11
:10248000B11CC801880F991FBC01E3E0660F771FDC
:10249000EA95E1F7681B790B6C0D7D1DC5010E9463
:1024A000D12CD701F50182E201900D928150E1F724
:1024B0000F5F1F4F82E290E0E80EF91E0430110515
:1024C00001F7A2960FB6F894DEBF0FBECDBFCF9135
:1024D000DF911F910F91FF90EF90DF90CF90BF9011
:1024E000AF90089585ED97E008958BEF97E00895FC
:1024F00060915E0470915F0480916004909161042A
:1025000008956091620470916304809164049091D5
:102510006504089560916604709167048091680471
:1025200090916904089560916A0470916B048091A0
:102530006C0490916D04089580915104882341F4B6
:1025400080915204882321F481E0809352040895FD
:1025500080E008951092520408958091510491E012
:102560008927089580935D04089580915D040895FE
:1025700083E594E00E94B32F0895FF920F931F9379
:10258000DF93CF93CDB7DEB72A970FB6F894DEBFAF
:102590000FBECDBF80915E0490915F04A091600456
:1025A000B09161040196A11DB11D80935E049093CA
:1025B0005F04A0936004B09361048E010F5F1F4F0E
:1025C000C8010E94B32FC80144EF51E060E070E001
:1025D0000E94DF2FF02E012F8F2D902F0E94BA2FF7
:1025E0008823D1F381E08093510483E594E040E5B2
:1025F00053EC60E070E00E94DF2F85E080930301E0
:1026000085ED97E00E94D22A81ED97E00E94B430D8
:102610002A960FB6F894DEBF0FBECDBFCF91DF91E3
:102620001F910F91FF90089580915104882309F420
:10263000A9C08091F8079091F907049719F41092B6
:10264000510408958091F7078823E1F18091F707FD
:102650008130C1F480916A0490916B04A0916C0464
:10266000B0916D040196A11DB11D80936A049093F1
:102670006B04A0936C04B0936D0485ED97E00E9409
:10268000D22A089520910301222339F58091620412
:1026900090916304A0916404B09165040196A11D1A
:1026A000B11D8093620490936304A0936404B0937B
:1026B00065041092510487E397E063E070E00E94A4
:1026C0009F27089583E594E00E94BA2F882309F498
:1026D00059C020910301222379F1809166049091E1
:1026E0006704A0916804B09169040196A11DB11D11
:1026F0008093660490936704A0936804B093690480
:1027000021502093030183E594E040E553EC60E021
:1027100070E00E94DF2F8BEF97E00E94862B85ED03
:1027200097E00E94D22A81ED97E00E94AA3081EDC5
:1027300097E00E94B4300895809162049091630400
:10274000A0916404B09165040196A11DB11D809310
:10275000620490936304A0936404B093650485EDD0
:1027600097E00E94C42A84E08093F70781ED97E008
:102770000E94AA301092510487E397E061E070E074
:102780000E949F270895FF920F931F93DF93CF938B
:10279000CDB7DEB72A970FB6F894DEBF0FBECDBF18
:1027A0008E010F5F1F4FC8010E94B32FC80140EA7E
:1027B00056E861E070E00E94DF2FF02E012F0CC080
:1027C00081E0809352041092510487E397E062E025
:1027D00070E00E949F2713C080915104882341F428
:1027E00080915204882321F481E08093520407C031
:1027F0008F2D902F0E94BA2F882371F3E1CF8BEF9A
:1028000097E00E947E2B8BEF97E06FE70E94D22B20
:102810008BEF97E061E00E94D22B0E94BD1283E50E
:1028200094E040EA56E861E070E00E94DF2F1092E9
:10283000520402C00E941413809151048823D1F7DE
:102840008091F8079091F90720E0049709F421E0BE
:10285000822F2A960FB6F894DEBF0FBECDBFCF9160
:10286000DF911F910F91FF900895FF920F931F9397
:10287000DF93CF93CDB7DEB72A970FB6F894DEBFBC
:102880000FBECDBF8E010F5F1F4FC8010E94B32F37
:10289000C80140EA56E861E070E00E94DF2FF02EA8
:1028A000012F0CC081E0809352041092510487E301
:1028B00097E062E070E00E949F2713C0809151046E
:1028C000882341F480915204882321F481E080938D
:1028D000520407C08F2D902F0E94BA2F882371F3C6
:1028E000E1CF8BEF97E00E947E2B8BEF97E060E0CB
:1028F0000E94D22B8BEF97E068E20E94D22B0E94BD
:10290000BD1283E594E040EA56E861E070E00E9481
:10291000DF2F1092520402C00E94141380915104C0
:102920008823D1F72A960FB6F894DEBF0FBECDBF2D
:10293000CF91DF911F910F91FF900895FF920F9318
:102940001F93DF93CF93CDB7DEB72A970FB6F894D6
:10295000DEBF0FBECDBF8E010F5F1F4FC8010E94AB
:10296000B32FC80140EA56E861E070E00E94DF2F13
:10297000F02E012F0CC081E080935204109251047C
:1029800087E397E062E070E00E949F2713C0809188
:102990005104882341F480915204882321F481E07A
:1029A0008093520407C08F2D902F0E94BA2F882346
:1029B00071F3E1CF8BEF97E00E947E2B8BEF97E0D6
:1029C00060E00E94D22B8BEF97E060E00E94D22B58
:1029D0008BEF97E060E00E94D22B8BEF97E060E0F6
:1029E0000E94D22B0E94BD1283E594E040EA56E893
:1029F00061E070E00E94DF2F1092520402C00E943A
:102A00001413809151048823D1F78091F707843003
:102A100011F490E009C085ED97E060E00E945F2B23
:102A200090E0813009F491E0892F2A960FB6F8944E
:102A3000DEBF0FBECDBFCF91DF911F910F91FF90F1
:102A400008951F9310925E0410925F041092600428
:102A50001092610410926204109263041092640454
:102A60001092650410926604109267041092680434
:102A70001092690410926A0410926B0410926C0414
:102A800010926D0410E00E949E141F5F103811F028
:102A90008823C9F710E08091660490916704A091A3
:102AA0006804B09169040097A105B10519F411E01B
:102AB0000E943514812F1F910895FC01009711F099
:102AC000118210820895DF93CF9300D0CDB7DEB787
:102AD000DC01009781F16230710568F1ED91FC91A4
:102AE0001197660F771F80E090E016962D913D912B
:102AF0004D915C911997620F731F841F951F019070
:102B0000F081E02DAE014F5F5F4F22E030E009958C
:102B1000882389F029813A812115310571F08FEFE1
:102B2000273F380741F0C9014096079720F08FEF03
:102B3000283F380710F020E030E0C9010F900F90D7
:102B4000CF91DF9108954F925F926F927F928F9213
:102B50009F92AF92BF92CF92DF92EF92FF920F932C
:102B60001F93DF93CF9300D0CDB7DEB75C01009702
:102B700009F449C06230710508F445C0DC011696BD
:102B80006D907D908D909C9019972E010894411C1A
:102B9000511C660F771F7B0100E010E0E60CF71C6C
:102BA000081D191DD501ED91FC910190F081E02DDA
:102BB000C801B701A20122E030E00995882319F18C
:102BC000C980DA80C114D10401F1C601409608978A
:102BD000D0F0B8EFCB16BFEFDB0610F0CC24DD242D
:102BE0001A821982D501ED91FC910480F581E02DC6
:102BF000C801B701A20122E030E00995B601C11475
:102C0000D10439F602C080E001C081E00F900F903E
:102C1000CF91DF911F910F91FF90EF90DF90CF90B8
:102C2000BF90AF909F908F907F906F905F904F90EC
:102C300008952F923F924F925F926F927F928F9260
:102C40009F92AF92BF92CF92DF92EF92FF920F933B
:102C50001F93DF93CF93CDB7DEB72C970FB6F894C1
:102C6000DEBF0FBECDBF4C011B01CA018114910410
:102C700009F4ABC0D401ED91FC9111972081318111
:102C80003C872B87448155815A87498716962D9119
:102C90003D914D915C9119972D833E834F835887C9
:102CA0005A96AD90BC905B971A962D913D914D919F
:102CB0005C911D9756954795379527953C832B83B7
:102CC0005B961C921E925A973C012901CC24DD246C
:102CD00054C0B2E0AB16B10428F0EB81FC81AE1613
:102CE000BF0618F042E0A42EB12CC501880F991F31
:102CF0007C0100E010E02D813E814F815885E20E7D
:102D0000F31E041F151FC801B701AE014F5F5F4FCF
:102D100022E030E0AB85BC85FD010995882309F4EC
:102D200054C089819A81892B11F56114710421F4B1
:102D3000F401B38EA28E27C0C114D10429F42FEF61
:102D40003FEF3A83298302C0DA82C982C801B70102
:102D5000AE014F5F5F4F22E030E0A985BA85FD01EB
:102D60000995882371F10894610871086501089438
:102D7000410851080894A11CB11C4114510409F0E8
:102D8000A8CF6728F1F4B2E02B16310400F1C98214
:102D9000DA82220C331CB10180E090E02D813E816B
:102DA0004F815885620F731F841F951FAE014F5FBF
:102DB0005F4F22E030E0A985BA85FD01099588239F
:102DC00031F4C401B6010E94A315CC24DD24C60150
:102DD0002C960FB6F894DEBF0FBECDBFCF91DF911A
:102DE0001F910F91FF90EF90DF90CF90BF90AF9029
:102DF0009F908F907F906F905F904F903F902F901B
:102E0000089580E190E008952F923F924F925F9253
:102E10006F927F928F929F92AF92BF92CF92DF92EA
:102E2000EF92FF920F931F93DF93CF93CDB7DEB74F
:102E30002A970FB6F894DEBF0FBECDBF2C017A8360
:102E400069835C834B83009709F409C1672B09F4FC
:102E500006C1452B09F403C1DC019D96AD90BD90E0
:102E6000CD90DC90D09795962D913D914D915C91B0
:102E70009897EB81FC81CF01A0E0B0E08A0D9B1D0B
:102E8000AC1DBD1D281739074A075B0740F4B9017F
:102E90006A197B097C836B83672B09F4E3C0D20139
:102EA000ED91FC91119720883188D196ED91FC919C
:102EB000D297FA87E987EF2BF1F593962D913C9104
:102EC00094973A872987232B39F4A114B104C104BC
:102ED000D10409F4C7C0C3C0A114B104C104D10412
:102EE00051F18601750131018824992466277727DD
:102EF000CB0166197709880999096D837E838F83D1
:102F0000988714C0D2018D919C9169857A850E9421
:102F100063159A878987892B09F4A1C06D817E8109
:102F20008F819885E60EF71E081F191FE614F70417
:102F30000805190538F7089421083108A220B320A4
:102F40000894211C311CCB80DC80D201ED90FC90D8
:102F5000E114F10409F1E985FA85E230F105E0F0C8
:102F60003297BF0180E090E03296FA87E987D70177
:102F700050962D913C91519740E050E00E94C9310C
:102F80009B01AC01F70182899389A489B589280F37
:102F9000391F4A1F5B1F04C020E030E040E050E0D2
:102FA00081010A191B09C016D10608F48601D70150
:102FB000ED91FC91C501A0E0B0E0280F391F4A1F38
:102FC0005B1F0190F081E02DCA01B90149815A814E
:102FD00098010995882341F1C01AD10AC801A0E0DF
:102FE000B0E0F20125A536A547A550A9280F391F45
:102FF0004A1F5B1FD2019D962D933D934D935C9389
:10300000D097C8018A0D9B1D82159305A0F08D9164
:103010009C9169857A850E9463159A878987892B97
:1030200041F4F20112AA11AA4B815C814C195D098D
:103030001BC0AA24BB24E985FA85D201D296FC9351
:10304000EE93D197C114D10439F029813A81200F30
:10305000311F3A83298379CF4B815C8105C04FEFC3
:103060005FEF02C040E050E0CA012A960FB6F89424
:10307000DEBF0FBECDBFCF91DF911F910F91FF90AB
:10308000EF90DF90CF90BF90AF909F908F907F9008
:103090006F905F904F903F902F9008952F923F92A6
:1030A0004F925F926F927F928F929F92AF92BF9258
:1030B000CF92DF92EF92FF920F931F93DF93CF9304
:1030C00000D000D000D0CDB7DEB76C017A83698321
:1030D0005C834B83009709F43FC1672B09F43CC123
:1030E000452B09F439C1DC019D968D909D90AD90E2
:1030F000BC90D09795968D919D910D90BC91A02DEF
:1031000088159905AA05BB0508F426C1D601ED91DD
:10311000FC91119720883188D1962D913C91D297BE
:103120003E832D83232B09F057C093968D919C915C
:1031300094979E838D83892BB9F481149104A10403
:10314000B10409F009C1CF0160E070E041E050E056
:103150000E9419169E838D83D60194969C938E931C
:103160009397892B09F4F8C0F601E5A4F6A407A506
:1031700010A9E114F1040105110531F52DC0E41881
:10318000F50806091709D6018D919C916D817E8104
:103190000E946315009719F09E838D8318C0E11477
:1031A000F1040105110509F0D7C0F6018081918174
:1031B0006D817E8141E050E00E941916009709F46C
:1031C000CBC09E838D8303C0210166247724E41441
:1031D000F5040605170598F60894210831088220A1
:1031E00093200894211C311CAB80BC80D601ED904B
:1031F000FC90E114F10409F1ED81FE81E230F1056A
:10320000E0F03297BF0180E090E03296FE83ED83DC
:10321000D70150962D913C91519740E050E00E948B
:10322000C9319B01AC01F70182899389A489B589D1
:10323000280F391F4A1F5B1F04C020E030E040E028
:1032400050E0810108191909A016B10608F485019A
:10325000D701ED91FC91C401A0E0B0E0280F391F27
:103260004A1F5B1F0480F581E02DCA01B901498125
:103270005A8198010995882309F44DC0A01AB10A12
:10328000C801A0E0B0E0F60125A536A547A550A9E4
:10329000280F391F4A1F5B1FD6019D962D933D9322
:1032A0004D935C93D097C801880D991D82159305A5
:1032B00018F18D919C916D817E810E94631500971C
:1032C00019F09E838D8316C0A114B10459F0F60144
:1032D000808191816D817E8141E050E00E941916CC
:1032E000009731F4D601D2961C921E92D19713C04A
:1032F0009E838D83882499242D813E81F60132ABF3
:1033000021ABA114B10439F089819A81800F911FFA
:103310009A8389836BCFD6019D962D913D914D91D6
:103320005C91D09795968D919D910D90BC91A02D1B
:1033300082179307A407B50750F481E0F60183AB29
:10334000D60195962D933D934D935C9398974B8121
:103350005C814A195B0902C04FEF5FEFCA012696F4
:103360000FB6F894DEBF0FBECDBFCF91DF911F9196
:103370000F91FF90EF90DF90CF90BF90AF909F9014
:103380008F907F906F905F904F903F902F90089517
:10339000FC01009711F0118210820895FC01009742
:1033A00011F480E0089583A194A196A785A710AA9F
:1033B00017A681E008957F928F929F92AF92BF925D
:1033C000CF92DF92EF92FF920F931F93DF93CF93F1
:1033D000CDB7DEB72C970FB6F894DEBF0FBECDBFCA
:1033E0006C015B01009709F44EC06115710509F489
:1033F0004AC0DB019796ED90FD900D911C919A9734
:10340000E114F10401051105F1F14E010894811C4C
:10341000911C75EE772ED601ED91FC910190F08113
:10342000E02DC801B701A4012CE030E00995882304
:1034300051F17982D601ED91FC910480F581E02D66
:10344000C801B701A4012CE030E009958823D9F028
:103450008C858F3049F480E290E0A0E0B0E0E80E87
:10346000F91E0A1F1B1FD7CFD50191966D917C9134
:1034700092976115710529F0C6010E94A315882352
:1034800019F081E001C080E02C960FB6F894DEBF01
:103490000FBECDBFCF91DF911F910F91FF90EF90A5
:1034A000DF90CF90BF90AF909F908F907F900895C6
:1034B000CF92DF92EF92FF920F931F93DF93CF9300
:1034C000CDB7DEB760970FB6F894DEBF0FBECDBFA5
:1034D0008C016230710510F480E035C0009729F44A
:1034E00040E050E060E070E016C06250704080E064
:1034F00090E0F8012089318940E050E00E94C93114
:10350000AB01BC01F80182899389A489B589480F70
:10351000591F6A1F7B1FDE01119680E1FD01119288
:103520008A95E9F7F8018081918120893189FC0130
:10353000C680D780CB01BA01AD0101E017E1EE24CE
:10354000FF24F601099560960FB6F894DEBF0FBE12
:10355000CDBFCF91DF911F910F91FF90EF90DF9042
:10356000CF9008952F923F924F925F926F927F92E9
:103570008F929F92AF92BF92CF92DF92EF92FF9283
:103580000F931F93DF93CF93CDB7DEB7AA970FB6F4
:10359000F894DEBF0FBECDBF4C01DB01009709F4EC
:1035A000B5C06115710509F4B1C0FC01608071807E
:1035B000F30120883188FC01A5A4B6A427A530A971
:1035C0002215330508F07EC0AE014F5F5F4F86E0E5
:1035D000FA0111928A95E9F78BE2FB0111928A9523
:1035E000E9F7A114B10409F074C0F301228833880B
:1035F00086899789281A390A6CC0720100E010E0A8
:10360000A114B10441F4D30156966D917D918D9131
:103610009C91599724C061147104D9F0B2E0AB16A3
:10362000B104B8F0F3012089318940E050E06FA186
:1036300078A589A59AA50E94C9319B01AC01F30127
:1036400082899389A489B589280F391F4A1F5B1F76
:1036500004C020E030E040E050E0CA01B9016E0D46
:103660007F1D801F911F1C821B82D301ED91FC9155
:103670008101041915090280F381E02DAE01495F33
:103680005F4F20E230E0A0EAEA2EABE1FA2E6E01B5
:103690000894C11CD11C09958823C1F18B819C81A0
:1036A000480E591E4214530430F1C301B5010E9463
:1036B00063155C0120E030E0009769F48E81882377
:1036C000F1F4F40183A194A196A785A710AA17A6E7
:1036D0001DC0BA83A98329018EEF9FEFA80EB91EE2
:1036E000C501A0E0B0E08FA398A7A9A7BAA7A2E060
:1036F000B0E0AA0EBB1E8E81882309F47ECFF401B0
:10370000B6A6A5A650AA47A68E8101C080E0AA96BB
:103710000FB6F894DEBF0FBECDBFCF91DF911F91E2
:103720000F91FF90EF90DF90CF90BF90AF909F9060
:103730008F907F906F905F904F903F902F90089563
:10374000CF92DF92EF92FF920F931F93CF93DF936D
:103750008C016A017B01A901D901CD91DC911197FE
:1037600012968D919C911397809613969C938E93AD
:103770001297F8019081953E11F0992321F4DA0116
:1037800014961C92C9C0F80183858F30E1F5D901E8
:1037900014969C91992319F08585981771F08BE206
:1037A000FE0111928A95E9F7D8011D968C91FA01D4
:1037B0008483CFA2D8A6E9A6FAA6D8018C9190E07E
:1037C0008F7390702DE030E0829FA001839F500D99
:1037D000929F500D11244D505040A4E0B1E0C40F11
:1037E000D51F0DC08D91F801E80FF11D80818993DF
:1037F0004F5F5F4FE1E0A131BE0709F48DC04F314B
:10380000510580F389C088818823D1F0D9011496AD
:103810006C91F801A1E0892F90E09C0135952795E6
:103820009695982F882797958795982F922B818129
:10383000980FAF5F3196AB3071F7691709F457C035
:103840008BE2FE0111928A95E9F7CFA2D8A6E9A6EC
:10385000FAA6B801DE01780120E0F70190819032EC
:10386000A1F09C93F801848583FF08C0F701808153
:10387000813420F08B3510F4905E9C932F5F089478
:10388000E11CF11C1196283041F78881853011F434
:1038900085EE8883D80118968C91803221F1FE0143
:1038A000E20FF11D8EE28083322F3F5F2C5FFB0120
:1038B00090859032B9F0FE01E30FF11D9083D8019D
:1038C0001C968C9184FF09C0DB0118968C91813481
:1038D00020F08B3510F4905E90833F5F6F5F7F4FD9
:1038E000321729F7232FFE01E20FF11D1082F80194
:1038F000838588A3828D938D9AA389A3848D958DCA
:10390000A68DB78D8BA39CA3ADA3BEA381E0DA01E6
:1039100015968C9380E001C081E0DF91CF911F91DB
:103920000F91FF90EF90DF90CF9008952F923F92EC
:103930004F925F926F927F928F929F92AF92BF92BF
:10394000CF92DF92EF92FF920F931F93DF93CF936B
:10395000CDB7DEB7A8970FB6F894DEBF0FBECDBFC8
:1039600098A78FA3009709F436C1DC0114968D91B6
:103970009C911597892B09F42EC116968D919C91D7
:103980001797892B09F427C16DC1E981FA81FBA33F
:10399000EAA32C813D81FB81FCA34E818F81988518
:1039A0009EA38DA3E985FA856C857D856E887F88C9
:1039B000888C998C611471048104910431F43097DE
:1039C00009F405C13F01882499246115710509F4A2
:1039D000FEC0C901A0E0B0E08A8F9B8FAC8FBD8F85
:1039E00080E090E0242F30E040E050E00E94C931B8
:1039F0006E8F7F8F88A399A3840173012A8D3B8DDD
:103A00004C8D5D8DE21AF30A040B150BE61AF70ACA
:103A1000080B190B8AA19BA101972DA13EA145E09E
:103A2000220F331F4A95E1F7820F931F6AA17BA1F2
:103A30000E94E83180E090E0E61AF70A080B190BC3
:103A40008CA1282F30E040E050E0C801B7010E946F
:103A50000F3279018A0195EFE9169FE0F90690E0AF
:103A6000090790E0190708F4B2C0A5EFEA16AFEF16
:103A7000FA06A0E00A07A0E01A0728F486E0EFA102
:103A8000F8A5808705C08BE0AFA1B8A518968C93E8
:103A900088E1E6E0F5E0DF011D928A95E9F7EAA109
:103AA000FBA15F01CC24DD24C401B301A601950173
:103AB0000E94C9316093060570930705809308053D
:103AC00090930905C601B5012A8D3B8D4C8D5D8D06
:103AD0000E94C931260E371E481E591E20920A0523
:103AE00030920B0540920C0550920D05AFA1B8A580
:103AF00018968C91863029F064E070E080E090E0C8
:103B000004C062E070E080E090E022E030E040E05D
:103B100050E0E20EF31E041F151FA80197010E943A
:103B2000C93160930E0570930F0580931005909333
:103B300011054AA15BA150931305409312055CA1A6
:103B4000852F90E0DC01EAA1FBA1AE9FC001AF9FF1
:103B5000900DBE9F900D1124909315058093140530
:103B60006E8D7F8D88A199A1A60195010E94C93112
:103B700020910A0530910B0540910C0550910D05DF
:103B8000620F731F841F951F60931A0570931B05A6
:103B900080931C0590931D05ADA1BEA19D0140E041
:103BA00050E0B5E0220F331F441F551FBA95D1F7DF
:103BB000620F731F841F951F60931605709317057E
:103BC000809318059093190524E035E006C0109203
:103BD00005051092040520E030E0C901A8960FB653
:103BE000F894DEBF0FBECDBFCF91DF911F910F9133
:103BF000FF90EF90DF90CF90BF90AF909F908F900D
:103C00007F906F905F904F903F902F900895E4E0E9
:103C1000F5E08CE1DF011D928A95E9F7EFA1F8A5A7
:103C2000F0930505E0930405218432844384548491
:103C3000A9E0220C331C441C551CAA95D1F7C201E3
:103C4000B101655F7F4F8F4F9F4F0190F081E02D55
:103C5000AE014F5F5F4F29E130E00995882309F4F9
:103C6000B6CF93CE8091040590910505892B09F07C
:103C7000B2CFCDCF2F923F924F925F926F927F92B1
:103C80008F929F92AF92BF92CF92DF92EF92FF926C
:103C90000F931F93DF93CF9300D00F92CDB7DEB772
:103CA0001C019B01009709F4D2C04115510509F48C
:103CB000CEC0FA0101900020E9F7E41BF50BCF011B
:103CC0000B966DE070E00E94E831862F8F5F8B834A
:103CD000D90193964D905C9094974114510451F002
:103CE000AA24BB246501EE24FF24870166247724DF
:103CF00043010BC0F101E688F788008D118D6288C1
:103D0000738884889588570168011A82E614F7043D
:103D10000805190509F06EC04114510409F497C053
:103D2000E114F1040105110589F1C101B2010E94FC
:103D30006315009751F5C101B20141E050E00E94C6
:103D400019168C01009709F482C002501040B80186
:103D500080E090E00E5F1F4FD10150962D913C9175
:103D6000519740E050E00E94C9315B016C01F101C4
:103D700082899389A489B589A80EB91ECA1EDB1E43
:103D8000C101B8010E94581A65C02C01F2E04F161B
:103D9000510420F4EE24FF2487011DC02EEF3FEFD5
:103DA000420E531EB20180E090E0A2E0B0E04A0E65
:103DB0005B1EF1012089318940E050E00E94C93149
:103DC0007B018C01F10182899389A489B589E80E70
:103DD000F91E0A1F1B1FD10150968D919C9151977E
:103DE0003C01882499246E0C7F1C801E911E570173
:103DF00068011A82D101ED91FC910190F081E02DD2
:103E0000C801B701AE014F5F5F4F21E030E0099577
:103E10008823E9F08981853E11F0882379F4BA81FD
:103E2000BF5FBA83EB81BE17A8F480E290E0A0E008
:103E3000B0E0E80EF91E0A1F1B1F68CF80E290E079
:103E4000A0E0B0E0E80EF91E0A1F1B1F5CCFAA24F9
:103E5000BB246501B501C6010F900F900F90CF9163
:103E6000DF911F910F91FF90EF90DF90CF90BF9067
:103E7000AF909F908F907F906F905F904F903F900A
:103E80002F9008953F924F925F926F927F928F9200
:103E90009F92AF92BF92CF92DF92EF92FF920F93D9
:103EA0001F93DF93CF93CDB7DEB7A0970FB6F894EB
:103EB000DEBF0FBECDBFFC018B01009709F431C1FD
:103EC0006115710509F42DC10190F081E02D448048
:103ED0005580DB019796AD90BD90CD90DC909A9780
:103EE000E62E912EFB0101900020E9F73197FE2E7E
:103EF000F61A8F2D90E00C966DE070E00E94FC3178
:103F0000762ECE01019660E270E04BE050E00E9418
:103F10005B32C8016EE270E00E949332FC010097B0
:103F2000E1F09C012F5F3F4F81818823B1F0D901DF
:103F30000D900020E9F71197A21BB30B8A2F8095F3
:103F4000F80EBE01675F7F4F4A2FA43008F043E0B0
:103F5000CB01B90150E00E945232CE010196B8E087
:103F6000BF1588F06E2D792D4F2D50E00E945232F2
:103F7000F80180818E3291F581818E3209F482813F
:103F8000882359F12BC0DC018E2D992D9C01F9015C
:103F900088E001900D928150E1F7D80191962C9123
:103FA000822F90E0203A40F444E0959587954A9519
:103FB000E1F7982F905D07C034E0959587953A9585
:103FC000E1F7982F9F59822F8F708A3010F4805D0F
:103FD00001C08F599F83888701C077248981853EDE
:103FE00011F485E089838CE0882E912C8C0E9D1E27
:103FF00085E1F40111928A95E9F7D80190968C91A8
:1040000090978C8791968D919C9192979C8F8B8F96
:1040100093968D919D910D90BC91A02D8D8F9E8F2B
:10402000AF8FB8A3672D70E0B5E0660F771FBA9524
:10403000E1F780E090E06A0D7B1D8C1D9D1DAE01B7
:104040004F5F5F4F20E230E0F2010995882309F4C9
:1040500068C0E980FE013296A4018E2D90E09C019B
:10406000359527959695982F882797958795E82ECB
:10407000E22A8191E80EE417F50779F7F72C4E0153
:104080000894811C911C6DE0362E5FE0652E44C0C3
:10409000C4016FEF70E040E250E00E945B32F39C9D
:1040A000D00111241D97A00FB11F91E0F401E90F79
:1040B000F11D8C918083892F8F5FF401E80FF11D32
:1040C00010829E5F9B3019F09A3121F402C09EE06D
:1040D00001C09CE18C91882321F09F3110F411964E
:1040E000E5CFF982F71419F48F2D806489836C86EB
:1040F000EE861D861B8E1C8EC601B501A40120E232
:1041000030E0F201099580E290E0A0E0B0E0A80E76
:10411000B91ECA1EDB1EFA94FF2009F0B9CF81E058
:1041200001C080E0A0960FB6F894DEBF0FBECDBFF1
:10413000CF91DF911F910F91FF90EF90DF90CF9083
:10414000BF90AF909F908F907F906F905F904F90B7
:104150003F900895AF92BF92CF92DF92EF92FF927D
:104160000F931F93CF93DF938C017B01EA0100979C
:1041700009F448C06115710509F444C0FB01808150
:10418000882309F43FC041155105E1F1B42EAD2E4D
:10419000C801BE010E94B21A882379F0C7016B2DB5
:1041A0007A2D0E946D32009799F7F80183A194A1AE
:1041B00096A785A710AA17A625C0F801C080D180B0
:1041C0008BE2FE0111928A95E9F78B2D9A2DB701AA
:1041D0004FE150E00E948432C601B801AE010E9456
:1041E0003A1E6FA378A789A79AA761157105810563
:1041F000910541F0C601BE010E94421F882319F0BB
:1042000081E001C080E0DF91CF911F910F91FF907D
:10421000EF90DF90CF90BF90AF900895CF93DF9352
:10422000EC01009759F08BA9813031F4FE018191A6
:104230009191BF010E94421F19821882DF91CF9194
:104240000895CF93DF93AC01DB01009789F16115ED
:10425000710571F190968C91909784FF29C080919F
:104260006E0490916F04892B19F4EEE6F4E008C017
:1042700080919F049091A004892BD1F4EFE9F4E0A0
:104280009F012E5F3F4FBD018BE2EB010990BE0104
:10429000E90109929E018150C1F7518340839196B3
:1042A0008D919C91929796A785A710AA17A602C0F8
:1042B000E0E0F0E0CF01DF91CF910895CF93DF935D
:1042C0009C01FB01009731F06115710519F080A187
:1042D00084FF25C020E030E0C901DF91CF9108952F
:1042E000C2EDD4E0DF018BE20D9009928150E1F73D
:1042F0003093D1042093D0041092FD041092FE0458
:104300001092FF041092000581A192A190930205E2
:10431000809301051092030520ED34E0DDCF8091FC
:10432000D0049091D104892BA9F6DACF6F927F92B5
:104330008F929F92AF92BF92CF92DF92EF92FF92B5
:104340000F931F93CF93DF934C01EB017A010097FA
:1043500009F467C06115710509F463C08881882379
:1043600009F45FC04115510509F45BC08F3209F4AF
:1043700021968BE2F70111928A95E9F780E1F70126
:1043800080A3370101C0E5018881882309F44BC06F
:10439000C401B7010E9421216C01009709F441C0BA
:1043A000CE016FE270E00E946232009739F0482F30
:1043B0004C1B5C010894A11CB11C2AC0FE01019099
:1043C0000020E9F731974E2F4C1B5E01A40EB11C63
:1043D0001FC0F30101900020E9F73197E619F709B2
:1043E000E017F107B9F4CE01B301A8010E947632BB
:1043F000009781F4F601118210820C0F1D1FF80145
:104400008081882381F0F70180A184FDBCCF09C0A1
:10441000042F10E0C601B7010E94B21A8823C9F622
:1044200012C080E001C081E0DF91CF911F910F9118
:10443000FF90EF90DF90CF90BF90AF909F908F90C4
:104440007F906F900895F601118210829DCFFC013C
:10445000009711F480E00895108681E008958F920E
:104460009F92AF92BF92CF92DF92EF92FF920F9303
:10447000DF93CF93CDB7DEB760970FB6F894DEBF6A
:104480000FBECDBF7C016B015A014901009709F4B1
:1044900093C06115710509F48FC004300CF08CC015
:1044A00007FD1DC0602F772767FD7095E4E0660F5C
:1044B000771FEA95E1F762547E4F882777FD809554
:1044C000982FAE014F5F5F4F20E130E0F701099573
:1044D000882309F471C08D81882309F46DC080910F
:1044E0002805882309F068C07CC08D818093280549
:1044F0002A8530E040E050E0542F432F322F22270E
:104500008B8590E0A0E0B0E0DC0199278827282B7C
:10451000392B4A2B5B2B898590E0A0E0B0E0282B5B
:10452000392B4A2B5B2B8C8590E0A0E0B0E0B82FB4
:10453000AA2799278827282B392B4A2B5B2B2093D6
:10454000290530932A0540932B0550932C052E8581
:1045500030E040E050E0542F432F322F22278F8548
:1045600090E0A0E0B0E0DC0199278827282B392BC8
:104570004A2B5B2B8D8590E0A0E0B0E0282B392BF7
:104580004A2B5B2B888990E0A0E0B0E0B82FAA27E7
:1045900099278827282B392B4A2B5B2B20932D0515
:1045A00030932E0540932F055093300503C08FEFB5
:1045B000809328059F0102C020E030E0C901609689
:1045C0000FB6F894DEBF0FBECDBFCF91DF910F9134
:1045D000FF90EF90DF90CF90BF90AF909F908F9023
:1045E0000895E0E2F5E081E1DF011D928A95E9F7A7
:1045F000F0922105E0922005D0922305C092220579
:10460000B0922505A0922405909227058092260558
:1046100007FF6BCFCCCF282F8FEF8EBD0DB407FED9
:10462000FDCF8DB58F778DBD8EB5822F80648EBD09
:104630000DB407FEFDCF8DB58F778DBD872F9927E0
:10464000AA27BB278EBD0DB407FEFDCF8DB58F7792
:104650008DBDCB01AA27BB278EBD0DB407FEFDCFB4
:104660008DB58F778DBDBB27A72F962F852F8EBD3C
:104670000DB407FEFDCF8DB58F778DBD4EBD0DB44A
:1046800007FEFDCF8DB58F778DBD222319F0283021
:1046900069F406C085E98EBD0DB407FEFDCF0BC0E1
:1046A00087E88EBD0DB407FEFDCF05C08FEF8EBD30
:1046B0000DB407FEFDCF8DB58F778DBD90E02FEF48
:1046C0002EBD0DB407FEFDCF8DB58F778DBD8EB598
:1046D0008F3F19F49F5F9A3099F70895DF93CF9336
:1046E00000D0CDB7DEB780917D0789838A81807F36
:1046F00082608A83CE01019662E00E94262A0F9092
:104700000F90CF91DF9108952F923F924F925F9239
:104710006F927F928F929F92AF92BF92CF92DF92D1
:10472000EF92FF920F931F93CF93DF934B015C01A6
:104730002A0139010E946E23882309F4A3C0ABC06B
:10474000E401D170CE01A0E0B0E085017401E81A67
:10475000F90A0A0B1B0BC12C42E0D42ECC1ADD0A3D
:104760006C147D0408F46301809132059091330547
:10477000A0913405B0913505E816F9060A071B0724
:10478000F9F00E946124882309F485C0209729F458
:1047900080E0C81682E0D80658F4C801B70146E3A5
:1047A00055E020E032E00E947B24882309F473C0A6
:1047B000E0923205F09233050093340510933505ED
:1047C00086E3481685E0580671F09E012A5C3A4F50
:1047D000C901B201A6010E945232109231056C1437
:1047E0007D0409F45AC02C9888E1B801A7010E9401
:1047F0000B23882311F02C9A4EC08EEF8EBD0DB482
:1048000007FEFDCF8DB58F778DBDE6E3F5E0819195
:104810008EBD0DB407FEFDCF8DB58F778DBD87E0C2
:10482000E633F807A1F73EBC0DB407FEFDCF8DB50A
:104830008F778DBD3EBC0DB407FEFDCF8DB58F7754
:104840008DBD3EBC0DB407FEFDCF8DB58F778DBD00
:104850008EB58F3FB1F78EBD0DB407FEFDCF8DB580
:104860008F778DBD8EB52C9A4C0C5D1CC601A0E0D7
:10487000B0E0880E991EAA1EBB1E6C187D082092FF
:10488000310504C033243A94222423946114710422
:1048900009F056CF02C080E001C081E0DF91CF91E6
:1048A0001F910F91FF90EF90DF90CF90BF90AF904E
:1048B0009F908F907F906F905F904F903F902F9040
:1048C000089580913105882311F081E00895609169
:1048D000320570913305809134059091350546E39A
:1048E00055E020E032E00E948423882319F081E023
:1048F0008093310508953F924F925F926F927F921D
:104900008F929F92AF92BF92CF92DF92EF92FF92DF
:104910000F931F93CF93DF933B014C016A01290151
:1049200033243A948FC05FEFA52E51E0B52EA62018
:10493000B720C501A0E0B0E084017301E81AF90ACC
:104940000A0B1B0BC0E0D2E0CA19DB094C165D064E
:1049500008F4E2018091320590913305A09134056D
:10496000B0913505E816F9060A071B0709F457C088
:104970000E946124882309F46AC02C9881E1B8015F
:10498000A7010E940B23882319F02C9A80E05FC0B6
:104990003EBC0DB407FEFDCF8DB58F778DBD8EB5B6
:1049A0008E3FB1F7E6E3F5E03EBC0DB407FEFDCF68
:1049B0008DB58F778DBD8EB5808387E0E533F807A1
:1049C00011F03196F1CFE0923205F0923305009369
:1049D00034051093350595012A5C3A4FC601B9019B
:1049E000AE010E9452323EBC0DB407FEFDCF8DB524
:1049F0008F778DBD8EB53EBC0DB407FEFDCF8DB556
:104A00008F778DBD8EB52C9A3EBC0DB407FEFDCFC1
:104A1000CC0EDD1E8DB58F778DBD8EB50AC095018C
:104A20002A5C3A4FC601B901AE010E945232CC0E47
:104A3000DD1E4C1A5D0ACE01A0E0B0E0680E791EC2
:104A40008A1E9B1E4114510409F06DCF81E0DF9155
:104A5000CF911F910F91FF90EF90DF90CF90BF907B
:104A6000AF909F908F907F906F905F904F903F900E
:104A700008952F923F924F925F926F927F928F9202
:104A80009F92AF92BF92CF92DF92EF92FF920F93DD
:104A90001F93DF93CF9300D000D0CDB7DEB74B018B
:104AA0005C013A013C832B832701DA82C9824115DC
:104AB0005105A9F12115310591F10217130778F17C
:104AC000E114F10461F11901309421943108339417
:104AD000021B130B6901EE24FF24C501B401A301DD
:104AE0002B813C810E947B248823C9F0C301B5013E
:104AF000A40129813A81F2010995882391F0020DE0
:104B0000131D8B819C81800F911F2B813C8182170B
:104B1000930738F08C0C9D1CAE1CBF1CDECF80E0D0
:104B200001C081E00F900F900F900F90CF91DF9117
:104B30001F910F91FF90EF90DF90CF90BF90AF90BB
:104B40009F908F907F906F905F904F903F902F90AD
:104B500008954F925F926F927F928F929F92AF9241
:104B6000BF92CF92DF92EF92FF920F931F93CF935A
:104B7000DF935B016C014A01E9013801270141150E
:104B8000510571F10115110559F1FF242115310568
:104B900011F5FF24F3941FC0C401B601A5019201D1
:104BA000F30109958C010097E9F0FF2019F4C8176B
:104BB000D907B0F0C601B501A40198010E94842371
:104BC000882371F0C801A0E0B0E0A80EB91ECA1E8B
:104BD000DB1EC01BD10BFF20F9F62097E9F602C0BF
:104BE00080E001C081E0DF91CF911F910F91FF9094
:104BF000EF90DF90CF90BF90AF909F908F907F907D
:104C00006F905F904F900895DF93CF9300D0CDB712
:104C1000DEB780917D0789838A81807F83608A8364
:104C2000CE01019663E00E94262A91E089270F9029
:104C30000F90CF91DF910895EF92FF920F931F9302
:104C4000DF93CF9300D000D0CDB7DEB780917D0742
:104C500089838A81807F83608A83CE01019663E0A5
:104C600040E00E94112A80917D078B838C81807F98
:104C700082608C83CE01039662E040E00E94112A9C
:104C8000259A279A249A26982C9A83E58CBD8DB56F
:104C90008E7F8DBD109236070E940426882309F46A
:104CA00089C090E02FEF2EBD0DB407FEFDCF8DB56E
:104CB0008F778DBD8EB59F5F9A30A9F72C9800E055
:104CC00010E080E040E050E060E070E00E940B23E4
:104CD000813041F081E00F3F180709F446C00F5FB3
:104CE0001F4FEFCF87E340E050E060E070E00E94AC
:104CF0000B2389E240E050E060E070E00E940B236B
:104D000082FD05C0809136078160809336078091CF
:104D10003607E82EFF2483E0E822FF2400E010E0BD
:104D2000E114F10449F087E340E050E060E070E016
:104D30000E940B2389E201C081E040E050E060E086
:104D400070E00E940B2380FF07C08FE70F3F18071A
:104D500061F00F5F1F4FE4CF80E140E052E060E080
:104D600070E00E940B23882319F02C9A80E022C067
:104D70002C9A8CB58C7F8CBD8DB581608DBD8FEFED
:104D80009FEFAFEFBFEF8093320590933305A09371
:104D90003405B093350581E08093310560E070E023
:104DA00080E090E046E355E020E032E00E947B2482
:104DB000811181E00F900F900F900F90CF91DF91B4
:104DC0001F910F91FF90EF900895FC018FB7F89419
:104DD00022AD33AD44AD55AD8FBFB901CA010895C1
:104DE00008958091750708951F920F920FB60F9244
:104DF00011242F933F934F935F936F937F938F93E0
:104E00009F93AF93BF93EF93FF93DF93CF9300D024
:104E100000D000D0CDB7DEB78091780790917907A8
:104E20001816190614F401973CC0809176079091EA
:104E300077078130910501F580917A0790917B0782
:104E4000019690937B0780937A0782E090E090939D
:104E500077078093760782E190E0909379078093BB
:104E6000780780917D0789838A81807F8A83CE013C
:104E7000019660E040E04BC08230910561F5809181
:104E8000750790E020917A0730917B072817390742
:104E90006CF083E090E0909377078093760780E54D
:104EA00090E0909379078093780733C081E090E099
:104EB000909377078093760782E190E0909379074B
:104EC0008093780780917D078B838C81807F8C8392
:104ED000CE0103961AC00397E1F410927B0710925B
:104EE0007A0781E090E0909377078093760782E1DC
:104EF00090E0909379078093780780917D078D8368
:104F00008E81807F8E83CE01059660E041E00E9415
:104F1000322A2696DEBFCDBFCF91DF91FF91EF9170
:104F2000BF91AF919F918F917F916F915F914F91C1
:104F30003F912F910F900FBE0F901F9018950F93D8
:104F40001F93DF93CF9300D0CDB7DEB78B016115F0
:104F5000710589F4109277071092760780917D078A
:104F600089838A81807F8A83CE01019660E040E058
:104F70000E94322A0CC08091750790E0861797072F
:104F800031F082E090E0909377078093760700936A
:104F900075070F900F90CF91DF911F910F9108959A
:104FA000FC0182AD93ADA4ADB5AD805C9F4FAF4F1A
:104FB000BF4F82AF93AFA4AFB5AF0E949B008823D1
:104FC00011F40E94370F08951F920F920FB60F929F
:104FD00011242F933F934F935F936F937F938F93FE
:104FE0009F93AF93BF93EF93FF9387E397E00E9464
:104FF000D027FF91EF91BF91AF919F918F917F91BA
:105000006F915F914F913F912F910F900FBE0F9035
:105010001F901895EF92FF920F931F93DF93CF93FA
:1050200000D0CDB7DEB77C0160E070E00E949F2722
:105030008701085C1F4FC8010E94B42AC80161E0C3
:105040000E94AA2A82E090E060E00E94542A8095A3
:10505000881F8827881F0E941E0FC70160E00E94DA
:10506000E02EC7010E9661E00E94E02EC7014C962B
:1050700062E00E94E02EC7018A9663E00E94E02E63
:1050800081E897E061E00E94483185E897E00E945E
:10509000D22A81E897E00E94AA308BEA97E00E942A
:1050A0007E2B81ED97E061E00E94483185ED97E02D
:1050B0000E94D22A81ED97E00E94AA308BEF97E000
:1050C0000E947E2B1092800089E0809381001092D4
:1050D000820080E094E0909389008093880082E0D1
:1050E00080936F001092B00087E08093B10081E060
:1050F0008093700080917D0789838A81807F8A8375
:10510000CE01019660E041E00E94112A0F900F90BD
:10511000CF91DF911F910F91FF90EF9008950F9322
:105120001F938C010E94052AF8018181807F818371
:105130001F910F9108950F931F938C010E948F2848
:10514000C80102960E948F28C80104960E948F28E9
:10515000C80106960E948F28C80108960E948F28D1
:105160001F910F9108958F929F92AF92BF92CF920D
:10517000DF92EF92FF920F931F93DF93CF93CDB700
:10518000DEB7C056D0400FB6F894DEBF0FBECDBF1D
:105190004C018B010E949B28C4010E960E949B2803
:1051A000C4014C960E949B28C4018A960E949B28A9
:1051B000C401C896B8010E949B2A90917E079983EA
:1051C0008A81807F82608A8380917F078B838C8134
:1051D000807F87608C839D838E81807F83608E83B8
:1051E0009F838885807F8460888799878A85807F70
:1051F00084608A87A9E2AA2EB12CAC0EBD1EC5011F
:10520000BE016F5F7F4FAE014D5F5F4F9E012B5F11
:105210003F4F8E01095F1F4FF9E0EF2EF12CEC0E8E
:10522000FD1EE2E0CE2ED12C0E949B2ED401F50172
:105230008EE001900D928150E1F790917E079B875F
:105240008C85807F86608C879D878E85807F876038
:105250008E8790917C079F878889807F8760888B65
:10526000998B8A89807F86608A8B9B8B8C89807FD3
:1052700086608C8B17E3A12EB12CAC0EBD1EC50130
:10528000BE01655F7F4FAE01435F5F4F9E01215FAF
:105290003F4F8E010F5E1F4FB3E1EB2EF12CEC0E52
:1052A000FD1EA2E0CA2ED12C0E949B2ED4011E9678
:1052B000F5018EE001900D928150E1F790917C070D
:1052C0009D8B8E89807F83608E8B9F8B888D807F66
:1052D0008460888F998F8A8D807F82608A8F9B8F70
:1052E0008C8D807F81608C8F9D8F8E8D807F816083
:1052F0008E8FF5E4AF2EB12CAC0EBD1EC501BE01E4
:105300006B5E7F4FAE01495E5F4F9E01275E3F4F50
:105310008E01055E1F4FEDE1EE2EF12CEC0EFD1E11
:10532000B2E0CB2ED12C0E949B2ED4015C96F501CD
:105330008EE001900D928150E1F790917C079F8F54
:1053400088A1807F856088A380917E0789A38AA138
:10535000807F85608AA39BA38CA1807F8CA38E0114
:105360000B5D1F4FC8010E948F28A7E2EA2EF12C87
:10537000EC0EFD1EC7010E948F28F3E5AF2EB12C65
:10538000AC0EBD1EC501BE01615E7F4FAE014F5D1B
:105390005F4F9E012D5D3F4FE2E0CE2ED12C0E944B
:1053A0009B2ED4019A96F5018EE001900D928150CA
:1053B000E1F7C05ADF4F0FB6F894DEBF0FBECDBF86
:1053C000CF91DF911F910F91FF90EF90DF90CF90E1
:1053D000BF90AF909F908F900895DF93CF9300D0B0
:1053E000CDB7DEB780917F0789838A81807F866011
:1053F0008A8387E397E0BE016F5F7F4F0E94B328E7
:105400000F900F90CF91DF910895FC018FEF808373
:105410000895FC0190E080818F3F09F491E0892F8D
:105420000895FC018081E82FF0E0318181E090E077
:1054300002C0880F991F6A95E2F7282F442309F4C8
:1054400080E020952323822B81830895FC01E08155
:10545000F0E0808190E002C0959587956A95E2F72B
:1054600081700895FC018081E82FF0E0328181E0B5
:1054700090E002C0880F991F6A95E2F7282F442315
:1054800009F480E020952323822B8283089580E213
:1054900080937C0783E280937D0786E280937E077A
:1054A00089E280937F0708951F93DF93CF930F9234
:1054B000CDB7DEB79C01162FCE010196B90141E0B0
:1054C00050E00E949E3289818F3F09F419838981BF
:1054D0000F90CF91DF911F910895DF93CF9300D06C
:1054E000CDB7DEB7CE01019660E070E042E050E05B
:1054F0000E949E323A8184E6389FC001112429819E
:10550000820F911D8D52914089F032503D3F10F035
:105510000E94030781E0898383E08A83CE0101969C
:1055200060E070E042E050E00E94AE320F900F90D9
:10553000CF91DF910895DC01FB01208191819F7063
:1055400011968C911197807F892B11968C931197CE
:105550002C930895FC01862F61816F7041E04827EC
:10556000CF010E94322A08950F931F938C01FC01F2
:1055700061816F7041E00E94112AC80161E00E94C0
:10558000AA2A1F910F910895FC011182108212A284
:1055900014A213A20895FC011182108212A214A277
:1055A00013A20895FC011182108212A214A213A268
:1055B0000895DC0193968D919C919497892B91F499
:1055C000653D19F481E090E066C011961C92119738
:1055D0001C9292961C92929794961C921E9293976C
:1055E00081E020C093968D919C9194970197E9F466
:1055F000603260F495966C93959795968C919597FB
:10560000882309F438C082E090E045C011961C92CE
:1056100011971C9292961C92929794961C921E92AD
:10562000939782E092968C93089593968D919C9196
:105630009497029719F58C918032B8F411968C9159
:105640001197862728E09CE880FB86950EF4892731
:105650002A95D1F711968C9311978C91FD01E80F43
:10566000F11D62838C918F5F8C939C9195968C91A8
:105670009597981718F183E090E00DC093968D915F
:105680009C9194970397D1F411968C91119786175A
:1056900039F484E090E094969C938E9393970895C8
:1056A00011961C9211971C9292961C929297949626
:1056B0001C921E92939783E092968C930895FC011E
:1056C000E60FF11D82810895E62FF0E0DC01AE0FB8
:1056D000BF1F12962C913196E80FF91F4281942F2B
:1056E00080E030E0282B392BC9010895FC0111829C
:1056F000108212A214A213A215A20895FC01118215
:10570000108212A214A213A215A20895FC0112A2E3
:1057100014A213A215A20895DC0193968D919C9179
:105720009497892B41F481E090E094969C938E931A
:10573000939725ED35C093968D919C919497019701
:1057400039F42C918C918823B9F082E090E024C048
:1057500093968D919C919497029789F495968C914C
:105760009597FD01E80FF11D22818F5F95968C932F
:1057700095979C918917A0F083E090E00DC09396D7
:105780008D919C919497039711F020E009C0119698
:105790002C91119784E090E094969C938E9393972C
:1057A000822F0895DC018C918032B8F411968C918F
:1057B0001197862728E09CE880FB86950EF48927C0
:1057C0002A95D1F711968C9311978C91FD01E80FD2
:1057D000F11D62838C918F5F8C930895DC018C9115
:1057E0008032B8F411968C911197862728E09CE8B6
:1057F00080FB86950EF489272A95D1F711968C9314
:1058000011978C91FD01E80FF11D62838C918F5FE0
:105810008C938C918032B8F411968C9111978727D4
:1058200028E09CE880FB86950EF489272A95D1F71D
:1058300011968C9311978C91FD01E80FF11D7283E5
:105840008C918F5F8C930895EF92FF920F931F932B
:10585000DC017A018B018C918032B8F411968C9125
:105860001197842728E09CE880FB86950EF4892711
:105870002A95D1F711968C9311978C91FD01E80F21
:10588000F11D42838C918F5F8C938C918032D8F480
:105890005527412F302F2F2D11968C91119782274C
:1058A00038E09CE880FB86950EF489273A95D1F77D
:1058B00011968C9311978C91FD01E80FF11D2283B5
:1058C0008C918F5F8C938C918032D0F49801442717
:1058D000552711968C911197822738E09CE880FB20
:1058E00086950EF489273A95D1F711968C931197E6
:1058F0008C91FD01E80FF11D22838C918F5F8C93B9
:105900008C918032D8F4212F3327442755271196C4
:105910008C911197822738E09CE880FB86950EF4E5
:1059200089273A95D1F711968C9311978C91FD01A7
:10593000E80FF11D22838C918F5F8C931F910F9143
:10594000FF90EF900895FC01118210820895FC01F0
:1059500042835383648375830895FC01128213820A
:10596000148215821682178210861186128613867B
:105970001486158616861786108A118A128A138A4B
:10598000148A158A168A178A108E118E80E197E282
:10599000A0E0B0E0848F958FA68FB78F11A210A2E0
:1059A0000895FC01718360830E94AD2C08951F93BC
:1059B000CF93DF93EC01162F8A8D288139818823BC
:1059C00021F0C9010E94932F03C0C9010E94732FC7
:1059D000282F8823C1F48C8D9D8DAE8DBF8D8C5F5B
:1059E0009642A040B0400CF063C048A159A18A8DF6
:1059F000882319F483E090E002C082E090E0481729
:105A0000590709F055C088A199A1019741F01123C8
:105A100009F455C088A199A1892B09F050C080E1F3
:105A200097E2A0E0B0E08C8F9D8FAE8FBF8F1123E7
:105A300011F08A8D01C08B8D882319F082E090E0EF
:105A400002C083E090E099A388A32AC088A199A10D
:105A5000029739F48A8D882319F588A199A10397B3
:105A6000F9F08C8D9D8DAE8DBF8D181619061A0616
:105A70001B06B4F48C8D9D8DAE8DBF8D0197A10951
:105A8000B1098C8F9D8FAE8FBF8F20E00AC080E15F
:105A900097E2A0E0B0E08C8F9D8FAE8FBF8F01C0EA
:105AA00021E08A8D8B8F822FDF91CF911F910895F6
:105AB00081E090E099A388A3112349F3F2CF8A8D66
:105AC000882341F2C3CFEF92FF920F931F93CF939E
:105AD000DF93EC017A018B018E899F89A88DB98DA6
