:100000000C949D0F0C94CC0F0C94CC0F0C94CC0F33
:100010000C94CC0F0C94CC0F0C94CC0F0C94CC0FF4
:100020000C94CC0F0C94CC0F0C94CC0F0C94CC0FE4
:100030000C94CC0F0C94CC0F0C94CC0F0C942B3450
:100040000C94CC0F0C94CC0F0C94CC0F0C94CC0FC4
:100050000C94CC0F0C9419350C94CC0F0C94CC0F41
:100060000C94CC0F0C9448790C94CC0F0C947479AC
:100070000C94CC0F0C9432540C94CC0F0C94CC0FE9
:100080000C9427310C94CC0F0C94CC0F0C94CC0F07
:100090000C94CC0F0C94CC0F0C94CC0F0C94CC0F74
:1000A0000C94CC0F0C94CC0F0C94CC0F0C94CC0F64
:1000B0000C94CC0F0C94CC0F0C94CC0F0C94CC0F54
:1000C0000C94CC0F0C94CC0F0C94CC0F0C94CC0F44
:1000D0000C94CC0F0C94CC0F0C94CC0F0C94CC0F34
:1000E0000C94CC0FBC28DD28E128F8284C2A4C2A97
:1000F0004C2A4C2A4C2A4C2A4C2A4C2A2629422982
:100100004C2A4C2A4C2A4C2A4C2A4C2A4C2A4C2A3F
:10011000502921294C2A15291B294C2A4C2A4C2AC2
:1001200067294C2A71298829C62892299D29E02906
:10013000882ABD2AC22AA72ACC2A3F2B3F2BA72ACE
:10014000EF2A3F2BF32AF82A0D2B122BD62ADB2A73
:10015000E52AA72AEA2A3F2B8D2AD12A172B3F2BE3
:100160003F2B1C2B546865205265706C6963617469
:10017000307200950000000548656174696E672063
:10018000666F722020202020202020200095030070
:10019000000520202066696C616D656E74207265B3
:1001A0006C6561736500890899000000004368610F
:1001B0006E67652046696C616D656E74009600FF20
:1001C00088000302E100860087006400FFFF9500BD
:1001D00000005A456A656374696E672046696C6100
:1001E0006D656E7420202000950100005A202020AB
:1001F00020202020202020202020202020202020FF
:100200002000950100005A47726173702046696CA6
:10021000616D656E7420636C6F73650095030000FB
:100220005A746F20696E70757420616E64207075E9
:100230006C6C00898888000A010388000401FF8E25
:100240000000000000000000000000004038000036
:1002500000000000804A5D051F9500000000526507
:100260006D6F7665206F6C642046696C616D656E9C
:1002700074200095010000004C6F6164206E65776A
:100280002046696C616D656E742020200095030026
:1002900000005072657373204D20746F20436F6EA1
:1002A00074696E75650094FFC80001898895000027
:1002B00000784C6F6164696E672046696C616D659A
:1002C0006E7420202020009501000078202020203E
:1002D000202020202020202020202020202020201E
:1002E00000950100007847726173702046696C6167
:1002F0006D656E7420636C6F736500950300007804
:10030000746F20696E70757420616E6420707573EF
:1003100068008E00000000000000000000000000E7
:10032000B5FFFF00000000000E27071F89088800A6
:100330000302000095000000004C6F6164696E6765
:1003400020536372697074202020202020009503C0
:10035000000000202020436F6D706C657465009470
:10036000FFFFFF019664FF9A0088000A01028800DF
:100370000401FF891F950000000548656174696EDE
:100380006720666F722020202020202020200095EA
:100390000300000520202066696C616D656E742085
:1003A00072656C65617365008910990000000043F7
:1003B00068616E67652046696C616D656E74009654
:1003C00000FF88010302E100860187016400FFFF4E
:1003D000950000005A456A656374696E6720466936
:1003E0006C616D656E7420202000950100005A201C
:1003F00020202020202020202020202020202020FD
:1004000020202000950100005A4772617370204639
:10041000696C616D656E7420636C6F736500950324
:1004200000005A746F20696E70757420616E6420CC
:1004300070756C6C00899088010A010388010401C1
:10044000FF8E00000000000000000000000000001F
:10045000000040380000804A5D051F950000000044
:1004600052656D6F7665206F6C642046696C616DB6
:10047000656E74200095010000004C6F6164206E71
:1004800065772046696C616D656E7420202000954B
:10049000030000005072657373204D20746F204379
:1004A0006F6E74696E75650094FFC8000189909540
:1004B000000000784C6F6164696E672046696C616A
:1004C0006D656E74202020200095010000782020AA
:1004D000202020202020202020202020202020201C
:1004E00020200095010000784772617370204669F2
:1004F0006C616D656E7420636C6F736500950300AD
:100500000078746F20696E70757420616E6420705D
:10051000757368008E0000000000000000000000FD
:10052000000000000000B5FFFF000E27071F891024
:1005300088010302000095000000004C6F616469AF
:100540006E67205363726970742020202020200081
:100550009503000000202020436F6D706C6574656A
:100560000094FFFFFF019664FF9A0088010A0102D0
:1005700088010401FF891F83048800000014008C97
:10058000000000000000000030F8FFFF0000000045
:10059000000000008E0000000000000000000000CD
:1005A0000000000000000000005729040018830428
:1005B000DC05000014008403690100001400901F92
:1005C000891F950000000046696E642074686520EC
:1005D00034206B6E6F6273206F6E200095010000F7
:1005E0000074686520626F74746F6E206F6620748B
:1005F0006865202020009501000000706C61746621
:100600006F726D20616E64207475726E20746F005D
:1006100095070000007469676874656E20636F6DEC
:10062000706C6574656C792E009500000000492798
:100630006D20676F696E6720746F206D6F7665201F
:1006400020200095010000007468652065787472B0
:100650007564657220746F202020202000950100B1
:100660000000766172696F757320706F73697469C9
:100670006F6E73202020009507000000666F7220C7
:1006800061646A7573746D656E742E009500000068
:1006900000496E206561636820706F736974696FCB
:1006A0006E2C2020200095010000007765207769DE
:1006B0006C6C206E65656420746F20202020200003
:1006C000950100000061646A7573742032206B6EBE
:1006D0006F62732061742020200095070000007471
:1006E00068652073616D652074696D652E009500E5
:1006F0000000004E6F7A7A6C65732061726520612C
:1007000074207468652020009501000000726967FC
:10071000687420686569676874207768656E202052
:1007200020009501000000796F752063616E206ADA
:1007300075737420736C696465206100950700000F
:10074000007368656574206F662070617065720063
:1007500095000000006265747765656E20746865B9
:10076000206E6F7A7A6C6520200095010000006190
:100770006E642074686520706C6174666F726D2E93
:100780002020200095010000004772616220612056
:100790007368656574206F6620202020200095070F
:1007A000000000706170657220746F20617373695E
:1007B00073742075732E0083048800000014008C6D
:1007C0000000000000000000000000000000000029
:1007D000000000009502000000506C656173652008
:1007E00077616974008E0000000000000000D007EF
:1007F000000000000000000000000D450300188408
:10080000036901000014008CA5310000941B000056
:10081000D00700000000000000000000950200006A
:1008200000506C656173652077616974008E00000B
:10083000000000000000D0070000000000000000E1
:1008400000001D471C00188E00000000CAE4FFFFD6
:10085000D00700000000000000000000C08C0D0068
:10086000188E00000000C9E4FFFF00000000000037
:100870000000000000000D45030018950000000076
:1008800041646A757374207468652066726F6E7453
:100890002074776F0095010000006B6E6F6273200B
:1008A000756E74696C2070617065722020200095EF
:1008B000010000006A75737420736C6964657320AD
:1008C0006265747765656E200095070000006E6FA5
:1008D0007A7A6C6520616E6420706C6174666F72E8
:1008E0006D009502000000506C65617365207761B2
:1008F0006974008E00000000CAE4FFFFD00700000A
:1009000000000000000000000D450300188EEF22DB
:100910000000CAE4FFFFD007000000000000000054
:10092000000020651100188EEF220000C9E4FFFFCF
:100930000000000000000000000000000D45030062
:1009400018950000000041646A757374207468652E
:100950002072696768742074776F00950100000049
:100960006B6E6F627320756E74696C207061706558
:10097000722020200095010000006A7573742073B6
:100980006C69646573206265747765656E20009597
:10099000070000006E6F7A7A6C6520616E642070CB
:1009A0006C6174666F726D009502000000506C659A
:1009B0006173652077616974008EF0220000CAE4DB
:1009C000FFFFD007000000000000000000000D4500
:1009D0000300188EF6DBFFFFCAE4FFFFD00700001C
:1009E0000000000000000000E0562300188EF6DB37
:1009F000FFFFC9E4FFFF000000000000000000004E
:100A000000000D45030018950000000041646A7560
:100A1000737420746865206C6566742074776F2029
:100A20000095010000006B6E6F627320756E746933
:100A30006C2070617065722020200095010000001C
:100A40006A75737420736C6964657320626574776A
:100A500065656E200095070000006E6F7A7A6C6500
:100A600020616E6420706C6174666F726D00950217
:100A7000000000506C656173652077616974008EB9
:100A8000F7DBFFFFCAE4FFFFD00700000000000013
:100A9000000000000D450300188E000000007A1AC7
:100AA0000000D007000000000000000000008A32B3
:100AB0002000188E000000007A1A000000000000DC
:100AC00000000000000000000D4503001895000024
:100AD000000041646A757374207468652062616304
:100AE0006B2074776F200095010000006B6E6F62C1
:100AF0007320756E74696C2070617065722020209F
:100B00000095010000006A75737420736C69646558
:100B100073206265747765656E200095070000009C
:100B20006E6F7A7A6C6520616E6420706C61746699
:100B30006F726D009502000000506C656173652056
:100B400077616974008E000000007A1A0000D007F7
:100B5000000000000000000000000D450300188E9A
:100B6000EF2200007A1A0000D00700000000000009
:100B70000000000020651100188EEF2200007A1A94
:100B800000000000000000000000000000000D4513
:100B9000030018950000000041646A7573742074A6
:100BA00068652072696768742074776F009501002A
:100BB00000006B6E6F627320756E74696C207061DB
:100BC0007065722020200095010000006A75737422
:100BD00020736C69646573206265747765656E2047
:100BE0000095070000006E6F7A7A6C6520616E6474
:100BF00020706C6174666F726D0095020000005089
:100C00006C656173652077616974008EEF22000066
:100C10007A1A0000D0070000000000000000000069
:100C20000D450300188E55DCFFFF7A1A0000D0072F
:100C30000000000000000000000000282300188EC3
:100C400054DCFFFF7A1A00000000000000000000E2
:100C5000000000000D4503001895000000004164ED
:100C60006A75737420746865206C65667420747787
:100C70006F200095010000006B6E6F627320756E2F
:100C800074696C20706170657220202000950100ED
:100C900000006A75737420736C6964657320626503
:100CA000747765656E200095070000006E6F7A7A94
:100CB0006C6520616E6420706C6174666F726D008B
:100CC0008E55DCFFFF7A1A0000D0070000000000FC
:100CD00000000000000D450300188E000000000019
:100CE000000000D00700000000000000000000919C
:100CF0001E1600188E00000000000000000000001A
:100D00000000000000000000000D450300189500E1
:100D1000000000506C6174652063616C69627261EF
:100D200074696F6E202020009507000000636F6DCE
:100D3000706C6574652100891F9502000000506C7D
:100D4000656173652077616974008E0000000000A2
:100D500000000060EA00000000000000000000CD7C
:100D60000B31001888000302E10095000000004CE0
:100D7000657427732072656D6F76652074686520D1
:100D8000202020009501000000626C61636B2066EA
:100D9000696C616D656E74206775696465009501A5
:100DA0000000007475626520736F207468617420A0
:100DB00077652063616E2000950700000066656519
:100DC0006420706C617374696320656173696C7908
:100DD0002E009500000000507265737320646F77D9
:100DE0006E206F6E20746865202020009501000041
:100DF00000677265792072696E67206F6E20746F6C
:100E000070206F6620009501000000746865206501
:100E10007874727564657220616E642020202000F1
:100E2000950700000070756C6C207468652067750C
:100E300069646520747562652E0095000000004E9F
:100E40006F7720666565642066696C616D656E7498
:100E50002020200095010000007468726F7567689B
:100E600020677569646520747562652020009501AE
:100E700000000066726F6D20746865206261636BAC
:100E800020756E74696C200095070000006974205D
:100E9000706F7073206F757420696E2066726F6E4C
:100EA0007400950000000049276D20686561746931
:100EB0006E67207570206D7920202000950100005C
:100EC00000657874727564657220736F2077652091
:100ED00063616E2020009501000000666565642056
:100EE0007468652066696C616D656E7420202000F1
:100EF00095070000007468726F7567682E00950092
:100F000000000A54686973206D6967687420746111
:100F10006B65206120202000950100000A6665773E
:100F2000206D696E757465732E202020202020208E
:100F30002000950100000A416E64207761746368A7
:100F4000206F75742C2074686520200095030000C4
:100F50000A6E6F7A7A6C652077696C6C20676574AD
:100F600020484F542100890899000000004368611F
:100F70006E67652046696C616D656E74009600FF52
:100F8000860087006400FFFF898895000000004FFD
:100F90004B2049276D20726561647921205075735B
:100FA00068202000950100000066696C616D656E27
:100FB0007420696E207468726F75676820009501EF
:100FC00000000074686520677265792072696E6739
:100FD00020756E74696C20009507000000746865C8
:100FE000206D6F746F722074756773206974206947
:100FF0006E0095000000644576656E7475616C6CDA
:101000007920796F75202020202020009501000094
:101010006473686F756C64207365652074686520FF
:101020002020202020009501000064706C61737402
:10103000696320657874727564696E67202020008A
:1010400095030000646F7574206F662074686520D6
:101050006E6F7A7A6C65210088000A0103880004AB
:1010600001FF8E0000000000000000000000008072
:10107000C1FFFF0000000000E1F5051F9500000022
:10108000004C6F616420706C6173746963207363DA
:101090007269707420009503000000636F6D706CBE
:1010A000657465210089088800030200009664FFCA
:1010B0009A0088000A010288000401FF891F950236
:1010C000000000506C656173652077616974008B66
:1010D000000000000000000030750000000000006B
:1010E000000000007F00000088000302E10088018A
:1010F0000302E10095000000004C65742773207224
:10110000656D6F766520746865202020200095014C
:10111000000000626C61636B2066696C616D656ED6
:10112000742067756964650095010000007475623C
:10113000657320736F207468617420776520636124
:101140006E0095070000006665656420706C617331
:1011500074696320656173696C792E0095000000E5
:1011600000507265737320646F776E206F6E207409
:1011700068652020200095010000006772657920D5
:1011800072696E6773206F6E20746F70206F6600D7
:101190009501000000746865206578747275646557
:1011A000727320616E64202020009507000000709B
:1011B000756C6C207468652067756964652074754A
:1011C0006265730095000000004E6F7720666565CC
:1011D000642066696C616D656E7420202000950145
:1011E0000000007468726F756768206775696465D0
:1011F0002074756265732000950100000066726FAF
:101200006D20746865206261636B20756E74696C13
:1012100020009507000000697420706F7073206FC4
:10122000757420696E2066726F6E74009500000000
:101230000049276D2068656174696E6720757020AC
:101240006D7920202000950100000065787472758A
:101250006465727320736F2077652063616E200070
:101260009501000000666565642074686520666904
:101270006C616D656E74202020009507000000747D
:1012800068726F7567682E00950000000A546869DF
:1012900073206D696768742074616B65206120201C
:1012A0002000950100000A666577206D696E7574EF
:1012B00065732E2020202020202020009501000092
:1012C0000A416E64207761746368206F75742C2006
:1012D000746865202000950300000A6E6F7A7A6CAE
:1012E00065732077696C6C2067657420484F5400E3
:1012F000890899000000004368616E6765204669AF
:101300006C616D656E74009600FF86008700640056
:10131000FFFF95000000004F4B2049276D207265AC
:1013200061647921202020202020200095010000E8
:10133000005765276C6C20666565642074686520BD
:10134000726967687400950700000066696C616DDA
:10135000656E742066697273742E0089889500002A
:101360000000507573682066696C616D656E74204D
:10137000696E202020200095010000007468726FC3
:10138000756768207468652072696768742020201A
:10139000009501000000677265792072696E672010
:1013A000756E74696C2074686520009507000000F4
:1013B0006D6F746F72207475677320697420696E25
:1013C0002E0095000000644576656E7475616C6C46
:1013D0007920796F752020202020200095010000C1
:1013E0006473686F756C642073656520746865202C
:1013F0002020202020009501000064706C6173742F
:10140000696320657874727564696E6720202000B6
:1014100095030000646F7574206F66207468652002
:101420006E6F7A7A6C65210088000A0103880004D7
:1014300001FF8E000000000000000000000000809E
:10144000C1FFFF0000000000E1F5051F89089500BD
:101450000000004E6F77207765276C6C206665650D
:101460006420202020202000950100000066696C87
:10147000616D656E7420666F72206D79206C656693
:1014800074009507000000657874727564657200D9
:101490009500000000507573682066696C616D6589
:1014A0006E7420696E2020202000950100000074D9
:1014B00068726F75676820746865206C6566742053
:1014C0002020200095010000006772657920726974
:1014D0006E6720756E74696C2074686520009507CE
:1014E0000000006D6F746F722074756773206974EB
:1014F00020696E2E00899095000000644576656E27
:101500007475616C6C7920796F7520202020202003
:1015100000950100006473686F756C6420736565E5
:1015200020746865202020202020009501000064A0
:10153000706C617374696320657874727564696E28
:10154000672020200095030000646F7574206F668B
:1015500020746865206E6F7A7A6C6521008E0000B9
:10156000000000000000000000000000000080C13A
:10157000FFFF00E1F5051F95000000004C6F61645E
:1015800020706C6173746963207363726970742076
:10159000009503000000636F6D706C657465210039
:1015A000891088010302000088000302000096648D
:1015B000FF9A0088000A010288000401FF891F02C7
:1015C0000202024B00B2057707850301054E6F202A
:1015D0005344206361726420666F756E64006578A1
:1015E0006974206D656E75006D616B6572626F74F4
:1015F0002E636F6D2F7265705344202000726571E9
:1016000075697265642E2020536565202020202096
:1016100020004D616B6572426F7420736372697054
:1016200074732069732000416E20534420636172FB
:101630006420776974682020202020004C454420D5
:10164000436F6C6F72202020202000536F756E64F2
:1016500000546F6F6C20436F756E74200052657379
:10166000746F72652044656661756C7473004765BC
:101670006E6572616C2053657474696E6773005097
:101680007265686561742053657474696E67730070
:1016900053746F7020426C696E6B696E67210042F3
:1016A0006C696E6B204C4544732020202020202044
:1016B000004C6576656C204275696C6420506C61E5
:1016C000746500456E61626C652053746570706569
:1016D000727320200044697361626C6520537465E5
:1016E00070706572730052756E20537461727475F8
:1016F0007020536372697074004C6F616420466996
:101700006C616D656E74004C6F61642046696C613C
:101710006D656E74204C656674004C6F6164204684
:10172000696C616D656E7420526967687400486FFA
:101730006D652041786573004A6F67204D6F646561
:10174000004D6F6E69746F72204D6F646500557443
:10175000696C6974696573005072656865617400CD
:101760005072696E742066726F6D20534400596523
:1017700073004E6F0043616E63656C203F005965D6
:1017800073004E6F0044656661756C742076616C01
:101790007565733F00526573657420536574746991
:1017A0006E677320746F2000506C6174666F726D89
:1017B0002020202020202020004C65667420546FBB
:1017C0006F6C202020202020202020202000526923
:1017D00067687420546F6F6C202020202020202008
:1017E00020200050726568656174205365747469C7
:1017F0006E67732020202000202020202020202021
:101800002020202020202020202020200045787427
:1018100072756465723A2020202D2D2D2F2D2D2DCF
:101820004300506C6174666F726D3A2020202D2D3C
:101830002D2F2D2D2D43004C65667420546F6F6C39
:101840003A20202D2D2D2F2D2D2D43005269676814
:101850007420546F6F6C3A202D2D2D2F2D2D2D437C
:1018600000202D2D250047414D45204F5645522142
:101870000020202020202020205A2B202020202043
:1018800020202020200020203C2D59202842616368
:101890006B29202020202020202000202020202014
:1018A0002020205A2D202020202020202020200011
:1018B0002020202020202020592D202020202020E2
:1018C000202020200020203C2D5820284261636BDE
:1018D0002920205A2D3E20202000202020202020BA
:1018E0002020592B202020202020202020200020D4
:1018F00020202020202020582D20202020202020A3
:1019000020202000202020202020284261636B29F5
:10191000202020592D3E2020002020202020202083
:1019200020582B2020202020202020202000202094
:101930002020204A6F67206D6F64652020202020C2
:1019400020200053494E474C4520657874727564D9
:101950006572004455414C206578747275646572F7
:101960000073696E676C6520657874727564657262
:101970003F00446F204920686176652061206475CE
:10198000616C206F7220004E6F00596573006865AE
:101990006967687420316D6D206F72206C65737398
:1019A00000497320746865206E6F7A7A6C650059FF
:1019B000657321004E6F005072696E743F00417272
:1019C0006520796F7520526561647920746F0057C6
:1019D00065276C6C20676F20746F20746865206DBC
:1019E00061696E6D656E752E20496620796F752070
:1019F0006E65656420202068656C7020676F2074B8
:101A00006F3A2020202020202020206D616B6572FD
:101A1000626F742E636F6D2F68656C7020200041BB
:101A20007765736F6D6521202020202020202020E5
:101A30002020205765276C6C20676F20746F2074FE
:101A40006865205344202063617264204D656E7583
:101A500020616E6420796F7520202063616E207391
:101A6000656C6563742061207072696E7421005723
:101A700065276C6C206B65657020676F696E6720E9
:101A8000202020616E64206C6F616420736F6D652F
:101A900020202020202020706C6173746963212035
:101AA000466F722068656C7020676F746F206D617F
:101AB0006B6572626F742E636F6D2F68656C70005A
:101AC0005765276C6C2074727920616761696E219B
:101AD0002020202020202020202020202020202006
:101AE00020202020202020202020202020202020F6
:101AF00020202020202020202020202020202020E6
:101B000020202020202020202020202020202000F5
:101B1000416161682C2074686174206665656C732E
:101B2000202020206D756368206265747465722EB4
:101B300020202020202020204C6574277320676FF0
:101B4000206F6E20616E64206C6F6164736F6D65D1
:101B500020706C6173746963212020202020200094
:101B6000477265617421204C657427732067657422
:101B7000206D79206275696C6420706C6174666F89
:101B8000726D2061732020206C6576656C20617316
:101B900020706F737369626C65202020666F7220FD
:101BA0006E696365207072696E7473212020200055
:101BB0004F7572206E65787420737465707320772A
:101BC000696C6C20676574206D6520736574207581
:101BD0007020746F202020207072696E7421202084
:101BE00020202020202020202020202020202020F5
:101BF0002020202020202020202020202020200005
:101C00005573652074686520757020616E6420646A
:101C10006F776E206172726F777320746F206E61C0
:101C200076696761746520206265747765656E20EA
:101C300063686F696365732E202020202020202098
:101C40002020202020202020202020202020202094
:101C50000055736520746865206C65667420617238
:101C6000726F772020746F20676F206261636B2032
:101C70006F722063616E63656C202020202020201D
:101C80002020202020202020202020202020202054
:101C90002020202020202020202020202020202044
:101CA000200054686520274D2720616C736F206DDC
:101CB00065616E7320202773656C65637427206FE0
:101CC000722027796573272E2020202020202020B5
:101CD0002020202020202020202020202020202004
:101CE00020202020202020202020202020202020F4
:101CF0002020004120626C696E6B696E6720274D61
:101D000027206D65616E7349276D2077616974695D
:101D10006E6720616E642077696C6C636F6E7469A6
:101D20006E7565207768656E20796F75202020704C
:101D3000726573732074686520627574746F6E2E9B
:101D40002020200057656C636F6D652120202020C6
:101D5000202020202020202049276D207468652025
:101D60005265706C696361746F722E205072657376
:101D7000732074686520726564204D20746F202084
:101D8000676574207374617274656421202020205B
:101D90002020202000457874727564657200506CB4
:101DA0006174666F726D004C65667420546F6F6C61
:101DB00000526967687420546F6F6C0050726568D8
:101DC0006561742100202020202020202020202058
:101DD000202020202020202020004865617465728A
:101DE0007320617265206E6F7420202020200063B4
:101DF0006F6E6E656374656420636F727265637481
:101E00006C79200020202020535543434553532113
:101E10002020202020202020002020202046414972
:101E20004C212020202020202020202020002020A5
:101E300020207365636F6E64732020202020202093
:101E40002020005468697320746573742074616B7A
:101E500065732074656E200050726573732043654E
:101E60006E74657220746F20517569740020202093
:101E70004865617465722054657374204F6E20202C
:101E800020004669726D77617265205665727369CC
:101E90006F6E20342E2000202020202D2D2D2D2D62
:101EA0002D2D2D2D2D202020202020002020546895
:101EB00065205265706C696361746F722020202008
:101EC0000020202020202020202020202020202032
:101ED000202020202000010049033600FF006B0075
:101EE000D100A000B800D500A6000A0199003F016A
:101EF0008E0074018400A9017C00DE0174001302CD
:101F00006C00480265007D025D00B2025600E702E7
:101F10004E001C03460051033D0086033200BB0304
:101F20002200F0030300E41E7521DA2CA4359D374E
:101F3000063F7642A854C25BA67911241FBECFEF9C
:101F4000D1E2DEBFCDBF16E0A0E0B2E0E6ECF6EFF6
:101F500000E00BBF02C007900D92AA3DB107D9F770
:101F600011E1AAEDB6E001C01D92A13BB107E1F776
:101F70001FE1CAE3DFE100E006C022970109FE018C
:101F80000BBF0E94687AC632D10780E00807A9F724
:101F90000E940B2D0C94617B0C940000EF92FF9239
:101FA0000F931F937B018C0120E030E040E05FE461
:101FB0000E94CC1287FD11C0C801B70120E030E0BB
:101FC00040E05FE40E9471110E945C139B01AC0130
:101FD000205030404040504806C0C801B7010E9420
:101FE0005C139B01AC01B901CA011F910F91FF90D5
:101FF000EF900895A0E0B0E0E0E0F0E10C94357AD5
:10200000FC01EA018081823008F438C1DB019C9137
:10201000923008F430C1843059F4943009F02EC164
:10202000918111968C911197981709F021C126C1C1
:10203000943009F420C19230B1F4823009F01EC10D
:10204000CA01AF0128E0DA010D90AD01DC010D926B
:10205000CD012150C1F7DB0111968C91119791812F
:10206000892389830AC1823009F405C1C280D380E3
:10207000DB0112966D907C90139724813581468107
:1020800057811496ED90FD900D911C911797C60104
:10209000861997095C0197FF04C0AA24BB24A81ADB
:1020A000B90AB0E2AB16B1040CF061C018161906FB
:1020B0006CF5370148010A2C04C0969487947794F4
:1020C00067940A94D2F781E090E0A0E0B0E00A2C97
:1020D00004C0880F991FAA1FBB1F0A94D2F701974B
:1020E000A109B1098E219F21A023B123EE24FF2451
:1020F0008701E3940097A105B10519F4EE24FF24AC
:102100008701E628F728082919293CC00097D1F152
:10211000CA0CDB1C39014A010A2C04C0969487942E
:10212000779467940A94D2F781E090E0A0E0B0E061
:102130000A2C04C0880F991FAA1FBB1F0A94D2F74C
:102140000197A109B10982239323A423B52321E098
:1021500030E040E050E00097A105B10519F420E01F
:1021600030E0A90126293729482959290BC06C14C8
:102170007D0424F4EE24FF24870104C0630120E0E1
:1021800030E0A9018181FB019181891709F445C0E3
:10219000882349F0D801C701821B930BA40BB50B10
:1021A0009C01AD0104C02E193F09400B510B57FD96
:1021B00004C01982DB82CA820BC081E08983DB8282
:1021C000CA8250954095309521953F4F4F4F5F4FB4
:1021D0002C833D834E835F830DC0880F991FAA1FF8
:1021E000BB1F8C839D83AE83BF838A819B810197B4
:1021F0009B838A838C819D81AE81BF819C01AD01CF
:1022000021503040404050402F3FEFEF3E07EFEF6E
:102210004E07EFE35E0708F30BC08983DB82CA82B7
:102220002E0D3F1D401F511F2C833D834E835F8326
:1022300083E088832C813D814E815F8157FF1DC0E3
:10224000DA01C90181709070A070B0705695479501
:1022500037952795822B932BA42BB52B8C839D83AD
:10226000AE83BF838A819B8101969B838A8305C04D
:10227000EAECF3E003C0FB0101C0FE01CF01CDB7E2
:10228000DEB7EEE00C94517AA0E2B0E0EAE4F1E1CE
:102290000C943D7A69837A838B839C832D833E8360
:1022A0004F83588789E0E82EF12CEC0EFD1ECE01FD
:1022B0000196B7010E944E158E010F5E1F4FCE0191
:1022C0000596B8010E944E15C701B801AE01475EE0
:1022D0005F4F0E94FA0F0E948014A096E6E00C94D3
:1022E000597AA0E2B0E0E7E7F1E10C943D7A698326
:1022F0007A838B839C832D833E834F8358878E0103
:10230000075F1F4FCE010196B8010E944E1591E163
:10231000E92EF12CEC0EFD1ECE010596B7010E94B0
:102320004E158A8991E089278A8BC801B701AE01D1
:10233000475E5F4F0E94FA0F0E948014A096E6E06D
:102340000C94597AA0E2B0E0E8EAF1E10C94317A19
:1023500069837A838B839C832D833E834F83588745
:10236000CE010196BE01675F7F4F0E944E15CE01E0
:102370000596BE016F5E7F4F0E944E159985923083
:1023800078F089898230C0F0943019F4823041F4B9
:10239000CBC0843019F4923079F4C6C0923051F435
:1023A00081E02A859A89291709F480E08A87CE017D
:1023B0000996BCC0823051F481E02A859A89291798
:1023C00009F480E08A8BCE014196B0C06D847E8492
:1023D0008F849888ED88FE880F89188DE0E2F0E000
:1023E00080E090E0DC01AA24BB24650120E030E01D
:1023F000A901B3016170707061157105D1F02E0DE6
:102400003F1D401F511F15012601280E391E4A1E6F
:102410005B1E81E090E0A0E0B0E02E153F05400794
:10242000510718F080E090E0DC01820D931DA41D9F
:10243000B51DAA0CBB1CCC1CDD1C17FF09C061E03C
:10244000262E312C412C512CA228B328C428D52863
:10245000319749F0EE0CFF1C001F111F96948794D2
:1024600077946794C6CF6B897C89EB85FC856E0F6A
:102470007F1F6E5F7F4F7C8F6B8F61E0EA857A896B
:10248000E71709F460E06A8F6B8D7C8D10C0FC014A
:10249000E170F070309729F056954795379527955C
:1024A0005068B695A795979587956F5F7F4FB7FD55
:1024B000EECF0CC0880F991FAA1FBB1F57FD81606C
:1024C000220F331F441F551F615070408030E0E0E1
:1024D0009E07E0E0AE07E0E4BE0760F36B8F7C8F01
:1024E0006FE7E62EF12C012D112DE822F9220A23A7
:1024F0001B2360E4E616F1040105110561F487FD74
:102500000AC0211531054105510529F0805C9F4F16
:10251000AF4FBF4F80788D8F9E8FAF8FB8A383E072
:10252000898FCE01499602C08AEC93E00E94801404
:10253000A096E2E10C944D7AA8E1B0E0E2EAF2E183
:102540000C943D7A69837A838B839C832D833E83AD
:102550004F8358878E01075F1F4FCE010196B80148
:102560000E944E1581E1E82EF12CEC0EFD1ECE01ED
:102570000596B7010E944E158985823040F0898901
:10258000823028F0C801B7010E94B71501C081E070
:102590006896E6E00C94597AA8E1B0E0E2EDF2E149
:1025A0000C943D7A69837A838B839C832D833E834D
:1025B0004F8358878E01075F1F4FCE010196B801E8
:1025C0000E944E1581E1E82EF12CEC0EFD1ECE018D
:1025D0000596B7010E944E158985823040F08989A1
:1025E000823028F0C801B7010E94B71501C08FEFF3
:1025F0006896E6E00C94597AA8E0B0E0E2E0F3E1F6
:102600000C943D7A7B018C0183E08983D801C7015A
:102610008827B7FD83959927AA27BB27282F8A8368
:10262000E114F1040105110519F482E0898337C032
:102630008EE190E09C838B83222389F080E0E81672
:1026400080E0F80680E0080780E8180769F1109537
:102650000095F094E094E11CF11C011D111DED8228
:10266000FE820F831887C801B7010E9426149C01BF
:10267000215030401216130694F4022E04C0EE0CC2
:10268000FF1C001F111F0A94D2F7ED82FE820F83F8
:1026900018878EE190E0821B930B9C838B83CE0185
:1026A00001960E94801404C060E070E080E09FEC1E
:1026B0002896E6E00C94597AACE0B0E0E2E6F3E16B
:1026C0000C94417A69837A838B839C83CE01019633
:1026D000BE016B5F7F4F0E944E158D81823081F16C
:1026E000823070F1843021F48E81882369F10AC030
:1026F0002F81388537FD24C06E812F3131053CF0A4
:10270000662311F120E030E040E050E821C08EE186
:1027100090E0821B930B29853A854B855C8504C02C
:1027200056954795379527958A95D2F7662381F078
:1027300050954095309521953F4F4F4F5F4F08C0C2
:1027400020E030E0A90104C02FEF3FEF4FEF5FE73B
:10275000B901CA012C96E2E00C945D7AA8E0B0E0E1
:10276000E4EBF3E10C943B7A7B018C011A82611556
:1027700071058105910519F482E089835FC083E0CA
:1027800089838EE1C82ED12CDC82CB82ED82FE8241
:102790000F831887C801B7010E942614FC013197E6
:1027A000F7FF3AC0AA27BB27AE1BBF0B21E030E0E2
:1027B00040E050E00A2E04C0220F331F441F551F73
:1027C0000A94D2F721503040404050402E213F2102
:1027D0004023512361E070E080E090E02115310555
:1027E0004105510519F460E070E0CB0104C0169575
:1027F0000795F794E794AA95D2F7E62AF72A082BCB
:10280000192BED82FE820F8318878EE190E08E1BDC
:102810009F0B9C838B8312C0309781F00E2E04C0D7
:10282000EE0CFF1C001F111F0A94D2F7ED82FE82EE
:102830000F831887CE1ADF0ADC82CB82CE01019685
:102840000E9480142896E8E00C94577AAF92BF92C9
:10285000CF92DF92EF92FF920F931F937B018C0137
:1028600080E0E81680E0F80681E0080780E01807BD
:1028700058F4EFEFEE16F1040105110509F090F49C
:1028800080E090E0DC0117C0F0E0EF16F0E0FF061A
:10289000F0E00F07F1E01F0750F480E190E0A0E0C6
:1028A000B0E009C088E090E0A0E0B0E004C088E1BA
:1028B00090E0A0E0B0E020E230E040E050E0281BF3
:1028C000390B4A0B5B0B5701680104C0D694C794BF
:1028D000B794A7948A95D2F7D601C5018E529C4F22
:1028E000FC018081281B310941095109C9011F914F
:1028F0000F91FF90EF90DF90CF90BF90AF90089531
:10290000EF92FF920F931F93CF93DF93FC012481EB
:1029100035814681578161818081823020F4406118
:10292000EFEFF0E0A3C0843009F49BC0823009F4DB
:1029300092C0211531054105510509F48FC002806F
:10294000F381E02D8FEFE238F8070CF05AC0C2E8AF
:10295000DFEFCE1BDF0BCA31D1056CF579018A019F
:102960000C2E04C016950795F794E7940A94D2F7B5
:1029700081E090E0A0E0B0E00C2E04C0880F991F29
:10298000AA1FBB1F0A94D2F70197A109B10982239C
:102990009323A423B52321E030E040E050E00097EA
:1029A000A105B10519F420E030E0A9012E293F2945
:1029B000402B512B03C020E030E0A901DA01C9010E
:1029C0008F779070A070B07080349105A105B1052B
:1029D00039F427FF09C0205C3F4F4F4F5F4F04C0C1
:1029E000215C3F4F4F4F5F4FE1E0F0E0203080E04F
:1029F000380780E0480780E4580728F5E0E0F0E079
:102A000022C0E038F1056CF5E158FF4FDA01C90149
:102A10008F779070A070B07080349105A105B105DA
:102A200039F427FF09C0205C3F4F4F4F5F4F04C070
:102A3000215C3F4F4F4F5F4F57FF05C0569547955D
:102A400037952795319687E0569547953795279581
:102A50008A95D1F70BC0E0E0F0E005C0E0E0F0E0DF
:102A600005C0EFEFF0E020E030E0A9018E2F879560
:102A700088278795942F9F77679566276795E695B2
:102A8000E22EA92FA82BFE2FF62B622F732F8A2F51
:102A90009F2FCDB7DEB7E6E00C94597ADC01FB013D
:102AA0002C9111963C91119712968C911297482F68
:102AB0004F7750E0982F991F9927991F13966C9183
:102AC0001397862F880F892B90E0661F6627661F55
:102AD0006183009739F5211531054105510511F440
:102AE00082E029C082E89FEF9383828367E0220F10
:102AF000331F441F551F6A95D1F783E0808309C0B7
:102B0000220F331F441F551F8281938101979383A6
:102B10008283203080E0380780E0480780E458074F
:102B200078F320C08F3F910579F4211531054105D7
:102B3000510519F484E08083089544FF03C081E0C7
:102B4000808310C010820EC08F5790409383828381
:102B500083E0808387E0220F331F441F551F8A952F
:102B6000D1F7506424833583468357830895FC014D
:102B7000DB019081923008F449C08C91823008F4D6
:102B800045C0943051F461818430B1F511962C9197
:102B9000119730E0261B310941C0843021F092307A
:102BA00041F48230B1F111968C9111978823A1F1F3
:102BB0002DC06181823001F111968C9111976817B7
:102BC000D9F42281338112968D919C9113978217AB
:102BD000930794F028173907BCF02481358146818A
:102BE000578114968D919D910D90BC91A02D8217C7
:102BF0009307A407B50718F4662341F00DC0281702
:102C000039074A075B0728F4662331F021E030E0FA
:102C100005C020E030E002C02FEF3FEFC90108956A
:102C20001092DC06E4E0F1E080818F718083E5E0C2
:102C3000F1E080818F71808308956F927F928F92EF
:102C40009F92AF92BF92CF92DF92EF92FF920F933B
:102C50001F93DF93CF93CDB7DEB7A8970FB6F89445
:102C6000DEBF0FBECDBF8C01FC018181882309F03E
:102C7000CDC08281882309F4BAC0C80102960E949F
:102C80004978882309F4C2C0B2C08091DA0688234B
:102C9000E9F4C8010C9640E856E968E970E00E9442
:102CA0002C7881E08093DA0611C07E010894E11C43
:102CB000F11CC7010E942878D8011C96F7018AE010
:102CC00001900D928150E1F71092DA063CE0E32E7C
:102CD000F12CE00EF11EC7010E944978882399F07B
:102CE00085E0F801808381E081838E01055F1F4FBD
:102CF000C8010E942878D701F8018AE001900D925E
:102D00008150E1F783C0A1FC10C08091DB068823CD
:102D1000F1F4C801469640E856E968E970E00E947F
:102D20002C7881E08093DB0612C025E1E22EF12CA5
:102D3000EC0EFD1EC7010E942878D8015696F701B7
:102D40008AE001900D928150E1F71092DB0696E146
:102D5000E92EF12CE00EF11EC7010E94497888236C
:102D600099F086E0F801808381E081838E01015E25
:102D70001F4FC8010E942878D701F8018AE001900E
:102D80000D928150E1F742C06090DC06D61461F1EB
:102D90006D24EE24FF247724CC24C39493010E2CBD
:102DA00002C0359527950A94E2F720FF16C09501D9
:102DB0000E2C02C0359527950A94E2F720FD0DC030
:102DC000F8018181882349F4E082C182C40140E492
:102DD00052E460E070E00E942C780894E11CF11C41
:102DE000F5E0EF16F104D1F6D092DC060FC082E0D8
:102DF000882E912C800E911EC4010E946F78D09075
:102E00000301AD2CBB24D0FE40CF4FCFA8960FB608
:102E1000F894DEBF0FBECDBFCF91DF911F910F9110
:102E2000FF90EF90DF90CF90BF90AF909F908F90EA
:102E30007F906F900895FC01DB01F894818190816F
:102E400011827894882321F09C9311961C921197FB
:102E500008958FE18093DC0608958091DF089091BA
:102E6000E008009729F481E08093E60880E0089567
:102E70008091E1089091E2082091DD083091DE0810
:102E8000B9010E94CD79E091E308F091E408E80FE0
:102E9000F91F8091E1089091E2080196B9010E9422
:102EA000CD799093E2088093E1088091DF089091BA
:102EB000E00801979093E0088093DF0880810895EF
:102EC000462FFC0162816F700E9493540895F8941C
:102ED0008091DF089091E0082091DD083091DE08B4
:102EE000281B390B7894C90108958093E808089548
:102EF00081E08093E90808958091E8080895209181
:102F0000DF083091E00881E02115310509F080E00B
:102F100008950E942D1708951F930E942D17182FB2
:102F20000E942D17982F812F1F9108951F93DF93D3
:102F3000CF9300D0CDB7DEB70E942D178A830E94B1
:102F40002D1789830E942D17182F0E942D17982F57
:102F50006A817981812F0F900F90CF91DF911F911E
:102F600008951092E0081092DF081092E208109283
:102F7000E1081092E5081092E6081092EB08109212
:102F8000EA08089581E02091EA083091EB082630A4
:102F9000310509F080E00895EF92FF920F931F939F
:102FA000DF93CF93CDB7DEB728970FB6F894DEBF87
:102FB0000FBECDBF0E942D1788870E942D178F83CB
:102FC0000E942D179F812885993009F4A4C09A305A
:102FD00090F4953009F49FC0963030F49330F1F0BE
:102FE000943009F09FC097C0973009F497C098308B
:102FF00008F091C093C09C3061F19D3038F49A3054
:1030000009F453C09B3009F08DC06CC09731D1F0EA
:103010009F31F1F19D3009F085C02FC0213019F0AA
:10302000222331F009C093EAE92E9AE0F92E04C078
:103030008DE3E82E8AE0F82E0E948C17BC01C701B0
:10304000409630C08091E80891E089278093E80895
:1030500067C0213019F0222321F005C003EA1AE0ED
:1030600002C00DE31AE00E948917682F70E06170BA
:103070007070C8010E943A2453C00E948917682FBB
:1030800070E06170707083E999E00E947B3548C000
:1030900083E999E061E00E9476350E948C17BC01BB
:1030A0008DEC9CE00E9451573BC08091381190916B
:1030B00039119A8389838B81807F81608B83CE01D4
:1030C000019661E00E9460170E942D1721E030E018
:1030D0003093EB082093EA08682F70E061707070FD
:1030E00084E016C080913811909139119D838C83B2
:1030F0008E81807F81608E83CE01049661E00E9484
:1031000060170E942D17682F70E06170707083E067
:103110000E94DD4105C00E942D1702C00E94961733
:1031200081E001C080E028960FB6F894DEBF0FBEA4
:10313000CDBFCF91DF911F910F91FF90EF90089538
:10314000FC01462F82819381208131818217930770
:10315000A0F46281738184819581860F971FB901E4
:103160000E94CD79A681B781A80FB91F4C938281A7
:103170009381019693838283089581E080870895E7
:10318000682F8DED98E00E94A01808952F923F922D
:103190004F925F926F927F928F929F92AF92BF9267
:1031A000CF92DF92EF92FF920F931F93DF93CF9313
:1031B000CDB7DEB7CF5AD0400FB6F894DEBF0FBE02
:1031C000CDBF0E94ED3B882309F18091DF089091EB
:1031D000E0082091DD083091DE082817390709F44E
:1031E000CDC50E94343C882309F4C8C50E94373CF1
:1031F000682F8DED98E00E94A018E7CF8091DF083E
:103200009091E008009711F40E94463C0E94D5423C
:10321000882309F18091DF089091E0082091DD0872
:103220003091DE082817390709F4AEC50E94D8424C
:10323000882309F4A9C50E94E642682F8DED98E025
:103240000E94A018E7CF8091DF089091E0080097D6
:1032500011F40E943D438091E808882309F09AC543
:103260008091E908882309F095C58091EA0890913A
:10327000EB088330910581F40E940B3F882341F0D5
:1032800086EF98E00E944978882331F00E94673FDA
:103290001092EB081092EA088091EA089091EB08EE
:1032A0008130910541F40E940B3F882321F4109254
:1032B000EB081092EA088091EA089091EB088230BE
:1032C000910551F48CEE98E00E944978882321F012
:1032D0001092EB081092EA088091EA089091EB08AE
:1032E00084309105E1F480E099E00E9449788823D8
:1032F00091F48091E708813019F0882321F005C00E
:1033000003EA1AE002C00DE31AE0C80140960E94E9
:103310005557882321F01092EB081092EA0880910B
:10332000EA089091EB088530910581F480E099E0FE
:103330000E944978882331F48DEC9CE00E94555717
:10334000882321F01092EB081092EA088091EA0895
:103350009091EB088630910561F58AE099E00E9432
:103360004978882351F08091150981FF1EC083E9B7
:1033700099E060E00E94B7321CC08CE39BE00E94A1
:10338000BA5B8823B1F08091150982FF04C08CE3F9
:103390009BE00E94135A83E999E060E070E040E00E
:1033A00050E00E9487310E94EE391092EB08109293
:1033B000EA088091EA089091EB08009709F0EAC4C6
:1033C0008091DF089091E008009709F4E3C483E955
:1033D00099E00E941E318091E1089091E2082091CD
:1033E000DD083091DE08E091E308F091E408B901CE
:1033F0000E94CD798E0F9F1FDC010C910138F1F5F1
:103400008091DF089091E0088131910508F4C2C4F1
:103410000E942D1781E090E09093EB088093EA08DA
:103420000E9496176B017C010E9496171B012C01CC
:103430000E9496173B014C010E949617CB55DF4F17
:10344000688379838A839B83C55AD04019E1A12E72
:10345000B12CAC0EBD1EC501B701A60192018101C0
:10346000740163010E941338C501CB55DF4F4881B9
:1034700059816A817B81C55AD04074C00B3809F0EC
:1034800074C08091DF089091E0088931910508F4BB
:1034900081C40E942D1781E090E09093EB08809307
:1034A000EA080E9496174B015C010E9496178B0157
:1034B0009C01C255DF4F2883CE5AD040C155DF4F03
:1034C0003883CF5AD0400E9496171B012C010E94CE
:1034D0009617CB55DF4F688379838A839B83C55AC0
:1034E000D0400E9496176B017C010E949617C75529
:1034F000DF4F688379838A839B83C95AD04000D089
:1035000000D0BDE26B2E712C6C0E7D1EEDB7FEB7A8
:10351000C182D282E382F482C301B501A401C25503
:10352000DF4F2881CE5AD040C155DF4F3881CF5A66
:10353000D04072016101CB55DF4F88809980AA800D
:10354000BB80C55AD0400E94DF370F900F900F907C
:103550000F90C301C755DF4F488159816A817B8134
:10356000C95AD0400E94EC3F15C40E3809F082C001
:103570008091DF089091E0088A31910508F40AC42F
:103580000E942D1781E090E09093EB088093EA0869
:103590000E9496174B015C010E9496178B019C01BB
:1035A000C255DF4F2883CE5AD040C155DF4F3883F4
:1035B000CF5AD0400E9496171B012C010E949617EB
:1035C000CB55DF4F688379838A839B83C55AD0406C
:1035D0000E9496176B017C010E949617C755DF4F1A
:1035E000688379838A839B83C95AD0400E94891754
:1035F000C355DF4F8883CD5AD04000D000D0A1E41E
:103600006A2E712C6C0E7D1EADB7BEB71196CD9291
:10361000DD92ED92FC921497C301B501A401C2554D
:10362000DF4F2881CE5AD040C155DF4F3881CF5A65
:10363000D04072016101CB55DF4F88809980AA800C
:10364000BB80C55AD0400E94DF370F900F900F907B
:103650000F90C301C755DF4F488159816A817B8133
:10366000C95AD040C355DF4F2881CD5AD0400E945F
:10367000B44090C3063879F48091DF089091E00857
:103680008230910508F486C30E942D170E942D17E1
:103690008093E7087FC3093839F58091DF0890915E
:1036A000E0088230910508F475C30E942D170E942E
:1036B0002D17A82EAA1CAA24AA1C00E010E0C82ED0
:1036C000DD24C601002E02C0959587950A94E2F785
:1036D00080FF04C0802F6A2D0E94DD410F5F1F4FC5
:1036E0000530110571F756C3023821F58091DF08C6
:1036F0009091E0088D30910508F44CC30E942D177D
:103700000E9496173B014C010E9496171B012C0149
:103710000E9496176B017C01F5E5AF2EB12CAC0E23
:10372000BD1EC501B401A301920181010E9413389D
:10373000C50148C00C3809F048C08091DF0890915D
:10374000E0088531910508F425C30E942D170E94D9
:1037500096176B017C010E9496171B012C010E9499
:1037600096174B015C010E949617CB55DF4F68837B
:1037700079838A839B83C55AD0400E94961700D0D4
:1037800000D0E9E66E2E712C6C0E7D1EEDB7FEB7F3
:103790006183728383839483C301B701A60192017D
:1037A000810175016401CB55DF4F88809980AA8023
:1037B000BB80C55AD0400E94DF370F900F900F900A
:1037C0000F90C3010E946C3FE5C20538E9F4809177
:1037D000DF089091E0088530910508F4DBC282E0B3
:1037E00090E09093EB088093EA080E942D170E94C6
:1037F000961728EE33E040E050E00E94AE79AB012E
:10380000BC018CEE98E021C10439B9F58091DF0844
:103810009091E0088530910508F4BCC20E942D17F4
:103820000E942D17809314090E948C178C010E940E
:103830002D17809315090115110581F0B80180E05D
:1038400090E020E432E44FE050E00E94AE79AB011A
:10385000BC018AE099E00E942C7885C08E010B5F44
:103860001F4FC8010E942878AAE0B9E0F8018AE059
:1038700001900D928150E1F776C0053909F088C0BA
:103880008091DF089091E0088630910508F482C2AB
:103890000E942D170E942D17C82E0E942D17882ECA
:1038A0000E942D17A82E0E942D17082FC0FC04C0BF
:1038B00085E59CE00E94E16C8092570CA092580C28
:1038C00041E0C1FE40E085E59CE06DED78E00E94BE
:1038D0006C70002339F0C2FC05C085E59CE0602FC8
:1038E00041E004C085E59CE061E040E00E94256D78
:1038F000E091860BFF27E7FDF095EE0FFF1FE458E0
:10390000F44F20813181FCE025353F0731F08CE315
:103910009BE065E57CE00E947059C2FE3BC200233B
:1039200089F0602F70E080E090E020E432E44FE026
:1039300050E00E94AE79AB01BC018AE099E00E94A0
:103940002C780EC08E01015F1F4FC8010E9428789D
:10395000AAE0B9E0F8018AE001900D928150E1F708
:1039600081E08093140983E999E069E170E04FE018
:1039700050E00E9487318CE39BE0609114090E9423
:10398000B55B86E090E09093EB088093EA0802C272
:10399000802F8358823090F58091DF089091E00865
:1039A0008830910508F4F6C10E942D170E948917EE
:1039B000A82E0E9496176B017C010E948C1723E0B1
:1039C00030E03093EB082093EA08BC0180E090E0FF
:1039D00020E432E44FE050E00E94AE79AB01BC013C
:1039E00086EF98E00E942C7881E0043809F080E0AE
:1039F0006A2DA70196010E946C41CCC1073841F5A0
:103A00008091DF089091E0088630910508F4C2C1EA
:103A100084E090E09093EB088093EA080E942D17D1
:103A20000E942D178093E7080E948C170E948C1724
:103A3000BC0180E090E020E432E44FE050E00E94DE
:103A4000AE79AB01BC0180E099E00E942C78A2C164
:103A50000D3899F48091DF089091E0088630910547
:103A600008F498C185E090E09093EB088093EA0811
:103A70000E942D170E942D17D7CF0F3809F047C08D
:103A80008091DF089091E0088230910508F482C1AE
:103A90000E942D170E9489175EE0A52EB12C00E030
:103AA00010E0882E99244DE7642E712C6C0E7D1E3B
:103AB0006E010894C11CD11CC401002E02C0959552
:103AC00087950A94E2F780FF18C0C3010E94973FD0
:103AD000C301B8010E943538FC0180819181A28127
:103AE000B38189839A83AB83BC83F894C601B50103
:103AF00044E050E00E943C7B78940F5F1F4F84E0CD
:103B000090E0A80EB91E05301105B1F643C1003989
:103B100009F03FC08091DF089091E0088230910564
:103B200008F438C10E942D170E948917C82E31E968
:103B3000A32EB12CAC0EBD1EC5010E94973F2EE0F6
:103B4000622E712C00E010E0DD248A2CAB2CC60123
:103B5000002E02C0959587950A94E2F780FF0CC06D
:103B6000F894882D9A2DB8010E943D38B30144E0A5
:103B700050E00E94267B78940F5F1F4FA4E0B0E0D6
:103B80006A0E7B1E0530110511F7CE018F569F4F2F
:103B900019CE0139A1F48091DF089091E0088230BC
:103BA000910508F4F7C00E942D170E948917082F6D
:103BB0000E948917682F802F0E94EF41EBC00239C5
:103BC00089F58091DF089091E0088230910508F432
:103BD000E1C00E942D170E948917082F0E948917A3
:103BE000C155DF4F8883CF5AD0400E948917C255F4
:103BF000DF4F8883CE5AD0400E948917C82E0E947A
:103C000089178C2D0E94793A802FC155DF4F68812A
:103C1000CF5AD040C255DF4F4881CE5AD0400E9483
:103C2000DD39B8C0033909F58091DF089091E008CB
:103C30008230910508F4AEC00E942D170E948C17A7
:103C4000082F0E948C17C155DF4F8883CF5AD04070
:103C50000E948917802F90E0C155DF4F6881CF5AAD
:103C6000D04070E00E94E83595C0083819F5809181
:103C7000DF089091E0088430910508F48BC08091B2
:103C8000E1089091E2080091DF081091E0080396A6
:103C9000B9010E94CD798E0F9F1FFC01808190E0B9
:103CA00004960817190708F475C00E942D170E9482
:103CB000CC1770C0063999F48091DF089091E00824
:103CC0008230910508F466C00E942D170E94891762
:103CD000082F0E948917802F0E94B4585BC00739B3
:103CE000C9F48091DF089091E0088230910508F4D2
:103CF00051C00E942D170E948917882311F484E077
:103D000006C0813019F40E94C43644C082E00E948B
:103D1000A53640C0083991F48091DF089091E00801
:103D20000097C1F10E942D170E9489170E949522C9
:103D300083E999E060E00E94B7322CC0093979F438
:103D40008091DF089091E008009721F10E942D17E3
:103D50000E9496178DED98E00E94722C1BC00A39C4
:103D6000C9F48091DF089091E008009799F00E94D3
:103D70002D170E942D170E94E1270CC00E94343C91
:103D8000882309F43BCA42CA0E94D842882309F416
:103D90005ACA61CAC155DF4F0FB6F894DEBF0FBED5
:103DA000CDBFCF91DF911F910F91FF90EF90DF90EA
:103DB000CF90BF90AF909F908F907F906F905F90CB
:103DC0004F903F902F90089580E092E09093DE080E
:103DD0008093DD081092E0081092DF081092E2084C
:103DE0001092E1088DED96E09093E4088093E3084B
:103DF0001092E5081092E6088CEE98E00E94287870
:103E000086EF98E00E94287880E099E00E94287868
:103E10008AE099E00E9428780895462FFC0162818B
:103E20006F700E9471540895FC0162816F700E944E
:103E300086540895DF93CF9300D000D000D0CDB743
:103E4000DEB780914211909143119A8389838B81CF
:103E5000807F8B83CE0101960E94141F882379F402
:103E600080914011909141119D838C838E81807F40
:103E700084608E83CE0104960E94141F01C081E0ED
:103E800026960FB6F894DEBF0FBECDBFCF91DF915F
:103E900008950F931F93DF93CF93CDB7DEB72C9781
:103EA0000FB6F894DEBF0FBECDBF8C0180914211DA
:103EB000909143119A8389838B81807F8B83CE017C
:103EC00001960E94141F882391F5809142119091D0
:103ED00043119D838C838E81807F81608E83CE0190
:103EE000049661E00E946017809140119091411109
:103EF00098878F838985807F84608987CE01079624
:103F00000E94141F882321F0C8010E94A21F0FC025
:103F100080914211909143119B878A878C85807F85
:103F200081608C87CE010A9660E00E9460172C9613
:103F30000FB6F894DEBF0FBECDBFCF91DF911F91BA
:103F40000F9108950F931F93DF93CF93CDB7DEB7F3
:103F50002C970FB6F894DEBF0FBECDBF8C018091B9
:103F60004211909143119A8389838B81807F8B8347
:103F7000CE01019660E00E946017809142119091FD
:103F800043119D838C838E81807F8E83CE01049626
:103F900061E00E940D1FF801108280914011909104
:103FA000411198878F838985807F84608987CE01BE
:103FB00007960E94141F882319F0C8010E94491F08
:103FC00080914211909143119B878A878C85807FD5
:103FD00081608C87CE010A9660E00E9460172C9663
:103FE0000FB6F894DEBF0FBECDBFCF91DF911F910A
:103FF0000F9108950F931F93DF93CF93CDB7DEB743
:104000002C970FB6F894DEBF0FBECDBF8C01809108
:104010004211909143119A8389838B81807F8B8396
:10402000CE01019660E00E9460178091421190914C
:1040300043119D838C838E81807F8E83CE01049675
:1040400060E00E940D1F81E0F801808380914011A3
:104050009091411198878F838985807F84608987BB
:10406000CE0107960E94141F882319F0C8010E94F0
:10407000491F80914211909143119B878A878C85BB
:10408000807F81608C87CE010A9660E00E94601775
:104090002C960FB6F894DEBF0FBECDBFCF91DF9147
:1040A0001F910F9108950F931F93DF93CF93CDB777
:1040B000DEB72C970FB6F894DEBF0FBECDBF8C01D4
:1040C00080914211909143119A8389838B81807FE3
:1040D00081608B83CE01019660E00E946017809121
:1040E0004211909143119D838C838E81807F8160EA
:1040F0008E83CE01049661E00E940D1F80914011D5
:104100009091411198878F838985807F846089870A
:10411000CE01079660E00E94601780914011909157
:1041200041119B878A878C85807F84608C87CE0134
:104130000A9660E00E940D1FC8010E94FA1FF80154
:104140001182128213822C960FB6F894DEBF0FBE36
:10415000CDBFCF91DF911F910F910895CF93DF9342
:10416000EC018B81882329F485E00E94A53681E04B
:104170008B83DF91CF9108950F931F93DF93CF939C
:1041800000D00F92CDB7DEB78C01FC018281853162
:1041900028F0C8010E94AE2080E024C08091421126
:1041A000909143119A8389838B81807F8B83CE0189
:1041B00001960E94141F882331F0F8011182828138
:1041C0008F5F82830EC0F8018181863028F0C8019C
:1041D0000E94491FF8011182F80181818F5F81835C
:1041E000128281E00F900F900F90CF91DF911F917D
:1041F0000F910895CF92DF92EF92FF920F931F934A
:10420000CF93DF93EC018B018881882309F463C08D
:104210007E01DC2ECF2CCE0160E00E94A272982F8E
:104220009077903709F057C08037C9F4C8010E94D1
:10423000C27281E0E82EF12C0CC08D2D9C2D6E2DCC
:104240000E94A272682FC8010E9402730894E11CA8
:10425000F11C288130E0E216F3067CF30CC08137B4
:10426000D1F18237C1F1843741F40E94B117C801FE
:1042700061E80E94027381E02FC08637A1F4CE016D
:1042800061E00E94A272E82ECE0162E00E94A2725A
:10429000682FEE2029F483E999E070E00E94513103
:1042A000C80161E816C08737B1F4CE0161E00E9411
:1042B000A272E82EC80161E80E940273EE2039F470
:1042C00083E999E00E942834682FC80102C0C80120
:1042D00060E00E94027380E0DF91CF911F910F9107
:1042E000FF90EF90DF90CF90089586E199E00E94D3
:1042F000BA720895DF93CF9300D0CDB7DEB7BC017B
:1043000081E0898382E38A83CE01019642E050E016
:104310000E943C7B0F900F90CF91DF910895CF9337
:10432000DF93EC0140E050E060EE70E40E94335611
:10433000CE01029646E656E666EA7EE30E943356D2
:10434000CE01049640E050E060E172E40E943356F2
:10435000DF91CF9108950F931F93CF93DF93EB01DC
:104360008B01085E1F4F009719F4CB0167E002C074
:10437000CB0168E30E94467BC80162E30E94467B52
:10438000CE010A960E948F21CE0140960E948F2175
:10439000CE014A960E947A21CE01069664EF71E022
:1043A0000E945C7BCE01029665E070E00E945C7B1F
:1043B000CE01049664EF71E00E945C7BCE0108960A
:1043C0006CE271E00E945C7BDF91CF911F910F91B5
:1043D0000895CF93DF93EC0140EA56E861E070E086
:1043E0000E94547BCE01049649E150E060E070E009
:1043F0000E94547BCE01089643EE5FE060E070E0DF
:104400000E94547BBE01605F7F4F86ED9EE140E5D8
:1044100050E00E943C7BDF91CF9108950F931F9352
:10442000DF93CF9300D00F92CDB7DEB78C0160E061
:104430000E94467BC801029660E00E94467B8FEF97
:1044400089831B821A82B8016C5F7F4FCE0101966F
:1044500043E050E00E943C7B0F900F900F90CF9173
:10446000DF911F910F9108950F931F93DF93CF93C7
:1044700000D000D0CDB7DEB7082F162F80E491E032
:1044800067E04C830E94467B09831A834C814B83EF
:10449000CE01019664E471E043E050E00E943C7B71
:1044A0000F900F900F900F90CF91DF911F910F9170
:1044B0000895EF92FF920F931F93CF93DF937B01A9
:1044C0008C01EA01CA01B7010E945C7BCE0104960F
:1044D000B8010E945C7BDF91CF911F910F91FF90FB
:1044E000EF900895AC016BE770E084EF91E00E94DB
:1044F00059220895CF93DF93EC0161EE70E00E94A2
:104500005C7BCE01029661EE70E00E945C7BCE0186
:1045100004966EE670E00E945C7BCE01069665E034
:104520000E94467BDF91CF910895DF93CF93CDB763
:10453000DEB76D970FB6F894DEBF0FBECDBFDE01BC
:104540001596EEEFF4E085E001900D928150E1F7D1
:1045500081EC93E29A83898384E193ED9C838B833E
:1045600080E092E062E270E044E150E00E943C7B37
:10457000CE01059666E070E045E050E00E943C7B8D
:1045800082E090E06CE00E94467B84E090E06FE97E
:104590000E94467B8CE090E06BE10E94467BDE014E
:1045A0001A96EAEEF4E084E101900D928150E1F771
:1045B00082E490E061E00E949555882341F085EE09
:1045C0009BE2A0E0B0E08A879B87AC87BD87CE01E5
:1045D0000A966EE070E044E150E00E943C7B84E784
:1045E00090E00E94E92188E591E00E947A22CE01C4
:1045F000019664E470E044E050E00E943C7B80E07F
:1046000090E060E071E00E94AB2181E090E06CE11D
:1046100071E00E94AB2180E491E00E940E228AE4C6
:1046200091E00E9472226D960FB6F894DEBF0FBE25
:10463000CDBFCF91DF9108951F93DF93CF93CDB777
:10464000DEB764970FB6F894DEBF0FBECDBF182F4C
:10465000833008F011E082E490E0612F0E94467BF5
:10466000DE011196E6EDF4E084E101900D928150B7
:10467000E1F7113041F485EE9BE2A0E0B0E08983E0
:104680009A83AB83BC83CE0101966EE070E044E177
:1046900050E00E943C7B64960FB6F894DEBF0FBEDC
:1046A000CDBFCF91DF911F91089582E490E061E04A
:1046B0000E94955591E0813009F090E0892F08958E
:1046C00081E00E941C2380E491E00E940E228AE493
:1046D00091E00E94722288E591E00E947A2208957A
:1046E00082E490E061E00E94467B86E591E060E034
:1046F0000E94467B0E94952208955F926F927F925E
:104700008F929F92AF92BF92CF92DF92EF92FF92E1
:104710000F931F93DF93CF93CDB7DEB72F970FB6CD
:10472000F894DEBF0FBECDBF3C01562E2F833887D5
:104730004987EA86FB860C87AD86BE86CF86809148
:104740003C1190913D119A8389832B81207F2260B7
:104750002B839D838C838E81807F85608E83C301B4
:10476000BE01635F7F4FAE014F5F5F4F9E012C5FC5
:104770003F4F0E94057887E095E0F3019687858793
:10478000578690E1C92ED12CC60CD71CA301435FDC
:104790005F4F8AE0E82EF12CE80CF91CC601B3014A
:1047A00000E211EA27E030E00E942157D301AA5A23
:1047B000BF4FFE01379683E001900D928150E1F7E3
:1047C000F301E75AFF4F5082A401465E5F4FC301D9
:1047D000865A9F4FB6010A851B852C850E94455538
:1047E000F301EC59FF4F918280822F960FB6F89417
:1047F000DEBF0FBECDBFCF91DF911F910F91FF9014
:10480000EF90DF90CF90BF90AF909F908F907F9070
:104810006F905F9008950F931F93CF93DF93EC01F8
:104820008C010A5A1F4FC80160E00E946017C8013E
:1048300061E00E940D1FCE0140960E946E56CE018F
:104840000E946C77CE01865A9F4F0E941B55DF91C4
:10485000CF911F910F910895CF93DF93EC01409674
:104860000E94A757CE01865A9F4F0E94F954DF91AC
:10487000CF910895865A9F4F662319F00E94EB54FA
:1048800008950E9416550895882321F08091800094
:10489000806803C0809180008F73809380000895AA
:1048A000882321F08091A000806803C08091A0003F
:1048B0008F738093A00008950F931F93DF93CF937E
:1048C00000D000D000D0CDB7DEB7062F1FB7F894C8
:1048D000FC018281882309F5862F81508E3FA0F04C
:1048E00080E00E94502480914211909143119A835C
:1048F00089838B81807F83608B8361E00F3F09F028
:1049000060E0CE01019622C070E07093A900609330
:10491000A80081E00E94502424C0813011F5862F28
:1049200081508E3FB0F080E00E9444248091361187
:10493000909137119D838C838E81807F85608E83DB
:1049400061E00F3F09F060E0CE0104960E9460171D
:1049500008C070E0709389006093880081E00E9435
:1049600044241FBF26960FB6F894DEBF0FBECDBFFE
:10497000CF91DF911F910F910895CF93DF93EC01B9
:104980000E947C1791E089270E947517CE0161E88B
:104990000E940273DF91CF910895FC0183A194A13D
:1049A000009741F023A134A181E02430310519F4AE
:1049B00080E0089580E00895CF92DF92EF92FF9219
:1049C0000F931F93CF93DF93EC018B018881882392
:1049D00099F17E01DC2ECF2CCE0160E00E94A27204
:1049E00087FF2AC00E94F03B882321F0CE010E945D
:1049F000F33B08C00E94ED3B882321F40E94D5427E
:104A0000882321F1C80161E80E94027313C08D2D33
:104A10009C2D6C2F0E94A2720E94C0182196CE1568
:104A2000DF05ACF3C80161E802C0C80162E80E947A
:104A30000273789481E001C080E0DF91CF911F91F3
:104A40000F91FF90EF90DF90CF900895F894E88059
:104A50000E946717FF248E159F0538F3C0E0D0E051
:104A6000DECF0895CF93DF93EB0161E00E94A77240
:104A70008A31910540F4CE0161E80E940273CE01B3
:104A800060E070E007C0CE0161E80E940273CE01D1
:104A900064E971E00E940573DF91CF9108959F92C0
:104AA000AF92BF92CF92DF92EF92FF920F931F933C
:104AB000DF93CF93CDB7DEB765970FB6F894DEBF1F
:104AC0000FBECDBF6B01F8948E010F5F1F4FC80161
:104AD0000E94973FC60161E80E940273C80160E02E
:104AE00070E00E943538FC01408151816281738100
:104AF000C6010E941B73C80161E070E00E94353856
:104B0000FC014081518162817381C6010E941B7347
:104B1000C80162E070E00E943538FC01408151819B
:104B200062817381C6010E941B7302E010E060E0A5
:104B30008DE1A82EB12C0A9D70010B9DF00C1A9DE1
:104B4000F00C112483E999E0E80EF91E962E990CD9
:104B5000990CC7010E942375882311F022E001C03F
:104B600020E0C7012D8B0E943F752D89622F692996
:104B7000682B015010409FEF0F3F1907E1F6C60167
:104B80000E940273789465960FB6F894DEBF0FBE4C
:104B9000CDBFCF91DF911F910F91FF90EF90DF90EC
:104BA000CF90BF90AF909F9008959F92AF92BF9289
:104BB000CF92DF92EF92FF920F931F93DF93CF93E9
:104BC000CDB7DEB765970FB6F894DEBF0FBECDBF89
:104BD0008B01F8947E010894E11CF11CC7010E942E
:104BE000973FC80161E80E940273C70160E070E06E
:104BF0000E943538FC014081518162817381C80176
:104C00000E941B73C70161E070E00E943538FC010F
:104C10004081518162817381C8010E941B73C70169
:104C200062E070E00E943538FC0140815181628170
:104C30007381C8010E941B73C70163E070E00E948A
:104C40003538FC014081518162817381C8010E9425
:104C50001B73C70164E070E00E943538FC0140819D
:104C6000518162817381C8010E941B7324E0C22EAE
:104C7000D12C60E09DE1A92EB12CCA9C7001CB9C87
:104C8000F00CDA9CF00C112483E999E0E80EF91E8F
:104C9000962E990C990CC7010E942375882311F058
:104CA00022E001C020E0C7012D8B0E943F752D89B5
:104CB000622F6929682B0894C108D1089FEFC91693
:104CC0009FEFD906D1F6C80170E00E940573789471
:104CD00065960FB6F894DEBF0FBECDBFCF91DF91C2
:104CE0001F910F91FF90EF90DF90CF90BF90AF900A
:104CF0009F9008950F931F93CF93DF93EB018C0147
:104D00000D5F1F4FCB0161E80E940273C8010E9432
:104D1000133D682FCE010E940273DF91CF911F9146
:104D20000F910895CF92DF92EF92FF920F931F930E
:104D3000DF93CF93CDB7DEB76F970FB6F894DEBF92
:104D40000FBECDBF7C018B01CB0161E80E940273D5
:104D5000C70161E00E94A272882349F00E94563D7B
:104D6000BC01009721F0C8010E9402732AC07E0195
:104D70000894E11CF11CC7016FE140E050E00E9483
:104D8000F43ABC018981882329F06115710511F479
:104D90008E3289F3C8010E9402737E010894E11CDF
:104DA000F11C30E2C32ED12CCC0EDD1EF701619137
:104DB0007F01662331F0C8010E940273EC14FD04E8
:104DC000A9F7C80160E00E9402736F960FB6F894CD
:104DD000DEBF0FBECDBFCF91DF911F910F91FF902E
:104DE000EF90DF90CF9008958F929F92AF92BF92F5
:104DF000CF92DF92EF92FF920F931F93DF93CF93A7
:104E0000CDB7DEB7A82EE92E6B018DB69EB661E058
:104E10000E94A7728C018A2D9E2D63E00E94A272CF
:104E2000482FA82EBB248DB79EB78A199B090FB6B1
:104E3000F8949EBF0FBE8DBFEDB6FEB60894E11C80
:104E4000F11CC701B80150E00E94267BC60161E851
:104E50000E94027300E010E008C0F70161917F0139
:104E6000C6010E9402730F5F1F4F0A151B05ACF3AA
:104E70000FB6F8949EBE0FBE8DBECF91DF911F91ED
:104E80000F91FF90EF90DF90CF90BF90AF909F90E9
:104E90008F9008952F923F924F925F926F927F92E0
:104EA0008F929F92AF92BF92CF92DF92EF92FF923A
:104EB0000F931F93DF93CF930F92CDB7DEB7C82E1A
:104EC000B92E4B012DB63EB661E00E94A772A82E06
:104ED000792E8C2D9B2D63E00E94A272D82E482E35
:104EE00055248DB79EB7841995090FB6F8949EBFC7
:104EF0000FBE8DBF0DB71EB70F5F1F4F602E1983FA
:104F0000C8016A2D772D4D2D50E00E94267BE02EA2
:104F1000F12E00E010E00BC0602F6C5F8C2D9B2DFC
:104F20000E94A272F70181937F010F5F1F4F04154A
:104F3000150594F3862D99816A2D772D4D2D50E01E
:104F40000E943C7BC40161E80E940273C4016D2D84
:104F50000E9402730FB6F8943EBE0FBE2DBE0F9096
:104F6000CF91DF911F910F91FF90EF90DF90CF9045
:104F7000BF90AF909F908F907F906F905F904F9079
:104F80003F902F9008950F931F93CF93DF93EB01E2
:104F900061E00E94A272082F80FF02C00E94673F5A
:104FA00001FF02C00E94B117CE0161E80E940273A6
:104FB000CE0160E00E940273DF91CF911F910F91AB
:104FC00008951092900910928F0908950F931F93DE
:104FD000CF93DF9380915009882379F400E519E09D
:104FE000C2E2D0E0CE0160E00E949555F8018193C5
:104FF0008F012196C234D105A9F7809150098823E9
:1050000069F4A0E5B9E080E090E0FC01EC59FE4FC6
:10501000E491ED9301968E309105B9F780E599E022
:10502000DF91CF911F910F91089580E799E0089546
:1050300080918F0990919009089580E799E00E94EE
:10504000DF3C9C01009731F482E090E0909390095E
:1050500080938F09C9010895CF92DF92EF92FF925A
:105060000F931F93CF93DF936C017B01CB0161E81A
:105070000E94027300E719E0C1E0D0E008C0C60159
:105080006C2F0E94A272F80181938F012196F60184
:10509000808190E0C817D90794F310928E090E947E
:1050A0001D28682FC7010E940273DF91CF911F91C5
:1050B0000F91FF90EF90DF90CF9008950E940043F2
:1050C000882331F085E090E09093900980938F09D8
:1050D000089580918F09909190098130910571F424
:1050E00084E090E09093900980938F0986E499E0A2
:1050F00040E452E46FE070E00E942C7881E08093FD
:10510000910908952F923F924F925F927F928F92D2
:105110009F92AF92BF92CF92DF92EF92FF920F9346
:105120001F93DF93CF93CDB7DEB72C970FB6F894CC
:10513000DEBF0FBECDBF8C017C876B87FC018081F9
:10514000882309F4A9C1702E812EC80161E00E9454
:10515000A272982EC80162E00E94A272E82FF0E0CD
:10516000E632F10508F098C1EE58FF4FEE0FFF1F31
:105170000590F491E02D09948B859C8561E80E944F
:1051800002738B859C8564E971E083C18B859C8566
:1051900061E80E9402730FE012E0F801E1908F01D4
:1051A0008B859C856E2D0E940273EE2009F476C1DA
:1051B000F2E00E321F0789F771C181E080939109F7
:1051C00030C08B859C8561E80E940273892D8130F7
:1051D00019F0992031F009C003EAE02E0AE0F02E20
:1051E00004C01DE3E12E1AE0F12EC701409676C0FF
:1051F000992D913019F0992031F009C0B3EACB2EE6
:10520000BAE0DB2E04C0ADE3CA2EAAE0DA2E872D69
:10521000982D62E00E94A772BC01C60140960E94D0
:1052200051578B859C8561E8C8C0C8016B857C851A
:105230000E94F42633C1C8016B857C850E944A27F1
:105240002DC18B859C850E94BD2428C1E92DE130AC
:1052500019F0992031F009C0F3EAAF2EFAE0BF2E21
:1052600004C0EDE3AE2EEAE0BE2E872D982D62E05D
:105270000E94A272682F70E061707070C5010E9478
:105280003A24CFCF802F912F63E00E94A272682F23
:1052900070E06170707083E999E00E947B35FEC018
:1052A0008B859C8561E80E940273F92DF13019F01D
:1052B000992031F009C073EA472E7AE0572E04C0D6
:1052C0006DE3462E6AE0562EC201409632C08B85B1
:1052D0009C8561E80E9402738DEC9CE00E946F57F0
:1052E000D5C08B859C8561E80E940273892D813031
:1052F00019F0992031F009C053EA252E5AE0352ED5
:1053000004C04DE3242E4AE0342EC101409607C06C
:105310008B859C8561E80E9402738DEC9CE00E9465
:105320006B57B4C08B859C8561E80E9402738DEC3D
:105330009CE00E945557682F3EC08B859C8561E894
:105340000E940273992D913019F0992031F009C013
:10535000E3EAFAE0FA83E98304C08DE39AE09A83F2
:10536000898389819A8140960E945B58882311F035
:1053700000E801C000E08DEC9CE00E945B588823AF
:1053800011F080E401C080E0082B992D913019F0D4
:10539000992031F009C0E3EAFAE0FC83EB8304C012
:1053A0008DE39AE09C838B838B819C8140960E9445
:1053B0005557602F682B8B859C850E9402736EC0A9
:1053C0008B859C8561E80E940273992D913019F0BC
:1053D000992031F009C0E3EAFAE0FE83ED8304C0CE
:1053E0008DE39AE09E838D838D819E8140960E94FD
:1053F0007757BC018B859C850E940573992D913050
:1054000019F0992031F009C0E3EAFAE0F887EF8358
:1054100004C08DE39AE098878F838F8198854096AA
:105420000E947B57BC018B859C850E940573992D3A
:10543000913019F0992031F009C0E3EAFAE0FA87D7
:10544000E98704C08DE39AE09A87898789859A85E0
:1054500040960E947F57BC018B859C850E940573F6
:105460008DEC9CE00E947757BC018B859C850E9447
:1054700005738DEC9CE00E947B57BC018B859C855D
:105480000E9405738DEC9CE00E947F57BC018B85C8
:105490009C850E94057302C080E001C081E02C96CB
:1054A0000FB6F894DEBF0FBECDBFCF91DF911F9135
:1054B0000F91FF90EF90DF90CF90BF90AF909F90B3
:1054C0008F907F905F904F903F902F900895EF9234
:1054D000FF920F931F93CF93DF938C01EB01FC019D
:1054E0008081882309F4CBC0C80160E00E94A272C9
:1054F00087FDC5C0E82FF0E0EA31F10508F0BFC034
:10550000E856FF4FEE0FFF1F0590F491E02D099430
:10551000C801BE010E943225B4C0CE0161E80E94DC
:10552000027380E7E82E89E0F82E8701CE01F701AB
:1055300061917F010E940273F8018081882309F440
:10554000A0C0FFE8EF16F9E0FF0679F79AC0809156
:105550008F09909190099C012150304022303105F3
:1055600018F08530910531F483E999E064E070E04A
:105570000E94513181E080939109CE0161E80E943F
:1055800002737FC0CE0161E80E9402730E94671718
:10559000AC0160E070E017C0C801BE010E944F2559
:1055A00070C0C801BE010E94D5256BC0C801BE01F4
:1055B0000E947A2666C0CE0161E80E9402730E94B2
:1055C000883CAB01BC01CE0157C0C801BE010E949E
:1055D0002C2857C0C801BE010E94922652C0CE019D
:1055E0000E94BD244EC0C801BE010E94822849C04D
:1055F000CE0161E80E940273F8940E940B3F882359
:1056000021F40E947F17882311F460E001C061E05B
:10561000CE010E940273789434C0C801BE010E947A
:10562000F4262FC0C801BE010E944A272AC0C80123
:10563000BE010E94C32725C0CE0161E80E9402730B
:10564000CE0140E050E0BA010E941B73CE0140E061
:1056500050E0BA010E941B73CE0140E050E0BA0155
:105660000E941B73CE0140E050E0BA010E941B7300
:10567000CE0140E050E0BA010E941B7302C080E0FE
:1056800001C081E0DF91CF911F910F91FF90EF90CA
:1056900008950F931F93DF93CF93CDB7DEB72A976B
:1056A0000FB6F894DEBF0FBECDBF8BE891E10E942C
:1056B000CD24882309F0E4C080914609882309F4A9
:1056C000DDC086E499E00E944978882309F0D6C0BD
:1056D0008E010F5F1F4FC8010E942878A6E4B9E031
:1056E000F8018AE001900D928150E1F78FEF99E681
:1056F000A8E181509040A040E1F700C0000001E027
:1057000080919109882399F0002389F410929109DE
:10571000809192090E94E32C109292098CE399E007
:105720000E946C781092500910927009A2C080916A
:10573000881190918911009709F1809188119091B9
:10574000891184309105D1F080913C09882349F476
:105750008CE399E040E25EE460E070E00E942C7827
:105760000DC08CE399E00E944978882339F085E6E2
:1057700091E10E943F7284E08093871180918711AC
:10578000882399F080918711843029F483E999E086
:1057900060E070E004C083E999E063E070E00E949B
:1057A000513185E691E10E944D728091881190916E
:1057B00089118430910509F042C08CE399E00E9480
:1057C0006C788BE891E10E94C272002361F08BE853
:1057D00091E169E80E94027383E999E066E070E074
:1057E0000E94513124C080918F0990919009863098
:1057F0009105C1F085E691E16BE871E10E94FA2024
:105800008823A9F485E691E16BE871E10E94DC242C
:10581000882369F485E691E16BE871E10E94672ACB
:10582000882329F48BE891E165E80E94027385E6FC
:1058300091E10E944D7281E691E10E94CF788091C2
:105840008F09909190098230910541F40E94ED3BBF
:10585000882321F41092900910928F0980918F096A
:10586000909190098530910559F40E94D542882382
:1058700039F41092900910928F0902C000E040CFD5
:105880002A960FB6F894DEBF0FBECDBFCF91DF9141
:105890001F910F910895CF93DF93FC018281938133
:1058A000009721F481E0818780E019C0848195818F
:1058B00020813181B9010E94CD79C681D781C80F7D
:1058C000D91F848195810196B9010E94CD79958374
:1058D0008483828193810197938382838881DF917E
:1058E000CF910895DF92EF92FF920F931F93DF9372
:1058F000CF93CDB7DEB76F970FB6F894DEBF0FBE6C
:10590000CDBF7C0180918F099091900981309105E4
:1059100091F1823091051CF4009739F13DC082303D
:10592000910521F085309105B9F525C0DD248E0162
:105930000F5F1F4FC7010E944B2CF801ED0DF11DA9
:105940008083D394FE01ED0DF11D8081882391F7B2
:10595000C80168E172E00E94EE7A0097E9F080E702
:1059600099E0B8010E94F77A17C081E090E0909327
:10597000900980938F0900E0C7010E944B2CE02F13
:10598000F0E0E059F64F80830F5FE02FF0E0E1593F
:10599000F64F8081882381F76F960FB6F894DEBFAB
:1059A0000FBECDBFCF91DF911F910F91FF90EF9070
:1059B000DF9008958CE399E00E94287886E499E0CE
:1059C0000E9428780895DF93CF930F92CDB7DEB76A
:1059D000682FF89484B7662349F088E10FB6F894ED
:1059E00080936000109260000FBE14BE69830E9415
:1059F000573C0E94673F0E94B1170E9467550E9462
:105A0000657783E999E069810E94B73278940F90B5
:105A1000CF91DF91089583E999E00E94143F81E0DE
:105A20000E94E32C78940E94492B0E94C61883E9B7
:105A300099E00E94C931F7CFCF93DF93EC010E9428
:105A400061548A81807F8A83CE0103960E946154CB
:105A50008D81807F8D83CE0106960E94615488855A
:105A6000807F8887CE0109960E9461548B85807F54
:105A70008B87CE010C960E9461548E85807F8E8725
:105A8000CE010F960E9461548989807F898BDF91B6
:105A9000CF910895CF93DF93EC0102960E9428786E
:105AA000CE010C960E942878CE0146960E94287856
:105AB000DF91CF910895CF93DF93EC018EE796E0CD
:105AC00099838883CE0103960E94CD6ECE010B96FA
:105AD0000E94A76CCE0142960E94936CCE0149961B
